{"abi":[{"type":"constructor","inputs":[{"name":"stakeERC20","type":"address","internalType":"contract IERC20"},{"name":"stakeERC721","type":"address","internalType":"contract IERC721"},{"name":"rewardToken","type":"address","internalType":"contract IERC20"},{"name":"rewarder","type":"address","internalType":"address"},{"name":"metadata","type":"bytes32","internalType":"bytes32"}],"stateMutability":"nonpayable"},{"type":"function","name":"addReward","inputs":[{"name":"poolId","type":"uint256","internalType":"uint256"},{"name":"rewardToken","type":"address","internalType":"contract IERC20"},{"name":"rewardAmount","type":"uint256","internalType":"uint256"},{"name":"claimAfterBlocks","type":"uint256","internalType":"uint256"},{"name":"isForERC721Stakers","type":"bool","internalType":"bool"}],"outputs":[{"name":"rewardId","type":"uint256","internalType":"uint256"}],"stateMutability":"nonpayable"},{"type":"function","name":"blocksToReward","inputs":[{"name":"poolId","type":"uint256","internalType":"uint256"},{"name":"rewardId","type":"uint256","internalType":"uint256"}],"outputs":[{"name":"","type":"uint256","internalType":"uint256"}],"stateMutability":"view"},{"type":"function","name":"calculateReward","inputs":[{"name":"staker","type":"address","internalType":"address"},{"name":"poolId","type":"uint256","internalType":"uint256"},{"name":"rewardId","type":"uint256","internalType":"uint256"}],"outputs":[{"name":"","type":"address","internalType":"contract IERC20"},{"name":"","type":"uint256","internalType":"uint256"}],"stateMutability":"view"},{"type":"function","name":"checkRewardStatus","inputs":[{"name":"staker","type":"address","internalType":"address"},{"name":"poolId","type":"uint256","internalType":"uint256"},{"name":"rewardId","type":"uint256","internalType":"uint256"}],"outputs":[{"name":"token","type":"address","internalType":"contract IERC20"},{"name":"amount","type":"uint256","internalType":"uint256"},{"name":"claimed","type":"bool","internalType":"bool"}],"stateMutability":"view"},{"type":"function","name":"claimRewards","inputs":[{"name":"poolIds","type":"uint256[]","internalType":"uint256[]"},{"name":"rewardIds","type":"uint256[][]","internalType":"uint256[][]"},{"name":"recipient","type":"address","internalType":"address"}],"outputs":[{"name":"tokens","type":"address[][]","internalType":"contract IERC20[][]"},{"name":"amounts","type":"uint256[][]","internalType":"uint256[][]"}],"stateMutability":"nonpayable"},{"type":"function","name":"editPool","inputs":[{"name":"poolId","type":"uint256","internalType":"uint256"},{"name":"metadata","type":"bytes32","internalType":"bytes32"}],"outputs":[],"stateMutability":"nonpayable"},{"type":"function","name":"getPool","inputs":[{"name":"poolId","type":"uint256","internalType":"uint256"}],"outputs":[{"name":"","type":"tuple","internalType":"struct IStaqeStructs.Pool","components":[{"name":"stakeERC20","type":"address","internalType":"contract IERC20"},{"name":"stakeERC721","type":"address","internalType":"contract IERC721"},{"name":"rewardToken","type":"address","internalType":"contract IERC20"},{"name":"rewarder","type":"address","internalType":"address"},{"name":"metadata","type":"bytes32","internalType":"bytes32"},{"name":"totalStakedERC20","type":"uint256","internalType":"uint256"},{"name":"totalStakedERC721","type":"uint256","internalType":"uint256"},{"name":"launchBlock","type":"uint256","internalType":"uint256"}]}],"stateMutability":"view"},{"type":"function","name":"getReward","inputs":[{"name":"poolId","type":"uint256","internalType":"uint256"},{"name":"rewardId","type":"uint256","internalType":"uint256"}],"outputs":[{"name":"rewardDetails","type":"tuple","internalType":"struct IStaqeStructs.Reward","components":[{"name":"isForERC721Stakers","type":"bool","internalType":"bool"},{"name":"rewardToken","type":"address","internalType":"contract IERC20"},{"name":"rewardAmount","type":"uint256","internalType":"uint256"},{"name":"totalStaked","type":"uint256","internalType":"uint256"},{"name":"claimAfterBlocks","type":"uint256","internalType":"uint256"},{"name":"rewardBlock","type":"uint256","internalType":"uint256"}]}],"stateMutability":"view"},{"type":"function","name":"getRewards","inputs":[{"name":"poolId","type":"uint256","internalType":"uint256"}],"outputs":[{"name":"","type":"tuple[]","internalType":"struct IStaqeStructs.Reward[]","components":[{"name":"isForERC721Stakers","type":"bool","internalType":"bool"},{"name":"rewardToken","type":"address","internalType":"contract IERC20"},{"name":"rewardAmount","type":"uint256","internalType":"uint256"},{"name":"totalStaked","type":"uint256","internalType":"uint256"},{"name":"claimAfterBlocks","type":"uint256","internalType":"uint256"},{"name":"rewardBlock","type":"uint256","internalType":"uint256"}]}],"stateMutability":"view"},{"type":"function","name":"getStake","inputs":[{"name":"staker","type":"address","internalType":"address"},{"name":"poolId","type":"uint256","internalType":"uint256"},{"name":"stakeId","type":"uint256","internalType":"uint256"}],"outputs":[{"name":"stakeDetails","type":"tuple","internalType":"struct IStaqeStructs.Stake","components":[{"name":"amountERC20","type":"uint256","internalType":"uint256"},{"name":"idERC721","type":"uint256","internalType":"uint256"},{"name":"stakeBlock","type":"uint256","internalType":"uint256"},{"name":"unstakeBlock","type":"uint256","internalType":"uint256"}]}],"stateMutability":"view"},{"type":"function","name":"getStakes","inputs":[{"name":"staker","type":"address","internalType":"address"},{"name":"poolId","type":"uint256","internalType":"uint256"}],"outputs":[{"name":"","type":"tuple[]","internalType":"struct IStaqeStructs.Stake[]","components":[{"name":"amountERC20","type":"uint256","internalType":"uint256"},{"name":"idERC721","type":"uint256","internalType":"uint256"},{"name":"stakeBlock","type":"uint256","internalType":"uint256"},{"name":"unstakeBlock","type":"uint256","internalType":"uint256"}]}],"stateMutability":"view"},{"type":"function","name":"getTotalPools","inputs":[],"outputs":[{"name":"","type":"uint256","internalType":"uint256"}],"stateMutability":"view"},{"type":"function","name":"getTotalRewards","inputs":[{"name":"poolId","type":"uint256","internalType":"uint256"}],"outputs":[{"name":"","type":"uint256","internalType":"uint256"}],"stateMutability":"view"},{"type":"function","name":"getTotalStakes","inputs":[{"name":"staker","type":"address","internalType":"address"},{"name":"poolId","type":"uint256","internalType":"uint256"}],"outputs":[{"name":"","type":"uint256","internalType":"uint256"}],"stateMutability":"view"},{"type":"function","name":"isActiveStaker","inputs":[{"name":"staker","type":"address","internalType":"address"},{"name":"poolId","type":"uint256","internalType":"uint256"}],"outputs":[{"name":"","type":"bool","internalType":"bool"}],"stateMutability":"view"},{"type":"function","name":"isERC721","inputs":[{"name":"contractAddress","type":"address","internalType":"address"}],"outputs":[{"name":"","type":"bool","internalType":"bool"}],"stateMutability":"view"},{"type":"function","name":"launchPool","inputs":[{"name":"stakeERC20","type":"address","internalType":"contract IERC20"},{"name":"stakeERC721","type":"address","internalType":"contract IERC721"},{"name":"rewardToken","type":"address","internalType":"contract IERC20"},{"name":"rewarder","type":"address","internalType":"address"},{"name":"metadata","type":"bytes32","internalType":"bytes32"}],"outputs":[{"name":"poolId","type":"uint256","internalType":"uint256"}],"stateMutability":"nonpayable"},{"type":"function","name":"stake","inputs":[{"name":"poolId","type":"uint256","internalType":"uint256"},{"name":"amount","type":"uint256","internalType":"uint256"},{"name":"id","type":"uint256","internalType":"uint256"}],"outputs":[{"name":"stakeId","type":"uint256","internalType":"uint256"}],"stateMutability":"nonpayable"},{"type":"function","name":"unstake","inputs":[{"name":"poolId","type":"uint256","internalType":"uint256"},{"name":"stakeIds","type":"uint256[]","internalType":"uint256[]"}],"outputs":[{"name":"amountERC20","type":"uint256","internalType":"uint256"},{"name":"idsERC721","type":"uint256[]","internalType":"uint256[]"}],"stateMutability":"nonpayable"},{"type":"event","name":"PoolEdited","inputs":[{"name":"poolId","type":"uint256","indexed":true,"internalType":"uint256"},{"name":"metadata","type":"bytes32","indexed":false,"internalType":"bytes32"}],"anonymous":false},{"type":"event","name":"PoolLaunched","inputs":[{"name":"poolId","type":"uint256","indexed":true,"internalType":"uint256"},{"name":"stakeERC20","type":"address","indexed":true,"internalType":"contract IERC20"},{"name":"stakeERC721","type":"address","indexed":true,"internalType":"contract IERC721"},{"name":"rewardToken","type":"address","indexed":false,"internalType":"contract IERC20"},{"name":"rewarder","type":"address","indexed":false,"internalType":"address"},{"name":"metadata","type":"bytes32","indexed":false,"internalType":"bytes32"}],"anonymous":false},{"type":"event","name":"RewardAdded","inputs":[{"name":"poolId","type":"uint256","indexed":true,"internalType":"uint256"},{"name":"rewardId","type":"uint256","indexed":true,"internalType":"uint256"},{"name":"rewardToken","type":"address","indexed":true,"internalType":"contract IERC20"},{"name":"rewardAmount","type":"uint256","indexed":false,"internalType":"uint256"},{"name":"totalStakedERC20","type":"uint256","indexed":false,"internalType":"uint256"},{"name":"totalStakedERC721","type":"uint256","indexed":false,"internalType":"uint256"},{"name":"isForERC721Stakers","type":"bool","indexed":false,"internalType":"bool"},{"name":"claimAfterBlock","type":"uint256","indexed":false,"internalType":"uint256"}],"anonymous":false},{"type":"event","name":"RewardClaimed","inputs":[{"name":"claimant","type":"address","indexed":true,"internalType":"address"},{"name":"poolId","type":"uint256","indexed":true,"internalType":"uint256"},{"name":"rewardId","type":"uint256","indexed":true,"internalType":"uint256"},{"name":"rewardToken","type":"address","indexed":false,"internalType":"contract IERC20"},{"name":"rewardAmount","type":"uint256","indexed":false,"internalType":"uint256"}],"anonymous":false},{"type":"event","name":"StakeCreated","inputs":[{"name":"staker","type":"address","indexed":true,"internalType":"address"},{"name":"poolId","type":"uint256","indexed":true,"internalType":"uint256"},{"name":"stakeId","type":"uint256","indexed":true,"internalType":"uint256"},{"name":"stakeAmountERC20","type":"uint256","indexed":false,"internalType":"uint256"},{"name":"stakeAmountERC721","type":"uint256","indexed":false,"internalType":"uint256"}],"anonymous":false},{"type":"event","name":"StakeWithdrawn","inputs":[{"name":"staker","type":"address","indexed":true,"internalType":"address"},{"name":"poolId","type":"uint256","indexed":true,"internalType":"uint256"},{"name":"stakeAmountERC20","type":"uint256","indexed":false,"internalType":"uint256"},{"name":"stakeAmountERC721","type":"uint256","indexed":false,"internalType":"uint256"}],"anonymous":false},{"type":"error","name":"InvalidAmountOrId","inputs":[]},{"type":"error","name":"InvalidERC721Token","inputs":[]},{"type":"error","name":"InvalidMetadata","inputs":[]},{"type":"error","name":"InvalidRewardToken","inputs":[]},{"type":"error","name":"InvalidStakeToken","inputs":[]},{"type":"error","name":"OnlyAvailableToStakersInGenesis","inputs":[]},{"type":"error","name":"OnlyRewinderHasAccessToAddRewards","inputs":[]},{"type":"error","name":"OnlyRewinderHasAccessToEditMetadata","inputs":[]},{"type":"error","name":"PoolDoesNotExist","inputs":[]},{"type":"error","name":"PoolDoesNotHaveStakes","inputs":[]},{"type":"error","name":"ReentrancyGuardReentrantCall","inputs":[]},{"type":"error","name":"RewardAlreadyClaimed","inputs":[]},{"type":"error","name":"RewardIsEmpty","inputs":[]},{"type":"error","name":"RewardIsNotYetAvailableForClaim","inputs":[]},{"type":"error","name":"RewardNotFoundInPool","inputs":[]},{"type":"error","name":"RewardTransferFailed","inputs":[]},{"type":"error","name":"StakeTransferFailed","inputs":[]},{"type":"error","name":"StakerDoesNotHaveStakesInPool","inputs":[]},{"type":"error","name":"UnstakeOnNextBlockAndGetReward","inputs":[]},{"type":"error","name":"UnstakeTransferFailed","inputs":[]}],"bytecode":{"object":"0x6080346200017057601f620026cc38819003918201601f19168301916001600160401b03918284118585101762000175578160a09286926040968752833981010312620001705762000051836200018b565b602084015190936001600160a01b03808316928390036200017057620000798583016200018b565b916060810151908282168092036200017057608001519060009460018655875196610100880190888210908211176200015c57889985916007999a52168852602088019081528389890195168552606088019182526080880192835260a088019386855260c0890195878752818b60e08c0199438b528080526002602052209a51169260018060a01b031993848c5416178b558260018c01915116848254161790558160028b01915116838254161790556003890192511690825416179055516004860155516005850155516006840155519101555161252b9081620001a18239f35b634e487b7160e01b87526041600452602487fd5b600080fd5b634e487b7160e01b600052604160045260246000fd5b51906001600160a01b0382168203620001705756fe608080604052600436101561001357600080fd5b60003560e01c908163068bcd8d14611bac57508063118ea1af14611b645780632c32c36014611b30578063395de242146116055780634cb8a68b14611511578063552164ee146114e55780636e8639f3146114be5780637ebfee3e1461119657806399a47faa14610ac7578063a638f2e214610800578063a946b3d0146106a8578063b90bc519146105e8578063ba2b665114610403578063bab5c8ca146103e2578063c0d8012c146102ed578063d33560e614610225578063d3ffe67a14610207578063daa09e54146101da5763e964a1a5146100f057600080fd5b346101d55760403660031901126101d55760043560243561010f6124d2565b81600052600260205260406000206007810154156101c35760048101908282541480156101bb575b6101a957600301546001600160a01b0316801590811561019e575b5061018c57817f714674aaab7ecdeba0ba39a4f15a46228e6047a135c6307b31659ec0d22205c59260209255604051908152a26001600055005b6040516327e1476760e01b8152600490fd5b905033141538610152565b604051635e765b2560e11b8152600490fd5b508215610137565b6040516302721e1f60e61b8152600490fd5b600080fd5b346101d55760203660031901126101d55760206101fd6101f8611cb8565b612478565b6040519015158152f35b346101d55760003660031901126101d5576020600154604051908152f35b346101d557608061023536611ce4565b60405191929161024481611d5b565b600081526000602082015260006040820152600060608201529160018060a01b03169283600052600460205260406000208160005260205260406000205482106102b8575b84836102b66040518092606080918051845260208101516020850152604081015160408501520151910152565bf35b6102df92506102e59360005260046020526040600020906000526020526040600020611eab565b50611ec7565b808380610289565b346101d5576020806003193601126101d55760043560005260038152604060002090815461031a81611d99565b906103286040519283611d77565b8082528282018094600052836000206000915b8383106103c55760408051878152865181890181905289928201908960005b8281106103675784840385f35b9091928260c0826103b66001948a5160a08091805115158452600180831b0360208201511660208501526040810151604085015260608101516060850152608081015160808501520151910152565b0196019101949291909461035a565b6005866001926103d485611e57565b81520192019201919061033b565b346101d55760206103fb6103f536611e0f565b90612294565b604051908152f35b346101d55760a03660031901126101d55761041c611cb8565b6001600160a01b0390602435828116908190036101d55761043b611cce565b91606435928484168094036101d557608435946104566124d2565b61045f336122ec565b156105d6578315928315806105c6575b6105b457811692831590816105ac575b5061059a5785156101a95760607fea106409d97245a2f68aff18e645843ffebdce52ff84bdc4ab62096d5418617b916020976104bc600154611ef9565b97889586600155600787604051926104d384611d0e565b8a84528d8401968c88528060408601921697888352898601878152608087019189835260a08801936000855260c08901956000875260e08a01974389526000526020600290528160406000209a5116926bffffffffffffffffffffffff60a01b93848c5416178b558260018c01915116848254161790558160028b0191511683825416179055600389019251169082541617905551600486015551600585015551600684015551910155604051928352898301526040820152a46001600055604051908152f35b6040516314ec381360e11b8152600490fd5b90508761047f565b6040516366a0777760e01b8152600490fd5b506105d085612478565b1561046f565b6040516358fd19b960e11b8152600490fd5b346101d55760c06105f836611e0f565b60405161060481611d3f565b6000815260006020820152600060408201526000606082015260006080820152600060a082015291600052600360205260406000208054821061068c575b50506102b6604051809260a08091805115158452600180831b0360208201511660208501526040810151604085015260608101516060850152608081015160808501520151910152565b6106a192509061069b91611e25565b50611e57565b8280610642565b346101d5576106b636611ce4565b9160009160009060009260405195630161961b60e51b875260018060a01b0392838316928360048a01528160248a01528260448a0152604089606481305afa6000816000926107bc575b60609b506107aa5750506001600160a01b031660009081526005602090815260408083208484528252808320858452909152902054610753575b5050505b60405193168352602083015215156040820152f35b9294509250935080600052600360205282610772836040600020611e25565b505460081c1693600052600560205260406000209060005260205260406000209060005260205260406000205460019185808061073a565b985060009750955061073e9350505050565b91505060408a3d6040116107f8575b816107d860409383611d77565b810103126101d557895186811681036101d557602060609b015191610700565b3d91506107cb565b346101d55760603660031901126101d5576004356044356024356108226124d2565b82600052602092600284526040600020916007830154156101c35780159384159480610abf575b610aad5784933360005260048752604060002084600052875260406000205495610a97575b8115159485610a69575b33600052600488526040600020856000528852604060002060405161089c81611d5b565b85815289810191858352604082014381526060830191600083528054600160401b811015610a53576108d391600182018155611eab565b949094610a3d5760039351855551600185015551600284015551910155806109bf575b6109ad57859461093f575b50604051918252858201527f78fd8d607a2c84896af35bb608d5ca0058d97d083f5c582d15bf11f1c87c31ed60403392a46001600055604051908152f35b600101546001600160a01b03169350833b156101d5576040516323b872dd60e01b815233600482015230602482015260448101829052936000908590606490829084905af19384156109a1578594156109015761099b90611d2b565b86610901565b6040513d6000823e3d90fd5b604051631231ec2f60e21b8152600490fd5b5080546040516323b872dd60e01b815233600482015230602482015260448101859052908890829060649082906000906001600160a01b03165af19081156109a157600091610a10575b50156108f6565b610a309150883d8a11610a36575b610a288183611d77565b810190611f15565b88610a09565b503d610a1e565b634e487b7160e01b600052600060045260246000fd5b634e487b7160e01b600052604160045260246000fd5b6006820180549060018201809211610a815755610878565b634e487b7160e01b600052601160045260246000fd5b60058101610aa6848254611f08565b905561086e565b604051633b91be2160e21b8152600490fd5b508015610849565b346101d55760603660031901126101d55767ffffffffffffffff6004358181116101d557610af9903690600401611db1565b906024908135908082116101d557366023830112156101d557816004013592610b2184611d99565b93610b2f6040519586611d77565b80855281602086019160051b850101923684116101d557828501915b84831061116f578787610b5c611cce565b91610b656124d2565b6001600160a01b03831615611167575b805191610bab610b8484611d99565b93610b926040519586611d77565b808552610ba1601f1991611d99565b0160208501611f73565b8151610be0610bb982611d99565b91610bc76040519384611d77565b808352610bd6601f1991611d99565b0160208301611f73565b6000945b8351861015610d4a57610bf78684611f5f565b5151610c0281611d99565b90610c106040519283611d77565b808252610c1f601f1991611d99565b01366020830137610c308787611f5f565b52610c3b8686611f5f565b50610c50610c498785611f5f565b5151611f2d565b610c5a8784611f5f565b52610c658683611f5f565b5060005b610c738785611f5f565b5151811015610d39578086610cd4828a80610cce83610cb0610cc6610cbe8f8f90610d349d610cb089610ca981610cb695611f5f565b5194611f5f565b51611f5f565b519033611fcd565b959099611f5f565b51948c611f5f565b52611f5f565b6001600160a01b039091169052610cef81610cb08a87611f5f565b513360005260056020526040600020610d088a89611f5f565b516000526020526040600020610d2283610cb08c8a611f5f565b51600052602052604060002055611ef9565b610c69565b5094610d4490611ef9565b94610be4565b9291936000925b805184101561102f57610d648482611f5f565b51600090815260026020819052604090912001546001600160a01b0316918215610ec557600090815b610d978787611f5f565b5151831015610dc857610dbc610dc291610db585610cb08b8b611f5f565b5190611f08565b92611ef9565b91610d8d565b929793909591508215610eb35760405163a9059cbb60e01b81526001600160a01b0388166004820152602481018490526020816044816000865af19081156109a157600091610e94575b5015610e8257610e7a926000917f0968da03e3daa1681e040ac06832dc8b74955d289deeda5814ce26119323f010610e72610e4d868d611f5f565b51604080516001600160a01b0390951685526020850195909552933393918291820190565b0390a4611ef9565b929094610d51565b60405163078ecf4160e41b8152600490fd5b610ead915060203d602011610a3657610a288183611d77565b89610e12565b604051635f65f16560e11b8152600490fd5b939592915060005b610ed78786611f5f565b515181101561102157610eee81610cb08986611f5f565b5115610eb357610f5660206001600160a01b03610f0f84610cb08c8b611f5f565b5116610f1f84610cb08c89611f5f565b5160405163a9059cbb60e01b81526001600160a01b038b166004820152602481019190915292839190829060009082906044820190565b03925af19081156109a157600091611002575b5015610e8257610ffd90610f7d8884611f5f565b51610f8c82610cb08b89611f5f565b5190897f0968da03e3daa1681e040ac06832dc8b74955d289deeda5814ce26119323f010610e72610fd986610cb08d610fd083610cb08960018060a01b0394611f5f565b5116958c611f5f565b51604080516001600160a01b03909516855260208501919091523393918291820190565b610ecd565b61101b915060203d602011610a3657610a288183611d77565b88610f69565b5094610e7a90929192611ef9565b509060019081600055604051928392604084016040855282518091526060850190602060608260051b8801019401916000905b8282106110ff57505050508382036020850152825180835260208301926020808360051b8301019501936000915b83831061109d5787870388f35b919395869193959750601f19838203018452875190602080835192838152019201906000905b8082106110e55750505060208091980193019301909287969593949294611090565b9193909260208091865181520194019201889392916110c3565b919395965091938590605f19898203018352855190602080835192838152019201906000905b8082106111445750505060208091960192019201879695939192611062565b82516001600160a01b031684528994602094850194909301929190910190611125565b339250610b75565b82358281116101d55760209161118b83928736918b0101611db1565b815201920191610b4b565b346101d55760a03660031901126101d5576001600160a01b036024358181168082036101d55760843591821590811584036101d5576111d36124d2565b9360043560005260209460028652604060002093604051946111f486611d0e565b83815416865283600182015416888701528360028201541691604087019283526007856003840154169260608901938452600481015460808a0152600581015460a08a0152600681015460c08a015201548060e0890152156101c357156114ac57604435158015611494575b610eb3575183168015159081611489575b5061147757858061146b575b8015611457575b611445575182168061143d575b506004356000526003865260406000208054956000146114325760c0850151905b604051916112bf83611d3f565b85158352848416898401526044356040840152606083015260643560808301524360a0830152600160401b871015610a53578661130191600182018155611e25565b919091610a3d578051825489830151610100600160a81b0360089190911b1691151560ff166001600160a81b0319909116171782556040808201516001840155606082015160028401556080820151600384015560a090910151600492830155516323b872dd60e01b81523391810191909152306024820152604480359082015286818060648101038160008787165af19081156109a157600091611415575b5015610e8257849260c060a0860151950151906113c060643543611f08565b91604051966044358852898801526040870152156060860152608085015216917f43861ad87d0ab505ab7da4b17b87cb88e18e8472e3c8da60c3cc0b69703ab6a360a060043592a46001600055604051908152f35b61142c9150873d8911610a3657610a288183611d77565b876113a1565b60a0850151906112b2565b905086611291565b6040516303bdf00d60e31b8152600490fd5b50838015611284575060a085015115611284565b5060c08501511561127d565b604051639ad136e360e01b8152600490fd5b905033141588611271565b50868015611260575060c08601516044351115611260565b60405163dfde867160e01b8152600490fd5b346101d55760403660031901126101d55760206101fd6114dc611cb8565b602435906123ce565b346101d55760203660031901126101d55760043560005260036020526020604060002054604051908152f35b346101d55760403660031901126101d5576001600160a01b03611532611cb8565b1660005260206004815260406000206024356000528152604060002090815461155a81611d99565b906115686040519283611d77565b8082528282018094600052836000206000915b8383106115e85760408051878152865181890181905289928201908960005b8281106115a75784840385f35b909192826080826115d96001948a51606080918051845260208101516020850152604081015160408501520151910152565b0196019101949291909461159a565b6004866001926115f785611ec7565b81520192019201919061157b565b346101d55760403660031901126101d55767ffffffffffffffff80602435116101d5573660236024350112156101d55760243560040135116101d55736602480356004013560051b81350101116101d55761165e6124d2565b6060600435600052600260205260406000209060076040519261168084611d0e565b60018060a01b03815416845260018060a01b03600182015416602085015260018060a01b03600282015416604085015260018060a01b036003820154168385015260048101546080850152600581015460a0850152600681015460c0850152015460e0830152600091600060043560005260036020526040600020805461170681611d99565b916117146040519384611d77565b818352602083019060005260206000206000915b838310611b12575050505080518015159182611aeb575b5050611ad95760043560005260026020526040600020916007830154156101c357336000526004602052604060002060043560005260205260406000209160243560040135158015611ad0575b6114455761179f60243560040135611f2d565b9260005b602435600401358110611a1157505085159384159480611a09575b6119f757846119e1575b81151590816119cb575b50819480611960575b61194e57611871575b505050604092919251908282526020820152600435907f88d1c46373223a4f1f60db2badc985b05ec9c2b2eab4537f0f8e1291b78b6e3760403392a360016000556040519182916040830190835260406020840152815180915260206060840192019060005b818110611858575050500390f35b825184528594506020938401939092019160010161184a565b61187e9192959450611f2d565b9060005b8551811015611941576118958187611f5f565b5115611938576118a58187611f5f565b51938015610a815760001901936118bc8585611f5f565b5260208201516001600160a01b0316906118d68188611f5f565b5191803b156101d557604051632142170760e11b815230600482015233602482015260448101939093526000908390606490829084905af19182156109a15761192492611929575b50611ef9565b611882565b61193290611d2b565b8761191e565b61192490611ef9565b50509192508380806117e4565b604051631b9f013160e11b8152600490fd5b50825160405163a9059cbb60e01b81523360048201526024810189905290602090829060449082906000906001600160a01b03165af19081156109a1576000916119ac575b50156117db565b6119c5915060203d602011610a3657610a288183611d77565b886119a5565b6006016119d9838254611f90565b9055876117d2565b600581016119f0888254611f90565b90556117c8565b6040516319a089c160e01b8152600490fd5b5081156117be565b611a2681602435600401356024803501611f9d565b3582541115611ac757611a4e611a4782602435600401356024803501611f9d565b3583611eab565b5097600389015415801590611ab9575b611aae57611a766001914360038c01558a5490611f08565b98015480611a8e575b50611a8990611ef9565b6117a3565b8193611aa791611aa1611a899489611f5f565b52611ef9565b9290611a7f565b9750611a8990611ef9565b504360028a01541015611a5e565b611a8990611ef9565b5082541561178c565b6040516371f7dfa560e01b8152600490fd5b60001982019250908211610a815760a091611b0591611f5f565b510151431115858061173f565b60056020600192611b2285611e57565b815201920192019190611728565b346101d557611b47611b4136611ce4565b91611fcd565b604080516001600160a01b03939093168352602083019190915290f35b346101d55760403660031901126101d5576001600160a01b03611b85611cb8565b16600052600460205260406000206024356000526020526020604060002054604051908152f35b346101d55760203660031901126101d55760e081611bcb600093611d0e565b8281528260208201528260408201528260608201528260808201528260a08201528260c0820152015260043560005260026020526101006040600020604051611c1381611d0e565b60018060a01b03918281541692838352806001830154169060208401918252806002840154169060408501918252806003850154166060860190815281600486015493608088019485528160058801549660a08a0197885260e0600760068b01549a60c08d019b8c5201549a01998a526040519a8b52511660208a015251166040880152511660608601525160808501525160a08401525160c08301525160e0820152f35b600435906001600160a01b03821682036101d557565b604435906001600160a01b03821682036101d557565b60609060031901126101d5576004356001600160a01b03811681036101d557906024359060443590565b610100810190811067ffffffffffffffff821117610a5357604052565b67ffffffffffffffff8111610a5357604052565b60c0810190811067ffffffffffffffff821117610a5357604052565b6080810190811067ffffffffffffffff821117610a5357604052565b90601f8019910116810190811067ffffffffffffffff821117610a5357604052565b67ffffffffffffffff8111610a535760051b60200190565b81601f820112156101d557803591611dc883611d99565b92611dd66040519485611d77565b808452602092838086019260051b8201019283116101d5578301905b828210611e00575050505090565b81358152908301908301611df2565b60409060031901126101d5576004359060243590565b8054821015611e41576000526005602060002091020190600090565b634e487b7160e01b600052603260045260246000fd5b90604051611e6481611d3f565b825460ff81161515825260081c6001600160a01b031660208201526001830154604082015260028301546060820152600383015460808201526004929092015460a0830152565b8054821015611e415760005260206000209060021b0190600090565b90604051611ed481611d5b565b6060600382948054845260018101546020850152600281015460408501520154910152565b6000198114610a815760010190565b91908201809211610a8157565b908160209103126101d5575180151581036101d55790565b90611f3782611d99565b611f446040519182611d77565b8281528092611f55601f1991611d99565b0190602036910137565b8051821015611e415760209160051b010190565b60005b828110611f8257505050565b606082820152602001611f76565b91908203918211610a8157565b9190811015611e415760051b0190565b8115611fb7570490565b634e487b7160e01b600052601260045260246000fd5b6001600160a01b03811660009081526005602090815260408083208584528252808320868452909152812054929493909283929190612282576120108187612294565b612270578583526020926003845260409384822092835461203081611d99565b9461203d88519687611d77565b81865284528284208490848088015b8484106122515750505050508084511115612240576001600160a01b0394851683526004808352868420998452988252858320805490949061208d81611d99565b9561209a89519788611d77565b818752855283852085908588015b8d878585106122265750505050505084511561221657906120cb91989598611f5f565b5192829460a08501955b82518110156121ef576120e88184611f5f565b516060908181015180159081156121e4575b508a8201518a5110159089511591821590836121d9575b816121cc575b826121c4575b50816121ab575b5061213b575b50505061213690611ef9565b6120d5565b929a9215612191575190898801519182810292818404149015171561217e579161216f61217592612136948a015190611fad565b90611f08565b9890388061212a565b634e487b7160e01b875260118d52602487fd5b506121369161216f612175928b8a0151908a015190611fad565b82915081156121bc575b5038612124565b9050386121b5565b91503861211d565b848a015115159150612117565b845115159350612111565b9050895110386120fa565b509893945050939050949394851561220957505001511691565b51635f65f16560e11b8152fd5b86516319a089c160e01b81528a90fd5b60019261223285611ec7565b8152019201920191906120a8565b855163767afb7b60e11b8152600490fd5b60019160059161226085611e57565b815201920192019190859061204c565b6040516303a4fc3760e01b8152600490fd5b604051632cfe303760e21b8152600490fd5b6122d29060036122c96000948386528260205260046122b68260408920611e25565b5001549386528260205260408620611e25565b50015490611f08565b4381106122e8576122e591504390611f90565b90565b5090565b6000808052600260209081527fac33ff75c19e70fe83507db0d683fd3465c996598dc972688b7ace676c890781546040929190157fac33ff75c19e70fe83507db0d683fd3465c996598dc972688b7ace676c89077b816123c1575b506123ba57815b6001600160a01b03851680845260048084528585208580528452858520549091908310156123b057845282528383208380528252600361239082868620611eab565b500154156123a6576123a190611ef9565b61234e565b5050505050600190565b5050505091505090565b5091505090565b6005915001541538612347565b90600081815260209160028352604092838320600681015415908161246b575b5061246357825b6001600160a01b038616808552600480845286862085875284528686205490919083101561245857855282528484208385528252600361243782878720611eab565b5001541561244d5761244890611ef9565b6123f5565b505050505050600190565b505050505091505090565b505091505090565b60059150015415386123ee565b6040516301ffc9a760e01b81526380ac58cd60e01b600482015290602090829060249082906001600160a01b03165afa9081156109a1576000916124ba575090565b6122e5915060203d8111610a3657610a288183611d77565b6002600054146124e3576002600055565b604051633ee5aeb560e01b8152600490fdfea2646970667358221220bf2a94309764c266e682f73a5f0f48460462f96d01703d1afab6b41c90ee72b164736f6c63430008140033","linkReferences":{}},"methodIdentifiers":{"addReward(uint256,address,uint256,uint256,bool)":"7ebfee3e","blocksToReward(uint256,uint256)":"bab5c8ca","calculateReward(address,uint256,uint256)":"2c32c360","checkRewardStatus(address,uint256,uint256)":"a946b3d0","claimRewards(uint256[],uint256[][],address)":"99a47faa","editPool(uint256,bytes32)":"e964a1a5","getPool(uint256)":"068bcd8d","getReward(uint256,uint256)":"b90bc519","getRewards(uint256)":"c0d8012c","getStake(address,uint256,uint256)":"d33560e6","getStakes(address,uint256)":"4cb8a68b","getTotalPools()":"d3ffe67a","getTotalRewards(uint256)":"552164ee","getTotalStakes(address,uint256)":"118ea1af","isActiveStaker(address,uint256)":"6e8639f3","isERC721(address)":"daa09e54","launchPool(address,address,address,address,bytes32)":"ba2b6651","stake(uint256,uint256,uint256)":"a638f2e2","unstake(uint256,uint256[])":"395de242"},"id":0}