{"abi":[{"type":"constructor","inputs":[{"name":"stakeERC20","type":"address","internalType":"contract IERC20"},{"name":"stakeERC721","type":"address","internalType":"contract IERC721"},{"name":"rewardToken","type":"address","internalType":"contract IERC20"}],"stateMutability":"nonpayable"},{"type":"function","name":"addReward","inputs":[{"name":"poolId","type":"uint256","internalType":"uint256"},{"name":"rewardToken","type":"address","internalType":"contract IERC20"},{"name":"rewardAmount","type":"uint256","internalType":"uint256"},{"name":"claimAfterBlocks","type":"uint256","internalType":"uint256"},{"name":"isForERC721Stakers","type":"bool","internalType":"bool"}],"outputs":[{"name":"rewardId","type":"uint256","internalType":"uint256"}],"stateMutability":"nonpayable"},{"type":"function","name":"approve","inputs":[{"name":"to","type":"address","internalType":"address"},{"name":"tokenId","type":"uint256","internalType":"uint256"}],"outputs":[],"stateMutability":"nonpayable"},{"type":"function","name":"balanceOf","inputs":[{"name":"owner","type":"address","internalType":"address"}],"outputs":[{"name":"","type":"uint256","internalType":"uint256"}],"stateMutability":"view"},{"type":"function","name":"claimRewards","inputs":[{"name":"poolIds","type":"uint256[]","internalType":"uint256[]"},{"name":"rewardIds","type":"uint256[][]","internalType":"uint256[][]"},{"name":"recipient","type":"address","internalType":"address"}],"outputs":[{"name":"tokens","type":"address[][]","internalType":"contract IERC20[][]"},{"name":"amounts","type":"uint256[][]","internalType":"uint256[][]"}],"stateMutability":"nonpayable"},{"type":"function","name":"contractURI","inputs":[],"outputs":[{"name":"","type":"string","internalType":"string"}],"stateMutability":"view"},{"type":"function","name":"editPool","inputs":[{"name":"poolId","type":"uint256","internalType":"uint256"},{"name":"totalMax","type":"uint256","internalType":"uint256"},{"name":"tokenURI","type":"string","internalType":"string"}],"outputs":[],"stateMutability":"nonpayable"},{"type":"function","name":"getApproved","inputs":[{"name":"tokenId","type":"uint256","internalType":"uint256"}],"outputs":[{"name":"","type":"address","internalType":"address"}],"stateMutability":"view"},{"type":"function","name":"getClaimedAmount","inputs":[{"name":"staker","type":"address","internalType":"address"},{"name":"poolId","type":"uint256","internalType":"uint256"},{"name":"rewardId","type":"uint256","internalType":"uint256"}],"outputs":[{"name":"","type":"uint256","internalType":"uint256"}],"stateMutability":"view"},{"type":"function","name":"getPool","inputs":[{"name":"poolId","type":"uint256","internalType":"uint256"}],"outputs":[{"name":"poolDetails","type":"tuple","internalType":"struct IStaqeStructs.Pool","components":[{"name":"stakeERC20","type":"address","internalType":"contract IERC20"},{"name":"stakeERC721","type":"address","internalType":"contract IERC721"},{"name":"rewardToken","type":"address","internalType":"contract IERC20"},{"name":"totalMax","type":"uint256","internalType":"uint256"},{"name":"totalStakedERC20","type":"uint256","internalType":"uint256"},{"name":"totalStakedERC721","type":"uint256","internalType":"uint256"},{"name":"launchBlock","type":"uint256","internalType":"uint256"}]}],"stateMutability":"view"},{"type":"function","name":"getReward","inputs":[{"name":"poolId","type":"uint256","internalType":"uint256"},{"name":"rewardId","type":"uint256","internalType":"uint256"}],"outputs":[{"name":"rewardDetails","type":"tuple","internalType":"struct IStaqeStructs.Reward","components":[{"name":"isForERC721Stakers","type":"bool","internalType":"bool"},{"name":"rewardToken","type":"address","internalType":"contract IERC20"},{"name":"rewardAmount","type":"uint256","internalType":"uint256"},{"name":"totalStaked","type":"uint256","internalType":"uint256"},{"name":"claimAfterBlocks","type":"uint256","internalType":"uint256"},{"name":"rewardBlock","type":"uint256","internalType":"uint256"}]}],"stateMutability":"view"},{"type":"function","name":"getRewards","inputs":[{"name":"poolId","type":"uint256","internalType":"uint256"}],"outputs":[{"name":"","type":"tuple[]","internalType":"struct IStaqeStructs.Reward[]","components":[{"name":"isForERC721Stakers","type":"bool","internalType":"bool"},{"name":"rewardToken","type":"address","internalType":"contract IERC20"},{"name":"rewardAmount","type":"uint256","internalType":"uint256"},{"name":"totalStaked","type":"uint256","internalType":"uint256"},{"name":"claimAfterBlocks","type":"uint256","internalType":"uint256"},{"name":"rewardBlock","type":"uint256","internalType":"uint256"}]}],"stateMutability":"view"},{"type":"function","name":"getStake","inputs":[{"name":"staker","type":"address","internalType":"address"},{"name":"poolId","type":"uint256","internalType":"uint256"},{"name":"stakeId","type":"uint256","internalType":"uint256"}],"outputs":[{"name":"stakeDetails","type":"tuple","internalType":"struct IStaqeStructs.Stake","components":[{"name":"amountERC20","type":"uint256","internalType":"uint256"},{"name":"idERC721","type":"uint256","internalType":"uint256"},{"name":"stakeBlock","type":"uint256","internalType":"uint256"},{"name":"unstakeBlock","type":"uint256","internalType":"uint256"}]}],"stateMutability":"view"},{"type":"function","name":"getStakes","inputs":[{"name":"staker","type":"address","internalType":"address"},{"name":"poolId","type":"uint256","internalType":"uint256"}],"outputs":[{"name":"","type":"tuple[]","internalType":"struct IStaqeStructs.Stake[]","components":[{"name":"amountERC20","type":"uint256","internalType":"uint256"},{"name":"idERC721","type":"uint256","internalType":"uint256"},{"name":"stakeBlock","type":"uint256","internalType":"uint256"},{"name":"unstakeBlock","type":"uint256","internalType":"uint256"}]}],"stateMutability":"view"},{"type":"function","name":"getTotalPools","inputs":[],"outputs":[{"name":"","type":"uint256","internalType":"uint256"}],"stateMutability":"view"},{"type":"function","name":"isApprovedForAll","inputs":[{"name":"owner","type":"address","internalType":"address"},{"name":"operator","type":"address","internalType":"address"}],"outputs":[{"name":"","type":"bool","internalType":"bool"}],"stateMutability":"view"},{"type":"function","name":"launchPool","inputs":[{"name":"stakeERC20","type":"address","internalType":"contract IERC20"},{"name":"stakeERC721","type":"address","internalType":"contract IERC721"},{"name":"rewardToken","type":"address","internalType":"contract IERC20"},{"name":"totalMax","type":"uint256","internalType":"uint256"},{"name":"tokenURI","type":"string","internalType":"string"}],"outputs":[{"name":"poolId","type":"uint256","internalType":"uint256"}],"stateMutability":"nonpayable"},{"type":"function","name":"name","inputs":[],"outputs":[{"name":"","type":"string","internalType":"string"}],"stateMutability":"view"},{"type":"function","name":"owner","inputs":[],"outputs":[{"name":"","type":"address","internalType":"address"}],"stateMutability":"view"},{"type":"function","name":"ownerOf","inputs":[{"name":"tokenId","type":"uint256","internalType":"uint256"}],"outputs":[{"name":"","type":"address","internalType":"address"}],"stateMutability":"view"},{"type":"function","name":"renounceOwnership","inputs":[],"outputs":[],"stateMutability":"nonpayable"},{"type":"function","name":"safeTransferFrom","inputs":[{"name":"from","type":"address","internalType":"address"},{"name":"to","type":"address","internalType":"address"},{"name":"tokenId","type":"uint256","internalType":"uint256"}],"outputs":[],"stateMutability":"nonpayable"},{"type":"function","name":"safeTransferFrom","inputs":[{"name":"from","type":"address","internalType":"address"},{"name":"to","type":"address","internalType":"address"},{"name":"tokenId","type":"uint256","internalType":"uint256"},{"name":"data","type":"bytes","internalType":"bytes"}],"outputs":[],"stateMutability":"nonpayable"},{"type":"function","name":"setApprovalForAll","inputs":[{"name":"operator","type":"address","internalType":"address"},{"name":"approved","type":"bool","internalType":"bool"}],"outputs":[],"stateMutability":"nonpayable"},{"type":"function","name":"setContractURI","inputs":[{"name":"newURI","type":"string","internalType":"string"}],"outputs":[],"stateMutability":"nonpayable"},{"type":"function","name":"stake","inputs":[{"name":"poolId","type":"uint256","internalType":"uint256"},{"name":"amount","type":"uint256","internalType":"uint256"},{"name":"id","type":"uint256","internalType":"uint256"}],"outputs":[{"name":"stakeId","type":"uint256","internalType":"uint256"}],"stateMutability":"nonpayable"},{"type":"function","name":"supportsInterface","inputs":[{"name":"interfaceId","type":"bytes4","internalType":"bytes4"}],"outputs":[{"name":"","type":"bool","internalType":"bool"}],"stateMutability":"view"},{"type":"function","name":"symbol","inputs":[],"outputs":[{"name":"","type":"string","internalType":"string"}],"stateMutability":"view"},{"type":"function","name":"tokenURI","inputs":[{"name":"tokenId","type":"uint256","internalType":"uint256"}],"outputs":[{"name":"","type":"string","internalType":"string"}],"stateMutability":"view"},{"type":"function","name":"transferFrom","inputs":[{"name":"from","type":"address","internalType":"address"},{"name":"to","type":"address","internalType":"address"},{"name":"tokenId","type":"uint256","internalType":"uint256"}],"outputs":[],"stateMutability":"nonpayable"},{"type":"function","name":"transferOwnership","inputs":[{"name":"newOwner","type":"address","internalType":"address"}],"outputs":[],"stateMutability":"nonpayable"},{"type":"function","name":"unstake","inputs":[{"name":"poolId","type":"uint256","internalType":"uint256"},{"name":"stakeIds","type":"uint256[]","internalType":"uint256[]"}],"outputs":[{"name":"amountERC20","type":"uint256","internalType":"uint256"},{"name":"idsERC721","type":"uint256[]","internalType":"uint256[]"}],"stateMutability":"nonpayable"},{"type":"event","name":"Approval","inputs":[{"name":"owner","type":"address","indexed":true,"internalType":"address"},{"name":"approved","type":"address","indexed":true,"internalType":"address"},{"name":"tokenId","type":"uint256","indexed":true,"internalType":"uint256"}],"anonymous":false},{"type":"event","name":"ApprovalForAll","inputs":[{"name":"owner","type":"address","indexed":true,"internalType":"address"},{"name":"operator","type":"address","indexed":true,"internalType":"address"},{"name":"approved","type":"bool","indexed":false,"internalType":"bool"}],"anonymous":false},{"type":"event","name":"BatchMetadataUpdate","inputs":[{"name":"_fromTokenId","type":"uint256","indexed":false,"internalType":"uint256"},{"name":"_toTokenId","type":"uint256","indexed":false,"internalType":"uint256"}],"anonymous":false},{"type":"event","name":"Claimed","inputs":[{"name":"staker","type":"address","indexed":true,"internalType":"address"},{"name":"poolId","type":"uint256","indexed":true,"internalType":"uint256"}],"anonymous":false},{"type":"event","name":"ContractURIUpdated","inputs":[],"anonymous":false},{"type":"event","name":"Launched","inputs":[{"name":"launcher","type":"address","indexed":true,"internalType":"address"},{"name":"poolId","type":"uint256","indexed":true,"internalType":"uint256"}],"anonymous":false},{"type":"event","name":"MetadataUpdate","inputs":[{"name":"_tokenId","type":"uint256","indexed":false,"internalType":"uint256"}],"anonymous":false},{"type":"event","name":"OwnershipTransferred","inputs":[{"name":"previousOwner","type":"address","indexed":true,"internalType":"address"},{"name":"newOwner","type":"address","indexed":true,"internalType":"address"}],"anonymous":false},{"type":"event","name":"Rewarded","inputs":[{"name":"rewarder","type":"address","indexed":true,"internalType":"address"},{"name":"poolId","type":"uint256","indexed":true,"internalType":"uint256"},{"name":"rewardId","type":"uint256","indexed":true,"internalType":"uint256"}],"anonymous":false},{"type":"event","name":"Staked","inputs":[{"name":"staker","type":"address","indexed":true,"internalType":"address"},{"name":"poolId","type":"uint256","indexed":true,"internalType":"uint256"},{"name":"stakeId","type":"uint256","indexed":true,"internalType":"uint256"}],"anonymous":false},{"type":"event","name":"Transfer","inputs":[{"name":"from","type":"address","indexed":true,"internalType":"address"},{"name":"to","type":"address","indexed":true,"internalType":"address"},{"name":"tokenId","type":"uint256","indexed":true,"internalType":"uint256"}],"anonymous":false},{"type":"event","name":"Unstaked","inputs":[{"name":"staker","type":"address","indexed":true,"internalType":"address"},{"name":"poolId","type":"uint256","indexed":true,"internalType":"uint256"}],"anonymous":false},{"type":"error","name":"ERC721IncorrectOwner","inputs":[{"name":"sender","type":"address","internalType":"address"},{"name":"tokenId","type":"uint256","internalType":"uint256"},{"name":"owner","type":"address","internalType":"address"}]},{"type":"error","name":"ERC721InsufficientApproval","inputs":[{"name":"operator","type":"address","internalType":"address"},{"name":"tokenId","type":"uint256","internalType":"uint256"}]},{"type":"error","name":"ERC721InvalidApprover","inputs":[{"name":"approver","type":"address","internalType":"address"}]},{"type":"error","name":"ERC721InvalidOperator","inputs":[{"name":"operator","type":"address","internalType":"address"}]},{"type":"error","name":"ERC721InvalidOwner","inputs":[{"name":"owner","type":"address","internalType":"address"}]},{"type":"error","name":"ERC721InvalidReceiver","inputs":[{"name":"receiver","type":"address","internalType":"address"}]},{"type":"error","name":"ERC721InvalidSender","inputs":[{"name":"sender","type":"address","internalType":"address"}]},{"type":"error","name":"ERC721NonexistentToken","inputs":[{"name":"tokenId","type":"uint256","internalType":"uint256"}]},{"type":"error","name":"InvalidAmountOrId","inputs":[]},{"type":"error","name":"InvalidERC721Token","inputs":[]},{"type":"error","name":"InvalidRewardToken","inputs":[]},{"type":"error","name":"InvalidStakeId","inputs":[]},{"type":"error","name":"InvalidStakeToken","inputs":[]},{"type":"error","name":"InvalidTokenURI","inputs":[]},{"type":"error","name":"MoreThanTheTotalMaxTokens","inputs":[]},{"type":"error","name":"OnlyAvailableToStakersInGenesis","inputs":[]},{"type":"error","name":"OnlyOwnerHasAccessToAddRewards","inputs":[]},{"type":"error","name":"OnlyOwnerHasAccessToEditTokenURI","inputs":[]},{"type":"error","name":"OwnableInvalidOwner","inputs":[{"name":"owner","type":"address","internalType":"address"}]},{"type":"error","name":"OwnableUnauthorizedAccount","inputs":[{"name":"account","type":"address","internalType":"address"}]},{"type":"error","name":"PoolDoesNotExist","inputs":[]},{"type":"error","name":"PoolDoesNotHaveStakes","inputs":[]},{"type":"error","name":"ReentrancyGuardReentrantCall","inputs":[]},{"type":"error","name":"RewardAlreadyClaimed","inputs":[]},{"type":"error","name":"RewardIsEmpty","inputs":[]},{"type":"error","name":"RewardIsNotYetAvailableForClaim","inputs":[]},{"type":"error","name":"RewardNotFoundInPool","inputs":[]},{"type":"error","name":"RewardTransferFailed","inputs":[]},{"type":"error","name":"StakeAlreadyUnstaked","inputs":[]},{"type":"error","name":"StakeOnNextBlockAfterReward","inputs":[]},{"type":"error","name":"StakeTransferFailed","inputs":[]},{"type":"error","name":"StakerDoesNotHaveStakesInPool","inputs":[]},{"type":"error","name":"TotalMaxForOnlyOneTypeOfToken","inputs":[]},{"type":"error","name":"UnstakeOnNextBlockAndGetReward","inputs":[]},{"type":"error","name":"UnstakeTransferFailed","inputs":[]}],"bytecode":{"object":"0x6080346200043757601f1990601f6200383d3881900382810185168401936001600160401b0393929091908486118387101762000421578160609284926040988952833981010312620004375762000057816200045c565b94602092838301519060018060a01b03938483168093036200043757876200008091016200045c565b906200008b6200043c565b94600b86526a537461716520506f6f6c7360a81b87870152620000ad6200043c565b936003958686526253545160e81b8987015287518a81116200042157806000998a8c620000db825462000471565b89808211620003f0575b505050508b908783116001146200038c578b9262000380575b50508160011b91600019908a1b1c19161788555b8551908a82116200036c5781906001978a8c620001308b5462000471565b898c8183116200032f575b50505050508b91878411600114620002ce57508a92620002c2575b505060001982891b1c191690861b1785555b3315620002aa57600780546001600160a01b03198082163390811790935594919084167f8be0079c531659141344cd1fd0a4f28419497f9722a3daafe3b4186f6b6457e08a80a3620001bc60085462000471565b81811162000288575b505060006008558460095589519860e08a01908a82109082111762000274578a9b83918b9c9b999a9b52168752888701908152818b880194168452816060880195898752818d8b60808c019b818d5260a081019d8e5260c0019d8e439052818052600b9052209c5116858d5416178c558b019151168382541617905560028901925116908254161790555190850155516004840155516005830155519060060155516133759081620004c88239f35b634e487b7160e01b88526041600452602488fd5b620002a29160088a528a8a20910160051c810190620004ae565b3880620001c5565b8951631e4fbdf760e01b815260048101889052602490fd5b01519050388062000156565b898c528c8c208a9590939291168c8e5b828210620003175750508411620002fe575b505050811b01855562000168565b0151600019838b1b60f8161c19169055388080620002f0565b8385015186558c979095019493840193018e620002de565b848491620003579652209181880160051c830193881062000362575b0160051c0190620004ae565b8a8c38898c6200013b565b925081926200034b565b634e487b7160e01b89526041600452602489fd5b015190503880620000fe565b8b80528c8c209285168c8e5b828210620003d8575050908460019594939210620003bf575b505050811b01885562000112565b0151600019838c1b60f8161c19169055388080620003b1565b60018596829396860151815501950193018e62000398565b828480620004179652209181870160051c830193871062000362570160051c0190620004ae565b8a8c3889620000e5565b634e487b7160e01b600052604160045260246000fd5b600080fd5b60408051919082016001600160401b038111838210176200042157604052565b51906001600160a01b03821682036200043757565b90600182811c92168015620004a3575b60208310146200048d57565b634e487b7160e01b600052602260045260246000fd5b91607f169162000481565b818110620004ba575050565b60008155600101620004ae56fe6080604052600436101561001257600080fd5b60003560e01c8062936c9a1461247b57806301ffc9a7146123f357806304e4d71114612330578063068bcd8d1461223f57806306fdde031461219c578063081812fc1461215e578063095ea7b31461207757806323b872dd14612060578063395de24214611b9957806342842e0e14611b6b5780634cb8a68b14611a775780635ea6bda114611a305780636352211e14611a0057806370a08231146119a7578063715018a61461194a5780637ebfee3e1461166a5780638da5cb5b14611641578063938e3d7b146114a157806395d89b41146113fe57806399a47faa14610b71578063a22cb46514610ac3578063a638f2e21461073d578063b88d4fde146106d1578063b90bc51914610608578063c0d8012c14610513578063c87b56dd14610425578063d33560e61461035d578063d3ffe67a1461033f578063e8a3d48514610259578063e985e9c5146102035763f2fde38b1461017057600080fd5b346101fe5760203660031901126101fe57610189612894565b610191612e56565b6001600160a01b039081169081156101e557600754826bffffffffffffffffffffffff60a01b821617600755167f8be0079c531659141344cd1fd0a4f28419497f9722a3daafe3b4186f6b6457e0600080a3005b604051631e4fbdf760e01b815260006004820152602490fd5b600080fd5b346101fe5760403660031901126101fe5761021c612894565b6102246128c0565b9060018060a01b03809116600052600560205260406000209116600052602052602060ff604060002054166040519015158152f35b346101fe5760003660031901126101fe57604051600060085461027b81612e1c565b8084529060019081811690811561031857506001146102bd575b6102b9846102a581860382612955565b6040519182916020835260208301906129e6565b0390f35b6008600090815292507ff3f7a9fe364faab93b216da50a3214154f22a0a2b415b23a84c8169e8b636ee35b8284106103005750505081016020016102a582610295565b805460208587018101919091529093019281016102e8565b60ff191660208087019190915292151560051b850190920192506102a59150839050610295565b346101fe5760003660031901126101fe576020600a54604051908152f35b346101fe57608061036d36612a8f565b60405191929161037c8161291f565b600081526000602082015260006040820152600060608201529160018060a01b03169283600052600d60205260406000208160005260205260406000205482106103f0575b84836103ee6040518092606080918051845260208101516020850152604081015160408501520151910152565bf35b610417925061041d93600052600d6020526040600020906000526020526040600020612bb4565b50612bd0565b8083806103c1565b346101fe576020806003193601126101fe5760043561044381613024565b506000526006815260406000209060405191826000825461046381612e1c565b938484526001918683821691826000146104f15750506001146104b2575b505061048f92500383612955565b600060405161049d8161293a565b526102b96040519282849384528301906129e6565b85925060005281600020906000915b8583106104d957505061048f93508201018580610481565b805483890185015287945086939092019181016104c1565b925093505061048f94915060ff191682840152151560051b8201018580610481565b346101fe576020806003193601126101fe57600435600052600c8152604060002090815461054081612ab9565b9061054e6040519283612955565b8082528282018094600052836000206000915b8383106105eb5760408051878152865181890181905289928201908960005b82811061058d5784840385f35b9091928260c0826105dc6001948a5160a08091805115158452600180831b0360208201511660208501526040810151604085015260608101516060850152608081015160808501520151910152565b01960191019492919094610580565b6005866001926105fa85612b60565b815201920192019190610561565b346101fe5760403660031901126101fe5760c060243560405161062a81612904565b6000815260006020820152600060408201526000606082015260006080820152600060a082015290600435600052600c6020526040600020805482106106b5575b50506103ee604051809260a08091805115158452600180831b0360208201511660208501526040810151604085015260608101516060850152608081015160808501520151910152565b6106ca9250906106c491612b2e565b50612b60565b828061066b565b346101fe5760803660031901126101fe576106ea612894565b6106f26128c0565b90604435606435926001600160401b0384116101fe57366023850112156101fe5761072a61073b943690602481600401359101612991565b92610736838383612e82565b61305f565b005b346101fe5760603660031901126101fe5760443560043560243561075f61331c565b81600052602092600b84526040600020600681015415610ab15782159283159380610aa9575b610a975784600052600c8652604060002080548015159182610a70575b5050610a5e5733600052600d865260406000208560005286528360406000205494610a48575b8315159182610a1a575b6003840154806109cf575b5033600052600d88526040600020876000528852604060002090604051916108048361291f565b8183528983019287845260408101914383526060820190600082528054600160401b8110156109b95761083c91600182018155612bb4565b9390936109a3578c956003935185555160018501555160028401555191015582610923575b5050610911576108a2575b50508060405192337f1449c6dd7851abc30abf37f57715f492010519147cc2652fbc38202c18a6ee90600080a460016009558152f35b600101546001600160a01b0316803b156101fe576040516323b872dd60e01b815233600482015230602482015260448101929092526000908290606490829084905af18015610905576108f6575b8061086c565b6108ff906128f1565b836108f0565b6040513d6000823e3d90fd5b604051631231ec2f60e21b8152600490fd5b84546040516323b872dd60e01b81523360048201523060248201526044810192909252909250829060649082906000906001600160a01b03165af190811561090557600091610976575b50158688610861565b6109969150873d891161099c575b61098e8183612955565b810190612c2b565b8761096d565b503d610984565b634e487b7160e01b600052600060045260246000fd5b634e487b7160e01b600052604160045260246000fd5b8280610a0d575b6109ed578390816109ff575b506109ed57886107dd565b604051636dce347360e11b8152600490fd5b9050600585015411896109e2565b50806004860154116109d6565b6005840180549060018201809211610a3257556107d2565b634e487b7160e01b600052601160045260246000fd5b60048301610a57838254612c1e565b90556107c8565b604051630485995160e51b8152600490fd5b60001982019250908211610a3257600491610a8a91612b2e565b50015443111587806107a2565b604051633b91be2160e21b8152600490fd5b508215610785565b6040516302721e1f60e61b8152600490fd5b346101fe5760403660031901126101fe57610adc612894565b60243590811515908183036101fe576001600160a01b0316918215610b5857610b2a9033600052600560205260406000208460005260205260406000209060ff801983541691151516179055565b6040519081527f17307eab39ab6107e8899845ad3d59bd9653f200f220920489ca2b5937696c3160203392a3005b604051630b61174360e31b815260048101849052602490fd5b346101fe5760603660031901126101fe576001600160401b036004358181116101fe57610ba2903690600401612ad0565b90602435908082116101fe57366023830112156101fe578160040135610bc781612ab9565b92610bd56040519485612955565b8184526024602085019260051b820101913683116101fe5760248201905b8382106113d6578686610c046128aa565b90610c0d61331c565b6001600160a01b038216156113ce575b825190610c53610c2c83612ab9565b92610c3a6040519485612955565b808452610c49601f1991612ab9565b0160208401612c99565b8351610c88610c6182612ab9565b91610c6f6040519384612955565b808352610c7e601f1991612ab9565b0160208301612c99565b6000935b85518510156110a457929194610ca28587612c43565b5151610cad81612ab9565b90610cbb6040519283612955565b808252610cca601f1991612ab9565b01366020830137610cdb8685612c43565b52610ce68584612c43565b50610cfb610cf48688612c43565b5151612c57565b610d058684612c43565b52610d108583612c43565b506000905b610d1f8688612c43565b515182101561109057610d328682612c43565b5196610d4883610d428984612c43565b51612c43565b519460009833600052600e60205260406000208160005260205260406000208760005260205260406000205461107e5780600052600c6020526040600020908154610d9281612ab9565b92610da06040519485612955565b818452602084019060005260206000206000915b8383106110605750505050878251111561104e5733600052600d6020526040600020906000526020526040600020968754610dee81612ab9565b98610dfc6040519a8b612955565b818a5260208a019060005260206000206000915b838310611030575050505087511561101e57610e2b91612c43565b519660a0880151610e42439160808b015190612c1e565b101561100c5760005b8751811015610f5857610e5e8189612c43565b5160608101518015908115610f4a575b50604082015160a08c01511015908b51159182159083610f3f575b81610f31575b82610f29575b5081610f10575b50610eb2575b5050610ead90612c02565b610e4b565b919b9115610ef5575160408a0151918183810204831482151715610a3257610ee7610eed92610ead9460608e01519102612cb6565b90612c1e565b9a908c610ea2565b50610eed610ead91610ee760408c015160608d015190612cb6565b8291508115610f21575b508e610e9c565b90508e610f1a565b91508f610e95565b602085015115159150610e8f565b845115159350610e89565b905060a08b0151108d610e6e565b50939195509591978015610ffa57610f9d82898993610f9783610d42610f8f85610ff19b602060018060a01b039101511699612c43565b51948c612c43565b52612c43565b52610fac81610d428987612c43565b5133600052600e6020526040600020610fc5898b612c43565b516000526020526040600020610fdf83610d428b8a612c43565b51600052602052604060002055612c02565b90939295610d15565b604051635f65f16560e11b8152600490fd5b6040516303a4fc3760e01b8152600490fd5b6040516319a089c160e01b8152600490fd5b6004602060019261104085612bd0565b815201920192019190610e10565b60405163767afb7b60e11b8152600490fd5b6005602060019261107085612b60565b815201920192019190610db4565b604051632cfe303760e21b8152600490fd5b9592939461109e9150612c02565b93610c8c565b859084926000925b80518410156112ce576110bf8482612c43565b516000908152600b60205260409020600201546001600160a01b031680611207575060005b6110ee8588612c43565b51518110156111c45761110581610d428786612c43565b518015610ffa57600090602090611165906001600160a01b0361112c86610d428c8e612c43565b5160405163a9059cbb60e01b81526001600160a01b038b1660048201526024810193909352919485939190921691839182906044820190565b03925af1908115610905576000916111a5575b5015611193578461118b6110ee92612c02565b9150506110e4565b60405163078ecf4160e41b8152600490fd5b6111be915060203d60201161099c5761098e8183612955565b88611178565b5092611201905b6111d58186612c43565b51337fd8138f8a3f377c5259ca548e70e4c2de94f129f5a11036a15b69513cba2b426a600080a3612c02565b926110ac565b90919260009695966000905b61121d8789612c43565b515182101561124e576112426112489161123b84610d428b8b612c43565b5190612c1e565b91612c02565b90611213565b919493959290509695968115610ffa5760405163a9059cbb60e01b81526001600160a01b03861660048201526024810192909252602090829060449082906000905af1908115610905576000916112af575b501561119357611201906111cb565b6112c8915060203d60201161099c5761098e8183612955565b876112a0565b508360018060095560405191604083016040845281518091526060840190602060608260051b8701019301916000905b82821061136757505050508281036020840152835180825260208201916020808360051b8301019601926000915b8383106113395786880387f35b9091929394602080611356839a601f198682030187528951612a5b565b99970195949190910192019061132c565b9091929394809795605f19888203018352855190602080835192838152019201906000905b848183106113ad5750505050602080919601920192019092919694966112fe565b83516001600160a01b0316855260209485019490930192919091019061138c565b339150610c1d565b81358581116101fe576020916113f3839260243691880101612ad0565b815201910190610bf3565b346101fe5760003660031901126101fe576040516000600180549061142282612e1c565b808552918181169081156103185750600114611448576102b9846102a581860382612955565b600081815292507fb10e2d527612073b26eecdfd717e6a320cf44b4afac2b0732d9fcbe2b7fa0cf65b8284106114895750505081016020016102a582610295565b80546020858701810191909152909301928101611471565b346101fe576020806003193601126101fe576001600160401b036004358181116101fe576114d39036906004016129c8565b916114dc612e56565b82519182116109b9576114f0600854612e1c565b601f81116115dd575b5080601f83116001146115595750819260009261154e575b50508160011b916000199060031b1c1916176008555b7fa5d4097edda6d87cb9329af83fb3712ef77eeb13738ffe43cc35a4ce305ad962600080a1005b015190508280611511565b90601f1983169360086000527ff3f7a9fe364faab93b216da50a3214154f22a0a2b415b23a84c8169e8b636ee3926000905b8682106115c557505083600195106115ac575b505050811b01600855611527565b015160001960f88460031b161c1916905582808061159e565b8060018596829496860151815501950193019061158b565b60086000527ff3f7a9fe364faab93b216da50a3214154f22a0a2b415b23a84c8169e8b636ee3601f840160051c810191838510611637575b601f0160051c01905b81811061162b57506114f9565b6000815560010161161e565b9091508190611615565b346101fe5760003660031901126101fe576007546040516001600160a01b039091168152602090f35b346101fe5760a03660031901126101fe576004356116866128c0565b9060443591608435908115908115908184036101fe576116a461331c565b8085600052602096600b88526040600020604051926116c2846128d6565b60018060a01b0396878354168552876001840154168b8601528760028401541691604086019283526003840154606087015260c060048501549660808101978852600660058701549660a083019788520154918291015215610ab1578816156119385783158015611925575b610ffa5761173b8a613024565b883391160361191357889081611909575b81156118f2575b506118e057518616806118d8575b5087600052600c89526040600020928354976000146118cf575051945b6040519461178b86612904565b85528885019316918284526040850194828652606081019687526080810191606435835260a0820190438252600160401b8a10156109b957896117d391600182018155612b2e565b9390936109a3576000988c98611865986117fe600496511515889060ff801983541691151516179055565b518654610100600160a81b03191660089190911b610100600160a81b0316178655516001860155516002850155516003840155519101556040516323b872dd60e01b8152336004820152306024820152604481019190915293849283919082906064820190565b03925af1908115610905576000916118b2575b5015611193578060405192337f291e8ba3c0f4b0bd86e6e2346fcee1e7ca0975b1cc1886bfbc722d34f3f24d91600080a460016009558152f35b6118c99150843d861161099c5761098e8183612955565b84611878565b9050519461177e565b935089611761565b6040516303bdf00d60e31b8152600490fd5b905080611900575b8b611753565b508351156118fa565b835115915061174c565b604051630a781f0560e21b8152600490fd5b5088801561172e5750825184111561172e565b60405163dfde867160e01b8152600490fd5b346101fe5760003660031901126101fe57611963612e56565b600780546001600160a01b031981169091556000906001600160a01b03167f8be0079c531659141344cd1fd0a4f28419497f9722a3daafe3b4186f6b6457e08280a3005b346101fe5760203660031901126101fe576001600160a01b036119c8612894565b1680156119e75760005260036020526020604060002054604051908152f35b6040516322718ad960e21b815260006004820152602490fd5b346101fe5760203660031901126101fe576020611a1e600435613024565b6040516001600160a01b039091168152f35b346101fe57611a3e36612a8f565b9160018060a01b0316600052600e6020526040600020906000526020526040600020906000526020526020604060002054604051908152f35b346101fe5760403660031901126101fe576001600160a01b03611a98612894565b166000526020600d8152604060002060243560005281526040600020908154611ac081612ab9565b90611ace6040519283612955565b8082528282018094600052836000206000915b838310611b4e5760408051878152865181890181905289928201908960005b828110611b0d5784840385f35b90919282608082611b3f6001948a51606080918051845260208101516020850152604081015160408501520151910152565b01960191019492919094611b00565b600486600192611b5d85612bd0565b815201920192019190611ae1565b346101fe5761073b611b7c36612a26565b9060405192611b8a8461293a565b60008452610736838383612e82565b346101fe5760403660031901126101fe576024356001600160401b038082116101fe57366023830112156101fe578160040135116101fe57366024826004013560051b830101116101fe57611bec61331c565b600435600052600b602052604060002060405190611c09826128d6565b60018060a01b038154168252600660018060a01b03600183015416916020840192835260018060a01b0360028201541660408501526003810154606085015260048101546080850152600581015460a0850152015460c0830152600435600052600c60205260406000208054611c7e81612ab9565b91611c8c6040519384612955565b818352602083019060005260206000206000915b83831061204257505050508051801515918261201b575b505061200957600435600052600b6020526040600020600681015415610ab15733600052600d60205260406000206004356000526020526040600020846004013515908115611fff575b5061101e57600092600090611d198660040135612c57565b9560005b81600401358110611eff57505084159182159280611ef7575b61101e5782611ee1575b8015159384611ec9575b505081611e5e575b50611e4c57611da7575b506102b9604051928392600435337f0f5bb82176feb1b5e747e28471aa92156a04d9f3ab9f45f28e2d704232b93f75600080a360016009558352604060208401526040830190612a5b565b60005b8351811015611e4457611dbd8185612c43565b5115611e3b5781516001600160a01b031690611dd98186612c43565b5191803b156101fe57604051632142170760e11b815230600482015233602482015260448101939093526000908390606490829084905af191821561090557611e2792611e2c575b50612c02565b611daa565b611e35906128f1565b85611e21565b611e2790612c02565b505082611d5c565b604051631b9f013160e11b8152600490fd5b5160405163a9059cbb60e01b8152336004820152602481018690529150602090829060449082906000906001600160a01b03165af190811561090557600091611eaa575b501585611d52565b611ec3915060203d60201161099c5761098e8183612955565b85611ea2565b6005611ed89101918254612c11565b90558680611d4a565b60048401611ef0878254612c11565b9055611d40565b508015611d36565b611f1181836004013560248501612c89565b3533600052600d60205260406000206004356000526020526040600020541115611fed5733600052600d6020526040600020600435600052602052611f6d6040600020611f6683856004013560248701612c89565b3590612bb4565b5096600388015415801590611fdf575b611fcd57611f956001914360038b0155895490612c1e565b97015480611fad575b50611fa890612c02565b611d1d565b8194611fc691611fc0611fa8948c612c43565b52612c02565b9390611f9e565b60405163793ef5e960e11b8152600490fd5b504360028901541015611f7d565b604051639b763f7160e01b8152600490fd5b9050541585611d01565b6040516371f7dfa560e01b8152600490fd5b60001982019250908211610a325760a09161203591612c43565b5101514311158480611cb7565b6005602060019261205285612b60565b815201920192019190611ca0565b346101fe5761073b61207136612a26565b91612e82565b346101fe5760403660031901126101fe57612090612894565b60243561209c81613024565b3315158061214b575b8061211e575b612106576001600160a01b039283169282918491167f8c5be1e5ebec7d5bd14f71427d1e84f3dd0314c0f7b2291e5b200ac8c7c3b925600080a4600090815260046020526040902080546001600160a01b0319169091179055005b60405163a9fbf51f60e01b8152336004820152602490fd5b5060018060a01b038116600052600560205260406000203360005260205260ff60406000205416156120ab565b506001600160a01b0381163314156120a5565b346101fe5760203660031901126101fe5760043561217b81613024565b506000526004602052602060018060a01b0360406000205416604051908152f35b346101fe5760003660031901126101fe57604051600080546121bd81612e1c565b8084529060019081811690811561031857506001146121e6576102b9846102a581860382612955565b600080805292507f290decd9548b62a8d60345a988386fc84ba6bc95484008f6362f93160ef3e5635b8284106122275750505081016020016102a582610295565b8054602085870181019190915290930192810161220f565b346101fe5760203660031901126101fe57600060c0604051612260816128d6565b8281528260208201528260408201528260608201528260808201528260a08201520152600435600052600b60205260e060406000206040516122a1816128d6565b60018060a01b0391828154169283835280600183015416906020840191825280600284015416906040850191825260038401549160608601928352816004860154946080880195865260c0600660058901549860a08b01998a520154980197885260405198895251166020880152511660408601525160608501525160808401525160a08301525160c0820152f35b346101fe5760603660031901126101fe576024356004356044356001600160401b0381116101fe576123669036906004016129c8565b9061236f61331c565b80600052600b602052604060002092600684015415610ab1578251156123e15761239882613024565b336001600160a01b03909116036123cf5760036123c09401805482116123c7575b50506131a7565b6001600955005b5583806123b9565b604051637cefe4d160e01b8152600490fd5b6040516313f04adb60e01b8152600490fd5b346101fe5760203660031901126101fe5760043563ffffffff60e01b81168091036101fe57602090632483248360e11b8114908115612438575b506040519015158152f35b6380ac58cd60e01b81149150811561246a575b8115612459575b508261242d565b6301ffc9a760e01b14905082612452565b635b5e139f60e01b8114915061244b565b346101fe5760a03660031901126101fe57612494612894565b60249081356001600160a01b03818116918290036101fe576124b46128aa565b91606435936084356001600160401b0381116101fe576124d89036906004016129c8565b6124e061331c565b6124e933612cd6565b156128825782158015928380612872575b61286057851692831580928193612858575b50612846578251156123e157871515918261283d575b5081612835575b50612823576125e991600661253f600a54612c02565b9687600a5560405192612551846128d6565b835260209889840196875287604085019216825260608401908152608084016000815260a08501916000835260c08601934385528b600052600b8d528a6040600020975116996bffffffffffffffffffffffff60a01b9a8b8954161788558b600189019151168b8254161790558a600288019151168a82541617905551600386015551600485015551600584015551910155846131a7565b604051916125f68361293a565b60008352331561280b57839081600052600286526040600020541680151592836127d8575b33600052600387526040600020600181540190558260005260028752604060002090339082541617905533907fddf252ad1be2c89b69c2b068fc378daa952ba7f163c4a11628f55a4df523b3ef600080a46127c057333b6126ac575b506040519080337f8ad1ba2dbd33c6313fa50cd4016351a36437d7dcd0e0800a3a0b191d22095d93600080a360016009558152f35b6040518381806126e4630a85bd0160e11b9586835233600484015260008a8401528760448401526080606484015260848301906129e6565b03816000335af160009181612780575b5061274f575050503d600014612748573d61270e81612976565b9061271c6040519283612955565b81523d60008383013e5b8051918261274557604051633250574960e11b81523360048201528490fd5b01fd5b6060612726565b929391926001600160e01b0319160361276b5750819083612677565b604051633250574960e11b8152336004820152fd5b9091508481813d83116127b9575b6127988183612955565b810103126101fe57516001600160e01b0319811681036101fe5790866126f4565b503d61278e565b6040516339e3563760e11b8152600060048201528490fd5b60008381526004602052604080822080546001600160a01b0319169055838252600389529020805460001901905561261b565b604051633250574960e11b8152600060048201528690fd5b60405163df9c3d7d60e01b8152600490fd5b905088612529565b15915089612522565b6040516314ec381360e11b8152600490fd5b90508a61250c565b6040516366a0777760e01b8152600490fd5b5061287c85612db8565b156124fa565b6040516358fd19b960e11b8152600490fd5b600435906001600160a01b03821682036101fe57565b604435906001600160a01b03821682036101fe57565b602435906001600160a01b03821682036101fe57565b60e081019081106001600160401b038211176109b957604052565b6001600160401b0381116109b957604052565b60c081019081106001600160401b038211176109b957604052565b608081019081106001600160401b038211176109b957604052565b602081019081106001600160401b038211176109b957604052565b90601f801991011681019081106001600160401b038211176109b957604052565b6001600160401b0381116109b957601f01601f191660200190565b92919261299d82612976565b916129ab6040519384612955565b8294818452818301116101fe578281602093846000960137010152565b9080601f830112156101fe578160206129e393359101612991565b90565b919082519283825260005b848110612a12575050826000602080949584010152601f8019910116010190565b6020818301810151848301820152016129f1565b60609060031901126101fe576001600160a01b039060043582811681036101fe579160243590811681036101fe579060443590565b90815180825260208080930193019160005b828110612a7b575050505090565b835185529381019392810192600101612a6d565b60609060031901126101fe576004356001600160a01b03811681036101fe57906024359060443590565b6001600160401b0381116109b95760051b60200190565b81601f820112156101fe57803591612ae783612ab9565b92612af56040519485612955565b808452602092838086019260051b8201019283116101fe578301905b828210612b1f575050505090565b81358152908301908301612b11565b8054821015612b4a576000526005602060002091020190600090565b634e487b7160e01b600052603260045260246000fd5b90604051612b6d81612904565b825460ff81161515825260081c6001600160a01b031660208201526001830154604082015260028301546060820152600383015460808201526004929092015460a0830152565b8054821015612b4a5760005260206000209060021b0190600090565b90604051612bdd8161291f565b6060600382948054845260018101546020850152600281015460408501520154910152565b6000198114610a325760010190565b91908203918211610a3257565b91908201809211610a3257565b908160209103126101fe575180151581036101fe5790565b8051821015612b4a5760209160051b010190565b90612c6182612ab9565b612c6e6040519182612955565b8281528092612c7f601f1991612ab9565b0190602036910137565b9190811015612b4a5760051b0190565b60005b828110612ca857505050565b606082820152602001612c9c565b8115612cc0570490565b634e487b7160e01b600052601260045260246000fd5b6000808052600b60209081527fdf7de25b7f1fd6d0b5205f0e18f1f35bd7b8d84cce336588d184533ce43a6f7b546040929190157fdf7de25b7f1fd6d0b5205f0e18f1f35bd7b8d84cce336588d184533ce43a6f7681612dab575b50612da457815b6001600160a01b038516808452600d808452858520858052845285852054909190831015612d9a578452825283832083805282526003612d7a82868620612bb4565b50015415612d9057612d8b90612c02565b612d38565b5050505050600190565b5050505091505090565b5091505090565b6004915001541538612d31565b6040516301ffc9a760e01b81526380ac58cd60e01b600482015290602090829060249082906001600160a01b03165afa60009181612dfc575b506129e35750600090565b612e1591925060203d811161099c5761098e8183612955565b9038612df1565b90600182811c92168015612e4c575b6020831014612e3657565b634e487b7160e01b600052602260045260246000fd5b91607f1691612e2b565b6007546001600160a01b03163303612e6a57565b60405163118cdaa760e01b8152336004820152602490fd5b6001600160a01b03918216929091831561300b57600092828452826020956002875260409684888820541696879133151580612f72575b509060027fddf252ad1be2c89b69c2b068fc378daa952ba7f163c4a11628f55a4df523b3ef9284612f3f575b858352600381528b8320805460010190558683525289812080546001600160a01b0319168517905580a41692838303612f1e5750505050565b6064945051926364283d7b60e01b8452600484015260248301526044820152fd5b600087815260046020526040902080546001600160a01b0319169055848352600381528b83208054600019019055612ee5565b91939450915080612fca575b15612f8e57859291879138612eb9565b878688612fab576024915190637e27328960e01b82526004820152fd5b905163177e802f60e01b81523360048201526024810191909152604490fd5b503387148015612fef575b80612f7e5750858252600481523385898420541614612f7e565b5086825260058152878220338352815260ff8883205416612fd5565b604051633250574960e11b815260006004820152602490fd5b6000818152600260205260409020546001600160a01b0316908115613047575090565b60249060405190637e27328960e01b82526004820152fd5b813b61306c575b50505050565b604051630a85bd0160e11b8082523360048301526001600160a01b039283166024830152604482019490945260806064820152602095929091169390929083906130ba9060848301906129e6565b039285816000958187895af1849181613163575b5061312e575050503d600014613126573d6130e881612976565b906130f66040519283612955565b81528091843d92013e5b8051928361312157604051633250574960e11b815260048101849052602490fd5b019050fd5b506060613100565b919450915063ffffffff60e01b160361314b575038808080613066565b60249060405190633250574960e11b82526004820152fd5b9091508681813d83116131a0575b61317b8183612955565b8101031261319c57516001600160e01b03198116810361319c5790386130ce565b8480fd5b503d613171565b9190916000908082526020916006835260408120908551906001600160401b038211613308576131d78354612e1c565b601f81116132c5575b508490601f831160011461324157907ff8e1a15aba9398e019f0b49df1a4fde98ee17ae345cb5f6b5e2c27f5033e8ce7969783613236575b50508160011b916000199060031b1c19161790555b604051908152a1565b015190503880613218565b9196601f198816848452868420935b8181106132ae57509160019391897ff8e1a15aba9398e019f0b49df1a4fde98ee17ae345cb5f6b5e2c27f5033e8ce7999a9410613295575b505050811b01905561322d565b015160001960f88460031b161c19169055388080613288565b929387600181928786015181550195019301613250565b838252858220601f840160051c8101918785106132fe575b601f0160051c01905b8181106132f357506131e0565b8281556001016132e6565b90915081906132dd565b634e487b7160e01b81526041600452602490fd5b60026009541461332d576002600955565b604051633ee5aeb560e01b8152600490fdfea26469706673582212205fcc0a1e27182d43997602062e9bc351de306e55aa8c6d6666d1a2140876e42f64736f6c63430008140033","linkReferences":{}},"methodIdentifiers":{"addReward(uint256,address,uint256,uint256,bool)":"7ebfee3e","approve(address,uint256)":"095ea7b3","balanceOf(address)":"70a08231","claimRewards(uint256[],uint256[][],address)":"99a47faa","contractURI()":"e8a3d485","editPool(uint256,uint256,string)":"04e4d711","getApproved(uint256)":"081812fc","getClaimedAmount(address,uint256,uint256)":"5ea6bda1","getPool(uint256)":"068bcd8d","getReward(uint256,uint256)":"b90bc519","getRewards(uint256)":"c0d8012c","getStake(address,uint256,uint256)":"d33560e6","getStakes(address,uint256)":"4cb8a68b","getTotalPools()":"d3ffe67a","isApprovedForAll(address,address)":"e985e9c5","launchPool(address,address,address,uint256,string)":"00936c9a","name()":"06fdde03","owner()":"8da5cb5b","ownerOf(uint256)":"6352211e","renounceOwnership()":"715018a6","safeTransferFrom(address,address,uint256)":"42842e0e","safeTransferFrom(address,address,uint256,bytes)":"b88d4fde","setApprovalForAll(address,bool)":"a22cb465","setContractURI(string)":"938e3d7b","stake(uint256,uint256,uint256)":"a638f2e2","supportsInterface(bytes4)":"01ffc9a7","symbol()":"95d89b41","tokenURI(uint256)":"c87b56dd","transferFrom(address,address,uint256)":"23b872dd","transferOwnership(address)":"f2fde38b","unstake(uint256,uint256[])":"395de242"},"id":0}