{"abi":[{"type":"constructor","inputs":[{"name":"stakeERC20","type":"address","internalType":"contract IERC20"},{"name":"stakeERC721","type":"address","internalType":"contract IERC721"},{"name":"rewardToken","type":"address","internalType":"contract IERC20"}],"stateMutability":"nonpayable"},{"type":"function","name":"addReward","inputs":[{"name":"poolId","type":"uint256","internalType":"uint256"},{"name":"rewardToken","type":"address","internalType":"contract IERC20"},{"name":"rewardAmount","type":"uint256","internalType":"uint256"},{"name":"claimAfterBlocks","type":"uint256","internalType":"uint256"},{"name":"isForERC721Stakers","type":"bool","internalType":"bool"}],"outputs":[{"name":"rewardId","type":"uint256","internalType":"uint256"}],"stateMutability":"nonpayable"},{"type":"function","name":"approve","inputs":[{"name":"to","type":"address","internalType":"address"},{"name":"tokenId","type":"uint256","internalType":"uint256"}],"outputs":[],"stateMutability":"nonpayable"},{"type":"function","name":"balanceOf","inputs":[{"name":"owner","type":"address","internalType":"address"}],"outputs":[{"name":"","type":"uint256","internalType":"uint256"}],"stateMutability":"view"},{"type":"function","name":"calculateReward","inputs":[{"name":"staker","type":"address","internalType":"address"},{"name":"poolId","type":"uint256","internalType":"uint256"},{"name":"rewardId","type":"uint256","internalType":"uint256"}],"outputs":[{"name":"","type":"address","internalType":"contract IERC20"},{"name":"","type":"uint256","internalType":"uint256"}],"stateMutability":"view"},{"type":"function","name":"claimRewards","inputs":[{"name":"poolIds","type":"uint256[]","internalType":"uint256[]"},{"name":"rewardIds","type":"uint256[][]","internalType":"uint256[][]"},{"name":"recipient","type":"address","internalType":"address"}],"outputs":[{"name":"tokens","type":"address[][]","internalType":"contract IERC20[][]"},{"name":"amounts","type":"uint256[][]","internalType":"uint256[][]"}],"stateMutability":"nonpayable"},{"type":"function","name":"contractURI","inputs":[],"outputs":[{"name":"","type":"string","internalType":"string"}],"stateMutability":"view"},{"type":"function","name":"editPool","inputs":[{"name":"poolId","type":"uint256","internalType":"uint256"},{"name":"totalMax","type":"uint256","internalType":"uint256"},{"name":"metadata","type":"string","internalType":"string"}],"outputs":[],"stateMutability":"nonpayable"},{"type":"function","name":"getApproved","inputs":[{"name":"tokenId","type":"uint256","internalType":"uint256"}],"outputs":[{"name":"","type":"address","internalType":"address"}],"stateMutability":"view"},{"type":"function","name":"getPool","inputs":[{"name":"poolId","type":"uint256","internalType":"uint256"}],"outputs":[{"name":"poolDetails","type":"tuple","internalType":"struct IStaqeStructs.Pool","components":[{"name":"stakeERC20","type":"address","internalType":"contract IERC20"},{"name":"stakeERC721","type":"address","internalType":"contract IERC721"},{"name":"rewardToken","type":"address","internalType":"contract IERC20"},{"name":"totalMax","type":"uint256","internalType":"uint256"},{"name":"totalStakedERC20","type":"uint256","internalType":"uint256"},{"name":"totalStakedERC721","type":"uint256","internalType":"uint256"},{"name":"launchBlock","type":"uint256","internalType":"uint256"}]}],"stateMutability":"view"},{"type":"function","name":"getPool","inputs":[{"name":"staker","type":"address","internalType":"address"},{"name":"poolId","type":"uint256","internalType":"uint256"}],"outputs":[{"name":"poolDetails","type":"tuple","internalType":"struct IStaqeStructs.PoolDetails","components":[{"name":"stakeERC20","type":"address","internalType":"contract IERC20"},{"name":"stakeERC721","type":"address","internalType":"contract IERC721"},{"name":"rewardToken","type":"address","internalType":"contract IERC20"},{"name":"rewarder","type":"address","internalType":"address"},{"name":"metadata","type":"string","internalType":"string"},{"name":"totalMax","type":"uint256","internalType":"uint256"},{"name":"totalStakedERC20","type":"uint256","internalType":"uint256"},{"name":"totalStakedERC721","type":"uint256","internalType":"uint256"},{"name":"totalRewards","type":"uint256","internalType":"uint256"},{"name":"totalStakerStakes","type":"uint256","internalType":"uint256"},{"name":"launchBlock","type":"uint256","internalType":"uint256"}]}],"stateMutability":"view"},{"type":"function","name":"getReward","inputs":[{"name":"staker","type":"address","internalType":"address"},{"name":"poolId","type":"uint256","internalType":"uint256"},{"name":"rewardId","type":"uint256","internalType":"uint256"}],"outputs":[{"name":"rewardDetails","type":"tuple","internalType":"struct IStaqeStructs.RewardDetails","components":[{"name":"isForERC721Stakers","type":"bool","internalType":"bool"},{"name":"rewardToken","type":"address","internalType":"contract IERC20"},{"name":"rewardAmount","type":"uint256","internalType":"uint256"},{"name":"stakerRewardAmount","type":"uint256","internalType":"uint256"},{"name":"totalStaked","type":"uint256","internalType":"uint256"},{"name":"claimAfterBlocks","type":"uint256","internalType":"uint256"},{"name":"rewardBlock","type":"uint256","internalType":"uint256"},{"name":"claimed","type":"bool","internalType":"bool"}]}],"stateMutability":"view"},{"type":"function","name":"getReward","inputs":[{"name":"poolId","type":"uint256","internalType":"uint256"},{"name":"rewardId","type":"uint256","internalType":"uint256"}],"outputs":[{"name":"rewardDetails","type":"tuple","internalType":"struct IStaqeStructs.Reward","components":[{"name":"isForERC721Stakers","type":"bool","internalType":"bool"},{"name":"rewardToken","type":"address","internalType":"contract IERC20"},{"name":"rewardAmount","type":"uint256","internalType":"uint256"},{"name":"totalStaked","type":"uint256","internalType":"uint256"},{"name":"claimAfterBlocks","type":"uint256","internalType":"uint256"},{"name":"rewardBlock","type":"uint256","internalType":"uint256"}]}],"stateMutability":"view"},{"type":"function","name":"getRewards","inputs":[{"name":"poolId","type":"uint256","internalType":"uint256"}],"outputs":[{"name":"","type":"tuple[]","internalType":"struct IStaqeStructs.Reward[]","components":[{"name":"isForERC721Stakers","type":"bool","internalType":"bool"},{"name":"rewardToken","type":"address","internalType":"contract IERC20"},{"name":"rewardAmount","type":"uint256","internalType":"uint256"},{"name":"totalStaked","type":"uint256","internalType":"uint256"},{"name":"claimAfterBlocks","type":"uint256","internalType":"uint256"},{"name":"rewardBlock","type":"uint256","internalType":"uint256"}]}],"stateMutability":"view"},{"type":"function","name":"getStake","inputs":[{"name":"staker","type":"address","internalType":"address"},{"name":"poolId","type":"uint256","internalType":"uint256"},{"name":"stakeId","type":"uint256","internalType":"uint256"}],"outputs":[{"name":"stakeDetails","type":"tuple","internalType":"struct IStaqeStructs.Stake","components":[{"name":"amountERC20","type":"uint256","internalType":"uint256"},{"name":"idERC721","type":"uint256","internalType":"uint256"},{"name":"stakeBlock","type":"uint256","internalType":"uint256"},{"name":"unstakeBlock","type":"uint256","internalType":"uint256"}]}],"stateMutability":"view"},{"type":"function","name":"getStakes","inputs":[{"name":"staker","type":"address","internalType":"address"},{"name":"poolId","type":"uint256","internalType":"uint256"}],"outputs":[{"name":"","type":"tuple[]","internalType":"struct IStaqeStructs.Stake[]","components":[{"name":"amountERC20","type":"uint256","internalType":"uint256"},{"name":"idERC721","type":"uint256","internalType":"uint256"},{"name":"stakeBlock","type":"uint256","internalType":"uint256"},{"name":"unstakeBlock","type":"uint256","internalType":"uint256"}]}],"stateMutability":"view"},{"type":"function","name":"getTotalPools","inputs":[],"outputs":[{"name":"","type":"uint256","internalType":"uint256"}],"stateMutability":"view"},{"type":"function","name":"isApprovedForAll","inputs":[{"name":"owner","type":"address","internalType":"address"},{"name":"operator","type":"address","internalType":"address"}],"outputs":[{"name":"","type":"bool","internalType":"bool"}],"stateMutability":"view"},{"type":"function","name":"launchPool","inputs":[{"name":"stakeERC20","type":"address","internalType":"contract IERC20"},{"name":"stakeERC721","type":"address","internalType":"contract IERC721"},{"name":"rewardToken","type":"address","internalType":"contract IERC20"},{"name":"totalMax","type":"uint256","internalType":"uint256"},{"name":"metadata","type":"string","internalType":"string"}],"outputs":[{"name":"poolId","type":"uint256","internalType":"uint256"}],"stateMutability":"nonpayable"},{"type":"function","name":"name","inputs":[],"outputs":[{"name":"","type":"string","internalType":"string"}],"stateMutability":"view"},{"type":"function","name":"owner","inputs":[],"outputs":[{"name":"","type":"address","internalType":"address"}],"stateMutability":"view"},{"type":"function","name":"ownerOf","inputs":[{"name":"tokenId","type":"uint256","internalType":"uint256"}],"outputs":[{"name":"","type":"address","internalType":"address"}],"stateMutability":"view"},{"type":"function","name":"renounceOwnership","inputs":[],"outputs":[],"stateMutability":"nonpayable"},{"type":"function","name":"safeTransferFrom","inputs":[{"name":"from","type":"address","internalType":"address"},{"name":"to","type":"address","internalType":"address"},{"name":"tokenId","type":"uint256","internalType":"uint256"}],"outputs":[],"stateMutability":"nonpayable"},{"type":"function","name":"safeTransferFrom","inputs":[{"name":"from","type":"address","internalType":"address"},{"name":"to","type":"address","internalType":"address"},{"name":"tokenId","type":"uint256","internalType":"uint256"},{"name":"data","type":"bytes","internalType":"bytes"}],"outputs":[],"stateMutability":"nonpayable"},{"type":"function","name":"setApprovalForAll","inputs":[{"name":"operator","type":"address","internalType":"address"},{"name":"approved","type":"bool","internalType":"bool"}],"outputs":[],"stateMutability":"nonpayable"},{"type":"function","name":"setContractURI","inputs":[{"name":"newURI","type":"string","internalType":"string"}],"outputs":[],"stateMutability":"nonpayable"},{"type":"function","name":"stake","inputs":[{"name":"poolId","type":"uint256","internalType":"uint256"},{"name":"amount","type":"uint256","internalType":"uint256"},{"name":"id","type":"uint256","internalType":"uint256"}],"outputs":[{"name":"stakeId","type":"uint256","internalType":"uint256"}],"stateMutability":"nonpayable"},{"type":"function","name":"supportsInterface","inputs":[{"name":"interfaceId","type":"bytes4","internalType":"bytes4"}],"outputs":[{"name":"","type":"bool","internalType":"bool"}],"stateMutability":"view"},{"type":"function","name":"symbol","inputs":[],"outputs":[{"name":"","type":"string","internalType":"string"}],"stateMutability":"view"},{"type":"function","name":"tokenURI","inputs":[{"name":"tokenId","type":"uint256","internalType":"uint256"}],"outputs":[{"name":"","type":"string","internalType":"string"}],"stateMutability":"view"},{"type":"function","name":"transferFrom","inputs":[{"name":"from","type":"address","internalType":"address"},{"name":"to","type":"address","internalType":"address"},{"name":"tokenId","type":"uint256","internalType":"uint256"}],"outputs":[],"stateMutability":"nonpayable"},{"type":"function","name":"transferOwnership","inputs":[{"name":"newOwner","type":"address","internalType":"address"}],"outputs":[],"stateMutability":"nonpayable"},{"type":"function","name":"unstake","inputs":[{"name":"poolId","type":"uint256","internalType":"uint256"},{"name":"stakeIds","type":"uint256[]","internalType":"uint256[]"}],"outputs":[{"name":"amountERC20","type":"uint256","internalType":"uint256"},{"name":"idsERC721","type":"uint256[]","internalType":"uint256[]"}],"stateMutability":"nonpayable"},{"type":"event","name":"Approval","inputs":[{"name":"owner","type":"address","indexed":true,"internalType":"address"},{"name":"approved","type":"address","indexed":true,"internalType":"address"},{"name":"tokenId","type":"uint256","indexed":true,"internalType":"uint256"}],"anonymous":false},{"type":"event","name":"ApprovalForAll","inputs":[{"name":"owner","type":"address","indexed":true,"internalType":"address"},{"name":"operator","type":"address","indexed":true,"internalType":"address"},{"name":"approved","type":"bool","indexed":false,"internalType":"bool"}],"anonymous":false},{"type":"event","name":"BatchMetadataUpdate","inputs":[{"name":"_fromTokenId","type":"uint256","indexed":false,"internalType":"uint256"},{"name":"_toTokenId","type":"uint256","indexed":false,"internalType":"uint256"}],"anonymous":false},{"type":"event","name":"Claimed","inputs":[{"name":"staker","type":"address","indexed":true,"internalType":"address"},{"name":"poolId","type":"uint256","indexed":true,"internalType":"uint256"}],"anonymous":false},{"type":"event","name":"ContractURIUpdated","inputs":[],"anonymous":false},{"type":"event","name":"Launched","inputs":[{"name":"poolId","type":"uint256","indexed":true,"internalType":"uint256"}],"anonymous":false},{"type":"event","name":"MetadataUpdate","inputs":[{"name":"_tokenId","type":"uint256","indexed":false,"internalType":"uint256"}],"anonymous":false},{"type":"event","name":"OwnershipTransferred","inputs":[{"name":"previousOwner","type":"address","indexed":true,"internalType":"address"},{"name":"newOwner","type":"address","indexed":true,"internalType":"address"}],"anonymous":false},{"type":"event","name":"Rewarded","inputs":[{"name":"poolId","type":"uint256","indexed":true,"internalType":"uint256"},{"name":"rewardId","type":"uint256","indexed":true,"internalType":"uint256"}],"anonymous":false},{"type":"event","name":"Staked","inputs":[{"name":"staker","type":"address","indexed":true,"internalType":"address"},{"name":"poolId","type":"uint256","indexed":true,"internalType":"uint256"},{"name":"stakeId","type":"uint256","indexed":true,"internalType":"uint256"}],"anonymous":false},{"type":"event","name":"Transfer","inputs":[{"name":"from","type":"address","indexed":true,"internalType":"address"},{"name":"to","type":"address","indexed":true,"internalType":"address"},{"name":"tokenId","type":"uint256","indexed":true,"internalType":"uint256"}],"anonymous":false},{"type":"event","name":"Unstaked","inputs":[{"name":"staker","type":"address","indexed":true,"internalType":"address"},{"name":"poolId","type":"uint256","indexed":true,"internalType":"uint256"}],"anonymous":false},{"type":"error","name":"ERC721IncorrectOwner","inputs":[{"name":"sender","type":"address","internalType":"address"},{"name":"tokenId","type":"uint256","internalType":"uint256"},{"name":"owner","type":"address","internalType":"address"}]},{"type":"error","name":"ERC721InsufficientApproval","inputs":[{"name":"operator","type":"address","internalType":"address"},{"name":"tokenId","type":"uint256","internalType":"uint256"}]},{"type":"error","name":"ERC721InvalidApprover","inputs":[{"name":"approver","type":"address","internalType":"address"}]},{"type":"error","name":"ERC721InvalidOperator","inputs":[{"name":"operator","type":"address","internalType":"address"}]},{"type":"error","name":"ERC721InvalidOwner","inputs":[{"name":"owner","type":"address","internalType":"address"}]},{"type":"error","name":"ERC721InvalidReceiver","inputs":[{"name":"receiver","type":"address","internalType":"address"}]},{"type":"error","name":"ERC721InvalidSender","inputs":[{"name":"sender","type":"address","internalType":"address"}]},{"type":"error","name":"ERC721NonexistentToken","inputs":[{"name":"tokenId","type":"uint256","internalType":"uint256"}]},{"type":"error","name":"InvalidAmountOrId","inputs":[]},{"type":"error","name":"InvalidERC721Token","inputs":[]},{"type":"error","name":"InvalidMetadata","inputs":[]},{"type":"error","name":"InvalidRewardToken","inputs":[]},{"type":"error","name":"InvalidStakeId","inputs":[]},{"type":"error","name":"InvalidStakeToken","inputs":[]},{"type":"error","name":"MoreThanTheTotalMaxTokens","inputs":[]},{"type":"error","name":"OnlyAvailableToStakersInGenesis","inputs":[]},{"type":"error","name":"OnlyOwnerHasAccessToAddRewards","inputs":[]},{"type":"error","name":"OnlyOwnerHasAccessToEditMetadata","inputs":[]},{"type":"error","name":"OwnableInvalidOwner","inputs":[{"name":"owner","type":"address","internalType":"address"}]},{"type":"error","name":"OwnableUnauthorizedAccount","inputs":[{"name":"account","type":"address","internalType":"address"}]},{"type":"error","name":"PoolDoesNotExist","inputs":[]},{"type":"error","name":"PoolDoesNotHaveStakes","inputs":[]},{"type":"error","name":"ReentrancyGuardReentrantCall","inputs":[]},{"type":"error","name":"RewardAlreadyClaimed","inputs":[]},{"type":"error","name":"RewardIsEmpty","inputs":[]},{"type":"error","name":"RewardIsNotYetAvailableForClaim","inputs":[]},{"type":"error","name":"RewardNotFoundInPool","inputs":[]},{"type":"error","name":"RewardTransferFailed","inputs":[]},{"type":"error","name":"StakeAlreadyUnstaked","inputs":[]},{"type":"error","name":"StakeOnNextBlockAfterReward","inputs":[]},{"type":"error","name":"StakeTransferFailed","inputs":[]},{"type":"error","name":"StakerDoesNotHaveStakesInPool","inputs":[]},{"type":"error","name":"TotalMaxForOnlyOneTypeOfToken","inputs":[]},{"type":"error","name":"UnstakeOnNextBlockAndGetReward","inputs":[]},{"type":"error","name":"UnstakeTransferFailed","inputs":[]}],"bytecode":{"object":"0x6080346200043757601f1990601f62003d0e3881900382810185168401936001600160401b0393929091908486118387101762000421578160609284926040988952833981010312620004375762000057816200045c565b94602092838301519060018060a01b03938483168093036200043757876200008091016200045c565b906200008b6200043c565b94600b86526a537461716520506f6f6c7360a81b87870152620000ad6200043c565b936003958686526253545160e81b8987015287518a81116200042157806000998a8c620000db825462000471565b89808211620003f0575b505050508b908783116001146200038c578b9262000380575b50508160011b91600019908a1b1c19161788555b8551908a82116200036c5781906001978a8c620001308b5462000471565b898c8183116200032f575b50505050508b91878411600114620002ce57508a92620002c2575b505060001982891b1c191690861b1785555b3315620002aa57600780546001600160a01b03198082163390811790935594919084167f8be0079c531659141344cd1fd0a4f28419497f9722a3daafe3b4186f6b6457e08a80a3620001bc60085462000471565b81811162000288575b505060006008558460095589519860e08a01908a82109082111762000274578a9b83918b9c9b999a9b52168752888701908152818b880194168452816060880195898752818d8b60808c019b818d5260a081019d8e5260c0019d8e439052818052600b9052209c5116858d5416178c558b019151168382541617905560028901925116908254161790555190850155516004840155516005830155519060060155516138469081620004c88239f35b634e487b7160e01b88526041600452602488fd5b620002a29160088a528a8a20910160051c810190620004ae565b3880620001c5565b8951631e4fbdf760e01b815260048101889052602490fd5b01519050388062000156565b898c528c8c208a9590939291168c8e5b828210620003175750508411620002fe575b505050811b01855562000168565b0151600019838b1b60f8161c19169055388080620002f0565b8385015186558c979095019493840193018e620002de565b848491620003579652209181880160051c830193881062000362575b0160051c0190620004ae565b8a8c38898c6200013b565b925081926200034b565b634e487b7160e01b89526041600452602489fd5b015190503880620000fe565b8b80528c8c209285168c8e5b828210620003d8575050908460019594939210620003bf575b505050811b01885562000112565b0151600019838c1b60f8161c19169055388080620003b1565b60018596829396860151815501950193018e62000398565b828480620004179652209181870160051c830193871062000362570160051c0190620004ae565b8a8c3889620000e5565b634e487b7160e01b600052604160045260246000fd5b600080fd5b60408051919082016001600160401b038111838210176200042157604052565b51906001600160a01b03821682036200043757565b90600182811c92168015620004a3575b60208310146200048d57565b634e487b7160e01b600052602260045260246000fd5b91607f169162000481565b818110620004ba575050565b60008155600101620004ae56fe6080604052600436101561001257600080fd5b60003560e01c8062936c9a1461254557806301ffc9a7146124bd57806304e4d711146123fa578063068bcd8d1461230957806306fdde0314612266578063081812fc14612228578063095ea7b31461214157806323b872dd1461212a5780632c32c360146120fb578063395de24214611c1257806342842e0e14611be45780634cb8a68b14611af057806350f9b39e146118f95780635b5b9ea2146116be5780636352211e1461168e57806370a0823114611635578063715018a6146115d85780637ebfee3e146112f95780638da5cb5b146112d0578063938e3d7b1461113057806395d89b411461108d57806399a47faa14610a58578063a22cb465146109aa578063a638f2e214610624578063b88d4fde146105b8578063b90bc5191461054f578063c0d8012c1461045a578063c87b56dd1461043b578063d33560e614610373578063d3ffe67a14610355578063e8a3d4851461026f578063e985e9c5146102195763f2fde38b1461018657600080fd5b346102145760203660031901126102145761019f6129a4565b6101a7613262565b6001600160a01b039081169081156101fb57600754826bffffffffffffffffffffffff60a01b821617600755167f8be0079c531659141344cd1fd0a4f28419497f9722a3daafe3b4186f6b6457e0600080a3005b604051631e4fbdf760e01b815260006004820152602490fd5b600080fd5b34610214576040366003190112610214576102326129a4565b61023a6129d0565b9060018060a01b03809116600052600560205260406000209116600052602052602060ff604060002054166040519015158152f35b3461021457600036600319011261021457604051600060085461029181613228565b8084529060019081811690811561032e57506001146102d3575b6102cf846102bb81860382612a9d565b604051918291602083526020830190612b2e565b0390f35b6008600090815292507ff3f7a9fe364faab93b216da50a3214154f22a0a2b415b23a84c8169e8b636ee35b8284106103165750505081016020016102bb826102ab565b805460208587018101919091529093019281016102fe565b60ff191660208087019190915292151560051b850190920192506102bb91508390506102ab565b34610214576000366003190112610214576020600a54604051908152f35b3461021457608061038336612ba3565b60405191929161039281612a67565b600081526000602082015260006040820152600060608201529160018060a01b03169283600052600d6020526040600020816000526020526040600020548210610406575b84836104046040518092606080918051845260208101516020850152604081015160408501520151910152565bf35b61042d925061043393600052600d6020526040600020906000526020526040600020612d59565b50612d75565b8083806103d7565b34610214576020366003190112610214576102cf6102bb6004356135b3565b346102145760208060031936011261021457600435600052600c8152604060002090815461048781612c01565b906104956040519283612a9d565b8082528282018094600052836000206000915b8383106105325760408051878152865181890181905289928201908960005b8281106104d45784840385f35b9091928260c0826105236001948a5160a08091805115158452600180831b0360208201511660208501526040810151604085015260608101516060850152608081015160808501520151910152565b019601910194929190946104c7565b60058660019261054185612ca8565b8152019201920191906104a8565b346102145760403660031901126102145760c0610570602435600435612cfc565b610404604051809260a08091805115158452600180831b0360208201511660208501526040810151604085015260608101516060850152608081015160808501520151910152565b34610214576080366003190112610214576105d16129a4565b6105d96129d0565b90604435606435926001600160401b038411610214573660238501121561021457610611610622943690602481600401359101612ad9565b9261061d83838361328e565b61346b565b005b34610214576060366003190112610214576044356004356024356106466137ed565b81600052602092600b845260406000206006810154156109985782159283159380610990575b61097e5784600052600c8652604060002080548015159182610957575b50506109455733600052600d86526040600020856000528652836040600020549461092f575b8315159182610901575b6003840154806108b6575b5033600052600d88526040600020876000528852604060002090604051916106eb83612a67565b8183528983019287845260408101914383526060820190600082528054600160401b8110156108a05761072391600182018155612d59565b93909361088a578c95600393518555516001850155516002840155519101558261080a575b50506107f857610789575b50508060405192337f1449c6dd7851abc30abf37f57715f492010519147cc2652fbc38202c18a6ee90600080a460016009558152f35b600101546001600160a01b0316803b15610214576040516323b872dd60e01b815233600482015230602482015260448101929092526000908290606490829084905af180156107ec576107dd575b80610753565b6107e690612a01565b836107d7565b6040513d6000823e3d90fd5b604051631231ec2f60e21b8152600490fd5b84546040516323b872dd60e01b81523360048201523060248201526044810192909252909250829060649082906000906001600160a01b03165af19081156107ec5760009161085d575b50158688610748565b61087d9150873d8911610883575b6108758183612a9d565b810190612dd0565b87610854565b503d61086b565b634e487b7160e01b600052600060045260246000fd5b634e487b7160e01b600052604160045260246000fd5b82806108f4575b6108d4578390816108e6575b506108d457886106c4565b604051636dce347360e11b8152600490fd5b9050600585015411896108c9565b50806004860154116108bd565b600584018054906001820180921161091957556106b9565b634e487b7160e01b600052601160045260246000fd5b6004830161093e838254612dc3565b90556106af565b604051630485995160e51b8152600490fd5b600019820192509082116109195760049161097191612c76565b5001544311158780610689565b604051633b91be2160e21b8152600490fd5b50821561066c565b6040516302721e1f60e61b8152600490fd5b34610214576040366003190112610214576109c36129a4565b6024359081151590818303610214576001600160a01b0316918215610a3f57610a119033600052600560205260406000208460005260205260406000209060ff801983541691151516179055565b6040519081527f17307eab39ab6107e8899845ad3d59bd9653f200f220920489ca2b5937696c3160203392a3005b604051630b61174360e31b815260048101849052602490fd5b34610214576060366003190112610214576001600160401b0360043581811161021457610a89903690600401612c18565b602491823590808211610214573660238301121561021457816004013593610ab085612c01565b94610abe6040519687612a9d565b80865281602087019160051b8501019236841161021457828501915b848310611066578787610aeb6129ba565b610af36137ed565b6001600160a01b0381161561105f575b815190610b39610b1283612c01565b92610b206040519485612a9d565b808452610b2f601f1991612c01565b0160208401612e3e565b825193610b6f610b4886612c01565b95610b566040519788612a9d565b808752610b65601f1991612c01565b0160208701612e3e565b6000915b8451831015610c9157610b868383612de8565b5151610b9181612c01565b90610b9f6040519283612a9d565b808252610bae601f1991612c01565b01366020830137610bbf8486612de8565b52610bca8385612de8565b50610bdf610bd88484612de8565b5151612dfc565b610be98488612de8565b52610bf48387612de8565b5083868660005b610c058787612de8565b5151811015610c7d578084610c66828a80610c6083610c42610c588f610c5090610c48610c789d8f89610c3b81610c4293612de8565b5194612de8565b51612de8565b519033612e7b565b959099612de8565b51948c612de8565b52612de8565b6001600160a01b039091169052612da7565b610bfb565b5050505091610c8b90612da7565b91610b73565b858583866000945b8351861015610d255760005b610caf8785612de8565b5151811015610d145780610cca610d0f92610c428a8a612de8565b5133600052600e6020526040600020610ce38a89612de8565b516000526020526040600020610cfd83610c428c8a612de8565b51600052602052604060002055612da7565b610ca5565b5094610d1f90612da7565b94610c99565b60009085855b8051841015610f5f57610d3e8482612de8565b516000908152600b60205260409020600201546001600160a01b031680610e98575060005b610d6d8588612de8565b5151811015610e5557610d8481610c428786612de8565b518015610e4357600090602090610de4906001600160a01b03610dab86610c428c8e612de8565b5160405163a9059cbb60e01b81526001600160a01b038b1660048201526024810193909352919485939190921691839182906044820190565b03925af19081156107ec57600091610e24575b5015610e125784610e0a610d6d92612da7565b915050610d63565b60405163078ecf4160e41b8152600490fd5b610e3d915060203d602011610883576108758183612a9d565b88610df7565b604051635f65f16560e11b8152600490fd5b5092610e92905b610e668186612de8565b51337fd8138f8a3f377c5259ca548e70e4c2de94f129f5a11036a15b69513cba2b426a600080a3612da7565b92610d2b565b90919260009695966000905b610eae8789612de8565b5151821015610edf57610ed3610ed991610ecc84610c428b8b612de8565b5190612dc3565b91612da7565b90610ea4565b919493959290509695968115610e435760405163a9059cbb60e01b81526001600160a01b03861660048201526024810192909252602090829060449082906000905af19081156107ec57600091610f40575b5015610e1257610e9290610e5c565b610f59915060203d602011610883576108758183612a9d565b87610f31565b508360018060095560405191604083016040845281518091526060840190602060608260051b8701019301916000905b828210610ff857505050508281036020840152835180825260208201916020808360051b8301019601926000915b838310610fca5786880387f35b9091929394602080610fe7839a601f198682030187528951612bcd565b999701959491909101920190610fbd565b9091929394809795605f19888203018352855190602080835192838152019201906000905b8481831061103e575050505060208091960192019201909291969496610f8f565b83516001600160a01b0316855260209485019490930192919091019061101d565b5033610b03565b82358281116102145760209161108283928736918b0101612c18565b815201920191610ada565b3461021457600036600319011261021457604051600060018054906110b182613228565b8085529181811690811561032e57506001146110d7576102cf846102bb81860382612a9d565b600081815292507fb10e2d527612073b26eecdfd717e6a320cf44b4afac2b0732d9fcbe2b7fa0cf65b8284106111185750505081016020016102bb826102ab565b80546020858701810191909152909301928101611100565b3461021457602080600319360112610214576001600160401b0360043581811161021457611162903690600401612b10565b9161116b613262565b82519182116108a05761117f600854613228565b601f811161126c575b5080601f83116001146111e8575081926000926111dd575b50508160011b916000199060031b1c1916176008555b7fa5d4097edda6d87cb9329af83fb3712ef77eeb13738ffe43cc35a4ce305ad962600080a1005b0151905082806111a0565b90601f1983169360086000527ff3f7a9fe364faab93b216da50a3214154f22a0a2b415b23a84c8169e8b636ee3926000905b868210611254575050836001951061123b575b505050811b016008556111b6565b015160001960f88460031b161c1916905582808061122d565b8060018596829496860151815501950193019061121a565b60086000527ff3f7a9fe364faab93b216da50a3214154f22a0a2b415b23a84c8169e8b636ee3601f840160051c8101918385106112c6575b601f0160051c01905b8181106112ba5750611188565b600081556001016112ad565b90915081906112a4565b34610214576000366003190112610214576007546040516001600160a01b039091168152602090f35b346102145760a0366003190112610214576004356113156129d0565b906044359160843590811590811590818403610214576113336137ed565b8085600052602096600b8852604060002060405192611351846129e6565b60018060a01b0396878354168552876001840154168b8601528760028401541691604086019283526003840154606087015260c060048501549660808101978852600660058701549660a083019788520154918291015215610998578816156115c657831580156115b3575b610e43576113ca8a613430565b88339116036115a157889081611597575b8115611580575b5061156e5751861680611566575b5087600052600c895260406000209283549760001461155d575051945b6040519461141a86612a4c565b85528885019316918284526040850194828652606081019687526080810191606435835260a0820190438252600160401b8a10156108a0578961146291600182018155612c76565b93909361088a576000988c986114f49861148d600496511515889060ff801983541691151516179055565b518654610100600160a81b03191660089190911b610100600160a81b0316178655516001860155516002850155516003840155519101556040516323b872dd60e01b8152336004820152306024820152604481019190915293849283919082906064820190565b03925af19081156107ec57600091611540575b5015610e125780604051927fa3497b969e8cb093a223f5d62236b21822e7983269a8d00d3f0281e03da24a09600080a360016009558152f35b6115579150843d8611610883576108758183612a9d565b84611507565b9050519461140d565b9350896113f0565b6040516303bdf00d60e31b8152600490fd5b90508061158e575b8b6113e2565b50835115611588565b83511591506113db565b604051630a781f0560e21b8152600490fd5b508880156113bd575082518411156113bd565b60405163dfde867160e01b8152600490fd5b34610214576000366003190112610214576115f1613262565b600780546001600160a01b031981169091556000906001600160a01b03167f8be0079c531659141344cd1fd0a4f28419497f9722a3daafe3b4186f6b6457e08280a3005b34610214576020366003190112610214576001600160a01b036116566129a4565b1680156116755760005260036020526020604060002054604051908152f35b6040516322718ad960e21b815260006004820152602490fd5b346102145760203660031901126102145760206116ac600435613430565b6040516001600160a01b039091168152f35b34610214576040366003190112610214576116d76129a4565b60006101406040516116e881612a30565b828152826020820152826040820152826060820152606060808201528260a08201528260c08201528260e082015282610100820152826101208201520152602435600052600b6020526040600020604051611742816129e6565b81546001600160a01b0390811680835260018401548216602084018190526002850154909216604084018190526003850154606085015260048501546080850152600585015460a085015260069094015460c08401529390926117a6602435613430565b6117b16024356135b3565b60608501519060808601519260a087015194602435600052600c6020526040600020549660018060a01b0316600052600d602052604060002060243560005260205260c0604060002054980151986040519a61180c8c612a30565b8b5260208b015260408a015260018060a01b03166060890152608088015260a087015260c086015260e085015261010084015261012083015261014082015260405180916020825260018060a01b03815116602083015260018060a01b03602082015116604083015260018060a01b03604082015116606083015260018060a01b03606082015116608083015260808101516101406118b9610160928360a0870152610180860190612b2e565b9260a081015160c086015260c081015160e086015260e0810151610100860152610100810151610120860152610120810151828601520151908301520390f35b346102145761190736612ba3565b60409291925161191681612a14565b60008152600060e060209282848201528260408201528260608201528260808201528260a08201528260c082015201526119508285612cfc565b60009360009360405196630161961b60e51b885260018060a01b0392838116908160048b01528260248b01528360448b015260408a606481305afa600081600092611aac575b6101009c50611a9a5750506001600160a01b03166000908152600e602090815260408083208584528252808320868452909152902054611a6c575b5050505b81511515948184840151169360408401519060608501519360a060808701519601519660e0604051611a0681612a14565b8b815284810192835260408101958652606081019687526080810197885260a0810198895260c08101998a52019815158952604051998a525116908801525160408701525160608601525160808501525160a08401525160c083015251151560e0820152f35b6000908152600e865260408082209282529186528181209281529185529020549450600193508680806119d1565b86168789015298506119d59350505050565b91505060408b3d604011611ae8575b81611ac860409383612a9d565b81010312610214578a51868116810361021457886101009c015191611996565b3d9150611abb565b34610214576040366003190112610214576001600160a01b03611b116129a4565b166000526020600d8152604060002060243560005281526040600020908154611b3981612c01565b90611b476040519283612a9d565b8082528282018094600052836000206000915b838310611bc75760408051878152865181890181905289928201908960005b828110611b865784840385f35b90919282608082611bb86001948a51606080918051845260208101516020850152604081015160408501520151910152565b01960191019492919094611b79565b600486600192611bd685612d75565b815201920192019190611b5a565b3461021457610622611bf536612b6e565b9060405192611c0384612a82565b6000845261061d83838361328e565b34610214576040366003190112610214576001600160401b038060243511610214573660236024350112156102145760243560040135116102145736602480356004013560051b813501011161021457611c6a6137ed565b600435600052600b602052604060002060405190611c87826129e6565b60018060a01b038154168252600660018060a01b03600183015416916020840192835260018060a01b0360028201541660408501526003810154606085015260048101546080850152600581015460a0850152015460c0830152600435600052600c60205260406000208054611cfc81612c01565b91611d0a6040519384612a9d565b818352602083019060005260206000206000915b8383106120dd5750505050805180151591826120b6575b50506120a457600435600052600b6020526040600020906006820154156109985733600052600d60205260406000206004356000526020526040600020602435600401351590811561209a575b50611f7a576000916000611d9b60243560040135612dfc565b9460005b602435600401358110611f94575084159182159280611f8c575b611f7a5782611f64575b8015159384611f4c575b505081611ee1575b50611ecf57611e2a575b506102cf604051928392600435337f0f5bb82176feb1b5e747e28471aa92156a04d9f3ab9f45f28e2d704232b93f75600080a360016009558352604060208401526040830190612bcd565b60005b8351811015611ec757611e408185612de8565b5115611ebe5781516001600160a01b031690611e5c8186612de8565b5191803b1561021457604051632142170760e11b815230600482015233602482015260448101939093526000908390606490829084905af19182156107ec57611eaa92611eaf575b50612da7565b611e2d565b611eb890612a01565b85611ea4565b611eaa90612da7565b505082611ddf565b604051631b9f013160e11b8152600490fd5b5160405163a9059cbb60e01b8152336004820152602481018690529150602090829060449082906000906001600160a01b03165af19081156107ec57600091611f2d575b501585611dd5565b611f46915060203d602011610883576108758183612a9d565b85611f25565b6005611f5b9101918254612db6565b90558680611dcd565b60048401611f73878254612db6565b9055611dc3565b6040516319a089c160e01b8152600490fd5b508015611db9565b611fa981602435600401356024803501612e2e565b3533600052600d602052604060002060043560005260205260406000205411156120885733600052600d6020526040600020600435600052602052612008604060002061200183602435600401356024803501612e2e565b3590612d59565b509560038701541580159061207a575b612068576120306001914360038a0155885490612dc3565b96015480612048575b5061204390612da7565b611d9f565b81936120619161205b612043948b612de8565b52612da7565b9290612039565b60405163793ef5e960e11b8152600490fd5b504360028801541015612018565b604051639b763f7160e01b8152600490fd5b9050541584611d82565b6040516371f7dfa560e01b8152600490fd5b600019820192509082116109195760a0916120d091612de8565b5101514311158380611d35565b600560206001926120ed85612ca8565b815201920192019190611d1e565b3461021457604061211461210e36612ba3565b91612e7b565b82516001600160a01b0390921682526020820152f35b346102145761062261213b36612b6e565b9161328e565b346102145760403660031901126102145761215a6129a4565b60243561216681613430565b33151580612215575b806121e8575b6121d0576001600160a01b039283169282918491167f8c5be1e5ebec7d5bd14f71427d1e84f3dd0314c0f7b2291e5b200ac8c7c3b925600080a4600090815260046020526040902080546001600160a01b0319169091179055005b60405163a9fbf51f60e01b8152336004820152602490fd5b5060018060a01b038116600052600560205260406000203360005260205260ff6040600020541615612175565b506001600160a01b03811633141561216f565b346102145760203660031901126102145760043561224581613430565b506000526004602052602060018060a01b0360406000205416604051908152f35b34610214576000366003190112610214576040516000805461228781613228565b8084529060019081811690811561032e57506001146122b0576102cf846102bb81860382612a9d565b600080805292507f290decd9548b62a8d60345a988386fc84ba6bc95484008f6362f93160ef3e5635b8284106122f15750505081016020016102bb826102ab565b805460208587018101919091529093019281016122d9565b3461021457602036600319011261021457600060c060405161232a816129e6565b8281528260208201528260408201528260608201528260808201528260a08201520152600435600052600b60205260e0604060002060405161236b816129e6565b60018060a01b0391828154169283835280600183015416906020840191825280600284015416906040850191825260038401549160608601928352816004860154946080880195865260c0600660058901549860a08b01998a520154980197885260405198895251166020880152511660408601525160608501525160808401525160a08301525160c0820152f35b34610214576060366003190112610214576024356004356044356001600160401b03811161021457612430903690600401612b10565b906124396137ed565b80600052600b602052604060002092600684015415610998578251156124ab5761246282613430565b336001600160a01b039091160361249957600361248a940180548211612491575b5050613678565b6001600955005b558380612483565b60405163982cbfb960e01b8152600490fd5b604051635e765b2560e11b8152600490fd5b346102145760203660031901126102145760043563ffffffff60e01b811680910361021457602090632483248360e11b8114908115612502575b506040519015158152f35b6380ac58cd60e01b811491508115612534575b8115612523575b50826124f7565b6301ffc9a760e01b1490508261251c565b635b5e139f60e01b81149150612515565b346102145760a03660031901126102145761255e6129a4565b60249081356001600160a01b03818116918290036102145761257e6129ba565b91606435936084356001600160401b038111610214576125a2903690600401612b10565b6125aa6137ed565b6125b333613146565b15612992578215801592838061293b575b61292957851692831580928193612921575b5061290f578251156124ab578715159182612906575b50816128fe575b506128ec576126b3916006612609600a54612da7565b9687600a556040519261261b846129e6565b835260209889840196875287604085019216825260608401908152608084016000815260a08501916000835260c08601934385528b600052600b8d528a6040600020975116996bffffffffffffffffffffffff60a01b9a8b8954161788558b600189019151168b8254161790558a600288019151168a8254161790555160038601555160048501555160058401555191015584613678565b604051916126c083612a82565b6000835233156128d457839081600052600286526040600020541680151592836128a1575b33600052600387526040600020600181540190558260005260028752604060002090339082541617905533907fddf252ad1be2c89b69c2b068fc378daa952ba7f163c4a11628f55a4df523b3ef600080a461288957333b612775575b5060405190807feca0dfbda743d141662328d4d48393e344b2c60df0430297221df823f2926dba600080a260016009558152f35b6040518381806127ad630a85bd0160e11b9586835233600484015260008a840152876044840152608060648401526084830190612b2e565b03816000335af160009181612849575b50612818575050503d600014612811573d6127d781612abe565b906127e56040519283612a9d565b81523d60008383013e5b8051918261280e57604051633250574960e11b81523360048201528490fd5b01fd5b60606127ef565b929391926001600160e01b031916036128345750819083612741565b604051633250574960e11b8152336004820152fd5b9091508481813d8311612882575b6128618183612a9d565b8101031261021457516001600160e01b0319811681036102145790866127bd565b503d612857565b6040516339e3563760e11b8152600060048201528490fd5b60008381526004602052604080822080546001600160a01b031916905583825260038952902080546000190190556126e5565b604051633250574960e11b8152600060048201528690fd5b60405163df9c3d7d60e01b8152600490fd5b9050886125f3565b159150896125ec565b6040516314ec381360e11b8152600490fd5b90508a6125d6565b6040516366a0777760e01b8152600490fd5b506040516301ffc9a760e01b81526380ac58cd60e01b60048201526020818b81895afa9081156107ec57600091612974575b50156125c4565b61298c915060203d8111610883576108758183612a9d565b8a61296d565b6040516358fd19b960e11b8152600490fd5b600435906001600160a01b038216820361021457565b604435906001600160a01b038216820361021457565b602435906001600160a01b038216820361021457565b60e081019081106001600160401b038211176108a057604052565b6001600160401b0381116108a057604052565b61010081019081106001600160401b038211176108a057604052565b61016081019081106001600160401b038211176108a057604052565b60c081019081106001600160401b038211176108a057604052565b608081019081106001600160401b038211176108a057604052565b602081019081106001600160401b038211176108a057604052565b90601f801991011681019081106001600160401b038211176108a057604052565b6001600160401b0381116108a057601f01601f191660200190565b929192612ae582612abe565b91612af36040519384612a9d565b829481845281830111610214578281602093846000960137010152565b9080601f8301121561021457816020612b2b93359101612ad9565b90565b919082519283825260005b848110612b5a575050826000602080949584010152601f8019910116010190565b602081830181015184830182015201612b39565b6060906003190112610214576001600160a01b0390600435828116810361021457916024359081168103610214579060443590565b6060906003190112610214576004356001600160a01b038116810361021457906024359060443590565b90815180825260208080930193019160005b828110612bed575050505090565b835185529381019392810192600101612bdf565b6001600160401b0381116108a05760051b60200190565b81601f8201121561021457803591612c2f83612c01565b92612c3d6040519485612a9d565b808452602092838086019260051b820101928311610214578301905b828210612c67575050505090565b81358152908301908301612c59565b8054821015612c92576000526005602060002091020190600090565b634e487b7160e01b600052603260045260246000fd5b90604051612cb581612a4c565b825460ff81161515825260081c6001600160a01b031660208201526001830154604082015260028301546060820152600383015460808201526004929092015460a0830152565b919060408051612d0b81612a4c565b60009081815281602082015281838201528160608201528160808201528160a0820152948152600c6020522080548210612d43575050565b612b2b92935090612d5391612c76565b50612ca8565b8054821015612c925760005260206000209060021b0190600090565b90604051612d8281612a67565b6060600382948054845260018101546020850152600281015460408501520154910152565b60001981146109195760010190565b9190820391821161091957565b9190820180921161091957565b90816020910312610214575180151581036102145790565b8051821015612c925760209160051b010190565b90612e0682612c01565b612e136040519182612a9d565b8281528092612e24601f1991612c01565b0190602036910137565b9190811015612c925760051b0190565b60005b828110612e4d57505050565b606082820152602001612e41565b8115612e65570490565b634e487b7160e01b600052601260045260246000fd5b6001600160a01b0381166000908152600e6020908152604080832085845282528083208684529091528120549094919392908590613134578181526020600c8152604094858320938454612ece81612c01565b95612edb89519788612a9d565b81875285528385208590858089015b8484106131155750505050508185511115613104576001600160a01b039788168452600d835286842090845282528583208054909490612f2981612c01565b95612f3689519788612a9d565b81875285528385208590858089015b8484106130e55750505050508451156130d45790612f6291612de8565b519260a0840194612f798651608087015190612dc3565b4311156130c357835b825181101561309d57612f958184612de8565b51606090818101518015908115613092575b508a8201518a511015908951159182159083613087575b8161307a575b82613072575b5081613059575b50612fe8575b505050612fe390612da7565b612f82565b929b921561303f575190898801519182810292818404149015171561302b579161301c61302292612fe3948a015190612e5b565b90612dc3565b99903880612fd7565b634e487b7160e01b87526011600452602487fd5b50612fe39161301c613022928b8a0151908a015190612e5b565b829150811561306a575b5038612fd1565b905038613063565b915038612fca565b848a015115159150612fc4565b845115159350612fbe565b905089511038612fa7565b50979695925050925084156130b3575001511691565b51635f65f16560e11b8152600490fd5b86516303a4fc3760e01b8152600490fd5b86516319a089c160e01b8152600490fd5b6001916004916130f485612d75565b8152019201920191908690612f45565b865163767afb7b60e11b8152600490fd5b60019160059161312485612ca8565b8152019201920191908690612eea565b604051632cfe303760e21b8152600490fd5b6000808052600b60209081527fdf7de25b7f1fd6d0b5205f0e18f1f35bd7b8d84cce336588d184533ce43a6f7b546040929190157fdf7de25b7f1fd6d0b5205f0e18f1f35bd7b8d84cce336588d184533ce43a6f768161321b575b5061321457815b6001600160a01b038516808452600d80845285852085805284528585205490919083101561320a5784528252838320838052825260036131ea82868620612d59565b50015415613200576131fb90612da7565b6131a8565b5050505050600190565b5050505091505090565b5091505090565b60049150015415386131a1565b90600182811c92168015613258575b602083101461324257565b634e487b7160e01b600052602260045260246000fd5b91607f1691613237565b6007546001600160a01b0316330361327657565b60405163118cdaa760e01b8152336004820152602490fd5b6001600160a01b0391821692909183156134175760009282845282602095600287526040968488882054169687913315158061337e575b509060027fddf252ad1be2c89b69c2b068fc378daa952ba7f163c4a11628f55a4df523b3ef928461334b575b858352600381528b8320805460010190558683525289812080546001600160a01b0319168517905580a4169283830361332a5750505050565b6064945051926364283d7b60e01b8452600484015260248301526044820152fd5b600087815260046020526040902080546001600160a01b0319169055848352600381528b832080546000190190556132f1565b919394509150806133d6575b1561339a578592918791386132c5565b8786886133b7576024915190637e27328960e01b82526004820152fd5b905163177e802f60e01b81523360048201526024810191909152604490fd5b5033871480156133fb575b8061338a575085825260048152338589842054161461338a565b5086825260058152878220338352815260ff88832054166133e1565b604051633250574960e11b815260006004820152602490fd5b6000818152600260205260409020546001600160a01b0316908115613453575090565b60249060405190637e27328960e01b82526004820152fd5b813b613478575b50505050565b604051630a85bd0160e11b8082523360048301526001600160a01b039283166024830152604482019490945260806064820152602095929091169390929083906134c6906084830190612b2e565b039285816000958187895af184918161356f575b5061353a575050503d600014613532573d6134f481612abe565b906135026040519283612a9d565b81528091843d92013e5b8051928361352d57604051633250574960e11b815260048101849052602490fd5b019050fd5b50606061350c565b919450915063ffffffff60e01b1603613557575038808080613472565b60249060405190633250574960e11b82526004820152fd5b9091508681813d83116135ac575b6135878183612a9d565b810103126135a857516001600160e01b0319811681036135a85790386134da565b8480fd5b503d61357d565b6135bc81613430565b5060009081526020906006825260408120916040518093839080546135e081613228565b808552916001918083169081156136565750600114613619575b50505061360992500383612a9d565b60405161361581612a82565b5290565b86528486209492508591905b81831061363e57505061360993508201013880806135fa565b85548884018501529485019487945091830191613625565b9250505061360994925060ff191682840152151560051b8201013880806135fa565b9190916000908082526020916006835260408120908551906001600160401b0382116137d9576136a88354613228565b601f8111613796575b508490601f831160011461371257907ff8e1a15aba9398e019f0b49df1a4fde98ee17ae345cb5f6b5e2c27f5033e8ce7969783613707575b50508160011b916000199060031b1c19161790555b604051908152a1565b0151905038806136e9565b9196601f198816848452868420935b81811061377f57509160019391897ff8e1a15aba9398e019f0b49df1a4fde98ee17ae345cb5f6b5e2c27f5033e8ce7999a9410613766575b505050811b0190556136fe565b015160001960f88460031b161c19169055388080613759565b929387600181928786015181550195019301613721565b838252858220601f840160051c8101918785106137cf575b601f0160051c01905b8181106137c457506136b1565b8281556001016137b7565b90915081906137ae565b634e487b7160e01b81526041600452602490fd5b6002600954146137fe576002600955565b604051633ee5aeb560e01b8152600490fdfea264697066735822122057a3ed820d4926db865fc19b27b858d52d1444d8aea60104da59891274b81b0564736f6c63430008140033","linkReferences":{}},"methodIdentifiers":{"addReward(uint256,address,uint256,uint256,bool)":"7ebfee3e","approve(address,uint256)":"095ea7b3","balanceOf(address)":"70a08231","calculateReward(address,uint256,uint256)":"2c32c360","claimRewards(uint256[],uint256[][],address)":"99a47faa","contractURI()":"e8a3d485","editPool(uint256,uint256,string)":"04e4d711","getApproved(uint256)":"081812fc","getPool(address,uint256)":"5b5b9ea2","getPool(uint256)":"068bcd8d","getReward(address,uint256,uint256)":"50f9b39e","getReward(uint256,uint256)":"b90bc519","getRewards(uint256)":"c0d8012c","getStake(address,uint256,uint256)":"d33560e6","getStakes(address,uint256)":"4cb8a68b","getTotalPools()":"d3ffe67a","isApprovedForAll(address,address)":"e985e9c5","launchPool(address,address,address,uint256,string)":"00936c9a","name()":"06fdde03","owner()":"8da5cb5b","ownerOf(uint256)":"6352211e","renounceOwnership()":"715018a6","safeTransferFrom(address,address,uint256)":"42842e0e","safeTransferFrom(address,address,uint256,bytes)":"b88d4fde","setApprovalForAll(address,bool)":"a22cb465","setContractURI(string)":"938e3d7b","stake(uint256,uint256,uint256)":"a638f2e2","supportsInterface(bytes4)":"01ffc9a7","symbol()":"95d89b41","tokenURI(uint256)":"c87b56dd","transferFrom(address,address,uint256)":"23b872dd","transferOwnership(address)":"f2fde38b","unstake(uint256,uint256[])":"395de242"},"id":0}