{"abi":[{"type":"constructor","inputs":[{"name":"stakeERC20","type":"address","internalType":"contract IERC20"},{"name":"stakeERC721","type":"address","internalType":"contract IERC721"},{"name":"rewardToken","type":"address","internalType":"contract IERC20"}],"stateMutability":"nonpayable"},{"type":"function","name":"addReward","inputs":[{"name":"poolId","type":"uint256","internalType":"uint256"},{"name":"rewardToken","type":"address","internalType":"contract IERC20"},{"name":"rewardAmount","type":"uint256","internalType":"uint256"},{"name":"claimAfterBlocks","type":"uint256","internalType":"uint256"},{"name":"isForERC721Stakers","type":"bool","internalType":"bool"}],"outputs":[{"name":"rewardId","type":"uint256","internalType":"uint256"}],"stateMutability":"nonpayable"},{"type":"function","name":"approve","inputs":[{"name":"to","type":"address","internalType":"address"},{"name":"tokenId","type":"uint256","internalType":"uint256"}],"outputs":[],"stateMutability":"nonpayable"},{"type":"function","name":"balanceOf","inputs":[{"name":"owner","type":"address","internalType":"address"}],"outputs":[{"name":"","type":"uint256","internalType":"uint256"}],"stateMutability":"view"},{"type":"function","name":"calculateReward","inputs":[{"name":"staker","type":"address","internalType":"address"},{"name":"poolId","type":"uint256","internalType":"uint256"},{"name":"rewardId","type":"uint256","internalType":"uint256"}],"outputs":[{"name":"","type":"address","internalType":"contract IERC20"},{"name":"","type":"uint256","internalType":"uint256"}],"stateMutability":"view"},{"type":"function","name":"claimRewards","inputs":[{"name":"poolIds","type":"uint256[]","internalType":"uint256[]"},{"name":"rewardIds","type":"uint256[][]","internalType":"uint256[][]"},{"name":"recipient","type":"address","internalType":"address"}],"outputs":[{"name":"tokens","type":"address[][]","internalType":"contract IERC20[][]"},{"name":"amounts","type":"uint256[][]","internalType":"uint256[][]"}],"stateMutability":"nonpayable"},{"type":"function","name":"contractURI","inputs":[],"outputs":[{"name":"","type":"string","internalType":"string"}],"stateMutability":"view"},{"type":"function","name":"editPool","inputs":[{"name":"poolId","type":"uint256","internalType":"uint256"},{"name":"metadata","type":"string","internalType":"string"}],"outputs":[],"stateMutability":"nonpayable"},{"type":"function","name":"getApproved","inputs":[{"name":"tokenId","type":"uint256","internalType":"uint256"}],"outputs":[{"name":"","type":"address","internalType":"address"}],"stateMutability":"view"},{"type":"function","name":"getPool","inputs":[{"name":"poolId","type":"uint256","internalType":"uint256"}],"outputs":[{"name":"poolDetails","type":"tuple","internalType":"struct IStaqeStructs.Pool","components":[{"name":"stakeERC20","type":"address","internalType":"contract IERC20"},{"name":"stakeERC721","type":"address","internalType":"contract IERC721"},{"name":"rewardToken","type":"address","internalType":"contract IERC20"},{"name":"totalStakedERC20","type":"uint256","internalType":"uint256"},{"name":"totalStakedERC721","type":"uint256","internalType":"uint256"},{"name":"launchBlock","type":"uint256","internalType":"uint256"}]}],"stateMutability":"view"},{"type":"function","name":"getPool","inputs":[{"name":"staker","type":"address","internalType":"address"},{"name":"poolId","type":"uint256","internalType":"uint256"}],"outputs":[{"name":"poolDetails","type":"tuple","internalType":"struct IStaqeStructs.PoolDetails","components":[{"name":"stakeERC20","type":"address","internalType":"contract IERC20"},{"name":"stakeERC721","type":"address","internalType":"contract IERC721"},{"name":"rewardToken","type":"address","internalType":"contract IERC20"},{"name":"rewarder","type":"address","internalType":"address"},{"name":"metadata","type":"string","internalType":"string"},{"name":"totalStakedERC20","type":"uint256","internalType":"uint256"},{"name":"totalStakedERC721","type":"uint256","internalType":"uint256"},{"name":"totalRewards","type":"uint256","internalType":"uint256"},{"name":"totalStakerStakes","type":"uint256","internalType":"uint256"},{"name":"launchBlock","type":"uint256","internalType":"uint256"}]}],"stateMutability":"view"},{"type":"function","name":"getReward","inputs":[{"name":"staker","type":"address","internalType":"address"},{"name":"poolId","type":"uint256","internalType":"uint256"},{"name":"rewardId","type":"uint256","internalType":"uint256"}],"outputs":[{"name":"rewardDetails","type":"tuple","internalType":"struct IStaqeStructs.RewardDetails","components":[{"name":"isForERC721Stakers","type":"bool","internalType":"bool"},{"name":"rewardToken","type":"address","internalType":"contract IERC20"},{"name":"rewardAmount","type":"uint256","internalType":"uint256"},{"name":"stakerRewardAmount","type":"uint256","internalType":"uint256"},{"name":"totalStaked","type":"uint256","internalType":"uint256"},{"name":"claimAfterBlocks","type":"uint256","internalType":"uint256"},{"name":"rewardBlock","type":"uint256","internalType":"uint256"},{"name":"claimed","type":"bool","internalType":"bool"}]}],"stateMutability":"view"},{"type":"function","name":"getReward","inputs":[{"name":"poolId","type":"uint256","internalType":"uint256"},{"name":"rewardId","type":"uint256","internalType":"uint256"}],"outputs":[{"name":"rewardDetails","type":"tuple","internalType":"struct IStaqeStructs.Reward","components":[{"name":"isForERC721Stakers","type":"bool","internalType":"bool"},{"name":"rewardToken","type":"address","internalType":"contract IERC20"},{"name":"rewardAmount","type":"uint256","internalType":"uint256"},{"name":"totalStaked","type":"uint256","internalType":"uint256"},{"name":"claimAfterBlocks","type":"uint256","internalType":"uint256"},{"name":"rewardBlock","type":"uint256","internalType":"uint256"}]}],"stateMutability":"view"},{"type":"function","name":"getRewards","inputs":[{"name":"poolId","type":"uint256","internalType":"uint256"}],"outputs":[{"name":"","type":"tuple[]","internalType":"struct IStaqeStructs.Reward[]","components":[{"name":"isForERC721Stakers","type":"bool","internalType":"bool"},{"name":"rewardToken","type":"address","internalType":"contract IERC20"},{"name":"rewardAmount","type":"uint256","internalType":"uint256"},{"name":"totalStaked","type":"uint256","internalType":"uint256"},{"name":"claimAfterBlocks","type":"uint256","internalType":"uint256"},{"name":"rewardBlock","type":"uint256","internalType":"uint256"}]}],"stateMutability":"view"},{"type":"function","name":"getStake","inputs":[{"name":"staker","type":"address","internalType":"address"},{"name":"poolId","type":"uint256","internalType":"uint256"},{"name":"stakeId","type":"uint256","internalType":"uint256"}],"outputs":[{"name":"stakeDetails","type":"tuple","internalType":"struct IStaqeStructs.Stake","components":[{"name":"amountERC20","type":"uint256","internalType":"uint256"},{"name":"idERC721","type":"uint256","internalType":"uint256"},{"name":"stakeBlock","type":"uint256","internalType":"uint256"},{"name":"unstakeBlock","type":"uint256","internalType":"uint256"}]}],"stateMutability":"view"},{"type":"function","name":"getStakes","inputs":[{"name":"staker","type":"address","internalType":"address"},{"name":"poolId","type":"uint256","internalType":"uint256"}],"outputs":[{"name":"","type":"tuple[]","internalType":"struct IStaqeStructs.Stake[]","components":[{"name":"amountERC20","type":"uint256","internalType":"uint256"},{"name":"idERC721","type":"uint256","internalType":"uint256"},{"name":"stakeBlock","type":"uint256","internalType":"uint256"},{"name":"unstakeBlock","type":"uint256","internalType":"uint256"}]}],"stateMutability":"view"},{"type":"function","name":"getTotalPools","inputs":[],"outputs":[{"name":"","type":"uint256","internalType":"uint256"}],"stateMutability":"view"},{"type":"function","name":"isApprovedForAll","inputs":[{"name":"owner","type":"address","internalType":"address"},{"name":"operator","type":"address","internalType":"address"}],"outputs":[{"name":"","type":"bool","internalType":"bool"}],"stateMutability":"view"},{"type":"function","name":"launchPool","inputs":[{"name":"stakeERC20","type":"address","internalType":"contract IERC20"},{"name":"stakeERC721","type":"address","internalType":"contract IERC721"},{"name":"rewardToken","type":"address","internalType":"contract IERC20"},{"name":"metadata","type":"string","internalType":"string"}],"outputs":[{"name":"poolId","type":"uint256","internalType":"uint256"}],"stateMutability":"nonpayable"},{"type":"function","name":"name","inputs":[],"outputs":[{"name":"","type":"string","internalType":"string"}],"stateMutability":"view"},{"type":"function","name":"owner","inputs":[],"outputs":[{"name":"","type":"address","internalType":"address"}],"stateMutability":"view"},{"type":"function","name":"ownerOf","inputs":[{"name":"tokenId","type":"uint256","internalType":"uint256"}],"outputs":[{"name":"","type":"address","internalType":"address"}],"stateMutability":"view"},{"type":"function","name":"renounceOwnership","inputs":[],"outputs":[],"stateMutability":"nonpayable"},{"type":"function","name":"safeTransferFrom","inputs":[{"name":"from","type":"address","internalType":"address"},{"name":"to","type":"address","internalType":"address"},{"name":"tokenId","type":"uint256","internalType":"uint256"}],"outputs":[],"stateMutability":"nonpayable"},{"type":"function","name":"safeTransferFrom","inputs":[{"name":"from","type":"address","internalType":"address"},{"name":"to","type":"address","internalType":"address"},{"name":"tokenId","type":"uint256","internalType":"uint256"},{"name":"data","type":"bytes","internalType":"bytes"}],"outputs":[],"stateMutability":"nonpayable"},{"type":"function","name":"setApprovalForAll","inputs":[{"name":"operator","type":"address","internalType":"address"},{"name":"approved","type":"bool","internalType":"bool"}],"outputs":[],"stateMutability":"nonpayable"},{"type":"function","name":"setContractURI","inputs":[{"name":"newURI","type":"string","internalType":"string"}],"outputs":[],"stateMutability":"nonpayable"},{"type":"function","name":"stake","inputs":[{"name":"poolId","type":"uint256","internalType":"uint256"},{"name":"amount","type":"uint256","internalType":"uint256"},{"name":"id","type":"uint256","internalType":"uint256"}],"outputs":[{"name":"stakeId","type":"uint256","internalType":"uint256"}],"stateMutability":"nonpayable"},{"type":"function","name":"supportsInterface","inputs":[{"name":"interfaceId","type":"bytes4","internalType":"bytes4"}],"outputs":[{"name":"","type":"bool","internalType":"bool"}],"stateMutability":"view"},{"type":"function","name":"symbol","inputs":[],"outputs":[{"name":"","type":"string","internalType":"string"}],"stateMutability":"view"},{"type":"function","name":"tokenURI","inputs":[{"name":"tokenId","type":"uint256","internalType":"uint256"}],"outputs":[{"name":"","type":"string","internalType":"string"}],"stateMutability":"view"},{"type":"function","name":"transferFrom","inputs":[{"name":"from","type":"address","internalType":"address"},{"name":"to","type":"address","internalType":"address"},{"name":"tokenId","type":"uint256","internalType":"uint256"}],"outputs":[],"stateMutability":"nonpayable"},{"type":"function","name":"transferOwnership","inputs":[{"name":"newOwner","type":"address","internalType":"address"}],"outputs":[],"stateMutability":"nonpayable"},{"type":"function","name":"unstake","inputs":[{"name":"poolId","type":"uint256","internalType":"uint256"},{"name":"stakeIds","type":"uint256[]","internalType":"uint256[]"}],"outputs":[{"name":"amountERC20","type":"uint256","internalType":"uint256"},{"name":"idsERC721","type":"uint256[]","internalType":"uint256[]"}],"stateMutability":"nonpayable"},{"type":"event","name":"Approval","inputs":[{"name":"owner","type":"address","indexed":true,"internalType":"address"},{"name":"approved","type":"address","indexed":true,"internalType":"address"},{"name":"tokenId","type":"uint256","indexed":true,"internalType":"uint256"}],"anonymous":false},{"type":"event","name":"ApprovalForAll","inputs":[{"name":"owner","type":"address","indexed":true,"internalType":"address"},{"name":"operator","type":"address","indexed":true,"internalType":"address"},{"name":"approved","type":"bool","indexed":false,"internalType":"bool"}],"anonymous":false},{"type":"event","name":"BatchMetadataUpdate","inputs":[{"name":"_fromTokenId","type":"uint256","indexed":false,"internalType":"uint256"},{"name":"_toTokenId","type":"uint256","indexed":false,"internalType":"uint256"}],"anonymous":false},{"type":"event","name":"Claimed","inputs":[{"name":"staker","type":"address","indexed":true,"internalType":"address"},{"name":"poolId","type":"uint256","indexed":true,"internalType":"uint256"}],"anonymous":false},{"type":"event","name":"ContractURIUpdated","inputs":[],"anonymous":false},{"type":"event","name":"Launched","inputs":[{"name":"poolId","type":"uint256","indexed":true,"internalType":"uint256"}],"anonymous":false},{"type":"event","name":"MetadataUpdate","inputs":[{"name":"_tokenId","type":"uint256","indexed":false,"internalType":"uint256"}],"anonymous":false},{"type":"event","name":"OwnershipTransferred","inputs":[{"name":"previousOwner","type":"address","indexed":true,"internalType":"address"},{"name":"newOwner","type":"address","indexed":true,"internalType":"address"}],"anonymous":false},{"type":"event","name":"Rewarded","inputs":[{"name":"poolId","type":"uint256","indexed":true,"internalType":"uint256"},{"name":"rewardId","type":"uint256","indexed":true,"internalType":"uint256"}],"anonymous":false},{"type":"event","name":"Staked","inputs":[{"name":"staker","type":"address","indexed":true,"internalType":"address"},{"name":"poolId","type":"uint256","indexed":true,"internalType":"uint256"},{"name":"stakeId","type":"uint256","indexed":true,"internalType":"uint256"}],"anonymous":false},{"type":"event","name":"Transfer","inputs":[{"name":"from","type":"address","indexed":true,"internalType":"address"},{"name":"to","type":"address","indexed":true,"internalType":"address"},{"name":"tokenId","type":"uint256","indexed":true,"internalType":"uint256"}],"anonymous":false},{"type":"event","name":"Unstaked","inputs":[{"name":"staker","type":"address","indexed":true,"internalType":"address"},{"name":"poolId","type":"uint256","indexed":true,"internalType":"uint256"}],"anonymous":false},{"type":"error","name":"ERC721IncorrectOwner","inputs":[{"name":"sender","type":"address","internalType":"address"},{"name":"tokenId","type":"uint256","internalType":"uint256"},{"name":"owner","type":"address","internalType":"address"}]},{"type":"error","name":"ERC721InsufficientApproval","inputs":[{"name":"operator","type":"address","internalType":"address"},{"name":"tokenId","type":"uint256","internalType":"uint256"}]},{"type":"error","name":"ERC721InvalidApprover","inputs":[{"name":"approver","type":"address","internalType":"address"}]},{"type":"error","name":"ERC721InvalidOperator","inputs":[{"name":"operator","type":"address","internalType":"address"}]},{"type":"error","name":"ERC721InvalidOwner","inputs":[{"name":"owner","type":"address","internalType":"address"}]},{"type":"error","name":"ERC721InvalidReceiver","inputs":[{"name":"receiver","type":"address","internalType":"address"}]},{"type":"error","name":"ERC721InvalidSender","inputs":[{"name":"sender","type":"address","internalType":"address"}]},{"type":"error","name":"ERC721NonexistentToken","inputs":[{"name":"tokenId","type":"uint256","internalType":"uint256"}]},{"type":"error","name":"InvalidAmountOrId","inputs":[]},{"type":"error","name":"InvalidERC721Token","inputs":[]},{"type":"error","name":"InvalidMetadata","inputs":[]},{"type":"error","name":"InvalidRewardToken","inputs":[]},{"type":"error","name":"InvalidStakeId","inputs":[]},{"type":"error","name":"InvalidStakeToken","inputs":[]},{"type":"error","name":"OnlyAvailableToStakersInGenesis","inputs":[]},{"type":"error","name":"OnlyOwnerHasAccessToAddRewards","inputs":[]},{"type":"error","name":"OnlyOwnerHasAccessToEditMetadata","inputs":[]},{"type":"error","name":"OwnableInvalidOwner","inputs":[{"name":"owner","type":"address","internalType":"address"}]},{"type":"error","name":"OwnableUnauthorizedAccount","inputs":[{"name":"account","type":"address","internalType":"address"}]},{"type":"error","name":"PoolDoesNotExist","inputs":[]},{"type":"error","name":"PoolDoesNotHaveStakes","inputs":[]},{"type":"error","name":"ReentrancyGuardReentrantCall","inputs":[]},{"type":"error","name":"RewardAlreadyClaimed","inputs":[]},{"type":"error","name":"RewardIsEmpty","inputs":[]},{"type":"error","name":"RewardIsNotYetAvailableForClaim","inputs":[]},{"type":"error","name":"RewardNotFoundInPool","inputs":[]},{"type":"error","name":"RewardTransferFailed","inputs":[]},{"type":"error","name":"StakeAlreadyUnstaked","inputs":[]},{"type":"error","name":"StakeOnNextBlockAfterReward","inputs":[]},{"type":"error","name":"StakeTransferFailed","inputs":[]},{"type":"error","name":"StakerDoesNotHaveStakesInPool","inputs":[]},{"type":"error","name":"UnstakeOnNextBlockAndGetReward","inputs":[]},{"type":"error","name":"UnstakeTransferFailed","inputs":[]}],"bytecode":{"object":"0x6080346200042857601f62003ba738819003828101601f199081168501946001600160401b0394939092908587118488101762000412578160609285926040998a52833981010312620004285762000057826200044d565b91602093848201519160018060a01b03908184168094036200042857886200008091016200044d565b926200008b6200042d565b95600b87526a537461716520506f6f6c7360a81b88880152620000ad6200042d565b906003968783526253545160e81b8a84015288518b811162000412578060009a8b8d620000db825462000462565b8b808211620003e1575b505050508c908983116001146200037d578c9262000371575b50508160011b91600019908b1b1c19161789555b8251908b82116200035d5781906001948b8d62000130885462000462565b8b80821162000321575b505050508c91898411600114620002c057508b92620002b4575b5050600019828a1b1c191690831b1782555b33156200029c57600780546001600160a01b03198082163390811790935596919086167f8be0079c531659141344cd1fd0a4f28419497f9722a3daafe3b4186f6b6457e08b80a3620001ba60085462000462565b8181116200027a575b50506000600855816009558a519960c08b01908b8210908211176200026657938092818c97959360059c9b9a99978f52168752898701928352818d880196168652818d8a600b60a060608c019b838d52608081019e8f52019d8e43905282805252209c5116858d5416178c558b01915116838254161790556002890192511690825416179055519085015551600484015551910155516136ee9081620004b98239f35b634e487b7160e01b89526041600452602489fd5b620002949160088b528b8b20910160051c8101906200049f565b3880620001c3565b8a51631e4fbdf760e01b815260048101899052602490fd5b01519050388062000154565b868d528d8d20879590939291168d8f5b828210620003095750508411620002f0575b505050811b01825562000166565b0151600019838c1b60f8161c19169055388080620002e2565b83850151865589979095019493840193018f620002d0565b82848b620003499652209181880160051c830193881062000353575b0160051c01906200049f565b8b8d388b6200013a565b925081926200033d565b634e487b7160e01b8a52604160045260248afd5b015190503880620000fe565b8c80528d8d209285168d8f5b828210620003c9575050908460019594939210620003b0575b505050811b01895562000112565b0151600019838d1b60f8161c19169055388080620003a2565b60018596829396860151815501950193018f62000389565b828480620004089652209181870160051c830193871062000353570160051c01906200049f565b8b8d388b620000e5565b634e487b7160e01b600052604160045260246000fd5b600080fd5b60408051919082016001600160401b038111838210176200041257604052565b51906001600160a01b03821682036200042857565b90600182811c9216801562000494575b60208310146200047e57565b634e487b7160e01b600052602260045260246000fd5b91607f169162000472565b818110620004ab575050565b600081556001016200049f56fe608080604052600436101561001357600080fd5b60003560e01c90816301ffc9a7146127d357508063068bcd8d1461272057806306fdde031461267d578063081812fc1461263f578063095ea7b31461255857806323b872dd146125415780632c32c36014612512578063395de2421461204657806342842e0e146120185780634cb8a68b14611f2457806350f9b39e14611d2d5780635b5b9ea214611b1b5780636352211e14611aeb57806370a0823114611a92578063715018a614611a355780637ebfee3e146117605780638da5cb5b14611737578063938e3d7b1461159757806395d89b41146114f457806399a47faa14610ebf5780639dd7986f14610e2a578063a22cb46514610d7c578063a638f2e214610a69578063b88d4fde146109fd578063b90bc51914610994578063c0d8012c1461089f578063c87b56dd14610880578063d33560e6146107b8578063d3ffe67a1461079a578063d6eeeb7614610359578063e8a3d48514610273578063e985e9c51461021d5763f2fde38b1461018a57600080fd5b34610218576020366003190112610218576101a3612898565b6101ab61310a565b6001600160a01b039081169081156101ff57600754826bffffffffffffffffffffffff60a01b821617600755167f8be0079c531659141344cd1fd0a4f28419497f9722a3daafe3b4186f6b6457e0600080a3005b604051631e4fbdf760e01b815260006004820152602490fd5b600080fd5b3461021857604036600319011261021857610236612898565b61023e6128c4565b9060018060a01b03809116600052600560205260406000209116600052602052602060ff604060002054166040519015158152f35b34610218576000366003190112610218576040516000600854610295816130d0565b8084529060019081811690811561033257506001146102d7575b6102d3846102bf81860382612a09565b604051918291602083526020830190612858565b0390f35b6008600090815292507ff3f7a9fe364faab93b216da50a3214154f22a0a2b415b23a84c8169e8b636ee35b82841061031a5750505081016020016102bf826102af565b80546020858701810191909152909301928101610302565b60ff191660208087019190915292151560051b850190920192506102bf91508390506102af565b3461021857608036600319011261021857610372612898565b60249081356001600160a01b038181169291839003610218576103936128ae565b926064356001600160401b038111610218576103b3903690600401612a7c565b6103bb613695565b6103c433612fee565b1561078857811593841580610715575b61070357831693841590816106fb575b506106e9578051156106d75761049e906103ff600a54612c4f565b9485600a55604051906104118261296d565b81526005602097888301958652866040840191168152606083016000815260808401906000825260a08501924384528a600052600b8c52896040600020965116986bffffffffffffffffffffffff60a01b998a8854161787558a600188019151168a8254161790558960028701915116898254161790555160038501555160048401555191015584613520565b604051916104ab836129ee565b6000835233156106bf578390816000526002865260406000205416801515928361068c575b33600052600387526040600020600181540190558260005260028752604060002090339082541617905533907fddf252ad1be2c89b69c2b068fc378daa952ba7f163c4a11628f55a4df523b3ef600080a461067457333b610560575b5060405190807feca0dfbda743d141662328d4d48393e344b2c60df0430297221df823f2926dba600080a260016009558152f35b604051838180610598630a85bd0160e11b9586835233600484015260008a840152876044840152608060648401526084830190612858565b03816000335af160009181610634575b50610603575050503d6000146105fc573d6105c281612a2a565b906105d06040519283612a09565b81523d60008383013e5b805191826105f957604051633250574960e11b81523360048201528490fd5b01fd5b60606105da565b929391926001600160e01b0319160361061f575081908361052c565b604051633250574960e11b8152336004820152fd5b9091508481813d831161066d575b61064c8183612a09565b8101031261021857516001600160e01b0319811681036102185790866105a8565b503d610642565b6040516339e3563760e11b8152600060048201528490fd5b60008381526004602052604080822080546001600160a01b031916905583825260038952902080546000190190556104d0565b604051633250574960e11b8152600060048201528690fd5b604051635e765b2560e11b8152600490fd5b6040516314ec381360e11b8152600490fd5b9050876103e4565b6040516366a0777760e01b8152600490fd5b506040516301ffc9a760e01b81526380ac58cd60e01b60048201526020818981875afa90811561077c5760009161074e575b50156103d4565b61076f915060203d8111610775575b6107678183612a09565b810190612c78565b88610747565b503d61075d565b6040513d6000823e3d90fd5b6040516358fd19b960e11b8152600490fd5b34610218576000366003190112610218576020600a54604051908152f35b346102185760806107c83661290f565b6040519192916107d7816129d3565b600081526000602082015260006040820152600060608201529160018060a01b03169283600052600d602052604060002081600052602052604060002054821061084b575b84836108496040518092606080918051845260208101516020850152604081015160408501520151910152565bf35b610872925061087893600052600d6020526040600020906000526020526040600020612c01565b50612c1d565b80838061081c565b34610218576020366003190112610218576102d36102bf60043561345b565b346102185760208060031936011261021857600435600052600c815260406000209081546108cc81612a9a565b906108da6040519283612a09565b8082528282018094600052836000206000915b8383106109775760408051878152865181890181905289928201908960005b8281106109195784840385f35b9091928260c0826109686001948a5160a08091805115158452600180831b0360208201511660208501526040810151604085015260608101516060850152608081015160808501520151910152565b0196019101949291909461090c565b60058660019261098685612b73565b8152019201920191906108ed565b346102185760403660031901126102185760c06109b5602435600435612bc7565b610849604051809260a08091805115158452600180831b0360208201511660208501526040810151604085015260608101516060850152608081015160808501520151910152565b3461021857608036600319011261021857610a16612898565b610a1e6128c4565b90604435606435926001600160401b038411610218573660238501121561021857610a56610a67943690602481600401359101612a45565b92610a62838383613136565b613313565b005b3461021857606036600319011261021857604435600435602435610a8b613695565b81600052602092600b84526040600020600581015415610d6a5782159283159380610d62575b610d505784600052600c8652604060002080548015159182610d29575b5050610d175733600052600d865260406000208560005286528360406000205494610d01575b8315159182610cd3575b33600052600d8852604060002087600052885260406000209060405191610b24836129d3565b8183528983019287845260408101914383526060820190600082528054600160401b811015610cbd57610b5c91600182018155612c01565b939093610ca7578c956003935185555160018501555160028401555191015582610c37575b5050610c2557610bc2575b50508060405192337f1449c6dd7851abc30abf37f57715f492010519147cc2652fbc38202c18a6ee90600080a460016009558152f35b600101546001600160a01b0316803b15610218576040516323b872dd60e01b815233600482015230602482015260448101929092526000908290606490829084905af1801561077c57610c16575b80610b8c565b610c1f90612988565b83610c10565b604051631231ec2f60e21b8152600490fd5b84546040516323b872dd60e01b81523360048201523060248201526044810192909252909250829060649082906000906001600160a01b03165af190811561077c57600091610c8a575b50158688610b81565b610ca19150873d8911610775576107678183612a09565b87610c81565b634e487b7160e01b600052600060045260246000fd5b634e487b7160e01b600052604160045260246000fd5b6004840180549060018201809211610ceb5755610afe565b634e487b7160e01b600052601160045260246000fd5b60038301610d10838254612c6b565b9055610af4565b604051630485995160e51b8152600490fd5b60001982019250908211610ceb57600491610d4391612b41565b5001544311158780610ace565b604051633b91be2160e21b8152600490fd5b508215610ab1565b6040516302721e1f60e61b8152600490fd5b3461021857604036600319011261021857610d95612898565b6024359081151590818303610218576001600160a01b0316918215610e1157610de39033600052600560205260406000208460005260205260406000209060ff801983541691151516179055565b6040519081527f17307eab39ab6107e8899845ad3d59bd9653f200f220920489ca2b5937696c3160203392a3005b604051630b61174360e31b815260048101849052602490fd5b34610218576040366003190112610218576004356024356001600160401b03811161021857610e5d903690600401612a7c565b610e65613695565b81600052600b60205260056040600020015415610d6a578051156106d757610e8c826132d8565b336001600160a01b0390911603610ead57610ea691613520565b6001600955005b60405163982cbfb960e01b8152600490fd5b34610218576060366003190112610218576001600160401b0360043581811161021857610ef0903690600401612ab1565b602491823590808211610218573660238301121561021857816004013593610f1785612a9a565b94610f256040519687612a09565b80865281602087019160051b8501019236841161021857828501915b8483106114cd578787610f526128ae565b610f5a613695565b6001600160a01b038116156114c6575b815190610fa0610f7983612a9a565b92610f876040519485612a09565b808452610f96601f1991612a9a565b0160208401612ce6565b825193610fd6610faf86612a9a565b95610fbd6040519788612a09565b808752610fcc601f1991612a9a565b0160208701612ce6565b6000915b84518310156110f857610fed8383612c90565b5151610ff881612a9a565b906110066040519283612a09565b808252611015601f1991612a9a565b013660208301376110268486612c90565b526110318385612c90565b5061104661103f8484612c90565b5151612ca4565b6110508488612c90565b5261105b8387612c90565b5083868660005b61106c8787612c90565b51518110156110e45780846110cd828a806110c7836110a96110bf8f6110b7906110af6110df9d8f896110a2816110a993612c90565b5194612c90565b51612c90565b519033612d23565b959099612c90565b51948c612c90565b52612c90565b6001600160a01b039091169052612c4f565b611062565b50505050916110f290612c4f565b91610fda565b858583866000945b835186101561118c5760005b6111168785612c90565b515181101561117b5780611131611176926110a98a8a612c90565b5133600052600e602052604060002061114a8a89612c90565b516000526020526040600020611164836110a98c8a612c90565b51600052602052604060002055612c4f565b61110c565b509461118690612c4f565b94611100565b60009085855b80518410156113c6576111a58482612c90565b516000908152600b60205260409020600201546001600160a01b0316806112ff575060005b6111d48588612c90565b51518110156112bc576111eb816110a98786612c90565b5180156112aa5760009060209061124b906001600160a01b03611212866110a98c8e612c90565b5160405163a9059cbb60e01b81526001600160a01b038b1660048201526024810193909352919485939190921691839182906044820190565b03925af190811561077c5760009161128b575b501561127957846112716111d492612c4f565b9150506111ca565b60405163078ecf4160e41b8152600490fd5b6112a4915060203d602011610775576107678183612a09565b8861125e565b604051635f65f16560e11b8152600490fd5b50926112f9905b6112cd8186612c90565b51337fd8138f8a3f377c5259ca548e70e4c2de94f129f5a11036a15b69513cba2b426a600080a3612c4f565b92611192565b90919260009695966000905b6113158789612c90565b51518210156113465761133a61134091611333846110a98b8b612c90565b5190612c6b565b91612c4f565b9061130b565b9194939592905096959681156112aa5760405163a9059cbb60e01b81526001600160a01b03861660048201526024810192909252602090829060449082906000905af190811561077c576000916113a7575b5015611279576112f9906112c3565b6113c0915060203d602011610775576107678183612a09565b87611398565b508360018060095560405191604083016040845281518091526060840190602060608260051b8701019301916000905b82821061145f57505050508281036020840152835180825260208201916020808360051b8301019601926000915b8383106114315786880387f35b909192939460208061144e839a601f198682030187528951612939565b999701959491909101920190611424565b9091929394809795605f19888203018352855190602080835192838152019201906000905b848183106114a55750505050602080919601920192019092919694966113f6565b83516001600160a01b03168552602094850194909301929190910190611484565b5033610f6a565b8235828111610218576020916114e983928736918b0101612ab1565b815201920191610f41565b346102185760003660031901126102185760405160006001805490611518826130d0565b80855291818116908115610332575060011461153e576102d3846102bf81860382612a09565b600081815292507fb10e2d527612073b26eecdfd717e6a320cf44b4afac2b0732d9fcbe2b7fa0cf65b82841061157f5750505081016020016102bf826102af565b80546020858701810191909152909301928101611567565b3461021857602080600319360112610218576001600160401b03600435818111610218576115c9903690600401612a7c565b916115d261310a565b8251918211610cbd576115e66008546130d0565b601f81116116d3575b5080601f831160011461164f57508192600092611644575b50508160011b916000199060031b1c1916176008555b7fa5d4097edda6d87cb9329af83fb3712ef77eeb13738ffe43cc35a4ce305ad962600080a1005b015190508280611607565b90601f1983169360086000527ff3f7a9fe364faab93b216da50a3214154f22a0a2b415b23a84c8169e8b636ee3926000905b8682106116bb57505083600195106116a2575b505050811b0160085561161d565b015160001960f88460031b161c19169055828080611694565b80600185968294968601518155019501930190611681565b60086000527ff3f7a9fe364faab93b216da50a3214154f22a0a2b415b23a84c8169e8b636ee3601f840160051c81019183851061172d575b601f0160051c01905b81811061172157506115ef565b60008155600101611714565b909150819061170b565b34610218576000366003190112610218576007546040516001600160a01b039091168152602090f35b346102185760a03660031901126102185760043561177c6128c4565b9060443591608435908115908115908184036102185761179a613695565b8085600052602096600b88526040600020604051926117b88461296d565b60018060a01b0396878354168552876001840154168b86015287600284015416916040860192835260a0600385015496606081019788526005600487015496608083019788520154918291015215610d6a57881615611a235783158015611a10575b6112aa576118278a6132d8565b88339116036119fe578890816119f4575b81156119dd575b506119cb57518616806119c3575b5087600052600c89526040600020928354976000146119ba575051945b604051946118778661296d565b85528885019316918284526040850194828652606081019687526080810191606435835260a0820190438252600160401b8a1015610cbd57896118bf91600182018155612b41565b939093610ca7576000988c98611951986118ea600496511515889060ff801983541691151516179055565b518654610100600160a81b03191660089190911b610100600160a81b0316178655516001860155516002850155516003840155519101556040516323b872dd60e01b8152336004820152306024820152604481019190915293849283919082906064820190565b03925af190811561077c5760009161199d575b50156112795780604051927fa3497b969e8cb093a223f5d62236b21822e7983269a8d00d3f0281e03da24a09600080a360016009558152f35b6119b49150843d8611610775576107678183612a09565b84611964565b9050519461186a565b93508961184d565b6040516303bdf00d60e31b8152600490fd5b9050806119eb575b8b61183f565b508351156119e5565b8351159150611838565b604051630a781f0560e21b8152600490fd5b5088801561181a5750825184111561181a565b60405163dfde867160e01b8152600490fd5b3461021857600036600319011261021857611a4e61310a565b600780546001600160a01b031981169091556000906001600160a01b03167f8be0079c531659141344cd1fd0a4f28419497f9722a3daafe3b4186f6b6457e08280a3005b34610218576020366003190112610218576001600160a01b03611ab3612898565b168015611ad25760005260036020526020604060002054604051908152f35b6040516322718ad960e21b815260006004820152602490fd5b34610218576020366003190112610218576020611b096004356132d8565b6040516001600160a01b039091168152f35b3461021857604036600319011261021857611b34612898565b6000610120604051611b45816129b7565b828152826020820152826040820152826060820152606060808201528260a08201528260c08201528260e0820152826101008201520152602435600052600b6020526040600020604051611b988161296d565b81546001600160a01b039081168083526001840154821660208401819052600285015490921660408401819052600385015460608501526004850154608085015260059094015460a0840152939092611bf26024356132d8565b611bfd60243561345b565b606085015191608086015193602435600052600c6020526040600020549560018060a01b0316600052600d602052604060002060243560005260205260a06040600020549701519760405199611c528b6129b7565b8a5260208a0152604089015260018060a01b03166060880152608087015260a086015260c085015260e084015261010083015261012082015260405180916020825260018060a01b03815116602083015260018060a01b03602082015116604083015260018060a01b03604082015116606083015260018060a01b0360608201511660808301526080810151610120611cf9610140928360a0870152610160860190612858565b9260a081015160c086015260c081015160e086015260e0810151610100860152610100810151828601520151908301520390f35b3461021857611d3b3661290f565b604092919251611d4a8161299b565b60008152600060e060209282848201528260408201528260608201528260808201528260a08201528260c08201520152611d848285612bc7565b60009360009360405196630161961b60e51b885260018060a01b0392838116908160048b01528260248b01528360448b015260408a606481305afa600081600092611ee0575b6101009c50611ece5750506001600160a01b03166000908152600e602090815260408083208584528252808320868452909152902054611ea0575b5050505b81511515948184840151169360408401519060608501519360a060808701519601519660e0604051611e3a8161299b565b8b815284810192835260408101958652606081019687526080810197885260a0810198895260c08101998a52019815158952604051998a525116908801525160408701525160608601525160808501525160a08401525160c083015251151560e0820152f35b6000908152600e86526040808220928252918652818120928152918552902054945060019350868080611e05565b8616878901529850611e099350505050565b91505060408b3d604011611f1c575b81611efc60409383612a09565b81010312610218578a51868116810361021857886101009c015191611dca565b3d9150611eef565b34610218576040366003190112610218576001600160a01b03611f45612898565b166000526020600d8152604060002060243560005281526040600020908154611f6d81612a9a565b90611f7b6040519283612a09565b8082528282018094600052836000206000915b838310611ffb5760408051878152865181890181905289928201908960005b828110611fba5784840385f35b90919282608082611fec6001948a51606080918051845260208101516020850152604081015160408501520151910152565b01960191019492919094611fad565b60048660019261200a85612c1d565b815201920192019190611f8e565b3461021857610a67612029366128da565b9060405192612037846129ee565b60008452610a62838383613136565b34610218576040366003190112610218576024356001600160401b038082116102185736602383011215610218578160040135116102185760053660248360040135831b840101116102185761209a613695565b600435600052600b602052604060002081604051916120b88361296d565b60018060a01b03815416835260018060a01b03600182015416602084015260018060a01b0360028201541660408401526003810154606084015260048101546080840152015460a0820152600435600052600c6020526040600020805461211e81612a9a565b9161212c6040519384612a09565b818352602083019060005260206000206000915b868484106124f6575050505050805180151591826124cf575b50506124bd57600435600052600b60205260406000209182015415610d6a5733600052600d602052604060002060043560005260205260406000208360040135159081156124b3575b506123995760009160006121b98560040135612ca4565b9460005b816004013581106123b3575050831590811591806123ab575b6123995781612383575b801515928361236b575b505080612300575b6122ee57612246575b506102d3604051928392600435337f0f5bb82176feb1b5e747e28471aa92156a04d9f3ab9f45f28e2d704232b93f75600080a360016009558352604060208401526040830190612939565b60005b83518110156122e65761225c8185612c90565b51156122dd5760208201516001600160a01b03169061227b8186612c90565b5191803b1561021857604051632142170760e11b815230600482015233602482015260448101939093526000908390606490829084905af191821561077c576122c9926122ce575b50612c4f565b612249565b6122d790612988565b856122c3565b6122c990612c4f565b5050826121fb565b604051631b9f013160e11b8152600490fd5b50815160405163a9059cbb60e01b81523360048201526024810185905290602090829060449082906000906001600160a01b03165af190811561077c5760009161234c575b50156121f2565b612365915060203d602011610775576107678183612a09565b85612345565b600461237a9101918254612c5e565b905585806121ea565b60038301612392868254612c5e565b90556121e0565b6040516319a089c160e01b8152600490fd5b5080156121d6565b6123c581836004013560248501612cd6565b3533600052600d602052604060002060043560005260205260406000205411156124a15733600052600d6020526040600020600435600052602052612421604060002061241a83856004013560248701612cd6565b3590612c01565b5095600387015415801590612493575b612481576124496001914360038a0155885490612c6b565b96015480612461575b5061245c90612c4f565b6121bd565b819361247a9161247461245c948b612c90565b52612c4f565b9290612452565b60405163793ef5e960e11b8152600490fd5b504360028801541015612431565b604051639b763f7160e01b8152600490fd5b90505415846121a2565b6040516371f7dfa560e01b8152600490fd5b60001982019250908211610ceb5760a0916124e991612c90565b5101514311158480612159565b602060019261250485612b73565b815201920192019190612140565b3461021857604061252b6125253661290f565b91612d23565b82516001600160a01b0390921682526020820152f35b3461021857610a67612552366128da565b91613136565b3461021857604036600319011261021857612571612898565b60243561257d816132d8565b3315158061262c575b806125ff575b6125e7576001600160a01b039283169282918491167f8c5be1e5ebec7d5bd14f71427d1e84f3dd0314c0f7b2291e5b200ac8c7c3b925600080a4600090815260046020526040902080546001600160a01b0319169091179055005b60405163a9fbf51f60e01b8152336004820152602490fd5b5060018060a01b038116600052600560205260406000203360005260205260ff604060002054161561258c565b506001600160a01b038116331415612586565b346102185760203660031901126102185760043561265c816132d8565b506000526004602052602060018060a01b0360406000205416604051908152f35b34610218576000366003190112610218576040516000805461269e816130d0565b8084529060019081811690811561033257506001146126c7576102d3846102bf81860382612a09565b600080805292507f290decd9548b62a8d60345a988386fc84ba6bc95484008f6362f93160ef3e5635b8284106127085750505081016020016102bf826102af565b805460208587018101919091529093019281016126f0565b3461021857602036600319011261021857612739612b0f565b50600435600052600b60205260c060406000206040516127588161296d565b60018060a01b039182815416928383528060018301541690602084019182528060028401541660408501908152816003850154936060870194855260a0600560048801549760808a019889520154970196875260405197885251166020870152511660408501525160608401525160808301525160a0820152f35b34610218576020366003190112610218576004359063ffffffff60e01b821680920361021857602091632483248360e11b8114908115612815575b5015158152f35b6380ac58cd60e01b811491508115612847575b8115612836575b508361280e565b6301ffc9a760e01b1490508361282f565b635b5e139f60e01b81149150612828565b919082519283825260005b848110612884575050826000602080949584010152601f8019910116010190565b602081830181015184830182015201612863565b600435906001600160a01b038216820361021857565b604435906001600160a01b038216820361021857565b602435906001600160a01b038216820361021857565b6060906003190112610218576001600160a01b0390600435828116810361021857916024359081168103610218579060443590565b6060906003190112610218576004356001600160a01b038116810361021857906024359060443590565b90815180825260208080930193019160005b828110612959575050505090565b83518552938101939281019260010161294b565b60c081019081106001600160401b03821117610cbd57604052565b6001600160401b038111610cbd57604052565b61010081019081106001600160401b03821117610cbd57604052565b61014081019081106001600160401b03821117610cbd57604052565b608081019081106001600160401b03821117610cbd57604052565b602081019081106001600160401b03821117610cbd57604052565b90601f801991011681019081106001600160401b03821117610cbd57604052565b6001600160401b038111610cbd57601f01601f191660200190565b929192612a5182612a2a565b91612a5f6040519384612a09565b829481845281830111610218578281602093846000960137010152565b9080601f8301121561021857816020612a9793359101612a45565b90565b6001600160401b038111610cbd5760051b60200190565b81601f8201121561021857803591612ac883612a9a565b92612ad66040519485612a09565b808452602092838086019260051b820101928311610218578301905b828210612b00575050505090565b81358152908301908301612af2565b60405190612b1c8261296d565b8160a06000918281528260208201528260408201528260608201528260808201520152565b8054821015612b5d576000526005602060002091020190600090565b634e487b7160e01b600052603260045260246000fd5b90604051612b808161296d565b825460ff81161515825260081c6001600160a01b031660208201526001830154604082015260028301546060820152600383015460808201526004929092015460a0830152565b9190612bd1612b0f565b92600052600c602052604060002080548210612beb575050565b612a9792935090612bfb91612b41565b50612b73565b8054821015612b5d5760005260206000209060021b0190600090565b90604051612c2a816129d3565b6060600382948054845260018101546020850152600281015460408501520154910152565b6000198114610ceb5760010190565b91908203918211610ceb57565b91908201809211610ceb57565b90816020910312610218575180151581036102185790565b8051821015612b5d5760209160051b010190565b90612cae82612a9a565b612cbb6040519182612a09565b8281528092612ccc601f1991612a9a565b0190602036910137565b9190811015612b5d5760051b0190565b60005b828110612cf557505050565b606082820152602001612ce9565b8115612d0d570490565b634e487b7160e01b600052601260045260246000fd5b6001600160a01b0381166000908152600e6020908152604080832085845282528083208684529091528120549094919392908590612fdc578181526020600c8152604094858320938454612d7681612a9a565b95612d8389519788612a09565b81875285528385208590858089015b848410612fbd5750505050508185511115612fac576001600160a01b039788168452600d835286842090845282528583208054909490612dd181612a9a565b95612dde89519788612a09565b81875285528385208590858089015b848410612f8d575050505050845115612f7c5790612e0a91612c90565b519260a0840194612e218651608087015190612c6b565b431115612f6b57835b8251811015612f4557612e3d8184612c90565b51606090818101518015908115612f3a575b508a8201518a511015908951159182159083612f2f575b81612f22575b82612f1a575b5081612f01575b50612e90575b505050612e8b90612c4f565b612e2a565b929b9215612ee75751908988015191828102928184041490151715612ed35791612ec4612eca92612e8b948a015190612d03565b90612c6b565b99903880612e7f565b634e487b7160e01b87526011600452602487fd5b50612e8b91612ec4612eca928b8a0151908a015190612d03565b8291508115612f12575b5038612e79565b905038612f0b565b915038612e72565b848a015115159150612e6c565b845115159350612e66565b905089511038612e4f565b5097969592505092508415612f5b575001511691565b51635f65f16560e11b8152600490fd5b86516303a4fc3760e01b8152600490fd5b86516319a089c160e01b8152600490fd5b600191600491612f9c85612c1d565b8152019201920191908690612ded565b865163767afb7b60e11b8152600490fd5b600191600591612fcc85612b73565b8152019201920191908690612d92565b604051632cfe303760e21b8152600490fd5b6000808052600b60209081527fdf7de25b7f1fd6d0b5205f0e18f1f35bd7b8d84cce336588d184533ce43a6f7a546040929190157fdf7de25b7f1fd6d0b5205f0e18f1f35bd7b8d84cce336588d184533ce43a6f76816130c3575b506130bc57815b6001600160a01b038516808452600d8084528585208580528452858520549091908310156130b257845282528383208380528252600361309282868620612c01565b500154156130a8576130a390612c4f565b613050565b5050505050600190565b5050505091505090565b5091505090565b6003915001541538613049565b90600182811c92168015613100575b60208310146130ea57565b634e487b7160e01b600052602260045260246000fd5b91607f16916130df565b6007546001600160a01b0316330361311e57565b60405163118cdaa760e01b8152336004820152602490fd5b6001600160a01b0391821692909183156132bf57600092828452826020956002875260409684888820541696879133151580613226575b509060027fddf252ad1be2c89b69c2b068fc378daa952ba7f163c4a11628f55a4df523b3ef92846131f3575b858352600381528b8320805460010190558683525289812080546001600160a01b0319168517905580a416928383036131d25750505050565b6064945051926364283d7b60e01b8452600484015260248301526044820152fd5b600087815260046020526040902080546001600160a01b0319169055848352600381528b83208054600019019055613199565b9193945091508061327e575b156132425785929187913861316d565b87868861325f576024915190637e27328960e01b82526004820152fd5b905163177e802f60e01b81523360048201526024810191909152604490fd5b5033871480156132a3575b806132325750858252600481523385898420541614613232565b5086825260058152878220338352815260ff8883205416613289565b604051633250574960e11b815260006004820152602490fd5b6000818152600260205260409020546001600160a01b03169081156132fb575090565b60249060405190637e27328960e01b82526004820152fd5b813b613320575b50505050565b604051630a85bd0160e11b8082523360048301526001600160a01b0392831660248301526044820194909452608060648201526020959290911693909290839061336e906084830190612858565b039285816000958187895af1849181613417575b506133e2575050503d6000146133da573d61339c81612a2a565b906133aa6040519283612a09565b81528091843d92013e5b805192836133d557604051633250574960e11b815260048101849052602490fd5b019050fd5b5060606133b4565b919450915063ffffffff60e01b16036133ff57503880808061331a565b60249060405190633250574960e11b82526004820152fd5b9091508681813d8311613454575b61342f8183612a09565b8101031261345057516001600160e01b031981168103613450579038613382565b8480fd5b503d613425565b613464816132d8565b506000908152602090600682526040812091604051809383908054613488816130d0565b808552916001918083169081156134fe57506001146134c1575b5050506134b192500383612a09565b6040516134bd816129ee565b5290565b86528486209492508591905b8183106134e65750506134b193508201013880806134a2565b855488840185015294850194879450918301916134cd565b925050506134b194925060ff191682840152151560051b8201013880806134a2565b9190916000908082526020916006835260408120908551906001600160401b0382116136815761355083546130d0565b601f811161363e575b508490601f83116001146135ba57907ff8e1a15aba9398e019f0b49df1a4fde98ee17ae345cb5f6b5e2c27f5033e8ce79697836135af575b50508160011b916000199060031b1c19161790555b604051908152a1565b015190503880613591565b9196601f198816848452868420935b81811061362757509160019391897ff8e1a15aba9398e019f0b49df1a4fde98ee17ae345cb5f6b5e2c27f5033e8ce7999a941061360e575b505050811b0190556135a6565b015160001960f88460031b161c19169055388080613601565b9293876001819287860151815501950193016135c9565b838252858220601f840160051c810191878510613677575b601f0160051c01905b81811061366c5750613559565b82815560010161365f565b9091508190613656565b634e487b7160e01b81526041600452602490fd5b6002600954146136a6576002600955565b604051633ee5aeb560e01b8152600490fdfea264697066735822122085465a2929710a7696440174e5e98e6ce6ef5dce52e7af5dc2c88f384e88237f64736f6c63430008140033","linkReferences":{}},"methodIdentifiers":{"addReward(uint256,address,uint256,uint256,bool)":"7ebfee3e","approve(address,uint256)":"095ea7b3","balanceOf(address)":"70a08231","calculateReward(address,uint256,uint256)":"2c32c360","claimRewards(uint256[],uint256[][],address)":"99a47faa","contractURI()":"e8a3d485","editPool(uint256,string)":"9dd7986f","getApproved(uint256)":"081812fc","getPool(address,uint256)":"5b5b9ea2","getPool(uint256)":"068bcd8d","getReward(address,uint256,uint256)":"50f9b39e","getReward(uint256,uint256)":"b90bc519","getRewards(uint256)":"c0d8012c","getStake(address,uint256,uint256)":"d33560e6","getStakes(address,uint256)":"4cb8a68b","getTotalPools()":"d3ffe67a","isApprovedForAll(address,address)":"e985e9c5","launchPool(address,address,address,string)":"d6eeeb76","name()":"06fdde03","owner()":"8da5cb5b","ownerOf(uint256)":"6352211e","renounceOwnership()":"715018a6","safeTransferFrom(address,address,uint256)":"42842e0e","safeTransferFrom(address,address,uint256,bytes)":"b88d4fde","setApprovalForAll(address,bool)":"a22cb465","setContractURI(string)":"938e3d7b","stake(uint256,uint256,uint256)":"a638f2e2","supportsInterface(bytes4)":"01ffc9a7","symbol()":"95d89b41","tokenURI(uint256)":"c87b56dd","transferFrom(address,address,uint256)":"23b872dd","transferOwnership(address)":"f2fde38b","unstake(uint256,uint256[])":"395de242"},"id":0}