{"abi":[{"type":"constructor","inputs":[{"name":"stakeERC20","type":"address","internalType":"contract IERC20"},{"name":"stakeERC721","type":"address","internalType":"contract IERC721"},{"name":"rewardToken","type":"address","internalType":"contract IERC20"},{"name":"rewarder","type":"address","internalType":"address"},{"name":"metadata","type":"bytes32","internalType":"bytes32"}],"stateMutability":"nonpayable"},{"type":"function","name":"addReward","inputs":[{"name":"poolId","type":"uint256","internalType":"uint256"},{"name":"rewardToken","type":"address","internalType":"contract IERC20"},{"name":"rewardAmount","type":"uint256","internalType":"uint256"},{"name":"claimAfterBlocks","type":"uint256","internalType":"uint256"},{"name":"isForERC721Stakers","type":"bool","internalType":"bool"}],"outputs":[{"name":"rewardId","type":"uint256","internalType":"uint256"}],"stateMutability":"nonpayable"},{"type":"function","name":"blocksToReward","inputs":[{"name":"poolId","type":"uint256","internalType":"uint256"},{"name":"rewardId","type":"uint256","internalType":"uint256"}],"outputs":[{"name":"","type":"uint256","internalType":"uint256"}],"stateMutability":"view"},{"type":"function","name":"calculateReward","inputs":[{"name":"staker","type":"address","internalType":"address"},{"name":"poolId","type":"uint256","internalType":"uint256"},{"name":"rewardId","type":"uint256","internalType":"uint256"}],"outputs":[{"name":"","type":"address","internalType":"contract IERC20"},{"name":"","type":"uint256","internalType":"uint256"}],"stateMutability":"view"},{"type":"function","name":"claimRewards","inputs":[{"name":"poolIds","type":"uint256[]","internalType":"uint256[]"},{"name":"rewardIds","type":"uint256[][]","internalType":"uint256[][]"},{"name":"recipient","type":"address","internalType":"address"}],"outputs":[{"name":"tokens","type":"address[][]","internalType":"contract IERC20[][]"},{"name":"amounts","type":"uint256[][]","internalType":"uint256[][]"}],"stateMutability":"nonpayable"},{"type":"function","name":"editPool","inputs":[{"name":"poolId","type":"uint256","internalType":"uint256"},{"name":"metadata","type":"bytes32","internalType":"bytes32"}],"outputs":[],"stateMutability":"nonpayable"},{"type":"function","name":"getPool","inputs":[{"name":"poolId","type":"uint256","internalType":"uint256"}],"outputs":[{"name":"","type":"tuple","internalType":"struct IStaqeStructs.Pool","components":[{"name":"stakeERC20","type":"address","internalType":"contract IERC20"},{"name":"stakeERC721","type":"address","internalType":"contract IERC721"},{"name":"rewardToken","type":"address","internalType":"contract IERC20"},{"name":"rewarder","type":"address","internalType":"address"},{"name":"metadata","type":"bytes32","internalType":"bytes32"},{"name":"totalStakedERC20","type":"uint256","internalType":"uint256"},{"name":"totalStakedERC721","type":"uint256","internalType":"uint256"},{"name":"launchBlock","type":"uint256","internalType":"uint256"}]}],"stateMutability":"view"},{"type":"function","name":"getReward","inputs":[{"name":"poolId","type":"uint256","internalType":"uint256"},{"name":"rewardId","type":"uint256","internalType":"uint256"}],"outputs":[{"name":"rewardDetails","type":"tuple","internalType":"struct IStaqeStructs.Reward","components":[{"name":"isForERC721Stakers","type":"bool","internalType":"bool"},{"name":"rewardToken","type":"address","internalType":"contract IERC20"},{"name":"rewardAmount","type":"uint256","internalType":"uint256"},{"name":"totalStaked","type":"uint256","internalType":"uint256"},{"name":"claimAfterBlocks","type":"uint256","internalType":"uint256"},{"name":"rewardBlock","type":"uint256","internalType":"uint256"}]}],"stateMutability":"view"},{"type":"function","name":"getRewardFor","inputs":[{"name":"staker","type":"address","internalType":"address"},{"name":"poolId","type":"uint256","internalType":"uint256"},{"name":"rewardId","type":"uint256","internalType":"uint256"}],"outputs":[{"name":"rewardDetails","type":"tuple","internalType":"struct IStaqeStructs.RewardFor","components":[{"name":"isForERC721Stakers","type":"bool","internalType":"bool"},{"name":"rewardToken","type":"address","internalType":"contract IERC20"},{"name":"rewardAmount","type":"uint256","internalType":"uint256"},{"name":"stakerAmount","type":"uint256","internalType":"uint256"},{"name":"totalStaked","type":"uint256","internalType":"uint256"},{"name":"claimAfterBlocks","type":"uint256","internalType":"uint256"},{"name":"rewardBlock","type":"uint256","internalType":"uint256"},{"name":"claimed","type":"bool","internalType":"bool"}]}],"stateMutability":"view"},{"type":"function","name":"getRewards","inputs":[{"name":"poolId","type":"uint256","internalType":"uint256"}],"outputs":[{"name":"","type":"tuple[]","internalType":"struct IStaqeStructs.Reward[]","components":[{"name":"isForERC721Stakers","type":"bool","internalType":"bool"},{"name":"rewardToken","type":"address","internalType":"contract IERC20"},{"name":"rewardAmount","type":"uint256","internalType":"uint256"},{"name":"totalStaked","type":"uint256","internalType":"uint256"},{"name":"claimAfterBlocks","type":"uint256","internalType":"uint256"},{"name":"rewardBlock","type":"uint256","internalType":"uint256"}]}],"stateMutability":"view"},{"type":"function","name":"getStake","inputs":[{"name":"staker","type":"address","internalType":"address"},{"name":"poolId","type":"uint256","internalType":"uint256"},{"name":"stakeId","type":"uint256","internalType":"uint256"}],"outputs":[{"name":"stakeDetails","type":"tuple","internalType":"struct IStaqeStructs.Stake","components":[{"name":"amountERC20","type":"uint256","internalType":"uint256"},{"name":"idERC721","type":"uint256","internalType":"uint256"},{"name":"stakeBlock","type":"uint256","internalType":"uint256"},{"name":"unstakeBlock","type":"uint256","internalType":"uint256"}]}],"stateMutability":"view"},{"type":"function","name":"getStakes","inputs":[{"name":"staker","type":"address","internalType":"address"},{"name":"poolId","type":"uint256","internalType":"uint256"}],"outputs":[{"name":"","type":"tuple[]","internalType":"struct IStaqeStructs.Stake[]","components":[{"name":"amountERC20","type":"uint256","internalType":"uint256"},{"name":"idERC721","type":"uint256","internalType":"uint256"},{"name":"stakeBlock","type":"uint256","internalType":"uint256"},{"name":"unstakeBlock","type":"uint256","internalType":"uint256"}]}],"stateMutability":"view"},{"type":"function","name":"getTotalPools","inputs":[],"outputs":[{"name":"","type":"uint256","internalType":"uint256"}],"stateMutability":"view"},{"type":"function","name":"getTotalRewards","inputs":[{"name":"poolId","type":"uint256","internalType":"uint256"}],"outputs":[{"name":"","type":"uint256","internalType":"uint256"}],"stateMutability":"view"},{"type":"function","name":"getTotalStakes","inputs":[{"name":"staker","type":"address","internalType":"address"},{"name":"poolId","type":"uint256","internalType":"uint256"}],"outputs":[{"name":"","type":"uint256","internalType":"uint256"}],"stateMutability":"view"},{"type":"function","name":"isActiveStaker","inputs":[{"name":"staker","type":"address","internalType":"address"},{"name":"poolId","type":"uint256","internalType":"uint256"}],"outputs":[{"name":"","type":"bool","internalType":"bool"}],"stateMutability":"view"},{"type":"function","name":"isERC721","inputs":[{"name":"contractAddress","type":"address","internalType":"address"}],"outputs":[{"name":"","type":"bool","internalType":"bool"}],"stateMutability":"view"},{"type":"function","name":"launchPool","inputs":[{"name":"stakeERC20","type":"address","internalType":"contract IERC20"},{"name":"stakeERC721","type":"address","internalType":"contract IERC721"},{"name":"rewardToken","type":"address","internalType":"contract IERC20"},{"name":"rewarder","type":"address","internalType":"address"},{"name":"metadata","type":"bytes32","internalType":"bytes32"}],"outputs":[{"name":"poolId","type":"uint256","internalType":"uint256"}],"stateMutability":"nonpayable"},{"type":"function","name":"stake","inputs":[{"name":"poolId","type":"uint256","internalType":"uint256"},{"name":"amount","type":"uint256","internalType":"uint256"},{"name":"id","type":"uint256","internalType":"uint256"}],"outputs":[{"name":"stakeId","type":"uint256","internalType":"uint256"}],"stateMutability":"nonpayable"},{"type":"function","name":"unstake","inputs":[{"name":"poolId","type":"uint256","internalType":"uint256"},{"name":"stakeIds","type":"uint256[]","internalType":"uint256[]"}],"outputs":[{"name":"amountERC20","type":"uint256","internalType":"uint256"},{"name":"idsERC721","type":"uint256[]","internalType":"uint256[]"}],"stateMutability":"nonpayable"},{"type":"event","name":"PoolEdited","inputs":[{"name":"poolId","type":"uint256","indexed":true,"internalType":"uint256"},{"name":"metadata","type":"bytes32","indexed":false,"internalType":"bytes32"}],"anonymous":false},{"type":"event","name":"PoolLaunched","inputs":[{"name":"poolId","type":"uint256","indexed":true,"internalType":"uint256"},{"name":"stakeERC20","type":"address","indexed":true,"internalType":"contract IERC20"},{"name":"stakeERC721","type":"address","indexed":true,"internalType":"contract IERC721"},{"name":"rewardToken","type":"address","indexed":false,"internalType":"contract IERC20"},{"name":"rewarder","type":"address","indexed":false,"internalType":"address"},{"name":"metadata","type":"bytes32","indexed":false,"internalType":"bytes32"}],"anonymous":false},{"type":"event","name":"RewardAdded","inputs":[{"name":"poolId","type":"uint256","indexed":true,"internalType":"uint256"},{"name":"rewardId","type":"uint256","indexed":true,"internalType":"uint256"},{"name":"rewardToken","type":"address","indexed":true,"internalType":"contract IERC20"},{"name":"rewardAmount","type":"uint256","indexed":false,"internalType":"uint256"},{"name":"totalStakedERC20","type":"uint256","indexed":false,"internalType":"uint256"},{"name":"totalStakedERC721","type":"uint256","indexed":false,"internalType":"uint256"},{"name":"isForERC721Stakers","type":"bool","indexed":false,"internalType":"bool"},{"name":"claimAfterBlock","type":"uint256","indexed":false,"internalType":"uint256"}],"anonymous":false},{"type":"event","name":"RewardClaimed","inputs":[{"name":"claimant","type":"address","indexed":true,"internalType":"address"},{"name":"poolId","type":"uint256","indexed":true,"internalType":"uint256"},{"name":"rewardId","type":"uint256","indexed":true,"internalType":"uint256"},{"name":"rewardToken","type":"address","indexed":false,"internalType":"contract IERC20"},{"name":"rewardAmount","type":"uint256","indexed":false,"internalType":"uint256"}],"anonymous":false},{"type":"event","name":"StakeCreated","inputs":[{"name":"staker","type":"address","indexed":true,"internalType":"address"},{"name":"poolId","type":"uint256","indexed":true,"internalType":"uint256"},{"name":"stakeId","type":"uint256","indexed":true,"internalType":"uint256"},{"name":"stakeAmountERC20","type":"uint256","indexed":false,"internalType":"uint256"},{"name":"stakeAmountERC721","type":"uint256","indexed":false,"internalType":"uint256"}],"anonymous":false},{"type":"event","name":"StakeWithdrawn","inputs":[{"name":"staker","type":"address","indexed":true,"internalType":"address"},{"name":"poolId","type":"uint256","indexed":true,"internalType":"uint256"},{"name":"stakeAmountERC20","type":"uint256","indexed":false,"internalType":"uint256"},{"name":"stakeAmountERC721","type":"uint256","indexed":false,"internalType":"uint256"}],"anonymous":false},{"type":"error","name":"InvalidAmountOrId","inputs":[]},{"type":"error","name":"InvalidERC721Token","inputs":[]},{"type":"error","name":"InvalidMetadata","inputs":[]},{"type":"error","name":"InvalidRewardToken","inputs":[]},{"type":"error","name":"InvalidStakeToken","inputs":[]},{"type":"error","name":"OnlyAvailableToStakersInGenesis","inputs":[]},{"type":"error","name":"OnlyRewinderHasAccessToAddRewards","inputs":[]},{"type":"error","name":"OnlyRewinderHasAccessToEditMetadata","inputs":[]},{"type":"error","name":"PoolDoesNotExist","inputs":[]},{"type":"error","name":"PoolDoesNotHaveStakes","inputs":[]},{"type":"error","name":"ReentrancyGuardReentrantCall","inputs":[]},{"type":"error","name":"RewardAlreadyClaimed","inputs":[]},{"type":"error","name":"RewardIsEmpty","inputs":[]},{"type":"error","name":"RewardIsNotYetAvailableForClaim","inputs":[]},{"type":"error","name":"RewardNotFoundInPool","inputs":[]},{"type":"error","name":"RewardTransferFailed","inputs":[]},{"type":"error","name":"StakeTransferFailed","inputs":[]},{"type":"error","name":"StakerDoesNotHaveStakesInPool","inputs":[]},{"type":"error","name":"UnstakeOnNextBlockAndGetReward","inputs":[]},{"type":"error","name":"UnstakeTransferFailed","inputs":[]}],"bytecode":{"object":"0x6080346200017057601f6200274438819003918201601f19168301916001600160401b03918284118585101762000175578160a09286926040968752833981010312620001705762000051836200018b565b602084015190936001600160a01b03808316928390036200017057620000798583016200018b565b916060810151908282168092036200017057608001519060009460018655875196610100880190888210908211176200015c57889985916007999a52168852602088019081528389890195168552606088019182526080880192835260a088019386855260c0890195878752818b60e08c0199438b528080526002602052209a51169260018060a01b031993848c5416178b558260018c01915116848254161790558160028b0191511683825416179055600389019251169082541617905551600486015551600585015551600684015551910155516125a39081620001a18239f35b634e487b7160e01b87526041600452602487fd5b600080fd5b634e487b7160e01b600052604160045260246000fd5b51906001600160a01b0382168203620001705756fe6080604052600436101561001257600080fd5b60003560e01c8063068bcd8d14611bb7578063118ea1af14611b6f5780632c32c36014611b3b578063395de242146116105780634089457e1461144b5780634cb8a68b14611357578063552164ee1461132b5780636e8639f3146113045780637ebfee3e14610fdc57806399a47faa1461090d578063a638f2e214610646578063b90bc519146105e5578063ba2b665114610400578063bab5c8ca146103df578063c0d8012c146102ea578063d33560e614610222578063d3ffe67a14610204578063daa09e54146101d75763e964a1a5146100ed57600080fd5b346101d25760403660031901126101d25760043560243561010c61254a565b81600052600260205260406000206007810154156101c05760048101908282541480156101b8575b6101a657600301546001600160a01b0316801590811561019b575b5061018957817f714674aaab7ecdeba0ba39a4f15a46228e6047a135c6307b31659ec0d22205c59260209255604051908152a26001600055005b6040516327e1476760e01b8152600490fd5b90503314153861014f565b604051635e765b2560e11b8152600490fd5b508215610134565b6040516302721e1f60e61b8152600490fd5b600080fd5b346101d25760203660031901126101d25760206101fa6101f5611c95565b6124f0565b6040519015158152f35b346101d25760003660031901126101d2576020600154604051908152f35b346101d257608061023236611cc1565b60405191929161024181611d38565b600081526000602082015260006040820152600060608201529160018060a01b03169283600052600460205260406000208160005260205260406000205482106102b5575b84836102b36040518092606080918051845260208101516020850152604081015160408501520151910152565bf35b6102dc92506102e29360005260046020526040600020906000526020526040600020611f26565b50611f42565b808380610286565b346101d2576020806003193601126101d25760043560005260038152604060002090815461031781611d76565b906103256040519283611d54565b8082528282018094600052836000206000915b8383106103c25760408051878152865181890181905289928201908960005b8281106103645784840385f35b9091928260c0826103b36001948a5160a08091805115158452600180831b0360208201511660208501526040810151604085015260608101516060850152608081015160808501520151910152565b01960191019492919094610357565b6005866001926103d185611e72565b815201920192019190610338565b346101d25760206103f86103f236611dec565b9061230f565b604051908152f35b346101d25760a03660031901126101d257610419611c95565b6001600160a01b0390602435828116908190036101d257610438611cab565b91606435928484168094036101d2576084359461045361254a565b61045c33612364565b156105d3578315928315806105c3575b6105b157811692831590816105a9575b506105975785156101a65760607fea106409d97245a2f68aff18e645843ffebdce52ff84bdc4ab62096d5418617b916020976104b9600154611f74565b97889586600155600787604051926104d084611ceb565b8a84528d8401968c88528060408601921697888352898601878152608087019189835260a08801936000855260c08901956000875260e08a01974389526000526020600290528160406000209a5116926bffffffffffffffffffffffff60a01b93848c5416178b558260018c01915116848254161790558160028b0191511683825416179055600389019251169082541617905551600486015551600585015551600684015551910155604051928352898301526040820152a46001600055604051908152f35b6040516314ec381360e11b8152600490fd5b90508761047c565b6040516366a0777760e01b8152600490fd5b506105cd856124f0565b1561046c565b6040516358fd19b960e11b8152600490fd5b346101d25760c06105fe6105f836611dec565b90611ec6565b6102b3604051809260a08091805115158452600180831b0360208201511660208501526040810151604085015260608101516060850152608081015160808501520151910152565b346101d25760603660031901126101d25760043560443560243561066861254a565b82600052602092600284526040600020916007830154156101c05780159384159480610905575b6108f357849333600052600487526040600020846000528752604060002054956108dd575b81151594856108af575b3360005260048852604060002085600052885260406000206040516106e281611d38565b85815289810191858352604082014381526060830191600083528054600160401b8110156108995761071991600182018155611f26565b949094610883576003935185555160018501555160028401555191015580610805575b6107f3578594610785575b50604051918252858201527f78fd8d607a2c84896af35bb608d5ca0058d97d083f5c582d15bf11f1c87c31ed60403392a46001600055604051908152f35b600101546001600160a01b03169350833b156101d2576040516323b872dd60e01b815233600482015230602482015260448101829052936000908590606490829084905af19384156107e757859415610747576107e190611d08565b86610747565b6040513d6000823e3d90fd5b604051631231ec2f60e21b8152600490fd5b5080546040516323b872dd60e01b815233600482015230602482015260448101859052908890829060649082906000906001600160a01b03165af19081156107e757600091610856575b501561073c565b6108769150883d8a1161087c575b61086e8183611d54565b810190611f90565b8861084f565b503d610864565b634e487b7160e01b600052600060045260246000fd5b634e487b7160e01b600052604160045260246000fd5b60068201805490600182018092116108c757556106be565b634e487b7160e01b600052601160045260246000fd5b600581016108ec848254611f83565b90556106b4565b604051633b91be2160e21b8152600490fd5b50801561068f565b346101d25760603660031901126101d25767ffffffffffffffff6004358181116101d25761093f903690600401611d8e565b906024908135908082116101d257366023830112156101d25781600401359261096784611d76565b936109756040519586611d54565b80855281602086019160051b850101923684116101d257828501915b848310610fb55787876109a2611cab565b916109ab61254a565b6001600160a01b03831615610fad575b8051916109f16109ca84611d76565b936109d86040519586611d54565b8085526109e7601f1991611d76565b0160208501611fee565b8151610a266109ff82611d76565b91610a0d6040519384611d54565b808352610a1c601f1991611d76565b0160208301611fee565b6000945b8351861015610b9057610a3d8684611fda565b5151610a4881611d76565b90610a566040519283611d54565b808252610a65601f1991611d76565b01366020830137610a768787611fda565b52610a818686611fda565b50610a96610a8f8785611fda565b5151611fa8565b610aa08784611fda565b52610aab8683611fda565b5060005b610ab98785611fda565b5151811015610b7f578086610b1a828a80610b1483610af6610b0c610b048f8f90610b7a9d610af689610aef81610afc95611fda565b5194611fda565b51611fda565b519033612048565b959099611fda565b51948c611fda565b52611fda565b6001600160a01b039091169052610b3581610af68a87611fda565b513360005260056020526040600020610b4e8a89611fda565b516000526020526040600020610b6883610af68c8a611fda565b51600052602052604060002055611f74565b610aaf565b5094610b8a90611f74565b94610a2a565b9291936000925b8051841015610e7557610baa8482611fda565b51600090815260026020819052604090912001546001600160a01b0316918215610d0b57600090815b610bdd8787611fda565b5151831015610c0e57610c02610c0891610bfb85610af68b8b611fda565b5190611f83565b92611f74565b91610bd3565b929793909591508215610cf95760405163a9059cbb60e01b81526001600160a01b0388166004820152602481018490526020816044816000865af19081156107e757600091610cda575b5015610cc857610cc0926000917f0968da03e3daa1681e040ac06832dc8b74955d289deeda5814ce26119323f010610cb8610c93868d611fda565b51604080516001600160a01b0390951685526020850195909552933393918291820190565b0390a4611f74565b929094610b97565b60405163078ecf4160e41b8152600490fd5b610cf3915060203d60201161087c5761086e8183611d54565b89610c58565b604051635f65f16560e11b8152600490fd5b939592915060005b610d1d8786611fda565b5151811015610e6757610d3481610af68986611fda565b5115610cf957610d9c60206001600160a01b03610d5584610af68c8b611fda565b5116610d6584610af68c89611fda565b5160405163a9059cbb60e01b81526001600160a01b038b166004820152602481019190915292839190829060009082906044820190565b03925af19081156107e757600091610e48575b5015610cc857610e4390610dc38884611fda565b51610dd282610af68b89611fda565b5190897f0968da03e3daa1681e040ac06832dc8b74955d289deeda5814ce26119323f010610cb8610e1f86610af68d610e1683610af68960018060a01b0394611fda565b5116958c611fda565b51604080516001600160a01b03909516855260208501919091523393918291820190565b610d13565b610e61915060203d60201161087c5761086e8183611d54565b88610daf565b5094610cc090929192611f74565b509060019081600055604051928392604084016040855282518091526060850190602060608260051b8801019401916000905b828210610f4557505050508382036020850152825180835260208301926020808360051b8301019501936000915b838310610ee35787870388f35b919395869193959750601f19838203018452875190602080835192838152019201906000905b808210610f2b5750505060208091980193019301909287969593949294610ed6565b919390926020809186518152019401920188939291610f09565b919395965091938590605f19898203018352855190602080835192838152019201906000905b808210610f8a5750505060208091960192019201879695939192610ea8565b82516001600160a01b031684528994602094850194909301929190910190610f6b565b3392506109bb565b82358281116101d257602091610fd183928736918b0101611d8e565b815201920191610991565b346101d25760a03660031901126101d2576001600160a01b036024358181168082036101d25760843591821590811584036101d25761101961254a565b93600435600052602094600286526040600020936040519461103a86611ceb565b83815416865283600182015416888701528360028201541691604087019283526007856003840154169260608901938452600481015460808a0152600581015460a08a0152600681015460c08a015201548060e0890152156101c057156112f2576044351580156112da575b610cf95751831680151590816112cf575b506112bd5785806112b1575b801561129d575b61128b5751821680611283575b506004356000526003865260406000208054956000146112785760c0850151905b6040519161110583611d1c565b85158352848416898401526044356040840152606083015260643560808301524360a0830152600160401b871015610899578661114791600182018155611e40565b919091610883578051825489830151610100600160a81b0360089190911b1691151560ff166001600160a81b0319909116171782556040808201516001840155606082015160028401556080820151600384015560a090910151600492830155516323b872dd60e01b81523391810191909152306024820152604480359082015286818060648101038160008787165af19081156107e75760009161125b575b5015610cc857849260c060a08601519501519061120660643543611f83565b91604051966044358852898801526040870152156060860152608085015216917f43861ad87d0ab505ab7da4b17b87cb88e18e8472e3c8da60c3cc0b69703ab6a360a060043592a46001600055604051908152f35b6112729150873d891161087c5761086e8183611d54565b876111e7565b60a0850151906110f8565b9050866110d7565b6040516303bdf00d60e31b8152600490fd5b508380156110ca575060a0850151156110ca565b5060c0850151156110c3565b604051639ad136e360e01b8152600490fd5b9050331415886110b7565b508680156110a6575060c086015160443511156110a6565b60405163dfde867160e01b8152600490fd5b346101d25760403660031901126101d25760206101fa611322611c95565b60243590612446565b346101d25760203660031901126101d25760043560005260036020526020604060002054604051908152f35b346101d25760403660031901126101d2576001600160a01b03611378611c95565b166000526020600481526040600020602435600052815260406000209081546113a081611d76565b906113ae6040519283611d54565b8082528282018094600052836000206000915b83831061142e5760408051878152865181890181905289928201908960005b8281106113ed5784840385f35b9091928260808261141f6001948a51606080918051845260208101516020850152604081015160408501520151910152565b019601910194929190946113e0565b60048660019261143d85611f42565b8152019201920191906113c1565b346101d25761145936611cc1565b611464929192611e02565b5061146f8184611ec6565b60009060009260405195630161961b60e51b875260018060a01b0395868116908160048a01528260248a01528360448a0152604089606481305afa806000916115cd575b6101009a506115c157506001600160a01b03166000908152600560209081526040808320858452825280832086845290915290205461158a575b5050505b80511515938060208301511692604083015160608401519260a060808601519501519560e060405161152281611ceb565b8a81526020810192835260408101948552606081019586526080810196875260a0810197885260c08101988952019715158852604051988952511660208801525160408701525160608601525160808501525160a08401525160c083015251151560e0820152f35b91935091935060005260056020526040600020906000526020526040600020906000526020526040600020546001918580806114ed565b95506114f19350505050565b905060408a3d604011611608575b816115e860409383611d54565b810103126101d2578951898116036101d25760206101009a0151906114b3565b3d91506115db565b346101d25760403660031901126101d25767ffffffffffffffff80602435116101d2573660236024350112156101d25760243560040135116101d25736602480356004013560051b81350101116101d25761166961254a565b6060600435600052600260205260406000209060076040519261168b84611ceb565b60018060a01b03815416845260018060a01b03600182015416602085015260018060a01b03600282015416604085015260018060a01b036003820154168385015260048101546080850152600581015460a0850152600681015460c0850152015460e0830152600091600060043560005260036020526040600020805461171181611d76565b9161171f6040519384611d54565b818352602083019060005260206000206000915b838310611b1d575050505080518015159182611af6575b5050611ae45760043560005260026020526040600020916007830154156101c057336000526004602052604060002060043560005260205260406000209160243560040135158015611adb575b61128b576117aa60243560040135611fa8565b9260005b602435600401358110611a1c57505085159384159480611a14575b611a0257846119ec575b81151590816119d6575b5081948061196b575b6119595761187c575b505050604092919251908282526020820152600435907f88d1c46373223a4f1f60db2badc985b05ec9c2b2eab4537f0f8e1291b78b6e3760403392a360016000556040519182916040830190835260406020840152815180915260206060840192019060005b818110611863575050500390f35b8251845285945060209384019390920191600101611855565b6118899192959450611fa8565b9060005b855181101561194c576118a08187611fda565b5115611943576118b08187611fda565b519380156108c75760001901936118c78585611fda565b5260208201516001600160a01b0316906118e18188611fda565b5191803b156101d257604051632142170760e11b815230600482015233602482015260448101939093526000908390606490829084905af19182156107e75761192f92611934575b50611f74565b61188d565b61193d90611d08565b87611929565b61192f90611f74565b50509192508380806117ef565b604051631b9f013160e11b8152600490fd5b50825160405163a9059cbb60e01b81523360048201526024810189905290602090829060449082906000906001600160a01b03165af19081156107e7576000916119b7575b50156117e6565b6119d0915060203d60201161087c5761086e8183611d54565b886119b0565b6006016119e483825461200b565b9055876117dd565b600581016119fb88825461200b565b90556117d3565b6040516319a089c160e01b8152600490fd5b5081156117c9565b611a3181602435600401356024803501612018565b3582541115611ad257611a59611a5282602435600401356024803501612018565b3583611f26565b5097600389015415801590611ac4575b611ab957611a816001914360038c01558a5490611f83565b98015480611a99575b50611a9490611f74565b6117ae565b8193611ab291611aac611a949489611fda565b52611f74565b9290611a8a565b9750611a9490611f74565b504360028a01541015611a69565b611a9490611f74565b50825415611797565b6040516371f7dfa560e01b8152600490fd5b600019820192509082116108c75760a091611b1091611fda565b510151431115858061174a565b60056020600192611b2d85611e72565b815201920192019190611733565b346101d257611b52611b4c36611cc1565b91612048565b604080516001600160a01b03939093168352602083019190915290f35b346101d25760403660031901126101d2576001600160a01b03611b90611c95565b16600052600460205260406000206024356000526020526020604060002054604051908152f35b346101d25760203660031901126101d257611bd0611e02565b5060043560005260026020526101006040600020604051611bf081611ceb565b60018060a01b03918281541692838352806001830154169060208401918252806002840154169060408501918252806003850154166060860190815281600486015493608088019485528160058801549660a08a0197885260e0600760068b01549a60c08d019b8c5201549a01998a526040519a8b52511660208a015251166040880152511660608601525160808501525160a08401525160c08301525160e0820152f35b600435906001600160a01b03821682036101d257565b604435906001600160a01b03821682036101d257565b60609060031901126101d2576004356001600160a01b03811681036101d257906024359060443590565b610100810190811067ffffffffffffffff82111761089957604052565b67ffffffffffffffff811161089957604052565b60c0810190811067ffffffffffffffff82111761089957604052565b6080810190811067ffffffffffffffff82111761089957604052565b90601f8019910116810190811067ffffffffffffffff82111761089957604052565b67ffffffffffffffff81116108995760051b60200190565b81601f820112156101d257803591611da583611d76565b92611db36040519485611d54565b808452602092838086019260051b8201019283116101d2578301905b828210611ddd575050505090565b81358152908301908301611dcf565b60409060031901126101d2576004359060243590565b60405190611e0f82611ceb565b8160e06000918281528260208201528260408201528260608201528260808201528260a08201528260c08201520152565b8054821015611e5c576000526005602060002091020190600090565b634e487b7160e01b600052603260045260246000fd5b90604051611e7f81611d1c565b825460ff81161515825260081c6001600160a01b031660208201526001830154604082015260028301546060820152600383015460808201526004929092015460a0830152565b919060408051611ed581611d1c565b60009081815281602082015281838201528160608201528160808201528160a082015294815260036020522080548210611f0d575050565b611f2392935090611f1d91611e40565b50611e72565b90565b8054821015611e5c5760005260206000209060021b0190600090565b90604051611f4f81611d38565b6060600382948054845260018101546020850152600281015460408501520154910152565b60001981146108c75760010190565b919082018092116108c757565b908160209103126101d2575180151581036101d25790565b90611fb282611d76565b611fbf6040519182611d54565b8281528092611fd0601f1991611d76565b0190602036910137565b8051821015611e5c5760209160051b010190565b60005b828110611ffd57505050565b606082820152602001611ff1565b919082039182116108c757565b9190811015611e5c5760051b0190565b8115612032570490565b634e487b7160e01b600052601260045260246000fd5b6001600160a01b038116600090815260056020908152604080832085845282528083208684529091528120549294939092839291906122fd5761208b818761230f565b6122eb57858352602092600384526040938482209283546120ab81611d76565b946120b888519687611d54565b81865284528284208490848088015b8484106122cc57505050505080845111156122bb576001600160a01b0394851683526004808352868420998452988252858320805490949061210881611d76565b9561211589519788611d54565b818752855283852085908588015b8d878585106122a157505050505050845115612291579061214691989598611fda565b5192829460a08501955b825181101561226a576121638184611fda565b5160609081810151801590811561225f575b508a8201518a511015908951159182159083612254575b81612247575b8261223f575b5081612226575b506121b6575b5050506121b190611f74565b612150565b929a921561220c57519089880151918281029281840414901517156121f957916121ea6121f0926121b1948a015190612028565b90611f83565b989038806121a5565b634e487b7160e01b875260118d52602487fd5b506121b1916121ea6121f0928b8a0151908a015190612028565b8291508115612237575b503861219f565b905038612230565b915038612198565b848a015115159150612192565b84511515935061218c565b905089511038612175565b509893945050939050949394851561228457505001511691565b51635f65f16560e11b8152fd5b86516319a089c160e01b81528a90fd5b6001926122ad85611f42565b815201920192019190612123565b855163767afb7b60e11b8152600490fd5b6001916005916122db85611e72565b81520192019201919085906120c7565b6040516303a4fc3760e01b8152600490fd5b604051632cfe303760e21b8152600490fd5b61234d9060036123446000948386528260205260046123318260408920611e40565b5001549386528260205260408620611e40565b50015490611f83565b43811061236057611f239150439061200b565b5090565b6000808052600260209081527fac33ff75c19e70fe83507db0d683fd3465c996598dc972688b7ace676c890781546040929190157fac33ff75c19e70fe83507db0d683fd3465c996598dc972688b7ace676c89077b81612439575b5061243257815b6001600160a01b038516808452600480845285852085805284528585205490919083101561242857845282528383208380528252600361240882868620611f26565b5001541561241e5761241990611f74565b6123c6565b5050505050600190565b5050505091505090565b5091505090565b60059150015415386123bf565b9060008181526020916002835260409283832060068101541590816124e3575b506124db57825b6001600160a01b03861680855260048084528686208587528452868620549091908310156124d05785528252848420838552825260036124af82878720611f26565b500154156124c5576124c090611f74565b61246d565b505050505050600190565b505050505091505090565b505091505090565b6005915001541538612466565b6040516301ffc9a760e01b81526380ac58cd60e01b600482015290602090829060249082906001600160a01b03165afa9081156107e757600091612532575090565b611f23915060203d811161087c5761086e8183611d54565b60026000541461255b576002600055565b604051633ee5aeb560e01b8152600490fdfea26469706673582212203a3d2d9c4bcd020facd75445dcb55bd54929f8080b23fd3388893952f806e0a364736f6c63430008140033","linkReferences":{}},"methodIdentifiers":{"addReward(uint256,address,uint256,uint256,bool)":"7ebfee3e","blocksToReward(uint256,uint256)":"bab5c8ca","calculateReward(address,uint256,uint256)":"2c32c360","claimRewards(uint256[],uint256[][],address)":"99a47faa","editPool(uint256,bytes32)":"e964a1a5","getPool(uint256)":"068bcd8d","getReward(uint256,uint256)":"b90bc519","getRewardFor(address,uint256,uint256)":"4089457e","getRewards(uint256)":"c0d8012c","getStake(address,uint256,uint256)":"d33560e6","getStakes(address,uint256)":"4cb8a68b","getTotalPools()":"d3ffe67a","getTotalRewards(uint256)":"552164ee","getTotalStakes(address,uint256)":"118ea1af","isActiveStaker(address,uint256)":"6e8639f3","isERC721(address)":"daa09e54","launchPool(address,address,address,address,bytes32)":"ba2b6651","stake(uint256,uint256,uint256)":"a638f2e2","unstake(uint256,uint256[])":"395de242"},"id":0}