{"abi":[{"type":"constructor","inputs":[{"name":"stakeERC20","type":"address","internalType":"contract IERC20"},{"name":"stakeERC721","type":"address","internalType":"contract IERC721"},{"name":"rewardToken","type":"address","internalType":"contract IERC20"},{"name":"rewarder","type":"address","internalType":"address"},{"name":"metadata","type":"bytes32","internalType":"bytes32"}],"stateMutability":"nonpayable"},{"type":"function","name":"addReward","inputs":[{"name":"poolId","type":"uint256","internalType":"uint256"},{"name":"rewardToken","type":"address","internalType":"contract IERC20"},{"name":"rewardAmount","type":"uint256","internalType":"uint256"},{"name":"claimAfterBlocks","type":"uint256","internalType":"uint256"},{"name":"isForERC721Stakers","type":"bool","internalType":"bool"}],"outputs":[{"name":"rewardId","type":"uint256","internalType":"uint256"}],"stateMutability":"nonpayable"},{"type":"function","name":"blocksToReward","inputs":[{"name":"poolId","type":"uint256","internalType":"uint256"},{"name":"rewardId","type":"uint256","internalType":"uint256"}],"outputs":[{"name":"","type":"uint256","internalType":"uint256"}],"stateMutability":"view"},{"type":"function","name":"calculateReward","inputs":[{"name":"staker","type":"address","internalType":"address"},{"name":"poolId","type":"uint256","internalType":"uint256"},{"name":"rewardId","type":"uint256","internalType":"uint256"}],"outputs":[{"name":"","type":"address","internalType":"contract IERC20"},{"name":"","type":"uint256","internalType":"uint256"}],"stateMutability":"view"},{"type":"function","name":"claimRewards","inputs":[{"name":"poolIds","type":"uint256[]","internalType":"uint256[]"},{"name":"rewardIds","type":"uint256[][]","internalType":"uint256[][]"},{"name":"recipient","type":"address","internalType":"address"}],"outputs":[{"name":"tokens","type":"address[][]","internalType":"contract IERC20[][]"},{"name":"amounts","type":"uint256[][]","internalType":"uint256[][]"}],"stateMutability":"nonpayable"},{"type":"function","name":"editPool","inputs":[{"name":"poolId","type":"uint256","internalType":"uint256"},{"name":"metadata","type":"bytes32","internalType":"bytes32"}],"outputs":[],"stateMutability":"nonpayable"},{"type":"function","name":"getClaimedAmount","inputs":[{"name":"staker","type":"address","internalType":"address"},{"name":"poolId","type":"uint256","internalType":"uint256"},{"name":"rewardId","type":"uint256","internalType":"uint256"}],"outputs":[{"name":"","type":"uint256","internalType":"uint256"}],"stateMutability":"view"},{"type":"function","name":"getPool","inputs":[{"name":"poolId","type":"uint256","internalType":"uint256"}],"outputs":[{"name":"","type":"tuple","internalType":"struct IStaqeStructs.Pool","components":[{"name":"stakeERC20","type":"address","internalType":"contract IERC20"},{"name":"stakeERC721","type":"address","internalType":"contract IERC721"},{"name":"rewardToken","type":"address","internalType":"contract IERC20"},{"name":"rewarder","type":"address","internalType":"address"},{"name":"metadata","type":"bytes32","internalType":"bytes32"},{"name":"totalStakedERC20","type":"uint256","internalType":"uint256"},{"name":"totalStakedERC721","type":"uint256","internalType":"uint256"},{"name":"launchBlock","type":"uint256","internalType":"uint256"}]}],"stateMutability":"view"},{"type":"function","name":"getRewards","inputs":[{"name":"poolId","type":"uint256","internalType":"uint256"}],"outputs":[{"name":"","type":"tuple[]","internalType":"struct IStaqeStructs.Reward[]","components":[{"name":"isForERC721Stakers","type":"bool","internalType":"bool"},{"name":"rewardToken","type":"address","internalType":"contract IERC20"},{"name":"rewardAmount","type":"uint256","internalType":"uint256"},{"name":"totalStaked","type":"uint256","internalType":"uint256"},{"name":"claimAfterBlocks","type":"uint256","internalType":"uint256"},{"name":"rewardBlock","type":"uint256","internalType":"uint256"}]}],"stateMutability":"view"},{"type":"function","name":"getStakes","inputs":[{"name":"staker","type":"address","internalType":"address"},{"name":"poolId","type":"uint256","internalType":"uint256"}],"outputs":[{"name":"","type":"tuple[]","internalType":"struct IStaqeStructs.Stake[]","components":[{"name":"amountERC20","type":"uint256","internalType":"uint256"},{"name":"idERC721","type":"uint256","internalType":"uint256"},{"name":"stakeBlock","type":"uint256","internalType":"uint256"},{"name":"unstakeBlock","type":"uint256","internalType":"uint256"}]}],"stateMutability":"view"},{"type":"function","name":"getTotalPools","inputs":[],"outputs":[{"name":"","type":"uint256","internalType":"uint256"}],"stateMutability":"view"},{"type":"function","name":"isActiveStaker","inputs":[{"name":"staker","type":"address","internalType":"address"},{"name":"poolId","type":"uint256","internalType":"uint256"}],"outputs":[{"name":"","type":"bool","internalType":"bool"}],"stateMutability":"view"},{"type":"function","name":"isClaimed","inputs":[{"name":"staker","type":"address","internalType":"address"},{"name":"poolId","type":"uint256","internalType":"uint256"},{"name":"rewardId","type":"uint256","internalType":"uint256"}],"outputs":[{"name":"","type":"bool","internalType":"bool"}],"stateMutability":"view"},{"type":"function","name":"isERC721","inputs":[{"name":"contractAddress","type":"address","internalType":"address"}],"outputs":[{"name":"","type":"bool","internalType":"bool"}],"stateMutability":"view"},{"type":"function","name":"launchPool","inputs":[{"name":"stakeERC20","type":"address","internalType":"contract IERC20"},{"name":"stakeERC721","type":"address","internalType":"contract IERC721"},{"name":"rewardToken","type":"address","internalType":"contract IERC20"},{"name":"rewarder","type":"address","internalType":"address"},{"name":"metadata","type":"bytes32","internalType":"bytes32"}],"outputs":[{"name":"poolId","type":"uint256","internalType":"uint256"}],"stateMutability":"nonpayable"},{"type":"function","name":"stake","inputs":[{"name":"poolId","type":"uint256","internalType":"uint256"},{"name":"amount","type":"uint256","internalType":"uint256"},{"name":"id","type":"uint256","internalType":"uint256"}],"outputs":[{"name":"stakeId","type":"uint256","internalType":"uint256"}],"stateMutability":"nonpayable"},{"type":"function","name":"unstake","inputs":[{"name":"poolId","type":"uint256","internalType":"uint256"},{"name":"stakeIds","type":"uint256[]","internalType":"uint256[]"}],"outputs":[{"name":"amountERC20","type":"uint256","internalType":"uint256"},{"name":"idsERC721","type":"uint256[]","internalType":"uint256[]"}],"stateMutability":"nonpayable"},{"type":"event","name":"PoolEdited","inputs":[{"name":"poolId","type":"uint256","indexed":true,"internalType":"uint256"},{"name":"metadata","type":"bytes32","indexed":false,"internalType":"bytes32"}],"anonymous":false},{"type":"event","name":"PoolLaunched","inputs":[{"name":"poolId","type":"uint256","indexed":true,"internalType":"uint256"},{"name":"stakeERC20","type":"address","indexed":true,"internalType":"contract IERC20"},{"name":"stakeERC721","type":"address","indexed":true,"internalType":"contract IERC721"},{"name":"rewardToken","type":"address","indexed":false,"internalType":"contract IERC20"},{"name":"rewarder","type":"address","indexed":false,"internalType":"address"},{"name":"metadata","type":"bytes32","indexed":false,"internalType":"bytes32"}],"anonymous":false},{"type":"event","name":"RewardAdded","inputs":[{"name":"poolId","type":"uint256","indexed":true,"internalType":"uint256"},{"name":"rewardId","type":"uint256","indexed":true,"internalType":"uint256"},{"name":"rewardToken","type":"address","indexed":true,"internalType":"contract IERC20"},{"name":"rewardAmount","type":"uint256","indexed":false,"internalType":"uint256"},{"name":"totalStakedERC20","type":"uint256","indexed":false,"internalType":"uint256"},{"name":"totalStakedERC721","type":"uint256","indexed":false,"internalType":"uint256"},{"name":"isForERC721Stakers","type":"bool","indexed":false,"internalType":"bool"},{"name":"claimAfterBlock","type":"uint256","indexed":false,"internalType":"uint256"}],"anonymous":false},{"type":"event","name":"RewardClaimed","inputs":[{"name":"claimant","type":"address","indexed":true,"internalType":"address"},{"name":"poolId","type":"uint256","indexed":true,"internalType":"uint256"},{"name":"rewardId","type":"uint256","indexed":true,"internalType":"uint256"},{"name":"rewardToken","type":"address","indexed":false,"internalType":"contract IERC20"},{"name":"rewardAmount","type":"uint256","indexed":false,"internalType":"uint256"}],"anonymous":false},{"type":"event","name":"StakeCreated","inputs":[{"name":"staker","type":"address","indexed":true,"internalType":"address"},{"name":"poolId","type":"uint256","indexed":true,"internalType":"uint256"},{"name":"stakeId","type":"uint256","indexed":true,"internalType":"uint256"},{"name":"stakeAmountERC20","type":"uint256","indexed":false,"internalType":"uint256"},{"name":"stakeAmountERC721","type":"uint256","indexed":false,"internalType":"uint256"}],"anonymous":false},{"type":"event","name":"StakeWithdrawn","inputs":[{"name":"staker","type":"address","indexed":true,"internalType":"address"},{"name":"poolId","type":"uint256","indexed":true,"internalType":"uint256"},{"name":"stakeAmountERC20","type":"uint256","indexed":false,"internalType":"uint256"},{"name":"stakeAmountERC721","type":"uint256","indexed":false,"internalType":"uint256"}],"anonymous":false},{"type":"error","name":"InvalidAmount","inputs":[]},{"type":"error","name":"InvalidERC721Token","inputs":[]},{"type":"error","name":"InvalidMetadata","inputs":[]},{"type":"error","name":"InvalidRewardToken","inputs":[]},{"type":"error","name":"InvalidStakeToken","inputs":[]},{"type":"error","name":"OnlyAvailableToStakersInGenesis","inputs":[]},{"type":"error","name":"OnlyRewinderHasAccessToAddRewards","inputs":[]},{"type":"error","name":"OnlyRewinderHasAccessToEditMetadata","inputs":[]},{"type":"error","name":"PoolDoesNotExist","inputs":[]},{"type":"error","name":"PoolDoesNotHaveStakes","inputs":[]},{"type":"error","name":"ReentrancyGuardReentrantCall","inputs":[]},{"type":"error","name":"RewardAlreadyClaimed","inputs":[]},{"type":"error","name":"RewardIsEmpty","inputs":[]},{"type":"error","name":"RewardIsNotYetAvailableForClaim","inputs":[]},{"type":"error","name":"RewardNotFoundInPool","inputs":[]},{"type":"error","name":"RewardTransferFailed","inputs":[]},{"type":"error","name":"StakeTransferFailed","inputs":[]},{"type":"error","name":"StakerDoesNotHaveStakesInPool","inputs":[]},{"type":"error","name":"UnstakeOnNextBlockAndGetReward","inputs":[]},{"type":"error","name":"UnstakeTransferFailed","inputs":[]}],"bytecode":{"object":"0x6080346200017057601f6200241738819003918201601f19168301916001600160401b03918284118585101762000175578160a09286926040968752833981010312620001705762000051836200018b565b602084015190936001600160a01b03808316928390036200017057620000798583016200018b565b916060810151908282168092036200017057608001519060009460018655875196610100880190888210908211176200015c57889985916007999a52168852602088019081528389890195168552606088019182526080880192835260a088019386855260c0890195878752818b60e08c0199438b528080526002602052209a51169260018060a01b031993848c5416178b558260018c01915116848254161790558160028b0191511683825416179055600389019251169082541617905551600486015551600585015551600684015551910155516122769081620001a18239f35b634e487b7160e01b87526041600452602487fd5b600080fd5b634e487b7160e01b600052604160045260246000fd5b51906001600160a01b0382168203620001705756fe608080604052600436101561001357600080fd5b60003560e01c908163068bcd8d14611929575080632c32c360146118f5578063395de242146113875780634cb8a68b1461127d5780635ea6bda1146112365780636e8639f31461120f5780637ebfee3e14610ed557806399a47faa1461084a578063a638f2e214610583578063aeeacb421461053f578063ba2b66511461035a578063bab5c8ca14610331578063c0d8012c14610204578063d3ffe67a146101e6578063daa09e54146101b95763e964a1a5146100cf57600080fd5b346101b45760403660031901126101b4576004356024356100ee61221d565b81600052600260205260406000206007810154156101a257600481019082825414801561019a575b61018857600301546001600160a01b0316801590811561017d575b5061016b57817f714674aaab7ecdeba0ba39a4f15a46228e6047a135c6307b31659ec0d22205c59260209255604051908152a26001600055005b6040516327e1476760e01b8152600490fd5b905033141538610131565b604051635e765b2560e11b8152600490fd5b508215610116565b6040516302721e1f60e61b8152600490fd5b600080fd5b346101b45760203660031901126101b45760206101dc6101d7611a35565b6121c3565b6040519015158152f35b346101b45760003660031901126101b4576020600154604051908152f35b346101b4576020806003193601126101b457600435600052600390818152604060002091825461023381611b16565b916102416040519384611af4565b81835260009485528385208484019591865b8484106102d257604080518881528751818a018190528a928201908a60005b82811061027f5784840385f35b8551805115158552808301516001600160a01b03168584015260408082015190860152606080820151908601526080808201519086015260a090810151908501529481019460c090930192600101610272565b6005876001926040516102e481611aa8565b865460ff811615158252858060a01b039060081c168382015284870154604082015260028701546060820152858701546080820152600487015460a0820152815201930193019291610253565b346101b45760403660031901126101b4576020610352602435600435611fdf565b604051908152f35b346101b45760a03660031901126101b457610373611a35565b6001600160a01b0390602435828116908190036101b457610392611a4b565b91606435928484168094036101b457608435946103ad61221d565b6103b633612037565b1561052d5783159283158061051d575b61050b5781169283159081610503575b506104f15785156101885760607fea106409d97245a2f68aff18e645843ffebdce52ff84bdc4ab62096d5418617b91602097610413600154611b8c565b978895866001556007876040519261042a84611a8b565b8a84528d8401968c88528060408601921697888352898601878152608087019189835260a08801936000855260c08901956000875260e08a01974389526000526020600290528160406000209a5116926bffffffffffffffffffffffff60a01b93848c5416178b558260018c01915116848254161790558160028b0191511683825416179055600389019251169082541617905551600486015551600585015551600684015551910155604051928352898301526040820152a46001600055604051908152f35b6040516314ec381360e11b8152600490fd5b9050876103d6565b6040516366a0777760e01b8152600490fd5b50610527856121c3565b156103c6565b6040516358fd19b960e11b8152600490fd5b346101b45760206101dc61055236611a61565b91909160409260009260018060a01b0316835260056020528383209083526020528282209082526020522054151590565b346101b45760603660031901126101b4576004356044356024356105a561221d565b82600052602092600284526040600020916007830154156101a25780159384159480610842575b610830578493336000526004875260406000208460005287526040600020549561081a575b81151594856107ec575b33600052600488526040600020856000528852604060002060405161061f81611ad8565b85815289810191858352604082014381526060830191600083528054600160401b8110156107d65761065691600182018155611ba8565b9490946107c0576003935185555160018501555160028401555191015580610742575b6107305785946106c2575b50604051918252858201527f78fd8d607a2c84896af35bb608d5ca0058d97d083f5c582d15bf11f1c87c31ed60403392a46001600055604051908152f35b600101546001600160a01b03169350833b156101b4576040516323b872dd60e01b815233600482015230602482015260448101829052936000908590606490829084905af1938415610724578594156106845761071e90611ac4565b86610684565b6040513d6000823e3d90fd5b604051631231ec2f60e21b8152600490fd5b5080546040516323b872dd60e01b815233600482015230602482015260448101859052908890829060649082906000906001600160a01b03165af190811561072457600091610793575b5015610679565b6107b39150883d8a116107b9575b6107ab8183611af4565b810190611bda565b8861078c565b503d6107a1565b634e487b7160e01b600052600060045260246000fd5b634e487b7160e01b600052604160045260246000fd5b600682018054906001820180921161080457556105fb565b634e487b7160e01b600052601160045260246000fd5b60058101610829848254611b9b565b90556105f1565b60405163162908e360e11b8152600490fd5b5080156105cc565b346101b45760603660031901126101b45767ffffffffffffffff6004358181116101b45761087c903690600401611b2e565b906024908135908082116101b457366023830112156101b4578160040135926108a484611b16565b936108b26040519586611af4565b80855281602086019160051b850101923684116101b457828501915b848310610eae5787876108df611a4b565b916108e861221d565b80519161091e6108f784611b16565b936109056040519586611af4565b808552610914601f1991611b16565b0160208501611c54565b815161095361092c82611b16565b9161093a6040519384611af4565b808352610949601f1991611b16565b0160208301611c54565b6000945b8351861015610abd5761096a8684611c40565b515161097581611b16565b906109836040519283611af4565b808252610992601f1991611b16565b013660208301376109a38787611c40565b526109ae8686611c40565b506109c36109bc8785611c40565b5151611c0e565b6109cd8784611c40565b526109d88683611c40565b5060005b6109e68785611c40565b5151811015610aac578086610a47828a80610a4183610a23610a39610a318f8f90610aa79d610a2389610a1c81610a2995611c40565b5194611c40565b51611c40565b519033611cae565b959099611c40565b51948c611c40565b52611c40565b6001600160a01b039091169052610a6281610a238a87611c40565b513360005260056020526040600020610a7b8a89611c40565b516000526020526040600020610a9583610a238c8a611c40565b51600052602052604060002055611b8c565b6109dc565b5094610ab790611b8c565b94610957565b92916000925b8051841015610d7657610ad68482611c40565b51600090815260026020819052604090912001546001600160a01b0390811692908315610c285750600090815b610b0d8787611c40565b5151831015610b3e57610b32610b3891610b2b85610a238b8b611c40565b5190611b9b565b92611b8c565b91610b03565b60405163a9059cbb60e01b81526001600160a01b0389166004820152602481018290529398919691949093919250906020816044816000865af190811561072457600091610c09575b5015610bf757610bef926000917f0968da03e3daa1681e040ac06832dc8b74955d289deeda5814ce26119323f010610be7610bc2868d611c40565b51604080516001600160a01b0390951685526020850195909552933393918291820190565b0390a4611b8c565b929094610ac3565b60405163078ecf4160e41b8152600490fd5b610c22915060203d6020116107b9576107ab8183611af4565b89610b87565b909495969391925060005b610c3d8786611c40565b5151811015610d6757610ca1602083610c5a84610a238c8b611c40565b5116610c6a84610a238c89611c40565b5160405163a9059cbb60e01b81526001600160a01b038d166004820152602481019190915292839190829060009082906044820190565b03925af190811561072457600091610d48575b5015610bf757808587897f0968da03e3daa1681e040ac06832dc8b74955d289deeda5814ce26119323f010610be7610d1f86610a238a610d16838f89610d0f610d439f610a2383610d0881610a2397611c40565b519f611c40565b519c611c40565b5116958c611c40565b51604080516001600160a01b03909516855260208501919091523393918291820190565b610c33565b610d61915060203d6020116107b9576107ab8183611af4565b89610cb4565b505091909493610bef90611b8c565b858360019081600055604051928392604084016040855282518091526060850190602060608260051b8801019401916000905b828210610e4657505050508382036020850152825180835260208301926020808360051b8301019501936000915b838310610de45787870388f35b919395869193959750601f19838203018452875190602080835192838152019201906000905b808210610e2c5750505060208091980193019301909287969593949294610dd7565b919390926020809186518152019401920188939291610e0a565b919395965091938590605f19898203018352855190602080835192838152019201906000905b808210610e8b5750505060208091960192019201879695939192610da9565b82516001600160a01b031684528994602094850194909301929190910190610e6c565b82358281116101b457602091610eca83928736918b0101611b2e565b8152019201916108ce565b346101b45760a03660031901126101b4576001600160a01b036024358181168082036101b45760843591821590811584036101b457610f1261221d565b936004356000526020946002865260406000209360405194610f3386611a8b565b83815416865283600182015416888701528360028201541691604087019283526007856003840154169260608901938452600481015460808a0152600581015460a08a0152600681015460c08a015201548060e0890152156101a257156111fd576044351580156111e5575b6111d35751831680151590816111c8575b506111b65785806111aa575b8015611196575b611184575182168061117c575b506004356000526003865260406000208054956000146111715760c0850151905b60405191610ffe83611aa8565b85158352848416898401526044356040840152606083015260643560808301524360a0830152600160401b8710156107d6578661104091600182018155611bf2565b9190916107c0578051825489830151610100600160a81b0360089190911b1691151560ff166001600160a81b0319909116171782556040808201516001840155606082015160028401556080820151600384015560a090910151600492830155516323b872dd60e01b81523391810191909152306024820152604480359082015286818060648101038160008787165af190811561072457600091611154575b5015610bf757849260c060a0860151950151906110ff60643543611b9b565b91604051966044358852898801526040870152156060860152608085015216917f43861ad87d0ab505ab7da4b17b87cb88e18e8472e3c8da60c3cc0b69703ab6a360a060043592a46001600055604051908152f35b61116b9150873d89116107b9576107ab8183611af4565b876110e0565b60a085015190610ff1565b905086610fd0565b6040516303bdf00d60e31b8152600490fd5b50838015610fc3575060a085015115610fc3565b5060c085015115610fbc565b604051639ad136e360e01b8152600490fd5b905033141588610fb0565b604051635f65f16560e11b8152600490fd5b50868015610f9f575060c08601516044351115610f9f565b60405163dfde867160e01b8152600490fd5b346101b45760403660031901126101b45760206101dc61122d611a35565b60243590612119565b346101b45761124436611a61565b9160018060a01b031660005260056020526040600020906000526020526040600020906000526020526020604060002054604051908152f35b346101b45760403660031901126101b4576001600160a01b0361129e611a35565b166000526020600481526040600020602435600052815260406000209081546112c681611b16565b906112d46040519283611af4565b8082528282018094600052836000206000915b8383106113475760408051878152865181890181905289928201908960005b8281106113135784840385f35b8551805185528083015185840152604080820151908601526060908101519085015294810194608090930192600101611306565b60048660019260405161135981611ad8565b85548152848601548382015260028601546040820152600386015460608201528152019201920191906112e7565b346101b45760403660031901126101b45767ffffffffffffffff80602435116101b4573660236024350112156101b45760243560040135116101b45736602480356004013560051b81350101116101b4576113e061221d565b6060600435600052600260205260406000209060076040519261140284611a8b565b60018060a01b03815416845260018060a01b03600182015416602085015260018060a01b03600282015416604085015260018060a01b03600382015416606085015260048101546080850152600581015460a0850152600681015460c0850152015460e0830152600091600060043560005260036020526040600020805461148981611b16565b916114976040519384611af4565b818352602083019060005260206000206000915b83831061189457505050508051801515918261186d575b505061185b5760043560005260026020526040600020916007830154156101a257336000526004602052604060002060043560005260205260406000209160243560040135158015611852575b6111845761152260243560040135611c0e565b9260005b6024356004013581106117935750508515808061178b575b61177957159384611763575b811515908161174d575b508194806116e2575b6116d0576115f3575b505050604092919251908282526020820152600435907f88d1c46373223a4f1f60db2badc985b05ec9c2b2eab4537f0f8e1291b78b6e3760403392a360016000556040519182916040830190835260406020840152815180915260206060840192019060005b8181106115da575050500390f35b82518452859450602093840193909201916001016115cc565b6116009192959450611c0e565b9060005b85518110156116c3576116178187611c40565b51156116ba576116278187611c40565b5193801561080457600019019361163e8585611c40565b5260208201516001600160a01b0316906116588188611c40565b5191803b156101b457604051632142170760e11b815230600482015233602482015260448101939093526000908390606490829084905af1918215610724576116a6926116ab575b50611b8c565b611604565b6116b490611ac4565b876116a0565b6116a690611b8c565b5050919250838080611566565b604051631b9f013160e11b8152600490fd5b50825160405163a9059cbb60e01b81523360048201526024810189905290602090829060449082906000906001600160a01b03165af19081156107245760009161172e575b501561155d565b611747915060203d6020116107b9576107ab8183611af4565b88611727565b60060161175b838254611c71565b905587611554565b60058101611772888254611c71565b905561154a565b6040516319a089c160e01b8152600490fd5b50811561153e565b6117a881602435600401356024803501611c7e565b3582541115611849576117d06117c982602435600401356024803501611c7e565b3583611ba8565b509760038901541580159061183b575b611830576117f86001914360038c01558a5490611b9b565b98015480611810575b5061180b90611b8c565b611526565b81936118299161182361180b9489611c40565b52611b8c565b9290611801565b975061180b90611b8c565b504360028a015410156117e0565b61180b90611b8c565b5082541561150f565b6040516371f7dfa560e01b8152600490fd5b600019820192509082116108045760a09161188791611c40565b51015143111585806114c2565b600560206001926040516118a781611aa8565b855460ff811615158252858060a01b039060081c16838201528486015460408201526002860154606082015260038601546080820152600486015460a08201528152019201920191906114ab565b346101b45761190c61190636611a61565b91611cae565b604080516001600160a01b03939093168352602083019190915290f35b346101b45760203660031901126101b45760e081611948600093611a8b565b8281528260208201528260408201528260608201528260808201528260a08201528260c082015201526004356000526002602052610100604060002060405161199081611a8b565b60018060a01b03918281541692838352806001830154169060208401918252806002840154169060408501918252806003850154166060860190815281600486015493608088019485528160058801549660a08a0197885260e0600760068b01549a60c08d019b8c5201549a01998a526040519a8b52511660208a015251166040880152511660608601525160808501525160a08401525160c08301525160e0820152f35b600435906001600160a01b03821682036101b457565b604435906001600160a01b03821682036101b457565b60609060031901126101b4576004356001600160a01b03811681036101b457906024359060443590565b610100810190811067ffffffffffffffff8211176107d657604052565b60c0810190811067ffffffffffffffff8211176107d657604052565b67ffffffffffffffff81116107d657604052565b6080810190811067ffffffffffffffff8211176107d657604052565b90601f8019910116810190811067ffffffffffffffff8211176107d657604052565b67ffffffffffffffff81116107d65760051b60200190565b81601f820112156101b457803591611b4583611b16565b92611b536040519485611af4565b808452602092838086019260051b8201019283116101b4578301905b828210611b7d575050505090565b81358152908301908301611b6f565b60001981146108045760010190565b9190820180921161080457565b8054821015611bc45760005260206000209060021b0190600090565b634e487b7160e01b600052603260045260246000fd5b908160209103126101b4575180151581036101b45790565b8054821015611bc4576000526005602060002091020190600090565b90611c1882611b16565b611c256040519182611af4565b8281528092611c36601f1991611b16565b0190602036910137565b8051821015611bc45760209160051b010190565b60005b828110611c6357505050565b606082820152602001611c57565b9190820391821161080457565b9190811015611bc45760051b0190565b8115611c98570490565b634e487b7160e01b600052601260045260246000fd5b6001600160a01b0381166000908152600560209081526040808320858452825280832086845290915281205492949390929091908390611fcd57611cf28387611fdf565b611fbb5785815260039060208281526040948583208054611d1281611b16565b91611d1f89519384611af4565b81835285528385208590858085015b848410611f5a5750505050508181511115611f49576001600160a01b03958616845260048084528785209a85529983528684208054908b611d6e83611b16565b97611d7b8b51998a611af4565b8389528689019288528a87892092888a955b878710611f0b575050505050505050845115611efb5790611db091989598611c40565b5192829460a08501955b8251811015611ed457611dcd8184611c40565b51606090818101518015908115611ec9575b508a8201518a511015908951159182159083611ebe575b81611eb1575b82611ea9575b5081611e90575b50611e20575b505050611e1b90611b8c565b611dba565b929a9215611e765751908988015191828102928184041490151715611e635791611e54611e5a92611e1b948a015190611c8e565b90611b9b565b98903880611e0f565b634e487b7160e01b875260118d52602487fd5b50611e1b91611e54611e5a928b8a0151908a015190611c8e565b8291508115611ea1575b5038611e09565b905038611e9a565b915038611e02565b848a015115159150611dfc565b845115159350611df6565b905089511038611ddf565b5098939450509390509493948515611eee57505001511691565b51635f65f16560e11b8152fd5b86516319a089c160e01b81528a90fd5b8351600194611f1982611ad8565b8754825285880154848301526002880154908201528587015460608201528152019301930192918e888d92611d8d565b865163767afb7b60e11b8152600490fd5b6001916005918d805190611f6d82611aa8565b865460ff811615158352868060a01b039060081c16848301528587015490820152600286015460608201528c8601546080820152600486015460a08201528152019201920191908690611d2e565b6040516303a4fc3760e01b8152600490fd5b604051632cfe303760e21b8152600490fd5b61201d9060036120146000948386528260205260046120018260408920611bf2565b5001549386528260205260408620611bf2565b50015490611b9b565b4381106120335761203091504390611c71565b90565b5090565b6000808052600260209081527fac33ff75c19e70fe83507db0d683fd3465c996598dc972688b7ace676c890781546040929190157fac33ff75c19e70fe83507db0d683fd3465c996598dc972688b7ace676c89077b8161210c575b5061210557815b6001600160a01b03851680845260048084528585208580528452858520549091908310156120fb5784528252838320838052825260036120db82868620611ba8565b500154156120f1576120ec90611b8c565b612099565b5050505050600190565b5050505091505090565b5091505090565b6005915001541538612092565b9060008181526020916002835260409283832060068101541590816121b6575b506121ae57825b6001600160a01b03861680855260048084528686208587528452868620549091908310156121a357855282528484208385528252600361218282878720611ba8565b500154156121985761219390611b8c565b612140565b505050505050600190565b505050505091505090565b505091505090565b6005915001541538612139565b6040516301ffc9a760e01b81526380ac58cd60e01b600482015290602090829060249082906001600160a01b03165afa90811561072457600091612205575090565b612030915060203d81116107b9576107ab8183611af4565b60026000541461222e576002600055565b604051633ee5aeb560e01b8152600490fdfea2646970667358221220cb1412e837e7c88d65781f4d813a2c30267da105ccbbf5a9b8d9a13fc203067e64736f6c63430008140033","linkReferences":{}},"methodIdentifiers":{"addReward(uint256,address,uint256,uint256,bool)":"7ebfee3e","blocksToReward(uint256,uint256)":"bab5c8ca","calculateReward(address,uint256,uint256)":"2c32c360","claimRewards(uint256[],uint256[][],address)":"99a47faa","editPool(uint256,bytes32)":"e964a1a5","getClaimedAmount(address,uint256,uint256)":"5ea6bda1","getPool(uint256)":"068bcd8d","getRewards(uint256)":"c0d8012c","getStakes(address,uint256)":"4cb8a68b","getTotalPools()":"d3ffe67a","isActiveStaker(address,uint256)":"6e8639f3","isClaimed(address,uint256,uint256)":"aeeacb42","isERC721(address)":"daa09e54","launchPool(address,address,address,address,bytes32)":"ba2b6651","stake(uint256,uint256,uint256)":"a638f2e2","unstake(uint256,uint256[])":"395de242"},"id":0}