{"abi":[{"type":"constructor","inputs":[{"name":"stakeERC20","type":"address","internalType":"contract IERC20"},{"name":"stakeERC721","type":"address","internalType":"contract IERC721"},{"name":"rewardToken","type":"address","internalType":"contract IERC20"},{"name":"rewarder","type":"address","internalType":"address"},{"name":"metadata","type":"bytes32","internalType":"bytes32"}],"stateMutability":"nonpayable"},{"type":"function","name":"addReward","inputs":[{"name":"poolId","type":"uint256","internalType":"uint256"},{"name":"rewardToken","type":"address","internalType":"contract IERC20"},{"name":"rewardAmount","type":"uint256","internalType":"uint256"},{"name":"claimAfterBlocks","type":"uint256","internalType":"uint256"},{"name":"isForERC721Stakers","type":"bool","internalType":"bool"}],"outputs":[{"name":"rewardId","type":"uint256","internalType":"uint256"}],"stateMutability":"nonpayable"},{"type":"function","name":"blocksToReward","inputs":[{"name":"poolId","type":"uint256","internalType":"uint256"},{"name":"rewardId","type":"uint256","internalType":"uint256"}],"outputs":[{"name":"","type":"uint256","internalType":"uint256"}],"stateMutability":"view"},{"type":"function","name":"calculateReward","inputs":[{"name":"staker","type":"address","internalType":"address"},{"name":"poolId","type":"uint256","internalType":"uint256"},{"name":"rewardId","type":"uint256","internalType":"uint256"}],"outputs":[{"name":"","type":"address","internalType":"contract IERC20"},{"name":"","type":"uint256","internalType":"uint256"}],"stateMutability":"view"},{"type":"function","name":"checkRewardStatus","inputs":[{"name":"staker","type":"address","internalType":"address"},{"name":"poolId","type":"uint256","internalType":"uint256"},{"name":"rewardId","type":"uint256","internalType":"uint256"}],"outputs":[{"name":"token","type":"address","internalType":"contract IERC20"},{"name":"amount","type":"uint256","internalType":"uint256"},{"name":"claimed","type":"bool","internalType":"bool"}],"stateMutability":"view"},{"type":"function","name":"claimRewards","inputs":[{"name":"poolIds","type":"uint256[]","internalType":"uint256[]"},{"name":"rewardIds","type":"uint256[][]","internalType":"uint256[][]"},{"name":"recipient","type":"address","internalType":"address"}],"outputs":[{"name":"tokens","type":"address[][]","internalType":"contract IERC20[][]"},{"name":"amounts","type":"uint256[][]","internalType":"uint256[][]"}],"stateMutability":"nonpayable"},{"type":"function","name":"editPool","inputs":[{"name":"poolId","type":"uint256","internalType":"uint256"},{"name":"metadata","type":"bytes32","internalType":"bytes32"}],"outputs":[],"stateMutability":"nonpayable"},{"type":"function","name":"getPool","inputs":[{"name":"poolId","type":"uint256","internalType":"uint256"}],"outputs":[{"name":"","type":"tuple","internalType":"struct IStaqeStructs.Pool","components":[{"name":"stakeERC20","type":"address","internalType":"contract IERC20"},{"name":"stakeERC721","type":"address","internalType":"contract IERC721"},{"name":"rewardToken","type":"address","internalType":"contract IERC20"},{"name":"rewarder","type":"address","internalType":"address"},{"name":"metadata","type":"bytes32","internalType":"bytes32"},{"name":"totalStakedERC20","type":"uint256","internalType":"uint256"},{"name":"totalStakedERC721","type":"uint256","internalType":"uint256"},{"name":"launchBlock","type":"uint256","internalType":"uint256"}]}],"stateMutability":"view"},{"type":"function","name":"getRewards","inputs":[{"name":"poolId","type":"uint256","internalType":"uint256"}],"outputs":[{"name":"","type":"tuple[]","internalType":"struct IStaqeStructs.Reward[]","components":[{"name":"isForERC721Stakers","type":"bool","internalType":"bool"},{"name":"rewardToken","type":"address","internalType":"contract IERC20"},{"name":"rewardAmount","type":"uint256","internalType":"uint256"},{"name":"totalStaked","type":"uint256","internalType":"uint256"},{"name":"claimAfterBlocks","type":"uint256","internalType":"uint256"},{"name":"rewardBlock","type":"uint256","internalType":"uint256"}]}],"stateMutability":"view"},{"type":"function","name":"getStakes","inputs":[{"name":"staker","type":"address","internalType":"address"},{"name":"poolId","type":"uint256","internalType":"uint256"}],"outputs":[{"name":"","type":"tuple[]","internalType":"struct IStaqeStructs.Stake[]","components":[{"name":"amountERC20","type":"uint256","internalType":"uint256"},{"name":"idERC721","type":"uint256","internalType":"uint256"},{"name":"stakeBlock","type":"uint256","internalType":"uint256"},{"name":"unstakeBlock","type":"uint256","internalType":"uint256"}]}],"stateMutability":"view"},{"type":"function","name":"getTotalPools","inputs":[],"outputs":[{"name":"","type":"uint256","internalType":"uint256"}],"stateMutability":"view"},{"type":"function","name":"isActiveStaker","inputs":[{"name":"staker","type":"address","internalType":"address"},{"name":"poolId","type":"uint256","internalType":"uint256"}],"outputs":[{"name":"","type":"bool","internalType":"bool"}],"stateMutability":"view"},{"type":"function","name":"isERC721","inputs":[{"name":"contractAddress","type":"address","internalType":"address"}],"outputs":[{"name":"","type":"bool","internalType":"bool"}],"stateMutability":"view"},{"type":"function","name":"launchPool","inputs":[{"name":"stakeERC20","type":"address","internalType":"contract IERC20"},{"name":"stakeERC721","type":"address","internalType":"contract IERC721"},{"name":"rewardToken","type":"address","internalType":"contract IERC20"},{"name":"rewarder","type":"address","internalType":"address"},{"name":"metadata","type":"bytes32","internalType":"bytes32"}],"outputs":[{"name":"poolId","type":"uint256","internalType":"uint256"}],"stateMutability":"nonpayable"},{"type":"function","name":"stake","inputs":[{"name":"poolId","type":"uint256","internalType":"uint256"},{"name":"amount","type":"uint256","internalType":"uint256"},{"name":"id","type":"uint256","internalType":"uint256"}],"outputs":[{"name":"stakeId","type":"uint256","internalType":"uint256"}],"stateMutability":"nonpayable"},{"type":"function","name":"unstake","inputs":[{"name":"poolId","type":"uint256","internalType":"uint256"},{"name":"stakeIds","type":"uint256[]","internalType":"uint256[]"}],"outputs":[{"name":"amountERC20","type":"uint256","internalType":"uint256"},{"name":"idsERC721","type":"uint256[]","internalType":"uint256[]"}],"stateMutability":"nonpayable"},{"type":"event","name":"PoolEdited","inputs":[{"name":"poolId","type":"uint256","indexed":true,"internalType":"uint256"},{"name":"metadata","type":"bytes32","indexed":false,"internalType":"bytes32"}],"anonymous":false},{"type":"event","name":"PoolLaunched","inputs":[{"name":"poolId","type":"uint256","indexed":true,"internalType":"uint256"},{"name":"stakeERC20","type":"address","indexed":true,"internalType":"contract IERC20"},{"name":"stakeERC721","type":"address","indexed":true,"internalType":"contract IERC721"},{"name":"rewardToken","type":"address","indexed":false,"internalType":"contract IERC20"},{"name":"rewarder","type":"address","indexed":false,"internalType":"address"},{"name":"metadata","type":"bytes32","indexed":false,"internalType":"bytes32"}],"anonymous":false},{"type":"event","name":"RewardAdded","inputs":[{"name":"poolId","type":"uint256","indexed":true,"internalType":"uint256"},{"name":"rewardId","type":"uint256","indexed":true,"internalType":"uint256"},{"name":"rewardToken","type":"address","indexed":true,"internalType":"contract IERC20"},{"name":"rewardAmount","type":"uint256","indexed":false,"internalType":"uint256"},{"name":"totalStakedERC20","type":"uint256","indexed":false,"internalType":"uint256"},{"name":"totalStakedERC721","type":"uint256","indexed":false,"internalType":"uint256"},{"name":"isForERC721Stakers","type":"bool","indexed":false,"internalType":"bool"},{"name":"claimAfterBlock","type":"uint256","indexed":false,"internalType":"uint256"}],"anonymous":false},{"type":"event","name":"RewardClaimed","inputs":[{"name":"claimant","type":"address","indexed":true,"internalType":"address"},{"name":"poolId","type":"uint256","indexed":true,"internalType":"uint256"},{"name":"rewardId","type":"uint256","indexed":true,"internalType":"uint256"},{"name":"rewardToken","type":"address","indexed":false,"internalType":"contract IERC20"},{"name":"rewardAmount","type":"uint256","indexed":false,"internalType":"uint256"}],"anonymous":false},{"type":"event","name":"StakeCreated","inputs":[{"name":"staker","type":"address","indexed":true,"internalType":"address"},{"name":"poolId","type":"uint256","indexed":true,"internalType":"uint256"},{"name":"stakeId","type":"uint256","indexed":true,"internalType":"uint256"},{"name":"stakeAmountERC20","type":"uint256","indexed":false,"internalType":"uint256"},{"name":"stakeAmountERC721","type":"uint256","indexed":false,"internalType":"uint256"}],"anonymous":false},{"type":"event","name":"StakeWithdrawn","inputs":[{"name":"staker","type":"address","indexed":true,"internalType":"address"},{"name":"poolId","type":"uint256","indexed":true,"internalType":"uint256"},{"name":"stakeAmountERC20","type":"uint256","indexed":false,"internalType":"uint256"},{"name":"stakeAmountERC721","type":"uint256","indexed":false,"internalType":"uint256"}],"anonymous":false},{"type":"error","name":"InvalidAmountOrId","inputs":[]},{"type":"error","name":"InvalidERC721Token","inputs":[]},{"type":"error","name":"InvalidMetadata","inputs":[]},{"type":"error","name":"InvalidRewardToken","inputs":[]},{"type":"error","name":"InvalidStakeToken","inputs":[]},{"type":"error","name":"OnlyAvailableToStakersInGenesis","inputs":[]},{"type":"error","name":"OnlyRewinderHasAccessToAddRewards","inputs":[]},{"type":"error","name":"OnlyRewinderHasAccessToEditMetadata","inputs":[]},{"type":"error","name":"PoolDoesNotExist","inputs":[]},{"type":"error","name":"PoolDoesNotHaveStakes","inputs":[]},{"type":"error","name":"ReentrancyGuardReentrantCall","inputs":[]},{"type":"error","name":"RewardAlreadyClaimed","inputs":[]},{"type":"error","name":"RewardIsEmpty","inputs":[]},{"type":"error","name":"RewardIsNotYetAvailableForClaim","inputs":[]},{"type":"error","name":"RewardNotFoundInPool","inputs":[]},{"type":"error","name":"RewardTransferFailed","inputs":[]},{"type":"error","name":"StakeTransferFailed","inputs":[]},{"type":"error","name":"StakerDoesNotHaveStakesInPool","inputs":[]},{"type":"error","name":"UnstakeOnNextBlockAndGetReward","inputs":[]},{"type":"error","name":"UnstakeTransferFailed","inputs":[]}],"bytecode":{"object":"0x6080346200017057601f6200250b38819003918201601f19168301916001600160401b03918284118585101762000175578160a09286926040968752833981010312620001705762000051836200018b565b602084015190936001600160a01b03808316928390036200017057620000798583016200018b565b916060810151908282168092036200017057608001519060009460018655875196610100880190888210908211176200015c57889985916007999a52168852602088019081528389890195168552606088019182526080880192835260a088019386855260c0890195878752818b60e08c0199438b528080526002602052209a51169260018060a01b031993848c5416178b558260018c01915116848254161790558160028b01915116838254161790556003890192511690825416179055516004860155516005850155516006840155519101555161236a9081620001a18239f35b634e487b7160e01b87526041600452602487fd5b600080fd5b634e487b7160e01b600052604160045260246000fd5b51906001600160a01b0382168203620001705756fe608080604052600436101561001357600080fd5b60003560e01c908163068bcd8d14611a1d575080632c32c360146119e9578063395de2421461147b5780634cb8a68b146113715780636e8639f31461134a5780637ebfee3e1461102257806399a47faa14610953578063a638f2e21461068c578063a946b3d014610534578063ba2b66511461034f578063bab5c8ca14610326578063c0d8012c146101f9578063d3ffe67a146101db578063daa09e54146101ae5763e964a1a5146100c457600080fd5b346101a95760403660031901126101a9576004356024356100e3612311565b816000526002602052604060002060078101541561019757600481019082825414801561018f575b61017d57600301546001600160a01b03168015908115610172575b5061016057817f714674aaab7ecdeba0ba39a4f15a46228e6047a135c6307b31659ec0d22205c59260209255604051908152a26001600055005b6040516327e1476760e01b8152600490fd5b905033141538610126565b604051635e765b2560e11b8152600490fd5b50821561010b565b6040516302721e1f60e61b8152600490fd5b600080fd5b346101a95760203660031901126101a95760206101d16101cc611b29565b6122b7565b6040519015158152f35b346101a95760003660031901126101a9576020600154604051908152f35b346101a9576020806003193601126101a957600435600052600390818152604060002091825461022881611c0a565b916102366040519384611be8565b81835260009485528385208484019591865b8484106102c757604080518881528751818a018190528a928201908a60005b8281106102745784840385f35b8551805115158552808301516001600160a01b03168584015260408082015190860152606080820151908601526080808201519086015260a090810151908501529481019460c090930192600101610267565b6005876001926040516102d981611b9c565b865460ff811615158252858060a01b039060081c168382015284870154604082015260028701546060820152858701546080820152600487015460a0820152815201930193019291610248565b346101a95760403660031901126101a95760206103476024356004356120d3565b604051908152f35b346101a95760a03660031901126101a957610368611b29565b6001600160a01b0390602435828116908190036101a957610387611b3f565b91606435928484168094036101a957608435946103a2612311565b6103ab3361212b565b1561052257831592831580610512575b61050057811692831590816104f8575b506104e657851561017d5760607fea106409d97245a2f68aff18e645843ffebdce52ff84bdc4ab62096d5418617b91602097610408600154611cb2565b978895866001556007876040519261041f84611b7f565b8a84528d8401968c88528060408601921697888352898601878152608087019189835260a08801936000855260c08901956000875260e08a01974389526000526020600290528160406000209a5116926bffffffffffffffffffffffff60a01b93848c5416178b558260018c01915116848254161790558160028b0191511683825416179055600389019251169082541617905551600486015551600585015551600684015551910155604051928352898301526040820152a46001600055604051908152f35b6040516314ec381360e11b8152600490fd5b9050876103cb565b6040516366a0777760e01b8152600490fd5b5061051c856122b7565b156103bb565b6040516358fd19b960e11b8152600490fd5b346101a95761054236611b55565b9160009160009060009260405195630161961b60e51b875260018060a01b0392838316928360048a01528160248a01528260448a0152604089606481305afa600081600092610648575b60609b506106365750506001600160a01b0316600090815260056020908152604080832084845282528083208584529091529020546105df575b5050505b60405193168352602083015215156040820152f35b92945092509350806000526003602052826105fe836040600020611c80565b505460081c169360005260056020526040600020906000526020526040600020906000526020526040600020546001918580806105c6565b98506000975095506105ca9350505050565b91505060408a3d604011610684575b8161066460409383611be8565b810103126101a957895186811681036101a957602060609b01519161058c565b3d9150610657565b346101a95760603660031901126101a9576004356044356024356106ae612311565b8260005260209260028452604060002091600783015415610197578015938415948061094b575b6109395784933360005260048752604060002084600052875260406000205495610923575b81151594856108f5575b33600052600488526040600020856000528852604060002060405161072881611bcc565b85815289810191858352604082014381526060830191600083528054600160401b8110156108df5761075f91600182018155611cce565b9490946108c957600393518555516001850155516002840155519101558061084b575b6108395785946107cb575b50604051918252858201527f78fd8d607a2c84896af35bb608d5ca0058d97d083f5c582d15bf11f1c87c31ed60403392a46001600055604051908152f35b600101546001600160a01b03169350833b156101a9576040516323b872dd60e01b815233600482015230602482015260448101829052936000908590606490829084905af193841561082d5785941561078d5761082790611bb8565b8661078d565b6040513d6000823e3d90fd5b604051631231ec2f60e21b8152600490fd5b5080546040516323b872dd60e01b815233600482015230602482015260448101859052908890829060649082906000906001600160a01b03165af190811561082d5760009161089c575b5015610782565b6108bc9150883d8a116108c2575b6108b48183611be8565b810190611cea565b88610895565b503d6108aa565b634e487b7160e01b600052600060045260246000fd5b634e487b7160e01b600052604160045260246000fd5b600682018054906001820180921161090d5755610704565b634e487b7160e01b600052601160045260246000fd5b60058101610932848254611cc1565b90556106fa565b604051633b91be2160e21b8152600490fd5b5080156106d5565b346101a95760603660031901126101a95767ffffffffffffffff6004358181116101a957610985903690600401611c22565b906024908135908082116101a957366023830112156101a9578160040135926109ad84611c0a565b936109bb6040519586611be8565b80855281602086019160051b850101923684116101a957828501915b848310610ffb5787876109e8611b3f565b916109f1612311565b6001600160a01b03831615610ff3575b805191610a37610a1084611c0a565b93610a1e6040519586611be8565b808552610a2d601f1991611c0a565b0160208501611d48565b8151610a6c610a4582611c0a565b91610a536040519384611be8565b808352610a62601f1991611c0a565b0160208301611d48565b6000945b8351861015610bd657610a838684611d34565b5151610a8e81611c0a565b90610a9c6040519283611be8565b808252610aab601f1991611c0a565b01366020830137610abc8787611d34565b52610ac78686611d34565b50610adc610ad58785611d34565b5151611d02565b610ae68784611d34565b52610af18683611d34565b5060005b610aff8785611d34565b5151811015610bc5578086610b60828a80610b5a83610b3c610b52610b4a8f8f90610bc09d610b3c89610b3581610b4295611d34565b5194611d34565b51611d34565b519033611da2565b959099611d34565b51948c611d34565b52611d34565b6001600160a01b039091169052610b7b81610b3c8a87611d34565b513360005260056020526040600020610b948a89611d34565b516000526020526040600020610bae83610b3c8c8a611d34565b51600052602052604060002055611cb2565b610af5565b5094610bd090611cb2565b94610a70565b9291936000925b8051841015610ebb57610bf08482611d34565b51600090815260026020819052604090912001546001600160a01b0316918215610d5157600090815b610c238787611d34565b5151831015610c5457610c48610c4e91610c4185610b3c8b8b611d34565b5190611cc1565b92611cb2565b91610c19565b929793909591508215610d3f5760405163a9059cbb60e01b81526001600160a01b0388166004820152602481018490526020816044816000865af190811561082d57600091610d20575b5015610d0e57610d06926000917f0968da03e3daa1681e040ac06832dc8b74955d289deeda5814ce26119323f010610cfe610cd9868d611d34565b51604080516001600160a01b0390951685526020850195909552933393918291820190565b0390a4611cb2565b929094610bdd565b60405163078ecf4160e41b8152600490fd5b610d39915060203d6020116108c2576108b48183611be8565b89610c9e565b604051635f65f16560e11b8152600490fd5b939592915060005b610d638786611d34565b5151811015610ead57610d7a81610b3c8986611d34565b5115610d3f57610de260206001600160a01b03610d9b84610b3c8c8b611d34565b5116610dab84610b3c8c89611d34565b5160405163a9059cbb60e01b81526001600160a01b038b166004820152602481019190915292839190829060009082906044820190565b03925af190811561082d57600091610e8e575b5015610d0e57610e8990610e098884611d34565b51610e1882610b3c8b89611d34565b5190897f0968da03e3daa1681e040ac06832dc8b74955d289deeda5814ce26119323f010610cfe610e6586610b3c8d610e5c83610b3c8960018060a01b0394611d34565b5116958c611d34565b51604080516001600160a01b03909516855260208501919091523393918291820190565b610d59565b610ea7915060203d6020116108c2576108b48183611be8565b88610df5565b5094610d0690929192611cb2565b509060019081600055604051928392604084016040855282518091526060850190602060608260051b8801019401916000905b828210610f8b57505050508382036020850152825180835260208301926020808360051b8301019501936000915b838310610f295787870388f35b919395869193959750601f19838203018452875190602080835192838152019201906000905b808210610f715750505060208091980193019301909287969593949294610f1c565b919390926020809186518152019401920188939291610f4f565b919395965091938590605f19898203018352855190602080835192838152019201906000905b808210610fd05750505060208091960192019201879695939192610eee565b82516001600160a01b031684528994602094850194909301929190910190610fb1565b339250610a01565b82358281116101a95760209161101783928736918b0101611c22565b8152019201916109d7565b346101a95760a03660031901126101a9576001600160a01b036024358181168082036101a95760843591821590811584036101a95761105f612311565b93600435600052602094600286526040600020936040519461108086611b7f565b83815416865283600182015416888701528360028201541691604087019283526007856003840154169260608901938452600481015460808a0152600581015460a08a0152600681015460c08a015201548060e089015215610197571561133857604435158015611320575b610d3f575183168015159081611315575b506113035785806112f7575b80156112e3575b6112d157518216806112c9575b506004356000526003865260406000208054956000146112be5760c0850151905b6040519161114b83611b9c565b85158352848416898401526044356040840152606083015260643560808301524360a0830152600160401b8710156108df578661118d91600182018155611c80565b9190916108c9578051825489830151610100600160a81b0360089190911b1691151560ff166001600160a81b0319909116171782556040808201516001840155606082015160028401556080820151600384015560a090910151600492830155516323b872dd60e01b81523391810191909152306024820152604480359082015286818060648101038160008787165af190811561082d576000916112a1575b5015610d0e57849260c060a08601519501519061124c60643543611cc1565b91604051966044358852898801526040870152156060860152608085015216917f43861ad87d0ab505ab7da4b17b87cb88e18e8472e3c8da60c3cc0b69703ab6a360a060043592a46001600055604051908152f35b6112b89150873d89116108c2576108b48183611be8565b8761122d565b60a08501519061113e565b90508661111d565b6040516303bdf00d60e31b8152600490fd5b50838015611110575060a085015115611110565b5060c085015115611109565b604051639ad136e360e01b8152600490fd5b9050331415886110fd565b508680156110ec575060c086015160443511156110ec565b60405163dfde867160e01b8152600490fd5b346101a95760403660031901126101a95760206101d1611368611b29565b6024359061220d565b346101a95760403660031901126101a9576001600160a01b03611392611b29565b166000526020600481526040600020602435600052815260406000209081546113ba81611c0a565b906113c86040519283611be8565b8082528282018094600052836000206000915b83831061143b5760408051878152865181890181905289928201908960005b8281106114075784840385f35b85518051855280830151858401526040808201519086015260609081015190850152948101946080909301926001016113fa565b60048660019260405161144d81611bcc565b85548152848601548382015260028601546040820152600386015460608201528152019201920191906113db565b346101a95760403660031901126101a95767ffffffffffffffff80602435116101a9573660236024350112156101a95760243560040135116101a95736602480356004013560051b81350101116101a9576114d4612311565b606060043560005260026020526040600020906007604051926114f684611b7f565b60018060a01b03815416845260018060a01b03600182015416602085015260018060a01b03600282015416604085015260018060a01b03600382015416606085015260048101546080850152600581015460a0850152600681015460c0850152015460e0830152600091600060043560005260036020526040600020805461157d81611c0a565b9161158b6040519384611be8565b818352602083019060005260206000206000915b838310611988575050505080518015159182611961575b505061194f57600435600052600260205260406000209160078301541561019757336000526004602052604060002060043560005260205260406000209160243560040135158015611946575b6112d15761161660243560040135611d02565b9260005b6024356004013581106118875750508515808061187f575b61186d57159384611857575b8115159081611841575b508194806117d6575b6117c4576116e7575b505050604092919251908282526020820152600435907f88d1c46373223a4f1f60db2badc985b05ec9c2b2eab4537f0f8e1291b78b6e3760403392a360016000556040519182916040830190835260406020840152815180915260206060840192019060005b8181106116ce575050500390f35b82518452859450602093840193909201916001016116c0565b6116f49192959450611d02565b9060005b85518110156117b75761170b8187611d34565b51156117ae5761171b8187611d34565b5193801561090d5760001901936117328585611d34565b5260208201516001600160a01b03169061174c8188611d34565b5191803b156101a957604051632142170760e11b815230600482015233602482015260448101939093526000908390606490829084905af191821561082d5761179a9261179f575b50611cb2565b6116f8565b6117a890611bb8565b87611794565b61179a90611cb2565b505091925083808061165a565b604051631b9f013160e11b8152600490fd5b50825160405163a9059cbb60e01b81523360048201526024810189905290602090829060449082906000906001600160a01b03165af190811561082d57600091611822575b5015611651565b61183b915060203d6020116108c2576108b48183611be8565b8861181b565b60060161184f838254611d65565b905587611648565b60058101611866888254611d65565b905561163e565b6040516319a089c160e01b8152600490fd5b508115611632565b61189c81602435600401356024803501611d72565b358254111561193d576118c46118bd82602435600401356024803501611d72565b3583611cce565b509760038901541580159061192f575b611924576118ec6001914360038c01558a5490611cc1565b98015480611904575b506118ff90611cb2565b61161a565b819361191d916119176118ff9489611d34565b52611cb2565b92906118f5565b97506118ff90611cb2565b504360028a015410156118d4565b6118ff90611cb2565b50825415611603565b6040516371f7dfa560e01b8152600490fd5b6000198201925090821161090d5760a09161197b91611d34565b51015143111585806115b6565b6005602060019260405161199b81611b9c565b855460ff811615158252858060a01b039060081c16838201528486015460408201526002860154606082015260038601546080820152600486015460a082015281520192019201919061159f565b346101a957611a006119fa36611b55565b91611da2565b604080516001600160a01b03939093168352602083019190915290f35b346101a95760203660031901126101a95760e081611a3c600093611b7f565b8281528260208201528260408201528260608201528260808201528260a08201528260c0820152015260043560005260026020526101006040600020604051611a8481611b7f565b60018060a01b03918281541692838352806001830154169060208401918252806002840154169060408501918252806003850154166060860190815281600486015493608088019485528160058801549660a08a0197885260e0600760068b01549a60c08d019b8c5201549a01998a526040519a8b52511660208a015251166040880152511660608601525160808501525160a08401525160c08301525160e0820152f35b600435906001600160a01b03821682036101a957565b604435906001600160a01b03821682036101a957565b60609060031901126101a9576004356001600160a01b03811681036101a957906024359060443590565b610100810190811067ffffffffffffffff8211176108df57604052565b60c0810190811067ffffffffffffffff8211176108df57604052565b67ffffffffffffffff81116108df57604052565b6080810190811067ffffffffffffffff8211176108df57604052565b90601f8019910116810190811067ffffffffffffffff8211176108df57604052565b67ffffffffffffffff81116108df5760051b60200190565b81601f820112156101a957803591611c3983611c0a565b92611c476040519485611be8565b808452602092838086019260051b8201019283116101a9578301905b828210611c71575050505090565b81358152908301908301611c63565b8054821015611c9c576000526005602060002091020190600090565b634e487b7160e01b600052603260045260246000fd5b600019811461090d5760010190565b9190820180921161090d57565b8054821015611c9c5760005260206000209060021b0190600090565b908160209103126101a9575180151581036101a95790565b90611d0c82611c0a565b611d196040519182611be8565b8281528092611d2a601f1991611c0a565b0190602036910137565b8051821015611c9c5760209160051b010190565b60005b828110611d5757505050565b606082820152602001611d4b565b9190820391821161090d57565b9190811015611c9c5760051b0190565b8115611d8c570490565b634e487b7160e01b600052601260045260246000fd5b6001600160a01b03811660009081526005602090815260408083208584528252808320868452909152812054929493909290919083906120c157611de683876120d3565b6120af5785815260039060208281526040948583208054611e0681611c0a565b91611e1389519384611be8565b81835285528385208590858085015b84841061204e575050505050818151111561203d576001600160a01b03958616845260048084528785209a85529983528684208054908b611e6283611c0a565b97611e6f8b51998a611be8565b8389528689019288528a87892092888a955b878710611fff575050505050505050845115611fef5790611ea491989598611d34565b5192829460a08501955b8251811015611fc857611ec18184611d34565b51606090818101518015908115611fbd575b508a8201518a511015908951159182159083611fb2575b81611fa5575b82611f9d575b5081611f84575b50611f14575b505050611f0f90611cb2565b611eae565b929a9215611f6a5751908988015191828102928184041490151715611f575791611f48611f4e92611f0f948a015190611d82565b90611cc1565b98903880611f03565b634e487b7160e01b875260118d52602487fd5b50611f0f91611f48611f4e928b8a0151908a015190611d82565b8291508115611f95575b5038611efd565b905038611f8e565b915038611ef6565b848a015115159150611ef0565b845115159350611eea565b905089511038611ed3565b5098939450509390509493948515611fe257505001511691565b51635f65f16560e11b8152fd5b86516319a089c160e01b81528a90fd5b835160019461200d82611bcc565b8754825285880154848301526002880154908201528587015460608201528152019301930192918e888d92611e81565b865163767afb7b60e11b8152600490fd5b6001916005918d80519061206182611b9c565b865460ff811615158352868060a01b039060081c16848301528587015490820152600286015460608201528c8601546080820152600486015460a08201528152019201920191908690611e22565b6040516303a4fc3760e01b8152600490fd5b604051632cfe303760e21b8152600490fd5b6121119060036121086000948386528260205260046120f58260408920611c80565b5001549386528260205260408620611c80565b50015490611cc1565b4381106121275761212491504390611d65565b90565b5090565b6000808052600260209081527fac33ff75c19e70fe83507db0d683fd3465c996598dc972688b7ace676c890781546040929190157fac33ff75c19e70fe83507db0d683fd3465c996598dc972688b7ace676c89077b81612200575b506121f957815b6001600160a01b03851680845260048084528585208580528452858520549091908310156121ef5784528252838320838052825260036121cf82868620611cce565b500154156121e5576121e090611cb2565b61218d565b5050505050600190565b5050505091505090565b5091505090565b6005915001541538612186565b9060008181526020916002835260409283832060068101541590816122aa575b506122a257825b6001600160a01b038616808552600480845286862085875284528686205490919083101561229757855282528484208385528252600361227682878720611cce565b5001541561228c5761228790611cb2565b612234565b505050505050600190565b505050505091505090565b505091505090565b600591500154153861222d565b6040516301ffc9a760e01b81526380ac58cd60e01b600482015290602090829060249082906001600160a01b03165afa90811561082d576000916122f9575090565b612124915060203d81116108c2576108b48183611be8565b600260005414612322576002600055565b604051633ee5aeb560e01b8152600490fdfea2646970667358221220ed3018e5da9ad405525a072bfceb3a1a3a9f2f78339ffcb18478124f96602b2e64736f6c63430008140033","linkReferences":{}},"methodIdentifiers":{"addReward(uint256,address,uint256,uint256,bool)":"7ebfee3e","blocksToReward(uint256,uint256)":"bab5c8ca","calculateReward(address,uint256,uint256)":"2c32c360","checkRewardStatus(address,uint256,uint256)":"a946b3d0","claimRewards(uint256[],uint256[][],address)":"99a47faa","editPool(uint256,bytes32)":"e964a1a5","getPool(uint256)":"068bcd8d","getRewards(uint256)":"c0d8012c","getStakes(address,uint256)":"4cb8a68b","getTotalPools()":"d3ffe67a","isActiveStaker(address,uint256)":"6e8639f3","isERC721(address)":"daa09e54","launchPool(address,address,address,address,bytes32)":"ba2b6651","stake(uint256,uint256,uint256)":"a638f2e2","unstake(uint256,uint256[])":"395de242"},"id":0}