{"abi":[{"type":"constructor","inputs":[{"name":"stakeERC20","type":"address","internalType":"contract IERC20"},{"name":"stakeERC721","type":"address","internalType":"contract IERC721"},{"name":"rewardToken","type":"address","internalType":"contract IERC20"},{"name":"rewarder","type":"address","internalType":"address"},{"name":"metadata","type":"bytes32","internalType":"bytes32"}],"stateMutability":"nonpayable"},{"type":"function","name":"addReward","inputs":[{"name":"poolId","type":"uint256","internalType":"uint256"},{"name":"rewardToken","type":"address","internalType":"contract IERC20"},{"name":"rewardAmount","type":"uint256","internalType":"uint256"},{"name":"claimAfterBlocks","type":"uint256","internalType":"uint256"},{"name":"isForERC721Stakers","type":"bool","internalType":"bool"}],"outputs":[{"name":"rewardId","type":"uint256","internalType":"uint256"}],"stateMutability":"nonpayable"},{"type":"function","name":"calculateReward","inputs":[{"name":"staker","type":"address","internalType":"address"},{"name":"poolId","type":"uint256","internalType":"uint256"},{"name":"rewardId","type":"uint256","internalType":"uint256"}],"outputs":[{"name":"","type":"address","internalType":"contract IERC20"},{"name":"","type":"uint256","internalType":"uint256"}],"stateMutability":"view"},{"type":"function","name":"claimRewards","inputs":[{"name":"poolIds","type":"uint256[]","internalType":"uint256[]"},{"name":"rewardIds","type":"uint256[][]","internalType":"uint256[][]"},{"name":"recipient","type":"address","internalType":"address"}],"outputs":[{"name":"tokens","type":"address[][]","internalType":"contract IERC20[][]"},{"name":"amounts","type":"uint256[][]","internalType":"uint256[][]"}],"stateMutability":"nonpayable"},{"type":"function","name":"editPool","inputs":[{"name":"poolId","type":"uint256","internalType":"uint256"},{"name":"metadata","type":"bytes32","internalType":"bytes32"}],"outputs":[],"stateMutability":"nonpayable"},{"type":"function","name":"getPool","inputs":[{"name":"poolId","type":"uint256","internalType":"uint256"}],"outputs":[{"name":"poolDetails","type":"tuple","internalType":"struct IStaqeStructs.Pool","components":[{"name":"stakeERC20","type":"address","internalType":"contract IERC20"},{"name":"stakeERC721","type":"address","internalType":"contract IERC721"},{"name":"rewardToken","type":"address","internalType":"contract IERC20"},{"name":"rewarder","type":"address","internalType":"address"},{"name":"metadata","type":"bytes32","internalType":"bytes32"},{"name":"totalStakedERC20","type":"uint256","internalType":"uint256"},{"name":"totalStakedERC721","type":"uint256","internalType":"uint256"},{"name":"launchBlock","type":"uint256","internalType":"uint256"}]}],"stateMutability":"view"},{"type":"function","name":"getPool","inputs":[{"name":"staker","type":"address","internalType":"address"},{"name":"poolId","type":"uint256","internalType":"uint256"}],"outputs":[{"name":"poolDetails","type":"tuple","internalType":"struct IStaqeStructs.StakerPool","components":[{"name":"stakeERC20","type":"address","internalType":"contract IERC20"},{"name":"stakeERC721","type":"address","internalType":"contract IERC721"},{"name":"rewardToken","type":"address","internalType":"contract IERC20"},{"name":"rewarder","type":"address","internalType":"address"},{"name":"metadata","type":"bytes32","internalType":"bytes32"},{"name":"totalStakedERC20","type":"uint256","internalType":"uint256"},{"name":"totalStakedERC721","type":"uint256","internalType":"uint256"},{"name":"totalRewards","type":"uint256","internalType":"uint256"},{"name":"totalStakerStakes","type":"uint256","internalType":"uint256"},{"name":"launchBlock","type":"uint256","internalType":"uint256"}]}],"stateMutability":"view"},{"type":"function","name":"getReward","inputs":[{"name":"staker","type":"address","internalType":"address"},{"name":"poolId","type":"uint256","internalType":"uint256"},{"name":"rewardId","type":"uint256","internalType":"uint256"}],"outputs":[{"name":"rewardDetails","type":"tuple","internalType":"struct IStaqeStructs.StakerReward","components":[{"name":"isForERC721Stakers","type":"bool","internalType":"bool"},{"name":"rewardToken","type":"address","internalType":"contract IERC20"},{"name":"rewardAmount","type":"uint256","internalType":"uint256"},{"name":"stakerAmount","type":"uint256","internalType":"uint256"},{"name":"totalStaked","type":"uint256","internalType":"uint256"},{"name":"claimAfterBlocks","type":"uint256","internalType":"uint256"},{"name":"rewardBlock","type":"uint256","internalType":"uint256"},{"name":"claimed","type":"bool","internalType":"bool"}]}],"stateMutability":"view"},{"type":"function","name":"getReward","inputs":[{"name":"poolId","type":"uint256","internalType":"uint256"},{"name":"rewardId","type":"uint256","internalType":"uint256"}],"outputs":[{"name":"rewardDetails","type":"tuple","internalType":"struct IStaqeStructs.Reward","components":[{"name":"isForERC721Stakers","type":"bool","internalType":"bool"},{"name":"rewardToken","type":"address","internalType":"contract IERC20"},{"name":"rewardAmount","type":"uint256","internalType":"uint256"},{"name":"totalStaked","type":"uint256","internalType":"uint256"},{"name":"claimAfterBlocks","type":"uint256","internalType":"uint256"},{"name":"rewardBlock","type":"uint256","internalType":"uint256"}]}],"stateMutability":"view"},{"type":"function","name":"getRewards","inputs":[{"name":"poolId","type":"uint256","internalType":"uint256"}],"outputs":[{"name":"","type":"tuple[]","internalType":"struct IStaqeStructs.Reward[]","components":[{"name":"isForERC721Stakers","type":"bool","internalType":"bool"},{"name":"rewardToken","type":"address","internalType":"contract IERC20"},{"name":"rewardAmount","type":"uint256","internalType":"uint256"},{"name":"totalStaked","type":"uint256","internalType":"uint256"},{"name":"claimAfterBlocks","type":"uint256","internalType":"uint256"},{"name":"rewardBlock","type":"uint256","internalType":"uint256"}]}],"stateMutability":"view"},{"type":"function","name":"getStake","inputs":[{"name":"staker","type":"address","internalType":"address"},{"name":"poolId","type":"uint256","internalType":"uint256"},{"name":"stakeId","type":"uint256","internalType":"uint256"}],"outputs":[{"name":"stakeDetails","type":"tuple","internalType":"struct IStaqeStructs.Stake","components":[{"name":"amountERC20","type":"uint256","internalType":"uint256"},{"name":"idERC721","type":"uint256","internalType":"uint256"},{"name":"stakeBlock","type":"uint256","internalType":"uint256"},{"name":"unstakeBlock","type":"uint256","internalType":"uint256"}]}],"stateMutability":"view"},{"type":"function","name":"getStakes","inputs":[{"name":"staker","type":"address","internalType":"address"},{"name":"poolId","type":"uint256","internalType":"uint256"}],"outputs":[{"name":"","type":"tuple[]","internalType":"struct IStaqeStructs.Stake[]","components":[{"name":"amountERC20","type":"uint256","internalType":"uint256"},{"name":"idERC721","type":"uint256","internalType":"uint256"},{"name":"stakeBlock","type":"uint256","internalType":"uint256"},{"name":"unstakeBlock","type":"uint256","internalType":"uint256"}]}],"stateMutability":"view"},{"type":"function","name":"getTotalPools","inputs":[],"outputs":[{"name":"","type":"uint256","internalType":"uint256"}],"stateMutability":"view"},{"type":"function","name":"launchPool","inputs":[{"name":"stakeERC20","type":"address","internalType":"contract IERC20"},{"name":"stakeERC721","type":"address","internalType":"contract IERC721"},{"name":"rewardToken","type":"address","internalType":"contract IERC20"},{"name":"rewarder","type":"address","internalType":"address"},{"name":"metadata","type":"bytes32","internalType":"bytes32"}],"outputs":[{"name":"poolId","type":"uint256","internalType":"uint256"}],"stateMutability":"nonpayable"},{"type":"function","name":"stake","inputs":[{"name":"poolId","type":"uint256","internalType":"uint256"},{"name":"amount","type":"uint256","internalType":"uint256"},{"name":"id","type":"uint256","internalType":"uint256"}],"outputs":[{"name":"stakeId","type":"uint256","internalType":"uint256"}],"stateMutability":"nonpayable"},{"type":"function","name":"unstake","inputs":[{"name":"poolId","type":"uint256","internalType":"uint256"},{"name":"stakeIds","type":"uint256[]","internalType":"uint256[]"}],"outputs":[{"name":"amountERC20","type":"uint256","internalType":"uint256"},{"name":"idsERC721","type":"uint256[]","internalType":"uint256[]"}],"stateMutability":"nonpayable"},{"type":"event","name":"PoolEdited","inputs":[{"name":"poolId","type":"uint256","indexed":true,"internalType":"uint256"},{"name":"metadata","type":"bytes32","indexed":false,"internalType":"bytes32"}],"anonymous":false},{"type":"event","name":"PoolLaunched","inputs":[{"name":"poolId","type":"uint256","indexed":true,"internalType":"uint256"},{"name":"stakeERC20","type":"address","indexed":true,"internalType":"contract IERC20"},{"name":"stakeERC721","type":"address","indexed":true,"internalType":"contract IERC721"},{"name":"rewardToken","type":"address","indexed":false,"internalType":"contract IERC20"},{"name":"rewarder","type":"address","indexed":false,"internalType":"address"},{"name":"metadata","type":"bytes32","indexed":false,"internalType":"bytes32"}],"anonymous":false},{"type":"event","name":"RewardAdded","inputs":[{"name":"poolId","type":"uint256","indexed":true,"internalType":"uint256"},{"name":"rewardId","type":"uint256","indexed":true,"internalType":"uint256"},{"name":"rewardToken","type":"address","indexed":true,"internalType":"contract IERC20"},{"name":"rewardAmount","type":"uint256","indexed":false,"internalType":"uint256"},{"name":"totalStakedERC20","type":"uint256","indexed":false,"internalType":"uint256"},{"name":"totalStakedERC721","type":"uint256","indexed":false,"internalType":"uint256"},{"name":"isForERC721Stakers","type":"bool","indexed":false,"internalType":"bool"},{"name":"claimAfterBlock","type":"uint256","indexed":false,"internalType":"uint256"}],"anonymous":false},{"type":"event","name":"RewardClaimed","inputs":[{"name":"claimant","type":"address","indexed":true,"internalType":"address"},{"name":"poolId","type":"uint256","indexed":true,"internalType":"uint256"},{"name":"rewardId","type":"uint256","indexed":true,"internalType":"uint256"},{"name":"rewardToken","type":"address","indexed":false,"internalType":"contract IERC20"},{"name":"rewardAmount","type":"uint256","indexed":false,"internalType":"uint256"}],"anonymous":false},{"type":"event","name":"StakeCreated","inputs":[{"name":"staker","type":"address","indexed":true,"internalType":"address"},{"name":"poolId","type":"uint256","indexed":true,"internalType":"uint256"},{"name":"stakeId","type":"uint256","indexed":true,"internalType":"uint256"},{"name":"stakeAmountERC20","type":"uint256","indexed":false,"internalType":"uint256"},{"name":"stakeAmountERC721","type":"uint256","indexed":false,"internalType":"uint256"}],"anonymous":false},{"type":"event","name":"StakeWithdrawn","inputs":[{"name":"staker","type":"address","indexed":true,"internalType":"address"},{"name":"poolId","type":"uint256","indexed":true,"internalType":"uint256"},{"name":"stakeAmountERC20","type":"uint256","indexed":false,"internalType":"uint256"},{"name":"stakeAmountERC721","type":"uint256","indexed":false,"internalType":"uint256"}],"anonymous":false},{"type":"error","name":"InvalidAmountOrId","inputs":[]},{"type":"error","name":"InvalidERC721Token","inputs":[]},{"type":"error","name":"InvalidMetadata","inputs":[]},{"type":"error","name":"InvalidRewardToken","inputs":[]},{"type":"error","name":"InvalidStakeToken","inputs":[]},{"type":"error","name":"OnlyAvailableToStakersInGenesis","inputs":[]},{"type":"error","name":"OnlyRewinderHasAccessToAddRewards","inputs":[]},{"type":"error","name":"OnlyRewinderHasAccessToEditMetadata","inputs":[]},{"type":"error","name":"PoolDoesNotExist","inputs":[]},{"type":"error","name":"PoolDoesNotHaveStakes","inputs":[]},{"type":"error","name":"ReentrancyGuardReentrantCall","inputs":[]},{"type":"error","name":"RewardAlreadyClaimed","inputs":[]},{"type":"error","name":"RewardIsEmpty","inputs":[]},{"type":"error","name":"RewardIsNotYetAvailableForClaim","inputs":[]},{"type":"error","name":"RewardNotFoundInPool","inputs":[]},{"type":"error","name":"RewardTransferFailed","inputs":[]},{"type":"error","name":"StakeTransferFailed","inputs":[]},{"type":"error","name":"StakerDoesNotHaveStakesInPool","inputs":[]},{"type":"error","name":"UnstakeOnNextBlockAndGetReward","inputs":[]},{"type":"error","name":"UnstakeTransferFailed","inputs":[]}],"bytecode":{"object":"0x6080346200017057601f6200271d38819003918201601f19168301916001600160401b03918284118585101762000175578160a09286926040968752833981010312620001705762000051836200018b565b602084015190936001600160a01b03808316928390036200017057620000798583016200018b565b916060810151908282168092036200017057608001519060009460018655875196610100880190888210908211176200015c57889985916007999a52168852602088019081528389890195168552606088019182526080880192835260a088019386855260c0890195878752818b60e08c0199438b528080526002602052209a51169260018060a01b031993848c5416178b558260018c01915116848254161790558160028b01915116838254161790556003890192511690825416179055516004860155516005850155516006840155519101555161257c9081620001a18239f35b634e487b7160e01b87526041600452602487fd5b600080fd5b634e487b7160e01b600052604160045260246000fd5b51906001600160a01b0382168203620001705756fe6080604052600436101561001257600080fd5b60003560e01c8063068bcd8d14611cde5780632c32c36014611caa578063395de2421461177f5780634cb8a68b1461168b57806350f9b39e146114c65780635b5b9ea2146112da5780637ebfee3e14610fb257806399a47faa146108e3578063a638f2e214610638578063b90bc519146105cf578063ba2b665114610386578063c0d8012c14610291578063d33560e6146101c9578063d3ffe67a146101ab5763e964a1a5146100c157600080fd5b346101a65760403660031901126101a6576004356024356100e0612523565b816000526002602052604060002060078101541561019457600481019082825414801561018c575b61017a57600301546001600160a01b0316801590811561016f575b5061015d57817f714674aaab7ecdeba0ba39a4f15a46228e6047a135c6307b31659ec0d22205c59260209255604051908152a26001600055005b6040516327e1476760e01b8152600490fd5b905033141538610123565b604051635e765b2560e11b8152600490fd5b508215610108565b6040516302721e1f60e61b8152600490fd5b600080fd5b346101a65760003660031901126101a6576020600154604051908152f35b346101a65760806101d936611de8565b6040519192916101e881611e7c565b600081526000602082015260006040820152600060608201529160018060a01b031692836000526004602052604060002081600052602052604060002054821061025c575b848361025a6040518092606080918051845260208101516020850152604081015160408501520151910152565bf35b61028392506102899360005260046020526040600020906000526020526040600020612054565b50612070565b80838061022d565b346101a6576020806003193601126101a6576004356000526003815260406000209081546102be81611eba565b906102cc6040519283611e98565b8082528282018094600052836000206000915b8383106103695760408051878152865181890181905289928201908960005b82811061030b5784840385f35b9091928260c08261035a6001948a5160a08091805115158452600180831b0360208201511660208501526040810151604085015260608101516060850152608081015160808501520151910152565b019601910194929190946102fe565b60058660019261037885611fa0565b8152019201920191906102df565b346101a65760a03660031901126101a65761039f611dbc565b6001600160a01b0390602435828116908190036101a6576103be611dd2565b91606435928484168094036101a657608435946103d9612523565b6103e233612441565b156105bd57831592831580610549575b610537578116928315908161052f575b5061051d57851561017a5760607fea106409d97245a2f68aff18e645843ffebdce52ff84bdc4ab62096d5418617b9160209761043f6001546120a2565b978895866001556007876040519261045684611e12565b8a84528d8401968c88528060408601921697888352898601878152608087019189835260a08801936000855260c08901956000875260e08a01974389526000526020600290528160406000209a5116926bffffffffffffffffffffffff60a01b93848c5416178b558260018c01915116848254161790558160028b0191511683825416179055600389019251169082541617905551600486015551600585015551600684015551910155604051928352898301526040820152a46001600055604051908152f35b6040516314ec381360e11b8152600490fd5b905087610402565b6040516366a0777760e01b8152600490fd5b506040516301ffc9a760e01b81526380ac58cd60e01b6004820152602081602481895afa9081156105b157600091610583575b50156103f2565b6105a4915060203d81116105aa575b61059c8183611e98565b8101906120be565b8861057c565b503d610592565b6040513d6000823e3d90fd5b6040516358fd19b960e11b8152600490fd5b346101a65760403660031901126101a65760c06105f0602435600435611ff4565b61025a604051809260a08091805115158452600180831b0360208201511660208501526040810151604085015260608101516060850152608081015160808501520151910152565b346101a65760603660031901126101a65760043560443560243561065a612523565b826000526020926002845260406000209160078301541561019457801593841594806108db575b6108c957849333600052600487526040600020846000528752604060002054956108b3575b8115159485610885575b3360005260048852604060002085600052885260406000206040516106d481611e7c565b85815289810191858352604082014381526060830191600083528054600160401b81101561086f5761070b91600182018155612054565b9490946108595760039351855551600185015551600284015551910155806107eb575b6107d9578594610777575b50604051918252858201527f78fd8d607a2c84896af35bb608d5ca0058d97d083f5c582d15bf11f1c87c31ed60403392a46001600055604051908152f35b600101546001600160a01b03169350833b156101a6576040516323b872dd60e01b815233600482015230602482015260448101829052936000908590606490829084905af19384156105b157859415610739576107d390611e2f565b86610739565b604051631231ec2f60e21b8152600490fd5b5080546040516323b872dd60e01b815233600482015230602482015260448101859052908890829060649082906000906001600160a01b03165af19081156105b15760009161083c575b501561072e565b6108539150883d8a116105aa5761059c8183611e98565b88610835565b634e487b7160e01b600052600060045260246000fd5b634e487b7160e01b600052604160045260246000fd5b600682018054906001820180921161089d57556106b0565b634e487b7160e01b600052601160045260246000fd5b600581016108c28482546120b1565b90556106a6565b604051633b91be2160e21b8152600490fd5b508015610681565b346101a65760603660031901126101a65767ffffffffffffffff6004358181116101a657610915903690600401611ed2565b906024908135908082116101a657366023830112156101a65781600401359261093d84611eba565b9361094b6040519586611e98565b80855281602086019160051b850101923684116101a657828501915b848310610f8b578787610978611dd2565b91610981612523565b6001600160a01b03831615610f83575b8051916109c76109a084611eba565b936109ae6040519586611e98565b8085526109bd601f1991611eba565b016020850161211c565b81516109fc6109d582611eba565b916109e36040519384611e98565b8083526109f2601f1991611eba565b016020830161211c565b6000945b8351861015610b6657610a138684612108565b5151610a1e81611eba565b90610a2c6040519283611e98565b808252610a3b601f1991611eba565b01366020830137610a4c8787612108565b52610a578686612108565b50610a6c610a658785612108565b51516120d6565b610a768784612108565b52610a818683612108565b5060005b610a8f8785612108565b5151811015610b55578086610af0828a80610aea83610acc610ae2610ada8f8f90610b509d610acc89610ac581610ad295612108565b5194612108565b51612108565b519033612176565b959099612108565b51948c612108565b52612108565b6001600160a01b039091169052610b0b81610acc8a87612108565b513360005260056020526040600020610b248a89612108565b516000526020526040600020610b3e83610acc8c8a612108565b516000526020526040600020556120a2565b610a85565b5094610b60906120a2565b94610a00565b9291936000925b8051841015610e4b57610b808482612108565b51600090815260026020819052604090912001546001600160a01b0316918215610ce157600090815b610bb38787612108565b5151831015610be457610bd8610bde91610bd185610acc8b8b612108565b51906120b1565b926120a2565b91610ba9565b929793909591508215610ccf5760405163a9059cbb60e01b81526001600160a01b0388166004820152602481018490526020816044816000865af19081156105b157600091610cb0575b5015610c9e57610c96926000917f0968da03e3daa1681e040ac06832dc8b74955d289deeda5814ce26119323f010610c8e610c69868d612108565b51604080516001600160a01b0390951685526020850195909552933393918291820190565b0390a46120a2565b929094610b6d565b60405163078ecf4160e41b8152600490fd5b610cc9915060203d6020116105aa5761059c8183611e98565b89610c2e565b604051635f65f16560e11b8152600490fd5b939592915060005b610cf38786612108565b5151811015610e3d57610d0a81610acc8986612108565b5115610ccf57610d7260206001600160a01b03610d2b84610acc8c8b612108565b5116610d3b84610acc8c89612108565b5160405163a9059cbb60e01b81526001600160a01b038b166004820152602481019190915292839190829060009082906044820190565b03925af19081156105b157600091610e1e575b5015610c9e57610e1990610d998884612108565b51610da882610acc8b89612108565b5190897f0968da03e3daa1681e040ac06832dc8b74955d289deeda5814ce26119323f010610c8e610df586610acc8d610dec83610acc8960018060a01b0394612108565b5116958c612108565b51604080516001600160a01b03909516855260208501919091523393918291820190565b610ce9565b610e37915060203d6020116105aa5761059c8183611e98565b88610d85565b5094610c96909291926120a2565b509060019081600055604051928392604084016040855282518091526060850190602060608260051b8801019401916000905b828210610f1b57505050508382036020850152825180835260208301926020808360051b8301019501936000915b838310610eb95787870388f35b919395869193959750601f19838203018452875190602080835192838152019201906000905b808210610f015750505060208091980193019301909287969593949294610eac565b919390926020809186518152019401920188939291610edf565b919395965091938590605f19898203018352855190602080835192838152019201906000905b808210610f605750505060208091960192019201879695939192610e7e565b82516001600160a01b031684528994602094850194909301929190910190610f41565b339250610991565b82358281116101a657602091610fa783928736918b0101611ed2565b815201920191610967565b346101a65760a03660031901126101a6576001600160a01b036024358181168082036101a65760843591821590811584036101a657610fef612523565b93600435600052602094600286526040600020936040519461101086611e12565b83815416865283600182015416888701528360028201541691604087019283526007856003840154169260608901938452600481015460808a0152600581015460a08a0152600681015460c08a015201548060e08901521561019457156112c8576044351580156112b0575b610ccf5751831680151590816112a5575b50611293578580611287575b8015611273575b6112615751821680611259575b5060043560005260038652604060002080549560001461124e5760c0850151905b604051916110db83611e60565b85158352848416898401526044356040840152606083015260643560808301524360a0830152600160401b87101561086f578661111d91600182018155611f6e565b919091610859578051825489830151610100600160a81b0360089190911b1691151560ff166001600160a81b0319909116171782556040808201516001840155606082015160028401556080820151600384015560a090910151600492830155516323b872dd60e01b81523391810191909152306024820152604480359082015286818060648101038160008787165af19081156105b157600091611231575b5015610c9e57849260c060a0860151950151906111dc606435436120b1565b91604051966044358852898801526040870152156060860152608085015216917f43861ad87d0ab505ab7da4b17b87cb88e18e8472e3c8da60c3cc0b69703ab6a360a060043592a46001600055604051908152f35b6112489150873d89116105aa5761059c8183611e98565b876111bd565b60a0850151906110ce565b9050866110ad565b6040516303bdf00d60e31b8152600490fd5b508380156110a0575060a0850151156110a0565b5060c085015115611099565b604051639ad136e360e01b8152600490fd5b90503314158861108d565b5086801561107c575060c0860151604435111561107c565b60405163dfde867160e01b8152600490fd5b346101a65760403660031901126101a6576101406112f6611dbc565b600061012060405161130781611e43565b8281528260208201528260408201528260608201528260808201528260a08201528260c08201528260e082015282610100820152015260243560005260026020526101206040600020916040519261135e84611e12565b60018060a01b038154169384815260018060a01b036001830154169283602083015260018060a01b036002840154169283604084015260018060a01b0360038201541680606085015260048201548060808601526005830154918260a087015260076006850154948560c0890152015460e087015260243560005260036020526040600020549460018060a01b03166000526004602052604060002060243560005260205260e0604060002054960151966040519861141c8a611e43565b8b8a5260208a015260408901526060880152608087015260a086015260c085015260e08401526101008301528282015260405192835260018060a01b03602082015116602084015260018060a01b03604082015116604084015260018060a01b0360608201511660608401526080810151608084015260a081015160a084015260c081015160c084015260e081015160e08401526101008101516101008401520151610120820152f35b346101a6576114d436611de8565b6114df929192611f30565b506114ea8184611ff4565b60009060009260405195630161961b60e51b875260018060a01b0395868116908160048a01528260248a01528360448a0152604089606481305afa80600091611648575b6101009a5061163c57506001600160a01b031660009081526005602090815260408083208584528252808320868452909152902054611605575b5050505b80511515938060208301511692604083015160608401519260a060808601519501519560e060405161159d81611e12565b8a81526020810192835260408101948552606081019586526080810196875260a0810197885260c08101988952019715158852604051988952511660208801525160408701525160608601525160808501525160a08401525160c083015251151560e0820152f35b9193509193506000526005602052604060002090600052602052604060002090600052602052604060002054600191858080611568565b955061156c9350505050565b905060408a3d604011611683575b8161166360409383611e98565b810103126101a6578951898116036101a65760206101009a01519061152e565b3d9150611656565b346101a65760403660031901126101a6576001600160a01b036116ac611dbc565b166000526020600481526040600020602435600052815260406000209081546116d481611eba565b906116e26040519283611e98565b8082528282018094600052836000206000915b8383106117625760408051878152865181890181905289928201908960005b8281106117215784840385f35b909192826080826117536001948a51606080918051845260208101516020850152604081015160408501520151910152565b01960191019492919094611714565b60048660019261177185612070565b8152019201920191906116f5565b346101a65760403660031901126101a65767ffffffffffffffff80602435116101a6573660236024350112156101a65760243560040135116101a65736602480356004013560051b81350101116101a6576117d8612523565b606060043560005260026020526040600020906007604051926117fa84611e12565b60018060a01b03815416845260018060a01b03600182015416602085015260018060a01b03600282015416604085015260018060a01b036003820154168385015260048101546080850152600581015460a0850152600681015460c0850152015460e0830152600091600060043560005260036020526040600020805461188081611eba565b9161188e6040519384611e98565b818352602083019060005260206000206000915b838310611c8c575050505080518015159182611c65575b5050611c5357600435600052600260205260406000209160078301541561019457336000526004602052604060002060043560005260205260406000209160243560040135158015611c4a575b61126157611919602435600401356120d6565b9260005b602435600401358110611b8b57505085159384159480611b83575b611b715784611b5b575b8115159081611b45575b50819480611ada575b611ac8576119eb575b505050604092919251908282526020820152600435907f88d1c46373223a4f1f60db2badc985b05ec9c2b2eab4537f0f8e1291b78b6e3760403392a360016000556040519182916040830190835260406020840152815180915260206060840192019060005b8181106119d2575050500390f35b82518452859450602093840193909201916001016119c4565b6119f891929594506120d6565b9060005b8551811015611abb57611a0f8187612108565b5115611ab257611a1f8187612108565b5193801561089d576000190193611a368585612108565b5260208201516001600160a01b031690611a508188612108565b5191803b156101a657604051632142170760e11b815230600482015233602482015260448101939093526000908390606490829084905af19182156105b157611a9e92611aa3575b506120a2565b6119fc565b611aac90611e2f565b87611a98565b611a9e906120a2565b505091925083808061195e565b604051631b9f013160e11b8152600490fd5b50825160405163a9059cbb60e01b81523360048201526024810189905290602090829060449082906000906001600160a01b03165af19081156105b157600091611b26575b5015611955565b611b3f915060203d6020116105aa5761059c8183611e98565b88611b1f565b600601611b53838254612139565b90558761194c565b60058101611b6a888254612139565b9055611942565b6040516319a089c160e01b8152600490fd5b508115611938565b611ba081602435600401356024803501612146565b3582541115611c4157611bc8611bc182602435600401356024803501612146565b3583612054565b5097600389015415801590611c33575b611c2857611bf06001914360038c01558a54906120b1565b98015480611c08575b50611c03906120a2565b61191d565b8193611c2191611c1b611c039489612108565b526120a2565b9290611bf9565b9750611c03906120a2565b504360028a01541015611bd8565b611c03906120a2565b50825415611906565b6040516371f7dfa560e01b8152600490fd5b6000198201925090821161089d5760a091611c7f91612108565b51015143111585806118b9565b60056020600192611c9c85611fa0565b8152019201920191906118a2565b346101a657611cc1611cbb36611de8565b91612176565b604080516001600160a01b03939093168352602083019190915290f35b346101a65760203660031901126101a657611cf7611f30565b5060043560005260026020526101006040600020604051611d1781611e12565b60018060a01b03918281541692838352806001830154169060208401918252806002840154169060408501918252806003850154166060860190815281600486015493608088019485528160058801549660a08a0197885260e0600760068b01549a60c08d019b8c5201549a01998a526040519a8b52511660208a015251166040880152511660608601525160808501525160a08401525160c08301525160e0820152f35b600435906001600160a01b03821682036101a657565b604435906001600160a01b03821682036101a657565b60609060031901126101a6576004356001600160a01b03811681036101a657906024359060443590565b610100810190811067ffffffffffffffff82111761086f57604052565b67ffffffffffffffff811161086f57604052565b610140810190811067ffffffffffffffff82111761086f57604052565b60c0810190811067ffffffffffffffff82111761086f57604052565b6080810190811067ffffffffffffffff82111761086f57604052565b90601f8019910116810190811067ffffffffffffffff82111761086f57604052565b67ffffffffffffffff811161086f5760051b60200190565b81601f820112156101a657803591611ee983611eba565b92611ef76040519485611e98565b808452602092838086019260051b8201019283116101a6578301905b828210611f21575050505090565b81358152908301908301611f13565b60405190611f3d82611e12565b8160e06000918281528260208201528260408201528260608201528260808201528260a08201528260c08201520152565b8054821015611f8a576000526005602060002091020190600090565b634e487b7160e01b600052603260045260246000fd5b90604051611fad81611e60565b825460ff81161515825260081c6001600160a01b031660208201526001830154604082015260028301546060820152600383015460808201526004929092015460a0830152565b91906040805161200381611e60565b60009081815281602082015281838201528160608201528160808201528160a08201529481526003602052208054821061203b575050565b6120519293509061204b91611f6e565b50611fa0565b90565b8054821015611f8a5760005260206000209060021b0190600090565b9060405161207d81611e7c565b6060600382948054845260018101546020850152600281015460408501520154910152565b600019811461089d5760010190565b9190820180921161089d57565b908160209103126101a6575180151581036101a65790565b906120e082611eba565b6120ed6040519182611e98565b82815280926120fe601f1991611eba565b0190602036910137565b8051821015611f8a5760209160051b010190565b60005b82811061212b57505050565b60608282015260200161211f565b9190820391821161089d57565b9190811015611f8a5760051b0190565b8115612160570490565b634e487b7160e01b600052601260045260246000fd5b6001600160a01b038116600090815260056020908152604080832085845282528083208684529091528120549294919390928392919061242f57858352602092600384526040938482209283546121cc81611eba565b946121d988519687611e98565b81865284528284208490848088015b84841061241057505050505080845111156123ff576001600160a01b0397881683526004808352868420998452988252858320805490949061222981611eba565b9561223689519788611e98565b818752855283852085908588015b8d878585106123e5575050505050508451156123d5579061226491612108565b519260a084019461227b86516080870151906120b1565b4311156123c557835b825181101561239e576122978184612108565b51606090818101518015908115612393575b508a8201518a511015908951159182159083612388575b8161237b575b82612373575b508161235a575b506122ea575b5050506122e5906120a2565b612284565b929a9215612340575190898801519182810292818404149015171561232d579161231e612324926122e5948a015190612156565b906120b1565b989038806122d9565b634e487b7160e01b875260118d52602487fd5b506122e59161231e612324928b8a0151908a015190612156565b829150811561236b575b50386122d3565b905038612364565b9150386122cc565b848a0151151591506122c6565b8451151593506122c0565b9050895110386122a9565b50989394505093905094939485156123b857505001511691565b51635f65f16560e11b8152fd5b86516303a4fc3760e01b81528a90fd5b86516319a089c160e01b81528a90fd5b6001926123f185612070565b815201920192019190612244565b855163767afb7b60e11b8152600490fd5b60019160059161241f85611fa0565b81520192019201919085906121e8565b604051632cfe303760e21b8152600490fd5b6000808052600260209081527fac33ff75c19e70fe83507db0d683fd3465c996598dc972688b7ace676c890781546040929190157fac33ff75c19e70fe83507db0d683fd3465c996598dc972688b7ace676c89077b81612516575b5061250f57815b6001600160a01b03851680845260048084528585208580528452858520549091908310156125055784528252838320838052825260036124e582868620612054565b500154156124fb576124f6906120a2565b6124a3565b5050505050600190565b5050505091505090565b5091505090565b600591500154153861249c565b600260005414612534576002600055565b604051633ee5aeb560e01b8152600490fdfea264697066735822122037c70c55e777c6b7b68fa53cc8ab661fb0a5e1f511a48455c627bb467402ba3f64736f6c63430008140033","linkReferences":{}},"methodIdentifiers":{"addReward(uint256,address,uint256,uint256,bool)":"7ebfee3e","calculateReward(address,uint256,uint256)":"2c32c360","claimRewards(uint256[],uint256[][],address)":"99a47faa","editPool(uint256,bytes32)":"e964a1a5","getPool(address,uint256)":"5b5b9ea2","getPool(uint256)":"068bcd8d","getReward(address,uint256,uint256)":"50f9b39e","getReward(uint256,uint256)":"b90bc519","getRewards(uint256)":"c0d8012c","getStake(address,uint256,uint256)":"d33560e6","getStakes(address,uint256)":"4cb8a68b","getTotalPools()":"d3ffe67a","launchPool(address,address,address,address,bytes32)":"ba2b6651","stake(uint256,uint256,uint256)":"a638f2e2","unstake(uint256,uint256[])":"395de242"},"id":0}