{"abi":[{"type":"constructor","inputs":[{"name":"stakeERC20","type":"address","internalType":"contract IERC20"},{"name":"stakeERC721","type":"address","internalType":"contract IERC721"},{"name":"rewardToken","type":"address","internalType":"contract IERC20"}],"stateMutability":"nonpayable"},{"type":"function","name":"addReward","inputs":[{"name":"poolId","type":"uint256","internalType":"uint256"},{"name":"rewardToken","type":"address","internalType":"contract IERC20"},{"name":"rewardAmount","type":"uint256","internalType":"uint256"},{"name":"claimAfterBlocks","type":"uint256","internalType":"uint256"},{"name":"isForERC721Stakers","type":"bool","internalType":"bool"}],"outputs":[{"name":"rewardId","type":"uint256","internalType":"uint256"}],"stateMutability":"nonpayable"},{"type":"function","name":"approve","inputs":[{"name":"to","type":"address","internalType":"address"},{"name":"tokenId","type":"uint256","internalType":"uint256"}],"outputs":[],"stateMutability":"nonpayable"},{"type":"function","name":"balanceOf","inputs":[{"name":"owner","type":"address","internalType":"address"}],"outputs":[{"name":"","type":"uint256","internalType":"uint256"}],"stateMutability":"view"},{"type":"function","name":"claimRewards","inputs":[{"name":"poolIds","type":"uint256[]","internalType":"uint256[]"},{"name":"rewardIds","type":"uint256[][]","internalType":"uint256[][]"},{"name":"recipient","type":"address","internalType":"address"}],"outputs":[{"name":"tokens","type":"address[][]","internalType":"contract IERC20[][]"},{"name":"amounts","type":"uint256[][]","internalType":"uint256[][]"}],"stateMutability":"nonpayable"},{"type":"function","name":"contractURI","inputs":[],"outputs":[{"name":"","type":"string","internalType":"string"}],"stateMutability":"view"},{"type":"function","name":"editPool","inputs":[{"name":"poolId","type":"uint256","internalType":"uint256"},{"name":"totalMax","type":"uint256","internalType":"uint256"},{"name":"tokenURI","type":"string","internalType":"string"}],"outputs":[],"stateMutability":"nonpayable"},{"type":"function","name":"getApproved","inputs":[{"name":"tokenId","type":"uint256","internalType":"uint256"}],"outputs":[{"name":"","type":"address","internalType":"address"}],"stateMutability":"view"},{"type":"function","name":"getClaimedAmount","inputs":[{"name":"staker","type":"address","internalType":"address"},{"name":"poolId","type":"uint256","internalType":"uint256"},{"name":"rewardId","type":"uint256","internalType":"uint256"}],"outputs":[{"name":"","type":"uint256","internalType":"uint256"}],"stateMutability":"view"},{"type":"function","name":"getPool","inputs":[{"name":"poolId","type":"uint256","internalType":"uint256"}],"outputs":[{"name":"poolDetails","type":"tuple","internalType":"struct IStaqeStructs.Pool","components":[{"name":"stakeERC20","type":"address","internalType":"contract IERC20"},{"name":"stakeERC721","type":"address","internalType":"contract IERC721"},{"name":"rewardToken","type":"address","internalType":"contract IERC20"},{"name":"totalMax","type":"uint256","internalType":"uint256"},{"name":"totalStakedERC20","type":"uint256","internalType":"uint256"},{"name":"totalStakedERC721","type":"uint256","internalType":"uint256"},{"name":"launchBlock","type":"uint256","internalType":"uint256"}]}],"stateMutability":"view"},{"type":"function","name":"getReward","inputs":[{"name":"poolId","type":"uint256","internalType":"uint256"},{"name":"rewardId","type":"uint256","internalType":"uint256"}],"outputs":[{"name":"rewardDetails","type":"tuple","internalType":"struct IStaqeStructs.Reward","components":[{"name":"isForERC721Stakers","type":"bool","internalType":"bool"},{"name":"rewardToken","type":"address","internalType":"contract IERC20"},{"name":"rewardAmount","type":"uint256","internalType":"uint256"},{"name":"totalStaked","type":"uint256","internalType":"uint256"},{"name":"claimAfterBlocks","type":"uint256","internalType":"uint256"},{"name":"rewardBlock","type":"uint256","internalType":"uint256"}]}],"stateMutability":"view"},{"type":"function","name":"getRewards","inputs":[{"name":"poolId","type":"uint256","internalType":"uint256"}],"outputs":[{"name":"","type":"tuple[]","internalType":"struct IStaqeStructs.Reward[]","components":[{"name":"isForERC721Stakers","type":"bool","internalType":"bool"},{"name":"rewardToken","type":"address","internalType":"contract IERC20"},{"name":"rewardAmount","type":"uint256","internalType":"uint256"},{"name":"totalStaked","type":"uint256","internalType":"uint256"},{"name":"claimAfterBlocks","type":"uint256","internalType":"uint256"},{"name":"rewardBlock","type":"uint256","internalType":"uint256"}]}],"stateMutability":"view"},{"type":"function","name":"getStake","inputs":[{"name":"staker","type":"address","internalType":"address"},{"name":"poolId","type":"uint256","internalType":"uint256"},{"name":"stakeId","type":"uint256","internalType":"uint256"}],"outputs":[{"name":"stakeDetails","type":"tuple","internalType":"struct IStaqeStructs.Stake","components":[{"name":"amountERC20","type":"uint256","internalType":"uint256"},{"name":"idERC721","type":"uint256","internalType":"uint256"},{"name":"stakeBlock","type":"uint256","internalType":"uint256"},{"name":"unstakeBlock","type":"uint256","internalType":"uint256"}]}],"stateMutability":"view"},{"type":"function","name":"getStakes","inputs":[{"name":"staker","type":"address","internalType":"address"},{"name":"poolId","type":"uint256","internalType":"uint256"}],"outputs":[{"name":"","type":"tuple[]","internalType":"struct IStaqeStructs.Stake[]","components":[{"name":"amountERC20","type":"uint256","internalType":"uint256"},{"name":"idERC721","type":"uint256","internalType":"uint256"},{"name":"stakeBlock","type":"uint256","internalType":"uint256"},{"name":"unstakeBlock","type":"uint256","internalType":"uint256"}]}],"stateMutability":"view"},{"type":"function","name":"getTotalPools","inputs":[],"outputs":[{"name":"","type":"uint256","internalType":"uint256"}],"stateMutability":"view"},{"type":"function","name":"isApprovedForAll","inputs":[{"name":"owner","type":"address","internalType":"address"},{"name":"operator","type":"address","internalType":"address"}],"outputs":[{"name":"","type":"bool","internalType":"bool"}],"stateMutability":"view"},{"type":"function","name":"launchPool","inputs":[{"name":"stakeERC20","type":"address","internalType":"contract IERC20"},{"name":"stakeERC721","type":"address","internalType":"contract IERC721"},{"name":"rewardToken","type":"address","internalType":"contract IERC20"},{"name":"totalMax","type":"uint256","internalType":"uint256"},{"name":"tokenURI","type":"string","internalType":"string"}],"outputs":[{"name":"poolId","type":"uint256","internalType":"uint256"}],"stateMutability":"nonpayable"},{"type":"function","name":"name","inputs":[],"outputs":[{"name":"","type":"string","internalType":"string"}],"stateMutability":"view"},{"type":"function","name":"owner","inputs":[],"outputs":[{"name":"","type":"address","internalType":"address"}],"stateMutability":"view"},{"type":"function","name":"ownerOf","inputs":[{"name":"tokenId","type":"uint256","internalType":"uint256"}],"outputs":[{"name":"","type":"address","internalType":"address"}],"stateMutability":"view"},{"type":"function","name":"renounceOwnership","inputs":[],"outputs":[],"stateMutability":"nonpayable"},{"type":"function","name":"safeTransferFrom","inputs":[{"name":"from","type":"address","internalType":"address"},{"name":"to","type":"address","internalType":"address"},{"name":"tokenId","type":"uint256","internalType":"uint256"}],"outputs":[],"stateMutability":"nonpayable"},{"type":"function","name":"safeTransferFrom","inputs":[{"name":"from","type":"address","internalType":"address"},{"name":"to","type":"address","internalType":"address"},{"name":"tokenId","type":"uint256","internalType":"uint256"},{"name":"data","type":"bytes","internalType":"bytes"}],"outputs":[],"stateMutability":"nonpayable"},{"type":"function","name":"setApprovalForAll","inputs":[{"name":"operator","type":"address","internalType":"address"},{"name":"approved","type":"bool","internalType":"bool"}],"outputs":[],"stateMutability":"nonpayable"},{"type":"function","name":"setContractURI","inputs":[{"name":"newURI","type":"string","internalType":"string"}],"outputs":[],"stateMutability":"nonpayable"},{"type":"function","name":"stake","inputs":[{"name":"poolId","type":"uint256","internalType":"uint256"},{"name":"amount","type":"uint256","internalType":"uint256"},{"name":"id","type":"uint256","internalType":"uint256"}],"outputs":[{"name":"stakeId","type":"uint256","internalType":"uint256"}],"stateMutability":"nonpayable"},{"type":"function","name":"supportsInterface","inputs":[{"name":"interfaceId","type":"bytes4","internalType":"bytes4"}],"outputs":[{"name":"","type":"bool","internalType":"bool"}],"stateMutability":"view"},{"type":"function","name":"symbol","inputs":[],"outputs":[{"name":"","type":"string","internalType":"string"}],"stateMutability":"view"},{"type":"function","name":"tokenURI","inputs":[{"name":"tokenId","type":"uint256","internalType":"uint256"}],"outputs":[{"name":"","type":"string","internalType":"string"}],"stateMutability":"view"},{"type":"function","name":"transferFrom","inputs":[{"name":"from","type":"address","internalType":"address"},{"name":"to","type":"address","internalType":"address"},{"name":"tokenId","type":"uint256","internalType":"uint256"}],"outputs":[],"stateMutability":"nonpayable"},{"type":"function","name":"transferOwnership","inputs":[{"name":"newOwner","type":"address","internalType":"address"}],"outputs":[],"stateMutability":"nonpayable"},{"type":"function","name":"unstake","inputs":[{"name":"poolId","type":"uint256","internalType":"uint256"},{"name":"stakeIds","type":"uint256[]","internalType":"uint256[]"}],"outputs":[{"name":"amountERC20","type":"uint256","internalType":"uint256"},{"name":"idsERC721","type":"uint256[]","internalType":"uint256[]"}],"stateMutability":"nonpayable"},{"type":"event","name":"Approval","inputs":[{"name":"owner","type":"address","indexed":true,"internalType":"address"},{"name":"approved","type":"address","indexed":true,"internalType":"address"},{"name":"tokenId","type":"uint256","indexed":true,"internalType":"uint256"}],"anonymous":false},{"type":"event","name":"ApprovalForAll","inputs":[{"name":"owner","type":"address","indexed":true,"internalType":"address"},{"name":"operator","type":"address","indexed":true,"internalType":"address"},{"name":"approved","type":"bool","indexed":false,"internalType":"bool"}],"anonymous":false},{"type":"event","name":"BatchMetadataUpdate","inputs":[{"name":"_fromTokenId","type":"uint256","indexed":false,"internalType":"uint256"},{"name":"_toTokenId","type":"uint256","indexed":false,"internalType":"uint256"}],"anonymous":false},{"type":"event","name":"Claimed","inputs":[{"name":"staker","type":"address","indexed":true,"internalType":"address"},{"name":"poolId","type":"uint256","indexed":true,"internalType":"uint256"}],"anonymous":false},{"type":"event","name":"ContractURIUpdated","inputs":[],"anonymous":false},{"type":"event","name":"Launched","inputs":[{"name":"launcher","type":"address","indexed":true,"internalType":"address"},{"name":"poolId","type":"uint256","indexed":true,"internalType":"uint256"}],"anonymous":false},{"type":"event","name":"MetadataUpdate","inputs":[{"name":"_tokenId","type":"uint256","indexed":false,"internalType":"uint256"}],"anonymous":false},{"type":"event","name":"OwnershipTransferred","inputs":[{"name":"previousOwner","type":"address","indexed":true,"internalType":"address"},{"name":"newOwner","type":"address","indexed":true,"internalType":"address"}],"anonymous":false},{"type":"event","name":"Rewarded","inputs":[{"name":"rewarder","type":"address","indexed":true,"internalType":"address"},{"name":"poolId","type":"uint256","indexed":true,"internalType":"uint256"},{"name":"rewardId","type":"uint256","indexed":true,"internalType":"uint256"}],"anonymous":false},{"type":"event","name":"Staked","inputs":[{"name":"staker","type":"address","indexed":true,"internalType":"address"},{"name":"poolId","type":"uint256","indexed":true,"internalType":"uint256"},{"name":"stakeId","type":"uint256","indexed":true,"internalType":"uint256"}],"anonymous":false},{"type":"event","name":"Transfer","inputs":[{"name":"from","type":"address","indexed":true,"internalType":"address"},{"name":"to","type":"address","indexed":true,"internalType":"address"},{"name":"tokenId","type":"uint256","indexed":true,"internalType":"uint256"}],"anonymous":false},{"type":"event","name":"Unstaked","inputs":[{"name":"staker","type":"address","indexed":true,"internalType":"address"},{"name":"poolId","type":"uint256","indexed":true,"internalType":"uint256"}],"anonymous":false},{"type":"error","name":"ERC721IncorrectOwner","inputs":[{"name":"sender","type":"address","internalType":"address"},{"name":"tokenId","type":"uint256","internalType":"uint256"},{"name":"owner","type":"address","internalType":"address"}]},{"type":"error","name":"ERC721InsufficientApproval","inputs":[{"name":"operator","type":"address","internalType":"address"},{"name":"tokenId","type":"uint256","internalType":"uint256"}]},{"type":"error","name":"ERC721InvalidApprover","inputs":[{"name":"approver","type":"address","internalType":"address"}]},{"type":"error","name":"ERC721InvalidOperator","inputs":[{"name":"operator","type":"address","internalType":"address"}]},{"type":"error","name":"ERC721InvalidOwner","inputs":[{"name":"owner","type":"address","internalType":"address"}]},{"type":"error","name":"ERC721InvalidReceiver","inputs":[{"name":"receiver","type":"address","internalType":"address"}]},{"type":"error","name":"ERC721InvalidSender","inputs":[{"name":"sender","type":"address","internalType":"address"}]},{"type":"error","name":"ERC721NonexistentToken","inputs":[{"name":"tokenId","type":"uint256","internalType":"uint256"}]},{"type":"error","name":"InvalidAmountOrId","inputs":[]},{"type":"error","name":"InvalidERC721Token","inputs":[]},{"type":"error","name":"InvalidRewardToken","inputs":[]},{"type":"error","name":"InvalidStakeId","inputs":[]},{"type":"error","name":"InvalidStakeToken","inputs":[]},{"type":"error","name":"InvalidTokenURI","inputs":[]},{"type":"error","name":"MoreThanTheTotalMaxTokens","inputs":[]},{"type":"error","name":"OnlyAvailableToStakersInGenesis","inputs":[]},{"type":"error","name":"OnlyOwnerHasAccessToAddRewards","inputs":[]},{"type":"error","name":"OnlyOwnerHasAccessToEditTokenURI","inputs":[]},{"type":"error","name":"OwnableInvalidOwner","inputs":[{"name":"owner","type":"address","internalType":"address"}]},{"type":"error","name":"OwnableUnauthorizedAccount","inputs":[{"name":"account","type":"address","internalType":"address"}]},{"type":"error","name":"PoolDoesNotExist","inputs":[]},{"type":"error","name":"PoolDoesNotHaveStakes","inputs":[]},{"type":"error","name":"ReentrancyGuardReentrantCall","inputs":[]},{"type":"error","name":"RewardAlreadyClaimed","inputs":[]},{"type":"error","name":"RewardIsEmpty","inputs":[]},{"type":"error","name":"RewardIsNotYetAvailableForClaim","inputs":[]},{"type":"error","name":"RewardNotFoundInPool","inputs":[]},{"type":"error","name":"RewardTransferFailed","inputs":[]},{"type":"error","name":"StakeAlreadyUnstaked","inputs":[]},{"type":"error","name":"StakeOnNextBlockAfterReward","inputs":[]},{"type":"error","name":"StakeTransferFailed","inputs":[]},{"type":"error","name":"StakerDoesNotHaveStakesInPool","inputs":[]},{"type":"error","name":"TotalMaxForOnlyOneTypeOfToken","inputs":[]},{"type":"error","name":"UnstakeOnNextBlockAndGetReward","inputs":[]},{"type":"error","name":"UnstakeTransferFailed","inputs":[]}],"bytecode":{"object":"0x6080346200043757601f1990601f620038553881900382810185168401936001600160401b0393929091908486118387101762000421578160609284926040988952833981010312620004375762000057816200045c565b94602092838301519060018060a01b03938483168093036200043757876200008091016200045c565b906200008b6200043c565b94600b86526a537461716520506f6f6c7360a81b87870152620000ad6200043c565b936003958686526253545160e81b8987015287518a81116200042157806000998a8c620000db825462000471565b89808211620003f0575b505050508b908783116001146200038c578b9262000380575b50508160011b91600019908a1b1c19161788555b8551908a82116200036c5781906001978a8c620001308b5462000471565b898c8183116200032f575b50505050508b91878411600114620002ce57508a92620002c2575b505060001982891b1c191690861b1785555b3315620002aa57600780546001600160a01b03198082163390811790935594919084167f8be0079c531659141344cd1fd0a4f28419497f9722a3daafe3b4186f6b6457e08a80a3620001bc60085462000471565b81811162000288575b505060006008558460095589519860e08a01908a82109082111762000274578a9b83918b9c9b999a9b52168752888701908152818b880194168452816060880195898752818d8b60808c019b818d5260a081019d8e5260c0019d8e439052818052600b9052209c5116858d5416178c558b0191511683825416179055600289019251169082541617905551908501555160048401555160058301555190600601555161338d9081620004c88239f35b634e487b7160e01b88526041600452602488fd5b620002a29160088a528a8a20910160051c810190620004ae565b3880620001c5565b8951631e4fbdf760e01b815260048101889052602490fd5b01519050388062000156565b898c528c8c208a9590939291168c8e5b828210620003175750508411620002fe575b505050811b01855562000168565b0151600019838b1b60f8161c19169055388080620002f0565b8385015186558c979095019493840193018e620002de565b848491620003579652209181880160051c830193881062000362575b0160051c0190620004ae565b8a8c38898c6200013b565b925081926200034b565b634e487b7160e01b89526041600452602489fd5b015190503880620000fe565b8b80528c8c209285168c8e5b828210620003d8575050908460019594939210620003bf575b505050811b01885562000112565b0151600019838c1b60f8161c19169055388080620003b1565b60018596829396860151815501950193018e62000398565b828480620004179652209181870160051c830193871062000362570160051c0190620004ae565b8a8c3889620000e5565b634e487b7160e01b600052604160045260246000fd5b600080fd5b60408051919082016001600160401b038111838210176200042157604052565b51906001600160a01b03821682036200043757565b90600182811c92168015620004a3575b60208310146200048d57565b634e487b7160e01b600052602260045260246000fd5b91607f169162000481565b818110620004ba575050565b60008155600101620004ae56fe6080604052600436101561001257600080fd5b60003560e01c8062936c9a1461249357806301ffc9a71461240b57806304e4d71114612348578063068bcd8d1461225757806306fdde03146121b4578063081812fc14612176578063095ea7b31461208f57806323b872dd14612078578063395de24214611bb757806342842e0e14611b895780634cb8a68b14611a955780635ea6bda114611a4e5780636352211e14611a1e57806370a08231146119c5578063715018a6146119685780637ebfee3e146116885780638da5cb5b1461165f578063938e3d7b146114bf57806395d89b411461141c57806399a47faa14610b71578063a22cb46514610ac3578063a638f2e21461073d578063b88d4fde146106d1578063b90bc51914610608578063c0d8012c14610513578063c87b56dd14610425578063d33560e61461035d578063d3ffe67a1461033f578063e8a3d48514610259578063e985e9c5146102035763f2fde38b1461017057600080fd5b346101fe5760203660031901126101fe576101896128ac565b610191612e6e565b6001600160a01b039081169081156101e557600754826bffffffffffffffffffffffff60a01b821617600755167f8be0079c531659141344cd1fd0a4f28419497f9722a3daafe3b4186f6b6457e0600080a3005b604051631e4fbdf760e01b815260006004820152602490fd5b600080fd5b346101fe5760403660031901126101fe5761021c6128ac565b6102246128d8565b9060018060a01b03809116600052600560205260406000209116600052602052602060ff604060002054166040519015158152f35b346101fe5760003660031901126101fe57604051600060085461027b81612e34565b8084529060019081811690811561031857506001146102bd575b6102b9846102a58186038261296d565b6040519182916020835260208301906129fe565b0390f35b6008600090815292507ff3f7a9fe364faab93b216da50a3214154f22a0a2b415b23a84c8169e8b636ee35b8284106103005750505081016020016102a582610295565b805460208587018101919091529093019281016102e8565b60ff191660208087019190915292151560051b850190920192506102a59150839050610295565b346101fe5760003660031901126101fe576020600a54604051908152f35b346101fe57608061036d36612aa7565b60405191929161037c81612937565b600081526000602082015260006040820152600060608201529160018060a01b03169283600052600d60205260406000208160005260205260406000205482106103f0575b84836103ee6040518092606080918051845260208101516020850152604081015160408501520151910152565bf35b610417925061041d93600052600d6020526040600020906000526020526040600020612bcc565b50612be8565b8083806103c1565b346101fe576020806003193601126101fe576004356104438161303c565b506000526006815260406000209060405191826000825461046381612e34565b938484526001918683821691826000146104f15750506001146104b2575b505061048f9250038361296d565b600060405161049d81612952565b526102b96040519282849384528301906129fe565b85925060005281600020906000915b8583106104d957505061048f93508201018580610481565b805483890185015287945086939092019181016104c1565b925093505061048f94915060ff191682840152151560051b8201018580610481565b346101fe576020806003193601126101fe57600435600052600c8152604060002090815461054081612ad1565b9061054e604051928361296d565b8082528282018094600052836000206000915b8383106105eb5760408051878152865181890181905289928201908960005b82811061058d5784840385f35b9091928260c0826105dc6001948a5160a08091805115158452600180831b0360208201511660208501526040810151604085015260608101516060850152608081015160808501520151910152565b01960191019492919094610580565b6005866001926105fa85612b78565b815201920192019190610561565b346101fe5760403660031901126101fe5760c060243560405161062a8161291c565b6000815260006020820152600060408201526000606082015260006080820152600060a082015290600435600052600c6020526040600020805482106106b5575b50506103ee604051809260a08091805115158452600180831b0360208201511660208501526040810151604085015260608101516060850152608081015160808501520151910152565b6106ca9250906106c491612b46565b50612b78565b828061066b565b346101fe5760803660031901126101fe576106ea6128ac565b6106f26128d8565b90604435606435926001600160401b0384116101fe57366023850112156101fe5761072a61073b9436906024816004013591016129a9565b92610736838383612e9a565b613077565b005b346101fe5760603660031901126101fe5760443560043560243561075f613334565b81600052602092600b84526040600020600681015415610ab15782159283159380610aa9575b610a975784600052600c8652604060002080548015159182610a70575b5050610a5e5733600052600d865260406000208560005286528360406000205494610a48575b8315159182610a1a575b6003840154806109cf575b5033600052600d885260406000208760005288526040600020906040519161080483612937565b8183528983019287845260408101914383526060820190600082528054600160401b8110156109b95761083c91600182018155612bcc565b9390936109a3578c956003935185555160018501555160028401555191015582610923575b5050610911576108a2575b50508060405192337f1449c6dd7851abc30abf37f57715f492010519147cc2652fbc38202c18a6ee90600080a460016009558152f35b600101546001600160a01b0316803b156101fe576040516323b872dd60e01b815233600482015230602482015260448101929092526000908290606490829084905af18015610905576108f6575b8061086c565b6108ff90612909565b836108f0565b6040513d6000823e3d90fd5b604051631231ec2f60e21b8152600490fd5b84546040516323b872dd60e01b81523360048201523060248201526044810192909252909250829060649082906000906001600160a01b03165af190811561090557600091610976575b50158688610861565b6109969150873d891161099c575b61098e818361296d565b810190612c43565b8761096d565b503d610984565b634e487b7160e01b600052600060045260246000fd5b634e487b7160e01b600052604160045260246000fd5b8280610a0d575b6109ed578390816109ff575b506109ed57886107dd565b604051636dce347360e11b8152600490fd5b9050600585015411896109e2565b50806004860154116109d6565b6005840180549060018201809211610a3257556107d2565b634e487b7160e01b600052601160045260246000fd5b60048301610a57838254612c36565b90556107c8565b604051630485995160e51b8152600490fd5b60001982019250908211610a3257600491610a8a91612b46565b50015443111587806107a2565b604051633b91be2160e21b8152600490fd5b508215610785565b6040516302721e1f60e61b8152600490fd5b346101fe5760403660031901126101fe57610adc6128ac565b60243590811515908183036101fe576001600160a01b0316918215610b5857610b2a9033600052600560205260406000208460005260205260406000209060ff801983541691151516179055565b6040519081527f17307eab39ab6107e8899845ad3d59bd9653f200f220920489ca2b5937696c3160203392a3005b604051630b61174360e31b815260048101849052602490fd5b346101fe5760603660031901126101fe576001600160401b036004358181116101fe57610ba2903690600401612ae8565b602435918083116101fe57366023840112156101fe578260040135610bc681612ad1565b93610bd4604051958661296d565b8185526024602086019260051b820101913683116101fe5760248201905b8382106113f4578686610c036128c2565b610c0b613334565b6001600160a01b038116156113ed575b9091825192610c53610c2c85612ad1565b94610c3a604051968761296d565b808652610c49601f1991612ad1565b0160208601612cb1565b805192610c62610c2c85612ad1565b6000945b825186101561103357610c7d868594979395612c5b565b5151610c8881612ad1565b90610c96604051928361296d565b808252610ca5601f1991612ad1565b01366020830137610cb68383612c5b565b52610cc18282612c5b565b50610cd6610ccf8385612c5b565b5151612c6f565b610ce08387612c5b565b52610ceb8286612c5b565b506000915b610cfa8185612c5b565b515183101561101d57610d0d8188612c5b565b5196610d2384610d1d8488612c5b565b51612c5b565b519460009833600052600e60205260406000208160005260205260406000208760005260205260406000205461100b5780600052600c6020526040600020908154610d6d81612ad1565b92610d7b604051948561296d565b818452602084019060005260206000206000915b838310610fed57505050508782511115610fdb5733600052600d6020526040600020906000526020526040600020968754610dc981612ad1565b98610dd76040519a8b61296d565b818a5260208a019060005260206000206000915b838310610fbd5750505050875115610fab57610e0691612c5b565b519660a0880151610e1d439160808b015190612c36565b1015610f995760005b8751811015610f3357610e398189612c5b565b5160608101518015908115610f25575b50604082015160a08c01511015908b51159182159083610f1a575b81610f0c575b82610f04575b5081610eeb575b50610e8d575b5050610e8890612c1a565b610e26565b919b9115610ed0575160408a0151918183810204831482151715610a3257610ec2610ec892610e889460608e01519102612cce565b90612c36565b9a908c610e7d565b50610ec8610e8891610ec260408c015160608d015190612cce565b8291508115610efc575b508e610e77565b90508e610ef5565b91508f610e70565b602085015115159150610e6a565b845115159350610e64565b905060a08b0151108d610e49565b50949195509591978015610f8757610f7882898b93610f7283610d1d610f7e99602060018060a01b039101511697610f6b818d612c5b565b5195612c5b565b52612c5b565b52612c1a565b91939295610cf0565b604051635f65f16560e11b8152600490fd5b6040516303a4fc3760e01b8152600490fd5b6040516319a089c160e01b8152600490fd5b60046020600192610fcd85612be8565b815201920192019190610deb565b60405163767afb7b60e11b8152600490fd5b60056020600192610ffd85612b78565b815201920192019190610d8f565b604051632cfe303760e21b8152600490fd5b61102a9193969250612c1a565b94929091610c66565b60009493915b83518610156110c55760005b61104f8785612c5b565b51518110156110b4578061106a6110af92610d1d8a8a612c5b565b5133600052600e60205260406000206110838a89612c5b565b51600052602052604060002061109d83610d1d8c8a612c5b565b51600052602052604060002055612c1a565b611045565b50946110bf90612c1a565b94611039565b60009085855b80518410156112ed576110de8482612c5b565b516000908152600b60205260409020600201546001600160a01b031680611226575060005b61110d8588612c5b565b51518110156111e35761112481610d1d8786612c5b565b518015610f8757600090602090611184906001600160a01b0361114b86610d1d8c8e612c5b565b5160405163a9059cbb60e01b81526001600160a01b038b1660048201526024810193909352919485939190921691839182906044820190565b03925af1908115610905576000916111c4575b50156111b257846111aa61110d92612c1a565b915050611103565b60405163078ecf4160e41b8152600490fd5b6111dd915060203d60201161099c5761098e818361296d565b88611197565b5092611220905b6111f48186612c5b565b51337fd8138f8a3f377c5259ca548e70e4c2de94f129f5a11036a15b69513cba2b426a600080a3612c1a565b926110cb565b90919260009695966000905b61123c8789612c5b565b515182101561126d576112616112679161125a84610d1d8b8b612c5b565b5190612c36565b91612c1a565b90611232565b919493959290509695968115610f875760405163a9059cbb60e01b81526001600160a01b03861660048201526024810192909252602090829060449082906000905af1908115610905576000916112ce575b50156111b257611220906111ea565b6112e7915060203d60201161099c5761098e818361296d565b876112bf565b508360018060095560405191604083016040845281518091526060840190602060608260051b8701019301916000905b82821061138657505050508281036020840152835180825260208201916020808360051b8301019601926000915b8383106113585786880387f35b9091929394602080611375839a601f198682030187528951612a73565b99970195949190910192019061134b565b9091929394809795605f19888203018352855190602080835192838152019201906000905b848183106113cc57505050506020809196019201920190929196949661131d565b83516001600160a01b031685526020948501949093019291909101906113ab565b5033610c1b565b81358581116101fe57602091611411839260243691880101612ae8565b815201910190610bf2565b346101fe5760003660031901126101fe576040516000600180549061144082612e34565b808552918181169081156103185750600114611466576102b9846102a58186038261296d565b600081815292507fb10e2d527612073b26eecdfd717e6a320cf44b4afac2b0732d9fcbe2b7fa0cf65b8284106114a75750505081016020016102a582610295565b8054602085870181019190915290930192810161148f565b346101fe576020806003193601126101fe576001600160401b036004358181116101fe576114f19036906004016129e0565b916114fa612e6e565b82519182116109b95761150e600854612e34565b601f81116115fb575b5080601f83116001146115775750819260009261156c575b50508160011b916000199060031b1c1916176008555b7fa5d4097edda6d87cb9329af83fb3712ef77eeb13738ffe43cc35a4ce305ad962600080a1005b01519050828061152f565b90601f1983169360086000527ff3f7a9fe364faab93b216da50a3214154f22a0a2b415b23a84c8169e8b636ee3926000905b8682106115e357505083600195106115ca575b505050811b01600855611545565b015160001960f88460031b161c191690558280806115bc565b806001859682949686015181550195019301906115a9565b60086000527ff3f7a9fe364faab93b216da50a3214154f22a0a2b415b23a84c8169e8b636ee3601f840160051c810191838510611655575b601f0160051c01905b8181106116495750611517565b6000815560010161163c565b9091508190611633565b346101fe5760003660031901126101fe576007546040516001600160a01b039091168152602090f35b346101fe5760a03660031901126101fe576004356116a46128d8565b9060443591608435908115908115908184036101fe576116c2613334565b8085600052602096600b88526040600020604051926116e0846128ee565b60018060a01b0396878354168552876001840154168b8601528760028401541691604086019283526003840154606087015260c060048501549660808101978852600660058701549660a083019788520154918291015215610ab1578816156119565783158015611943575b610f87576117598a61303c565b883391160361193157889081611927575b8115611910575b506118fe57518616806118f6575b5087600052600c89526040600020928354976000146118ed575051945b604051946117a98661291c565b85528885019316918284526040850194828652606081019687526080810191606435835260a0820190438252600160401b8a10156109b957896117f191600182018155612b46565b9390936109a3576000988c986118839861181c600496511515889060ff801983541691151516179055565b518654610100600160a81b03191660089190911b610100600160a81b0316178655516001860155516002850155516003840155519101556040516323b872dd60e01b8152336004820152306024820152604481019190915293849283919082906064820190565b03925af1908115610905576000916118d0575b50156111b2578060405192337f291e8ba3c0f4b0bd86e6e2346fcee1e7ca0975b1cc1886bfbc722d34f3f24d91600080a460016009558152f35b6118e79150843d861161099c5761098e818361296d565b84611896565b9050519461179c565b93508961177f565b6040516303bdf00d60e31b8152600490fd5b90508061191e575b8b611771565b50835115611918565b835115915061176a565b604051630a781f0560e21b8152600490fd5b5088801561174c5750825184111561174c565b60405163dfde867160e01b8152600490fd5b346101fe5760003660031901126101fe57611981612e6e565b600780546001600160a01b031981169091556000906001600160a01b03167f8be0079c531659141344cd1fd0a4f28419497f9722a3daafe3b4186f6b6457e08280a3005b346101fe5760203660031901126101fe576001600160a01b036119e66128ac565b168015611a055760005260036020526020604060002054604051908152f35b6040516322718ad960e21b815260006004820152602490fd5b346101fe5760203660031901126101fe576020611a3c60043561303c565b6040516001600160a01b039091168152f35b346101fe57611a5c36612aa7565b9160018060a01b0316600052600e6020526040600020906000526020526040600020906000526020526020604060002054604051908152f35b346101fe5760403660031901126101fe576001600160a01b03611ab66128ac565b166000526020600d8152604060002060243560005281526040600020908154611ade81612ad1565b90611aec604051928361296d565b8082528282018094600052836000206000915b838310611b6c5760408051878152865181890181905289928201908960005b828110611b2b5784840385f35b90919282608082611b5d6001948a51606080918051845260208101516020850152604081015160408501520151910152565b01960191019492919094611b1e565b600486600192611b7b85612be8565b815201920192019190611aff565b346101fe5761073b611b9a36612a3e565b9060405192611ba884612952565b60008452610736838383612e9a565b346101fe5760403660031901126101fe576024356001600160401b038082116101fe57366023830112156101fe578160040135116101fe57366024826004013560051b830101116101fe57611c0a613334565b600435600052600b602052604060002060405190611c27826128ee565b60018060a01b038154168252600660018060a01b03600183015416916020840192835260018060a01b0360028201541660408501526003810154606085015260048101546080850152600581015460a0850152015460c0830152600435600052600c60205260406000208054611c9c81612ad1565b91611caa604051938461296d565b818352602083019060005260206000206000915b83831061205a575050505080518015159182612033575b505061202157600435600052600b6020526040600020600681015415610ab15733600052600d60205260406000206004356000526020526040600020846004013515908115612017575b50610fab57600092600090611d378660040135612c6f565b9560005b81600401358110611f1d57505084159182159280611f15575b610fab5782611eff575b8015159384611ee7575b505081611e7c575b50611e6a57611dc5575b506102b9604051928392600435337f0f5bb82176feb1b5e747e28471aa92156a04d9f3ab9f45f28e2d704232b93f75600080a360016009558352604060208401526040830190612a73565b60005b8351811015611e6257611ddb8185612c5b565b5115611e595781516001600160a01b031690611df78186612c5b565b5191803b156101fe57604051632142170760e11b815230600482015233602482015260448101939093526000908390606490829084905af191821561090557611e4592611e4a575b50612c1a565b611dc8565b611e5390612909565b85611e3f565b611e4590612c1a565b505082611d7a565b604051631b9f013160e11b8152600490fd5b5160405163a9059cbb60e01b8152336004820152602481018690529150602090829060449082906000906001600160a01b03165af190811561090557600091611ec8575b501585611d70565b611ee1915060203d60201161099c5761098e818361296d565b85611ec0565b6005611ef69101918254612c29565b90558680611d68565b60048401611f0e878254612c29565b9055611d5e565b508015611d54565b611f2f81836004013560248501612ca1565b3533600052600d602052604060002060043560005260205260406000205411156120055733600052600d6020526040600020600435600052602052611f8b6040600020611f8483856004013560248701612ca1565b3590612bcc565b5096600388015415801590611ff7575b611fe557611fb36001914360038b0155895490612c36565b97015480611fcb575b50611fc690612c1a565b611d3b565b8194611fde91610f78611fc6948c612c5b565b9390611fbc565b60405163793ef5e960e11b8152600490fd5b504360028901541015611f9b565b604051639b763f7160e01b8152600490fd5b9050541585611d1f565b6040516371f7dfa560e01b8152600490fd5b60001982019250908211610a325760a09161204d91612c5b565b5101514311158480611cd5565b6005602060019261206a85612b78565b815201920192019190611cbe565b346101fe5761073b61208936612a3e565b91612e9a565b346101fe5760403660031901126101fe576120a86128ac565b6024356120b48161303c565b33151580612163575b80612136575b61211e576001600160a01b039283169282918491167f8c5be1e5ebec7d5bd14f71427d1e84f3dd0314c0f7b2291e5b200ac8c7c3b925600080a4600090815260046020526040902080546001600160a01b0319169091179055005b60405163a9fbf51f60e01b8152336004820152602490fd5b5060018060a01b038116600052600560205260406000203360005260205260ff60406000205416156120c3565b506001600160a01b0381163314156120bd565b346101fe5760203660031901126101fe576004356121938161303c565b506000526004602052602060018060a01b0360406000205416604051908152f35b346101fe5760003660031901126101fe57604051600080546121d581612e34565b8084529060019081811690811561031857506001146121fe576102b9846102a58186038261296d565b600080805292507f290decd9548b62a8d60345a988386fc84ba6bc95484008f6362f93160ef3e5635b82841061223f5750505081016020016102a582610295565b80546020858701810191909152909301928101612227565b346101fe5760203660031901126101fe57600060c0604051612278816128ee565b8281528260208201528260408201528260608201528260808201528260a08201520152600435600052600b60205260e060406000206040516122b9816128ee565b60018060a01b0391828154169283835280600183015416906020840191825280600284015416906040850191825260038401549160608601928352816004860154946080880195865260c0600660058901549860a08b01998a520154980197885260405198895251166020880152511660408601525160608501525160808401525160a08301525160c0820152f35b346101fe5760603660031901126101fe576024356004356044356001600160401b0381116101fe5761237e9036906004016129e0565b90612387613334565b80600052600b602052604060002092600684015415610ab1578251156123f9576123b08261303c565b336001600160a01b03909116036123e75760036123d89401805482116123df575b50506131bf565b6001600955005b5583806123d1565b604051637cefe4d160e01b8152600490fd5b6040516313f04adb60e01b8152600490fd5b346101fe5760203660031901126101fe5760043563ffffffff60e01b81168091036101fe57602090632483248360e11b8114908115612450575b506040519015158152f35b6380ac58cd60e01b811491508115612482575b8115612471575b5082612445565b6301ffc9a760e01b1490508261246a565b635b5e139f60e01b81149150612463565b346101fe5760a03660031901126101fe576124ac6128ac565b60249081356001600160a01b03818116918290036101fe576124cc6128c2565b91606435936084356001600160401b0381116101fe576124f09036906004016129e0565b6124f8613334565b61250133612cee565b1561289a578215801592838061288a575b61287857851692831580928193612870575b5061285e578251156123f9578715159182612855575b508161284d575b5061283b57612601916006612557600a54612c1a565b9687600a5560405192612569846128ee565b835260209889840196875287604085019216825260608401908152608084016000815260a08501916000835260c08601934385528b600052600b8d528a6040600020975116996bffffffffffffffffffffffff60a01b9a8b8954161788558b600189019151168b8254161790558a600288019151168a82541617905551600386015551600485015551600584015551910155846131bf565b6040519161260e83612952565b60008352331561282357839081600052600286526040600020541680151592836127f0575b33600052600387526040600020600181540190558260005260028752604060002090339082541617905533907fddf252ad1be2c89b69c2b068fc378daa952ba7f163c4a11628f55a4df523b3ef600080a46127d857333b6126c4575b506040519080337f8ad1ba2dbd33c6313fa50cd4016351a36437d7dcd0e0800a3a0b191d22095d93600080a360016009558152f35b6040518381806126fc630a85bd0160e11b9586835233600484015260008a8401528760448401526080606484015260848301906129fe565b03816000335af160009181612798575b50612767575050503d600014612760573d6127268161298e565b90612734604051928361296d565b81523d60008383013e5b8051918261275d57604051633250574960e11b81523360048201528490fd5b01fd5b606061273e565b929391926001600160e01b03191603612783575081908361268f565b604051633250574960e11b8152336004820152fd5b9091508481813d83116127d1575b6127b0818361296d565b810103126101fe57516001600160e01b0319811681036101fe57908661270c565b503d6127a6565b6040516339e3563760e11b8152600060048201528490fd5b60008381526004602052604080822080546001600160a01b03191690558382526003895290208054600019019055612633565b604051633250574960e11b8152600060048201528690fd5b60405163df9c3d7d60e01b8152600490fd5b905088612541565b1591508961253a565b6040516314ec381360e11b8152600490fd5b90508a612524565b6040516366a0777760e01b8152600490fd5b5061289485612dd0565b15612512565b6040516358fd19b960e11b8152600490fd5b600435906001600160a01b03821682036101fe57565b604435906001600160a01b03821682036101fe57565b602435906001600160a01b03821682036101fe57565b60e081019081106001600160401b038211176109b957604052565b6001600160401b0381116109b957604052565b60c081019081106001600160401b038211176109b957604052565b608081019081106001600160401b038211176109b957604052565b602081019081106001600160401b038211176109b957604052565b90601f801991011681019081106001600160401b038211176109b957604052565b6001600160401b0381116109b957601f01601f191660200190565b9291926129b58261298e565b916129c3604051938461296d565b8294818452818301116101fe578281602093846000960137010152565b9080601f830112156101fe578160206129fb933591016129a9565b90565b919082519283825260005b848110612a2a575050826000602080949584010152601f8019910116010190565b602081830181015184830182015201612a09565b60609060031901126101fe576001600160a01b039060043582811681036101fe579160243590811681036101fe579060443590565b90815180825260208080930193019160005b828110612a93575050505090565b835185529381019392810192600101612a85565b60609060031901126101fe576004356001600160a01b03811681036101fe57906024359060443590565b6001600160401b0381116109b95760051b60200190565b81601f820112156101fe57803591612aff83612ad1565b92612b0d604051948561296d565b808452602092838086019260051b8201019283116101fe578301905b828210612b37575050505090565b81358152908301908301612b29565b8054821015612b62576000526005602060002091020190600090565b634e487b7160e01b600052603260045260246000fd5b90604051612b858161291c565b825460ff81161515825260081c6001600160a01b031660208201526001830154604082015260028301546060820152600383015460808201526004929092015460a0830152565b8054821015612b625760005260206000209060021b0190600090565b90604051612bf581612937565b6060600382948054845260018101546020850152600281015460408501520154910152565b6000198114610a325760010190565b91908203918211610a3257565b91908201809211610a3257565b908160209103126101fe575180151581036101fe5790565b8051821015612b625760209160051b010190565b90612c7982612ad1565b612c86604051918261296d565b8281528092612c97601f1991612ad1565b0190602036910137565b9190811015612b625760051b0190565b60005b828110612cc057505050565b606082820152602001612cb4565b8115612cd8570490565b634e487b7160e01b600052601260045260246000fd5b6000808052600b60209081527fdf7de25b7f1fd6d0b5205f0e18f1f35bd7b8d84cce336588d184533ce43a6f7b546040929190157fdf7de25b7f1fd6d0b5205f0e18f1f35bd7b8d84cce336588d184533ce43a6f7681612dc3575b50612dbc57815b6001600160a01b038516808452600d808452858520858052845285852054909190831015612db2578452825283832083805282526003612d9282868620612bcc565b50015415612da857612da390612c1a565b612d50565b5050505050600190565b5050505091505090565b5091505090565b6004915001541538612d49565b6040516301ffc9a760e01b81526380ac58cd60e01b600482015290602090829060249082906001600160a01b03165afa60009181612e14575b506129fb5750600090565b612e2d91925060203d811161099c5761098e818361296d565b9038612e09565b90600182811c92168015612e64575b6020831014612e4e57565b634e487b7160e01b600052602260045260246000fd5b91607f1691612e43565b6007546001600160a01b03163303612e8257565b60405163118cdaa760e01b8152336004820152602490fd5b6001600160a01b03918216929091831561302357600092828452826020956002875260409684888820541696879133151580612f8a575b509060027fddf252ad1be2c89b69c2b068fc378daa952ba7f163c4a11628f55a4df523b3ef9284612f57575b858352600381528b8320805460010190558683525289812080546001600160a01b0319168517905580a41692838303612f365750505050565b6064945051926364283d7b60e01b8452600484015260248301526044820152fd5b600087815260046020526040902080546001600160a01b0319169055848352600381528b83208054600019019055612efd565b91939450915080612fe2575b15612fa657859291879138612ed1565b878688612fc3576024915190637e27328960e01b82526004820152fd5b905163177e802f60e01b81523360048201526024810191909152604490fd5b503387148015613007575b80612f965750858252600481523385898420541614612f96565b5086825260058152878220338352815260ff8883205416612fed565b604051633250574960e11b815260006004820152602490fd5b6000818152600260205260409020546001600160a01b031690811561305f575090565b60249060405190637e27328960e01b82526004820152fd5b813b613084575b50505050565b604051630a85bd0160e11b8082523360048301526001600160a01b039283166024830152604482019490945260806064820152602095929091169390929083906130d29060848301906129fe565b039285816000958187895af184918161317b575b50613146575050503d60001461313e573d6131008161298e565b9061310e604051928361296d565b81528091843d92013e5b8051928361313957604051633250574960e11b815260048101849052602490fd5b019050fd5b506060613118565b919450915063ffffffff60e01b160361316357503880808061307e565b60249060405190633250574960e11b82526004820152fd5b9091508681813d83116131b8575b613193818361296d565b810103126131b457516001600160e01b0319811681036131b45790386130e6565b8480fd5b503d613189565b9190916000908082526020916006835260408120908551906001600160401b038211613320576131ef8354612e34565b601f81116132dd575b508490601f831160011461325957907ff8e1a15aba9398e019f0b49df1a4fde98ee17ae345cb5f6b5e2c27f5033e8ce796978361324e575b50508160011b916000199060031b1c19161790555b604051908152a1565b015190503880613230565b9196601f198816848452868420935b8181106132c657509160019391897ff8e1a15aba9398e019f0b49df1a4fde98ee17ae345cb5f6b5e2c27f5033e8ce7999a94106132ad575b505050811b019055613245565b015160001960f88460031b161c191690553880806132a0565b929387600181928786015181550195019301613268565b838252858220601f840160051c810191878510613316575b601f0160051c01905b81811061330b57506131f8565b8281556001016132fe565b90915081906132f5565b634e487b7160e01b81526041600452602490fd5b600260095414613345576002600955565b604051633ee5aeb560e01b8152600490fdfea2646970667358221220d6f01ff5313a81265ca4fb9b6b583143f3c0263a6b7effffc0e8882d5c97d8a764736f6c63430008140033","linkReferences":{}},"methodIdentifiers":{"addReward(uint256,address,uint256,uint256,bool)":"7ebfee3e","approve(address,uint256)":"095ea7b3","balanceOf(address)":"70a08231","claimRewards(uint256[],uint256[][],address)":"99a47faa","contractURI()":"e8a3d485","editPool(uint256,uint256,string)":"04e4d711","getApproved(uint256)":"081812fc","getClaimedAmount(address,uint256,uint256)":"5ea6bda1","getPool(uint256)":"068bcd8d","getReward(uint256,uint256)":"b90bc519","getRewards(uint256)":"c0d8012c","getStake(address,uint256,uint256)":"d33560e6","getStakes(address,uint256)":"4cb8a68b","getTotalPools()":"d3ffe67a","isApprovedForAll(address,address)":"e985e9c5","launchPool(address,address,address,uint256,string)":"00936c9a","name()":"06fdde03","owner()":"8da5cb5b","ownerOf(uint256)":"6352211e","renounceOwnership()":"715018a6","safeTransferFrom(address,address,uint256)":"42842e0e","safeTransferFrom(address,address,uint256,bytes)":"b88d4fde","setApprovalForAll(address,bool)":"a22cb465","setContractURI(string)":"938e3d7b","stake(uint256,uint256,uint256)":"a638f2e2","supportsInterface(bytes4)":"01ffc9a7","symbol()":"95d89b41","tokenURI(uint256)":"c87b56dd","transferFrom(address,address,uint256)":"23b872dd","transferOwnership(address)":"f2fde38b","unstake(uint256,uint256[])":"395de242"},"id":0}