{"abi":[{"type":"constructor","inputs":[{"name":"stakeERC20","type":"address","internalType":"contract IERC20"},{"name":"stakeERC721","type":"address","internalType":"contract IERC721"},{"name":"rewardToken","type":"address","internalType":"contract IERC20"}],"stateMutability":"nonpayable"},{"type":"function","name":"addReward","inputs":[{"name":"poolId","type":"uint256","internalType":"uint256"},{"name":"rewardToken","type":"address","internalType":"contract IERC20"},{"name":"rewardAmount","type":"uint256","internalType":"uint256"},{"name":"claimAfterBlocks","type":"uint256","internalType":"uint256"},{"name":"isForERC721Stakers","type":"bool","internalType":"bool"}],"outputs":[{"name":"rewardId","type":"uint256","internalType":"uint256"}],"stateMutability":"nonpayable"},{"type":"function","name":"addRewardWithPermit","inputs":[{"name":"poolId","type":"uint256","internalType":"uint256"},{"name":"rewardToken","type":"address","internalType":"contract IERC20"},{"name":"rewardAmount","type":"uint256","internalType":"uint256"},{"name":"claimAfterBlocks","type":"uint256","internalType":"uint256"},{"name":"isForERC721Stakers","type":"bool","internalType":"bool"},{"name":"deadline","type":"uint256","internalType":"uint256"},{"name":"v","type":"uint8","internalType":"uint8"},{"name":"r","type":"bytes32","internalType":"bytes32"},{"name":"s","type":"bytes32","internalType":"bytes32"},{"name":"max","type":"bool","internalType":"bool"}],"outputs":[{"name":"rewardId","type":"uint256","internalType":"uint256"}],"stateMutability":"nonpayable"},{"type":"function","name":"approve","inputs":[{"name":"to","type":"address","internalType":"address"},{"name":"tokenId","type":"uint256","internalType":"uint256"}],"outputs":[],"stateMutability":"nonpayable"},{"type":"function","name":"balanceOf","inputs":[{"name":"owner","type":"address","internalType":"address"}],"outputs":[{"name":"","type":"uint256","internalType":"uint256"}],"stateMutability":"view"},{"type":"function","name":"calculateReward","inputs":[{"name":"staker","type":"address","internalType":"address"},{"name":"poolId","type":"uint256","internalType":"uint256"},{"name":"rewardId","type":"uint256","internalType":"uint256"}],"outputs":[{"name":"","type":"address","internalType":"contract IERC20"},{"name":"","type":"uint256","internalType":"uint256"}],"stateMutability":"view"},{"type":"function","name":"claimRewards","inputs":[{"name":"poolIds","type":"uint256[]","internalType":"uint256[]"},{"name":"rewardIds","type":"uint256[][]","internalType":"uint256[][]"},{"name":"recipient","type":"address","internalType":"address"}],"outputs":[{"name":"tokens","type":"address[][]","internalType":"contract IERC20[][]"},{"name":"amounts","type":"uint256[][]","internalType":"uint256[][]"}],"stateMutability":"nonpayable"},{"type":"function","name":"contractURI","inputs":[],"outputs":[{"name":"","type":"string","internalType":"string"}],"stateMutability":"view"},{"type":"function","name":"editPool","inputs":[{"name":"poolId","type":"uint256","internalType":"uint256"},{"name":"totalMax","type":"uint256","internalType":"uint256"},{"name":"metadata","type":"string","internalType":"string"}],"outputs":[],"stateMutability":"nonpayable"},{"type":"function","name":"getApproved","inputs":[{"name":"tokenId","type":"uint256","internalType":"uint256"}],"outputs":[{"name":"","type":"address","internalType":"address"}],"stateMutability":"view"},{"type":"function","name":"getClaimedAmount","inputs":[{"name":"staker","type":"address","internalType":"address"},{"name":"poolId","type":"uint256","internalType":"uint256"},{"name":"rewardId","type":"uint256","internalType":"uint256"}],"outputs":[{"name":"","type":"uint256","internalType":"uint256"}],"stateMutability":"view"},{"type":"function","name":"getPool","inputs":[{"name":"poolId","type":"uint256","internalType":"uint256"}],"outputs":[{"name":"poolDetails","type":"tuple","internalType":"struct IStaqeStructs.Pool","components":[{"name":"stakeERC20","type":"address","internalType":"contract IERC20"},{"name":"stakeERC721","type":"address","internalType":"contract IERC721"},{"name":"rewardToken","type":"address","internalType":"contract IERC20"},{"name":"totalMax","type":"uint256","internalType":"uint256"},{"name":"totalStakedERC20","type":"uint256","internalType":"uint256"},{"name":"totalStakedERC721","type":"uint256","internalType":"uint256"},{"name":"launchBlock","type":"uint256","internalType":"uint256"}]}],"stateMutability":"view"},{"type":"function","name":"getPool","inputs":[{"name":"staker","type":"address","internalType":"address"},{"name":"poolId","type":"uint256","internalType":"uint256"}],"outputs":[{"name":"poolDetails","type":"tuple","internalType":"struct StaqeDetails.PoolDetails","components":[{"name":"stakeERC20","type":"tuple","internalType":"struct StaqeDetails.Token","components":[{"name":"tokenAddress","type":"address","internalType":"address"},{"name":"name","type":"string","internalType":"string"},{"name":"symbol","type":"string","internalType":"string"},{"name":"decimals","type":"uint256","internalType":"uint256"},{"name":"balance","type":"uint256","internalType":"uint256"},{"name":"isApproved","type":"bool","internalType":"bool"}]},{"name":"stakeERC721","type":"tuple","internalType":"struct StaqeDetails.Token","components":[{"name":"tokenAddress","type":"address","internalType":"address"},{"name":"name","type":"string","internalType":"string"},{"name":"symbol","type":"string","internalType":"string"},{"name":"decimals","type":"uint256","internalType":"uint256"},{"name":"balance","type":"uint256","internalType":"uint256"},{"name":"isApproved","type":"bool","internalType":"bool"}]},{"name":"rewardToken","type":"tuple","internalType":"struct StaqeDetails.Token","components":[{"name":"tokenAddress","type":"address","internalType":"address"},{"name":"name","type":"string","internalType":"string"},{"name":"symbol","type":"string","internalType":"string"},{"name":"decimals","type":"uint256","internalType":"uint256"},{"name":"balance","type":"uint256","internalType":"uint256"},{"name":"isApproved","type":"bool","internalType":"bool"}]},{"name":"owner","type":"address","internalType":"address"},{"name":"tokenURI","type":"string","internalType":"string"},{"name":"totalRewards","type":"uint256","internalType":"uint256"},{"name":"totalStakerStakes","type":"uint256","internalType":"uint256"},{"name":"totalMax","type":"uint256","internalType":"uint256"},{"name":"totalStakedERC20","type":"uint256","internalType":"uint256"},{"name":"totalStakedERC721","type":"uint256","internalType":"uint256"},{"name":"launchBlock","type":"uint256","internalType":"uint256"}]}],"stateMutability":"view"},{"type":"function","name":"getReward","inputs":[{"name":"staker","type":"address","internalType":"address"},{"name":"poolId","type":"uint256","internalType":"uint256"},{"name":"rewardId","type":"uint256","internalType":"uint256"}],"outputs":[{"name":"rewardDetails","type":"tuple","internalType":"struct StaqeDetails.RewardDetails","components":[{"name":"rewardToken","type":"tuple","internalType":"struct StaqeDetails.Token","components":[{"name":"tokenAddress","type":"address","internalType":"address"},{"name":"name","type":"string","internalType":"string"},{"name":"symbol","type":"string","internalType":"string"},{"name":"decimals","type":"uint256","internalType":"uint256"},{"name":"balance","type":"uint256","internalType":"uint256"},{"name":"isApproved","type":"bool","internalType":"bool"}]},{"name":"stakerRewardAmount","type":"uint256","internalType":"uint256"},{"name":"isClaimed","type":"bool","internalType":"bool"},{"name":"isForERC721Stakers","type":"bool","internalType":"bool"},{"name":"rewardAmount","type":"uint256","internalType":"uint256"},{"name":"totalStaked","type":"uint256","internalType":"uint256"},{"name":"claimAfterBlocks","type":"uint256","internalType":"uint256"},{"name":"rewardBlock","type":"uint256","internalType":"uint256"}]}],"stateMutability":"view"},{"type":"function","name":"getReward","inputs":[{"name":"poolId","type":"uint256","internalType":"uint256"},{"name":"rewardId","type":"uint256","internalType":"uint256"}],"outputs":[{"name":"rewardDetails","type":"tuple","internalType":"struct IStaqeStructs.Reward","components":[{"name":"isForERC721Stakers","type":"bool","internalType":"bool"},{"name":"rewardToken","type":"address","internalType":"contract IERC20"},{"name":"rewardAmount","type":"uint256","internalType":"uint256"},{"name":"totalStaked","type":"uint256","internalType":"uint256"},{"name":"claimAfterBlocks","type":"uint256","internalType":"uint256"},{"name":"rewardBlock","type":"uint256","internalType":"uint256"}]}],"stateMutability":"view"},{"type":"function","name":"getRewards","inputs":[{"name":"poolId","type":"uint256","internalType":"uint256"}],"outputs":[{"name":"","type":"tuple[]","internalType":"struct IStaqeStructs.Reward[]","components":[{"name":"isForERC721Stakers","type":"bool","internalType":"bool"},{"name":"rewardToken","type":"address","internalType":"contract IERC20"},{"name":"rewardAmount","type":"uint256","internalType":"uint256"},{"name":"totalStaked","type":"uint256","internalType":"uint256"},{"name":"claimAfterBlocks","type":"uint256","internalType":"uint256"},{"name":"rewardBlock","type":"uint256","internalType":"uint256"}]}],"stateMutability":"view"},{"type":"function","name":"getStake","inputs":[{"name":"staker","type":"address","internalType":"address"},{"name":"poolId","type":"uint256","internalType":"uint256"},{"name":"stakeId","type":"uint256","internalType":"uint256"}],"outputs":[{"name":"stakeDetails","type":"tuple","internalType":"struct IStaqeStructs.Stake","components":[{"name":"amountERC20","type":"uint256","internalType":"uint256"},{"name":"idERC721","type":"uint256","internalType":"uint256"},{"name":"stakeBlock","type":"uint256","internalType":"uint256"},{"name":"unstakeBlock","type":"uint256","internalType":"uint256"}]}],"stateMutability":"view"},{"type":"function","name":"getStakes","inputs":[{"name":"staker","type":"address","internalType":"address"},{"name":"poolId","type":"uint256","internalType":"uint256"}],"outputs":[{"name":"","type":"tuple[]","internalType":"struct IStaqeStructs.Stake[]","components":[{"name":"amountERC20","type":"uint256","internalType":"uint256"},{"name":"idERC721","type":"uint256","internalType":"uint256"},{"name":"stakeBlock","type":"uint256","internalType":"uint256"},{"name":"unstakeBlock","type":"uint256","internalType":"uint256"}]}],"stateMutability":"view"},{"type":"function","name":"getTotalPools","inputs":[],"outputs":[{"name":"","type":"uint256","internalType":"uint256"}],"stateMutability":"view"},{"type":"function","name":"isApprovedForAll","inputs":[{"name":"owner","type":"address","internalType":"address"},{"name":"operator","type":"address","internalType":"address"}],"outputs":[{"name":"","type":"bool","internalType":"bool"}],"stateMutability":"view"},{"type":"function","name":"launchPool","inputs":[{"name":"stakeERC20","type":"address","internalType":"contract IERC20"},{"name":"stakeERC721","type":"address","internalType":"contract IERC721"},{"name":"rewardToken","type":"address","internalType":"contract IERC20"},{"name":"totalMax","type":"uint256","internalType":"uint256"},{"name":"metadata","type":"string","internalType":"string"}],"outputs":[{"name":"poolId","type":"uint256","internalType":"uint256"}],"stateMutability":"nonpayable"},{"type":"function","name":"name","inputs":[],"outputs":[{"name":"","type":"string","internalType":"string"}],"stateMutability":"view"},{"type":"function","name":"owner","inputs":[],"outputs":[{"name":"","type":"address","internalType":"address"}],"stateMutability":"view"},{"type":"function","name":"ownerOf","inputs":[{"name":"tokenId","type":"uint256","internalType":"uint256"}],"outputs":[{"name":"","type":"address","internalType":"address"}],"stateMutability":"view"},{"type":"function","name":"renounceOwnership","inputs":[],"outputs":[],"stateMutability":"nonpayable"},{"type":"function","name":"safeTransferFrom","inputs":[{"name":"from","type":"address","internalType":"address"},{"name":"to","type":"address","internalType":"address"},{"name":"tokenId","type":"uint256","internalType":"uint256"}],"outputs":[],"stateMutability":"nonpayable"},{"type":"function","name":"safeTransferFrom","inputs":[{"name":"from","type":"address","internalType":"address"},{"name":"to","type":"address","internalType":"address"},{"name":"tokenId","type":"uint256","internalType":"uint256"},{"name":"data","type":"bytes","internalType":"bytes"}],"outputs":[],"stateMutability":"nonpayable"},{"type":"function","name":"setApprovalForAll","inputs":[{"name":"operator","type":"address","internalType":"address"},{"name":"approved","type":"bool","internalType":"bool"}],"outputs":[],"stateMutability":"nonpayable"},{"type":"function","name":"setContractURI","inputs":[{"name":"newURI","type":"string","internalType":"string"}],"outputs":[],"stateMutability":"nonpayable"},{"type":"function","name":"stake","inputs":[{"name":"poolId","type":"uint256","internalType":"uint256"},{"name":"amount","type":"uint256","internalType":"uint256"},{"name":"id","type":"uint256","internalType":"uint256"}],"outputs":[{"name":"stakeId","type":"uint256","internalType":"uint256"}],"stateMutability":"nonpayable"},{"type":"function","name":"stakeWithPermit","inputs":[{"name":"poolId","type":"uint256","internalType":"uint256"},{"name":"amount","type":"uint256","internalType":"uint256"},{"name":"deadline","type":"uint256","internalType":"uint256"},{"name":"v","type":"uint8","internalType":"uint8"},{"name":"r","type":"bytes32","internalType":"bytes32"},{"name":"s","type":"bytes32","internalType":"bytes32"},{"name":"max","type":"bool","internalType":"bool"}],"outputs":[{"name":"stakeId","type":"uint256","internalType":"uint256"}],"stateMutability":"nonpayable"},{"type":"function","name":"supportsInterface","inputs":[{"name":"interfaceId","type":"bytes4","internalType":"bytes4"}],"outputs":[{"name":"","type":"bool","internalType":"bool"}],"stateMutability":"view"},{"type":"function","name":"symbol","inputs":[],"outputs":[{"name":"","type":"string","internalType":"string"}],"stateMutability":"view"},{"type":"function","name":"tokenInfo","inputs":[{"name":"user","type":"address","internalType":"address"},{"name":"ierc20","type":"address","internalType":"contract IERC20"},{"name":"ierc721","type":"address","internalType":"contract IERC721"}],"outputs":[{"name":"token","type":"tuple","internalType":"struct StaqeDetails.Token","components":[{"name":"tokenAddress","type":"address","internalType":"address"},{"name":"name","type":"string","internalType":"string"},{"name":"symbol","type":"string","internalType":"string"},{"name":"decimals","type":"uint256","internalType":"uint256"},{"name":"balance","type":"uint256","internalType":"uint256"},{"name":"isApproved","type":"bool","internalType":"bool"}]}],"stateMutability":"view"},{"type":"function","name":"tokenURI","inputs":[{"name":"tokenId","type":"uint256","internalType":"uint256"}],"outputs":[{"name":"","type":"string","internalType":"string"}],"stateMutability":"view"},{"type":"function","name":"transferFrom","inputs":[{"name":"from","type":"address","internalType":"address"},{"name":"to","type":"address","internalType":"address"},{"name":"tokenId","type":"uint256","internalType":"uint256"}],"outputs":[],"stateMutability":"nonpayable"},{"type":"function","name":"transferOwnership","inputs":[{"name":"newOwner","type":"address","internalType":"address"}],"outputs":[],"stateMutability":"nonpayable"},{"type":"function","name":"unstake","inputs":[{"name":"poolId","type":"uint256","internalType":"uint256"},{"name":"stakeIds","type":"uint256[]","internalType":"uint256[]"}],"outputs":[{"name":"amountERC20","type":"uint256","internalType":"uint256"},{"name":"idsERC721","type":"uint256[]","internalType":"uint256[]"}],"stateMutability":"nonpayable"},{"type":"event","name":"Approval","inputs":[{"name":"owner","type":"address","indexed":true,"internalType":"address"},{"name":"approved","type":"address","indexed":true,"internalType":"address"},{"name":"tokenId","type":"uint256","indexed":true,"internalType":"uint256"}],"anonymous":false},{"type":"event","name":"ApprovalForAll","inputs":[{"name":"owner","type":"address","indexed":true,"internalType":"address"},{"name":"operator","type":"address","indexed":true,"internalType":"address"},{"name":"approved","type":"bool","indexed":false,"internalType":"bool"}],"anonymous":false},{"type":"event","name":"BatchMetadataUpdate","inputs":[{"name":"_fromTokenId","type":"uint256","indexed":false,"internalType":"uint256"},{"name":"_toTokenId","type":"uint256","indexed":false,"internalType":"uint256"}],"anonymous":false},{"type":"event","name":"Claimed","inputs":[{"name":"staker","type":"address","indexed":true,"internalType":"address"},{"name":"poolId","type":"uint256","indexed":true,"internalType":"uint256"}],"anonymous":false},{"type":"event","name":"ContractURIUpdated","inputs":[],"anonymous":false},{"type":"event","name":"Launched","inputs":[{"name":"launcher","type":"address","indexed":true,"internalType":"address"},{"name":"poolId","type":"uint256","indexed":true,"internalType":"uint256"}],"anonymous":false},{"type":"event","name":"MetadataUpdate","inputs":[{"name":"_tokenId","type":"uint256","indexed":false,"internalType":"uint256"}],"anonymous":false},{"type":"event","name":"OwnershipTransferred","inputs":[{"name":"previousOwner","type":"address","indexed":true,"internalType":"address"},{"name":"newOwner","type":"address","indexed":true,"internalType":"address"}],"anonymous":false},{"type":"event","name":"Rewarded","inputs":[{"name":"rewarder","type":"address","indexed":true,"internalType":"address"},{"name":"poolId","type":"uint256","indexed":true,"internalType":"uint256"},{"name":"rewardId","type":"uint256","indexed":true,"internalType":"uint256"}],"anonymous":false},{"type":"event","name":"Staked","inputs":[{"name":"staker","type":"address","indexed":true,"internalType":"address"},{"name":"poolId","type":"uint256","indexed":true,"internalType":"uint256"},{"name":"stakeId","type":"uint256","indexed":true,"internalType":"uint256"}],"anonymous":false},{"type":"event","name":"Transfer","inputs":[{"name":"from","type":"address","indexed":true,"internalType":"address"},{"name":"to","type":"address","indexed":true,"internalType":"address"},{"name":"tokenId","type":"uint256","indexed":true,"internalType":"uint256"}],"anonymous":false},{"type":"event","name":"Unstaked","inputs":[{"name":"staker","type":"address","indexed":true,"internalType":"address"},{"name":"poolId","type":"uint256","indexed":true,"internalType":"uint256"}],"anonymous":false},{"type":"error","name":"ERC721IncorrectOwner","inputs":[{"name":"sender","type":"address","internalType":"address"},{"name":"tokenId","type":"uint256","internalType":"uint256"},{"name":"owner","type":"address","internalType":"address"}]},{"type":"error","name":"ERC721InsufficientApproval","inputs":[{"name":"operator","type":"address","internalType":"address"},{"name":"tokenId","type":"uint256","internalType":"uint256"}]},{"type":"error","name":"ERC721InvalidApprover","inputs":[{"name":"approver","type":"address","internalType":"address"}]},{"type":"error","name":"ERC721InvalidOperator","inputs":[{"name":"operator","type":"address","internalType":"address"}]},{"type":"error","name":"ERC721InvalidOwner","inputs":[{"name":"owner","type":"address","internalType":"address"}]},{"type":"error","name":"ERC721InvalidReceiver","inputs":[{"name":"receiver","type":"address","internalType":"address"}]},{"type":"error","name":"ERC721InvalidSender","inputs":[{"name":"sender","type":"address","internalType":"address"}]},{"type":"error","name":"ERC721NonexistentToken","inputs":[{"name":"tokenId","type":"uint256","internalType":"uint256"}]},{"type":"error","name":"InvalidAmountOrId","inputs":[]},{"type":"error","name":"InvalidERC721Token","inputs":[]},{"type":"error","name":"InvalidMetadata","inputs":[]},{"type":"error","name":"InvalidRewardToken","inputs":[]},{"type":"error","name":"InvalidStakeId","inputs":[]},{"type":"error","name":"InvalidStakeToken","inputs":[]},{"type":"error","name":"MoreThanTheTotalMaxTokens","inputs":[]},{"type":"error","name":"OnlyAvailableToStakersInGenesis","inputs":[]},{"type":"error","name":"OnlyOwnerHasAccessToAddRewards","inputs":[]},{"type":"error","name":"OnlyOwnerHasAccessToEditMetadata","inputs":[]},{"type":"error","name":"OwnableInvalidOwner","inputs":[{"name":"owner","type":"address","internalType":"address"}]},{"type":"error","name":"OwnableUnauthorizedAccount","inputs":[{"name":"account","type":"address","internalType":"address"}]},{"type":"error","name":"PoolDoesNotExist","inputs":[]},{"type":"error","name":"PoolDoesNotHaveStakes","inputs":[]},{"type":"error","name":"ReentrancyGuardReentrantCall","inputs":[]},{"type":"error","name":"RewardAlreadyClaimed","inputs":[]},{"type":"error","name":"RewardIsEmpty","inputs":[]},{"type":"error","name":"RewardIsNotYetAvailableForClaim","inputs":[]},{"type":"error","name":"RewardNotFoundInPool","inputs":[]},{"type":"error","name":"RewardTransferFailed","inputs":[]},{"type":"error","name":"StakeAlreadyUnstaked","inputs":[]},{"type":"error","name":"StakeOnNextBlockAfterReward","inputs":[]},{"type":"error","name":"StakeTransferFailed","inputs":[]},{"type":"error","name":"StakerDoesNotHaveStakesInPool","inputs":[]},{"type":"error","name":"TotalMaxForOnlyOneTypeOfToken","inputs":[]},{"type":"error","name":"UnstakeOnNextBlockAndGetReward","inputs":[]},{"type":"error","name":"UnstakeTransferFailed","inputs":[]}],"bytecode":{"object":"0x6080346200043757601f1990601f62004b543881900382810185168401936001600160401b0393929091908486118387101762000421578160609284926040988952833981010312620004375762000057816200045c565b94602092838301519060018060a01b03938483168093036200043757876200008091016200045c565b906200008b6200043c565b94600b86526a537461716520506f6f6c7360a81b87870152620000ad6200043c565b936003958686526253545160e81b8987015287518a81116200042157806000998a8c620000db825462000471565b89808211620003f0575b505050508b908783116001146200038c578b9262000380575b50508160011b91600019908a1b1c19161788555b8551908a82116200036c5781906001978a8c620001308b5462000471565b898c8183116200032f575b50505050508b91878411600114620002ce57508a92620002c2575b505060001982891b1c191690861b1785555b3315620002aa57600780546001600160a01b03198082163390811790935594919084167f8be0079c531659141344cd1fd0a4f28419497f9722a3daafe3b4186f6b6457e08a80a3620001bc60085462000471565b81811162000288575b505060006008558460095589519860e08a01908a82109082111762000274578a9b83918b9c9b999a9b52168752888701908152818b880194168452816060880195898752818d8b60808c019b818d5260a081019d8e5260c0019d8e439052818052600b9052209c5116858d5416178c558b0191511683825416179055600289019251169082541617905551908501555160048401555160058301555190600601555161468c9081620004c88239f35b634e487b7160e01b88526041600452602488fd5b620002a29160088a528a8a20910160051c810190620004ae565b3880620001c5565b8951631e4fbdf760e01b815260048101889052602490fd5b01519050388062000156565b898c528c8c208a9590939291168c8e5b828210620003175750508411620002fe575b505050811b01855562000168565b0151600019838b1b60f8161c19169055388080620002f0565b8385015186558c979095019493840193018e620002de565b848491620003579652209181880160051c830193881062000362575b0160051c0190620004ae565b8a8c38898c6200013b565b925081926200034b565b634e487b7160e01b89526041600452602489fd5b015190503880620000fe565b8b80528c8c209285168c8e5b828210620003d8575050908460019594939210620003bf575b505050811b01885562000112565b0151600019838c1b60f8161c19169055388080620003b1565b60018596829396860151815501950193018e62000398565b828480620004179652209181870160051c830193871062000362570160051c0190620004ae565b8a8c3889620000e5565b634e487b7160e01b600052604160045260246000fd5b600080fd5b60408051919082016001600160401b038111838210176200042157604052565b51906001600160a01b03821682036200043757565b90600182811c92168015620004a3575b60208310146200048d57565b634e487b7160e01b600052602260045260246000fd5b91607f169162000481565b818110620004ba575050565b60008155600101620004ae56fe6080604052600436101561001257600080fd5b60003560e01c8062936c9a14612cbf57806301ffc9a714612c3757806304e4d71114612b74578063068bcd8d14612b0557806306fdde0314612a62578063081812fc14612a24578063095ea7b31461293d57806323b872dd146129265780632c32c360146128f75780633025ec6d1461261b578063395de242146121325780633a2e17471461204957806342842e0e1461201b5780634cb8a68b14611f2757806350f9b39e14611d295780635b5b9ea2146118a55780635ea6bda11461185e5780636352211e1461182e57806370a08231146117d5578063715018a6146117785780637ebfee3e146117395780638da5cb5b14611710578063938e3d7b1461157057806395d89b41146114cd57806399a47faa14610e98578063a22cb46514610dea578063a638f2e214610a74578063b88d4fde14610a08578063b90bc5191461099f578063c0d8012c146108aa578063c87b56dd1461088b578063d33560e6146107c3578063d3ffe67a146107a5578063e8a3d485146106c3578063e985e9c51461066d578063f2fde38b146105df5763fa37c3ca146101b257600080fd5b34610383576060366003190112610383576101cb6130d1565b6101d36130fd565b6101db6130e7565b6101e3613dbd565b916001600160a01b03908116801592908315806105d5575b6103d7575b5081169182151590816103cf575b5061022e575b6040516020808252819061022a90820186613345565b0390f35b6040516306fdde0360e01b8152919250600082600481865afa91821561034d576000926103b2575b506040516395d89b4160e01b8152600081600481875afa90811561034d5760009161038f575b506040516370a0823160e01b815291851660048301526020928383602481885afa92831561034d57600093610359575b5060405163e985e9c560e01b81526001600160a01b039690961660048701523060248701528386604481885afa93841561034d5761022a9660009561031e575b50604051956102fa87613194565b86528501526040840152600060608401526080830152151560a08201523880610214565b8161033f9296503d8711610346575b61033781836131ca565b81019061360d565b93386102ec565b503d61032d565b6040513d6000823e3d90fd5b9592508386813d8311610388575b61037181836131ca565b810103126103835794519194836102ac565b600080fd5b503d610367565b6103ac91503d806000833e6103a481836131ca565b810190613df0565b3861027c565b6103c89192503d806000833e6103a481836131ca565b9038610256565b90503861020e565b6040516306fdde0360e01b8152919450600082600481845afa91821561034d576000926105b8575b506040516395d89b4160e01b815291600083600481855afa92831561034d5760009361059b575b5060405163313ce56760e01b8152602091908281600481875afa90811561034d57600091610564575b506040516370a0823160e01b81528987166004820152948386602481885afa92831561034d57600093610533575b604051636eb1769f60e11b81526001600160a01b038c1660048201523060248201529650848780604481015b0381895afa94851561034d5788976000966104f8575b509060ff939291604051976104d389613194565b8852870152604086015216606084015260808301526000191460a08201529390610200565b809493929850818097503d831161052c575b61051481836131ca565b8101031261038357879660ff935195909192936104bf565b503d61050a565b92508386813d831161055d575b61054a81836131ca565b81010312610383576104a995519261047d565b503d610540565b90508281813d8311610594575b61057b81836131ca565b81010312610383575160ff81168103610383573861044f565b503d610571565b6105b19193503d806000833e6103a481836131ca565b9138610426565b6105ce9192503d806000833e6103a481836131ca565b90386103ff565b50828216156101fb565b34610383576020366003190112610383576105f86130d1565b6106006140c1565b6001600160a01b0390811690811561065457600754826bffffffffffffffffffffffff60a01b821617600755167f8be0079c531659141344cd1fd0a4f28419497f9722a3daafe3b4186f6b6457e0600080a3005b604051631e4fbdf760e01b815260006004820152602490fd5b34610383576040366003190112610383576106866130d1565b61068e6130fd565b9060018060a01b03809116600052600560205260406000209116600052602052602060ff604060002054166040519015158152f35b346103835760003660031901126103835760405160006008546106e581614087565b8084529060019081811690811561077e5750600114610723575b61022a8461070f818603826131ca565b60405191829160208352602083019061327e565b6008600090815292507ff3f7a9fe364faab93b216da50a3214154f22a0a2b415b23a84c8169e8b636ee35b82841061076657505050810160200161070f826106ff565b8054602085870181019190915290930192810161074e565b60ff191660208087019190915292151560051b8501909201925061070f91508390506106ff565b34610383576000366003190112610383576020600a54604051908152f35b346103835760806107d3366132d8565b6040519192916107e281613179565b600081526000602082015260006040820152600060608201529160018060a01b03169283600052600d6020526040600020816000526020526040600020548210610856575b84836108546040518092606080918051845260208101516020850152604081015160408501520151910152565bf35b61087d925061088393600052600d6020526040600020906000526020526040600020613596565b506135b2565b808380610827565b346103835760203660031901126103835761022a61070f6004356143f9565b346103835760208060031936011261038357600435600052600c815260406000209081546108d7816133a2565b906108e560405192836131ca565b8082528282018094600052836000206000915b8383106109825760408051878152865181890181905289928201908960005b8281106109245784840385f35b9091928260c0826109736001948a5160a08091805115158452600180831b0360208201511660208501526040810151604085015260608101516060850152608081015160808501520151910152565b01960191019492919094610917565b600586600192610991856134e5565b8152019201920191906108f8565b346103835760403660031901126103835760c06109c0602435600435613539565b610854604051809260a08091805115158452600180831b0360208201511660208501526040810151604085015260608101516060850152608081015160808501520151910152565b3461038357608036600319011261038357610a216130d1565b610a296130fd565b90604435606435926001600160401b038411610383573660238501121561038357610a61610a72943690602481600401359101613206565b92610a6d8383836140ed565b6142b1565b005b34610383576060366003190112610383576000604435602435600435610a98614633565b80600052602093600b8552604060002093600685015415610dd85783159485159580610dd0575b610dbe5783600052600c8752604060002080548015159182610d97575b5050610d855733600052600d875260406000208460005287528560406000205496610d6f575b8215159586610d41575b600383015480610cf6575b5033600052600d8952604060002086600052895260406000209060405191610b3e83613179565b8183528a83019286845260408101914383526060820190600082528054600160401b811015610ce057610b7691600182018155613596565b939093610cca578d956003935185555160018501555160028401555191015582610c5a575b5050610c48578594610bdc575b50507f1449c6dd7851abc30abf37f57715f492010519147cc2652fbc38202c18a6ee90339180a46001600955604051908152f35b600101549093506001600160a01b0316803b15610383576040516323b872dd60e01b815233600482015230602482015260448101949094526000908490606490829084905af192831561034d578493610c36575b80610ba8565b610c40915061312e565b600085610c30565b604051631231ec2f60e21b8152600490fd5b83546040516323b872dd60e01b81523360048201523060248201526044810192909252909250829060649082906000906001600160a01b03165af190811561034d57600091610cad575b50158789610b9b565b610cc49150883d8a116103465761033781836131ca565b88610ca4565b634e487b7160e01b600052600060045260246000fd5b634e487b7160e01b600052604160045260246000fd5b8280610d34575b610d1457879081610d26575b50610d145789610b17565b604051636dce347360e11b8152600490fd5b90506005840154118a610d09565b5080600485015411610cfd565b6005830180549060018201809211610d595755610b0c565b634e487b7160e01b600052601160045260246000fd5b60048201610d7e878254613600565b9055610b02565b604051630485995160e51b8152600490fd5b60001982019250908211610d5957600491610db1916134b3565b5001544311158880610adc565b604051633b91be2160e21b8152600490fd5b508115610abf565b6040516302721e1f60e61b8152600490fd5b3461038357604036600319011261038357610e036130d1565b6024359081151590818303610383576001600160a01b0316918215610e7f57610e519033600052600560205260406000208460005260205260406000209060ff801983541691151516179055565b6040519081527f17307eab39ab6107e8899845ad3d59bd9653f200f220920489ca2b5937696c3160203392a3005b604051630b61174360e31b815260048101849052602490fd5b34610383576060366003190112610383576001600160401b0360043581811161038357610ec99036906004016133b9565b602491823590808211610383573660238301121561038357816004013593610ef0856133a2565b94610efe60405196876131ca565b80865281602087019160051b8501019236841161038357828501915b8483106114a6578787610f2b6130e7565b610f33614633565b6001600160a01b0381161561149f575b815190610f79610f52836133a2565b92610f6060405194856131ca565b808452610f6f601f19916133a2565b0160208401613981565b825193610faf610f88866133a2565b95610f9660405197886131ca565b808752610fa5601f19916133a2565b0160208701613981565b6000915b84518310156110d157610fc6838361392b565b5151610fd1816133a2565b90610fdf60405192836131ca565b808252610fee601f19916133a2565b01366020830137610fff848661392b565b5261100a838561392b565b5061101f611018848461392b565b515161393f565b611029848861392b565b52611034838761392b565b5083868660005b611045878761392b565b51518110156110bd5780846110a6828a806110a0836110826110988f611090906110886110b89d8f8961107b816110829361392b565b519461392b565b5161392b565b5190336139be565b95909961392b565b51948c61392b565b5261392b565b6001600160a01b0390911690526135e4565b61103b565b50505050916110cb906135e4565b91610fb3565b858583866000945b83518610156111655760005b6110ef878561392b565b5151811015611154578061110a61114f926110828a8a61392b565b5133600052600e60205260406000206111238a8961392b565b51600052602052604060002061113d836110828c8a61392b565b516000526020526040600020556135e4565b6110e5565b509461115f906135e4565b946110d9565b60009085855b805184101561139f5761117e848261392b565b516000908152600b60205260409020600201546001600160a01b0316806112d8575060005b6111ad858861392b565b5151811015611295576111c481611082878661392b565b51801561128357600090602090611224906001600160a01b036111eb866110828c8e61392b565b5160405163a9059cbb60e01b81526001600160a01b038b1660048201526024810193909352919485939190921691839182906044820190565b03925af190811561034d57600091611264575b5015611252578461124a6111ad926135e4565b9150506111a3565b60405163078ecf4160e41b8152600490fd5b61127d915060203d6020116103465761033781836131ca565b88611237565b604051635f65f16560e11b8152600490fd5b50926112d2905b6112a6818661392b565b51337fd8138f8a3f377c5259ca548e70e4c2de94f129f5a11036a15b69513cba2b426a600080a36135e4565b9261116b565b90919260009695966000905b6112ee878961392b565b515182101561131f576113136113199161130c846110828b8b61392b565b5190613600565b916135e4565b906112e4565b9194939592905096959681156112835760405163a9059cbb60e01b81526001600160a01b03861660048201526024810192909252602090829060449082906000905af190811561034d57600091611380575b5015611252576112d29061129c565b611399915060203d6020116103465761033781836131ca565b87611371565b508360018060095560405191604083016040845281518091526060840190602060608260051b8701019301916000905b82821061143857505050508281036020840152835180825260208201916020808360051b8301019601926000915b83831061140a5786880387f35b9091929394602080611427839a601f198682030187528951613311565b9997019594919091019201906113fd565b9091929394809795605f19888203018352855190602080835192838152019201906000905b8481831061147e5750505050602080919601920192019092919694966113cf565b83516001600160a01b0316855260209485019490930192919091019061145d565b5033610f43565b8235828111610383576020916114c283928736918b01016133b9565b815201920191610f1a565b3461038357600036600319011261038357604051600060018054906114f182614087565b8085529181811690811561077e57506001146115175761022a8461070f818603826131ca565b600081815292507fb10e2d527612073b26eecdfd717e6a320cf44b4afac2b0732d9fcbe2b7fa0cf65b82841061155857505050810160200161070f826106ff565b80546020858701810191909152909301928101611540565b3461038357602080600319360112610383576001600160401b03600435818111610383576115a290369060040161323d565b916115ab6140c1565b8251918211610ce0576115bf600854614087565b601f81116116ac575b5080601f83116001146116285750819260009261161d575b50508160011b916000199060031b1c1916176008555b7fa5d4097edda6d87cb9329af83fb3712ef77eeb13738ffe43cc35a4ce305ad962600080a1005b0151905082806115e0565b90601f1983169360086000527ff3f7a9fe364faab93b216da50a3214154f22a0a2b415b23a84c8169e8b636ee3926000905b868210611694575050836001951061167b575b505050811b016008556115f6565b015160001960f88460031b161c1916905582808061166d565b8060018596829496860151815501950193019061165a565b60086000527ff3f7a9fe364faab93b216da50a3214154f22a0a2b415b23a84c8169e8b636ee3601f840160051c810191838510611706575b601f0160051c01905b8181106116fa57506115c8565b600081556001016116ed565b90915081906116e4565b34610383576000366003190112610383576007546040516001600160a01b039091168152602090f35b346103835760a03660031901126103835760206117706117576130fd565b61175f613302565b906064359060443590600435613625565b604051908152f35b34610383576000366003190112610383576117916140c1565b600780546001600160a01b031981169091556000906001600160a01b03167f8be0079c531659141344cd1fd0a4f28419497f9722a3daafe3b4186f6b6457e08280a3005b34610383576020366003190112610383576001600160a01b036117f66130d1565b1680156118155760005260036020526020604060002054604051908152f35b6040516322718ad960e21b815260006004820152602490fd5b3461038357602036600319011261038357602061184c600435614276565b6040516001600160a01b039091168152f35b346103835761186c366132d8565b9160018060a01b0316600052600e6020526040600020906000526020526040600020906000526020526020604060002054604051908152f35b34610383576040366003190112610383576118be6130d1565b60006101406040516118cf8161315d565b6118d7613dbd565b81526118e1613dbd565b60208201526118ee613dbd565b6040820152826060820152606060808201528260a08201528260c08201528260e08201528261010082015282610120820152015261192d602435613417565b8051611942906001600160a01b031683613e4e565b9160018060a01b0360208301511691611959613dbd565b9280151580611d21575b611ba1575b50805161197e906001600160a01b031683613e4e565b9161198a602435614276565b916119966024356143f9565b9160608201519260808301519460a084015196602435600052600c602052604060002080546119c4816133a2565b916119d260405193846131ca565b818352602083019060005260206000206000915b838310611b835750505050519360018060a01b0316600052600d602052604060002060243560005260205260406000208054611a21816133a2565b91611a2f60405193846131ca565b818352602083019060005260206000206000915b838310611b65575050505060c09051950151986040519a611a638c61315d565b8b5260208b015260408a015260018060a01b03166060890152608088015260a087015260c086015260e0850152610100840152610120830152610140820152604051809160208252610140611b23611ac983516101606020870152610180860190613345565b611afc611ae8602086015192601f1993848983030160408a0152613345565b604086015183888303016060890152613345565b9060018060a01b0360608601511660808701526080850151908683030160a087015261327e565b9160a081015160c085015260c081015160e085015260e08101516101008501526101008101516101208501526101208101518285015201516101608301520390f35b60046020600192611b75856135b2565b815201920192019190611a43565b60056020600192611b93856134e5565b8152019201920191906119e6565b6040516306fdde0360e01b815291935090600081600481855afa90811561034d57600091611d06575b506040516395d89b4160e01b8152600081600481865afa90811561034d57600091611ceb575b506040516370a0823160e01b81526001600160a01b038516600482015290602082602481875afa91821561034d57600092611cb7575b5060405163e985e9c560e01b81526001600160a01b038616600482015230602482015292602084604481885afa93841561034d57600094611c96575b5060405194611c7086613194565b855260208501526040840152600060608401526080830152151560a08201529184611968565b611cb091945060203d6020116103465761033781836131ca565b9288611c62565b9091506020813d602011611ce3575b81611cd3602093836131ca565b8101031261038357519087611c26565b3d9150611cc6565b611d0091503d806000833e6103a481836131ca565b86611bf0565b611d1b91503d806000833e6103a481836131ca565b85611bca565b506001611963565b3461038357611d37366132d8565b91604051611d4481613141565b611d4c613dbd565b8152600060e060209282848201528260408201528260608201528260808201528260a08201528260c08201520152611d848484613539565b9160009260009160405196630161961b60e51b885260018060a01b03968783168060048b01528160248b01528260448b015260408a606481305afa8060009b600092611ee2575b50611e8d9b8b91611ecd57505050600052600e86526040600020906000528552604060002090600052845260406000205480611ebf575b50611e18905b8251151596858401511690613e4e565b94604082015160608301519160a060808501519401519460405198611e3c8a613141565b8952868901978852604089019015158152606089019182526080890192835260a0890193845260c0890194855260e08901958652604051998a99888b525161010080998c01526101208b0190613345565b975160408a0152511515606089015251151560808801525160a08701525160c08601525160e085015251908301520390f35b945060019250611e18611e02565b16868901529750611e18939250611e08915050565b9b50905060408b3d604011611f1f575b81611eff604093836131ca565b81010312610383578a519a8a8c168c036103835788015190611e8d611dcb565b3d9150611ef2565b34610383576040366003190112610383576001600160a01b03611f486130d1565b166000526020600d8152604060002060243560005281526040600020908154611f70816133a2565b90611f7e60405192836131ca565b8082528282018094600052836000206000915b838310611ffe5760408051878152865181890181905289928201908960005b828110611fbd5784840385f35b90919282608082611fef6001948a51606080918051845260208101516020850152604081015160408501520151910152565b01960191019492919094611fb0565b60048660019261200d856135b2565b815201920192019190611f91565b3461038357610a7261202c366132a3565b906040519261203a846131af565b60008452610a6d8383836140ed565b3461038357610140366003190112610383576120636130fd565b60443561206e613302565b60c4359260ff841684036103835761012435938415158503610383576001600160a01b038216941561212b57600019905b853b156103835760405163d505accf60e01b8152336004820152306024820152604481019290925260a48035606484015260ff91909116608483015260e48035918301919091526101043560c483015290946000918691829084905af192831561034d576020946117709461211c575b5060643591600435613625565b6121259061312e565b8561210f565b839061209f565b34610383576040366003190112610383576001600160401b038060243511610383573660236024350112156103835760243560040135116103835736602480356004013560051b81350101116103835761218a614633565b600435600052600b6020526040600020604051906121a782613113565b60018060a01b038154168252600660018060a01b03600183015416916020840192835260018060a01b0360028201541660408501526003810154606085015260048101546080850152600581015460a0850152015460c0830152600435600052600c6020526040600020805461221c816133a2565b9161222a60405193846131ca565b818352602083019060005260206000206000915b8383106125fd5750505050805180151591826125d6575b50506125c457600435600052600b602052604060002090600682015415610dd85733600052600d6020526040600020600435600052602052604060002060243560040135159081156125ba575b5061249a5760009160006122bb6024356004013561393f565b9460005b6024356004013581106124b45750841591821592806124ac575b61249a5782612484575b801515938461246c575b505081612401575b506123ef5761234a575b5061022a604051928392600435337f0f5bb82176feb1b5e747e28471aa92156a04d9f3ab9f45f28e2d704232b93f75600080a360016009558352604060208401526040830190613311565b60005b83518110156123e757612360818561392b565b51156123de5781516001600160a01b03169061237c818661392b565b5191803b1561038357604051632142170760e11b815230600482015233602482015260448101939093526000908390606490829084905af191821561034d576123ca926123cf575b506135e4565b61234d565b6123d89061312e565b856123c4565b6123ca906135e4565b5050826122ff565b604051631b9f013160e11b8152600490fd5b5160405163a9059cbb60e01b8152336004820152602481018690529150602090829060449082906000906001600160a01b03165af190811561034d5760009161244d575b5015856122f5565b612466915060203d6020116103465761033781836131ca565b85612445565b600561247b91019182546135f3565b905586806122ed565b600484016124938782546135f3565b90556122e3565b6040516319a089c160e01b8152600490fd5b5080156122d9565b6124c981602435600401356024803501613971565b3533600052600d602052604060002060043560005260205260406000205411156125a85733600052600d6020526040600020600435600052602052612528604060002061252183602435600401356024803501613971565b3590613596565b509560038701541580159061259a575b612588576125506001914360038a0155885490613600565b96015480612568575b50612563906135e4565b6122bf565b81936125819161257b612563948b61392b565b526135e4565b9290612559565b60405163793ef5e960e11b8152600490fd5b504360028801541015612538565b604051639b763f7160e01b8152600490fd5b90505415846122a2565b6040516371f7dfa560e01b8152600490fd5b60001982019250908211610d595760a0916125f09161392b565b5101514311158380612255565b6005602060019261260d856134e5565b81520192019201919061223e565b346103835760e03660031901126103835760643560243560043560ff831683036103835760c4358015158103610383576001600160a01b03938461265e84613417565b511691156128f057600019905b823b156103835760405163d505accf60e01b81523360048201523060248201526044808201939093529135606483015260ff166084808301919091523560a4808301919091523560c482015290600090829060e490829084905af1801561034d576128e1575b506126da614633565b80600052602092600b84526040600020600681015415610dd857831593841594806128d9575b610dbe5783600052600c86526040600020805480151591826128b2575b5050610d8557849233600052600d875260406000208560005287526040600020549561289c575b8360038401548061287c575b505033600052600d875260406000208560005287526040600020926040519361277885613179565b838552888501946000865260408101914383526060820190600082528054600160401b811015610ce0576127b191600182018155613596565b939093610cca578b976003935185555160018501555160028401555191015584612813575b50505050610c48578190337f1449c6dd7851abc30abf37f57715f492010519147cc2652fbc38202c18a6ee90600080a46001600955604051908152f35b546040516323b872dd60e01b8152336004820152306024820152604481019390935291935083916064918391600091165af190811561034d5760009161285f575b5015838580806127d6565b6128769150843d86116103465761033781836131ca565b84612854565b8161288e575b50610d14578388612750565b905060048401541188612882565b600483016128ab838254613600565b9055612744565b60001982019250908211610d59576004916128cc916134b3565b500154431115878061271d565b506001612700565b6128ea9061312e565b836126d1565b839061266b565b3461038357604061291061290a366132d8565b916139be565b82516001600160a01b0390921682526020820152f35b3461038357610a72612937366132a3565b916140ed565b34610383576040366003190112610383576129566130d1565b60243561296281614276565b33151580612a11575b806129e4575b6129cc576001600160a01b039283169282918491167f8c5be1e5ebec7d5bd14f71427d1e84f3dd0314c0f7b2291e5b200ac8c7c3b925600080a4600090815260046020526040902080546001600160a01b0319169091179055005b60405163a9fbf51f60e01b8152336004820152602490fd5b5060018060a01b038116600052600560205260406000203360005260205260ff6040600020541615612971565b506001600160a01b03811633141561296b565b3461038357602036600319011261038357600435612a4181614276565b506000526004602052602060018060a01b0360406000205416604051908152f35b346103835760003660031901126103835760405160008054612a8381614087565b8084529060019081811690811561077e5750600114612aac5761022a8461070f818603826131ca565b600080805292507f290decd9548b62a8d60345a988386fc84ba6bc95484008f6362f93160ef3e5635b828410612aed57505050810160200161070f826106ff565b80546020858701810191909152909301928101612ad5565b346103835760203660031901126103835760e0612b23600435613417565b60c06040519160018060a01b038082511684528060208301511660208501526040820151166040840152606081015160608401526080810151608084015260a081015160a0840152015160c0820152f35b34610383576060366003190112610383576024356004356044356001600160401b03811161038357612baa90369060040161323d565b90612bb3614633565b80600052600b602052604060002092600684015415610dd857825115612c2557612bdc82614276565b336001600160a01b0390911603612c13576003612c04940180548211612c0b575b50506144be565b6001600955005b558380612bfd565b60405163982cbfb960e01b8152600490fd5b604051635e765b2560e11b8152600490fd5b346103835760203660031901126103835760043563ffffffff60e01b811680910361038357602090632483248360e11b8114908115612c7c575b506040519015158152f35b6380ac58cd60e01b811491508115612cae575b8115612c9d575b5082612c71565b6301ffc9a760e01b14905082612c96565b635b5e139f60e01b81149150612c8f565b346103835760a036600319011261038357612cd86130d1565b612ce06130fd565b612ce86130e7565b90606435926084356001600160401b03811161038357612d0c90369060040161323d565b90612d15614633565b612d1e33613c77565b156130bf576001600160a01b0392831691821580159283806130af575b61309d57851692831580928193613095575b5061308357825115612c2557871515918261307a575b5081613072575b5061306057612e2a916006612d80600a546135e4565b9687600a5560405192612d9284613113565b835260209889840196875287604085019216825260608401908152608084016000815260a08501916000835260c08601934385528b600052600b8d528a6040600020975116996bffffffffffffffffffffffff60a01b9a8b8954161788558b600189019151168b8254161790558a600288019151168a82541617905551600386015551600485015551600584015551910155846144be565b60405191612e37836131af565b6000835233156130475783908160005260028652604060002054168015159283613014575b33600052600387526040600020600181540190558260005260028752604060002090339082541617905533907fddf252ad1be2c89b69c2b068fc378daa952ba7f163c4a11628f55a4df523b3ef600080a4612ffb57333b612eed575b506040519080337f8ad1ba2dbd33c6313fa50cd4016351a36437d7dcd0e0800a3a0b191d22095d93600080a360016009558152f35b604051838180612f26630a85bd0160e11b958683523360048401526000602484015287604484015260806064840152608483019061327e565b03816000335af160009181612fbb575b50612f8e57833d15612f87573d612f4c816131eb565b90612f5a60405192836131ca565b81523d60008383013e5b80519182612f8457604051633250574960e11b8152336004820152602490fd5b01fd5b6060612f64565b6001600160e01b03191603612fa35782612eb8565b604051633250574960e11b8152336004820152602490fd5b9091508481813d8311612ff4575b612fd381836131ca565b8101031261038357516001600160e01b031981168103610383579085612f36565b503d612fc9565b6040516339e3563760e11b815260006004820152602490fd5b60008381526004602052604080822080546001600160a01b03191690558382526003895290208054600019019055612e5c565b604051633250574960e11b815260006004820152602490fd5b60405163df9c3d7d60e01b8152600490fd5b905087612d6a565b15915088612d63565b6040516314ec381360e11b8152600490fd5b905089612d4d565b6040516366a0777760e01b8152600490fd5b506130b985613d59565b15612d3b565b6040516358fd19b960e11b8152600490fd5b600435906001600160a01b038216820361038357565b604435906001600160a01b038216820361038357565b602435906001600160a01b038216820361038357565b60e081019081106001600160401b03821117610ce057604052565b6001600160401b038111610ce057604052565b61010081019081106001600160401b03821117610ce057604052565b61016081019081106001600160401b03821117610ce057604052565b608081019081106001600160401b03821117610ce057604052565b60c081019081106001600160401b03821117610ce057604052565b602081019081106001600160401b03821117610ce057604052565b90601f801991011681019081106001600160401b03821117610ce057604052565b6001600160401b038111610ce057601f01601f191660200190565b929192613212826131eb565b9161322060405193846131ca565b829481845281830111610383578281602093846000960137010152565b9080601f830112156103835781602061325893359101613206565b90565b60005b83811061326e5750506000910152565b818101518382015260200161325e565b906020916132978151809281855285808601910161325b565b601f01601f1916010190565b6060906003190112610383576001600160a01b0390600435828116810361038357916024359081168103610383579060443590565b6060906003190112610383576004356001600160a01b038116810361038357906024359060443590565b60843590811515820361038357565b90815180825260208080930193019160005b828110613331575050505090565b835185529381019392810192600101613323565b9060018060a01b03825116815260a080613383613371602086015160c0602087015260c086019061327e565b6040860151858203604087015261327e565b9360608101516060850152608081015160808501520151151591015290565b6001600160401b038111610ce05760051b60200190565b81601f82011215610383578035916133d0836133a2565b926133de60405194856131ca565b808452602092838086019260051b820101928311610383578301905b828210613408575050505090565b813581529083019083016133fa565b60c0604091825161342781613113565b600092818480935282602082015282868201528260608201528260808201528260a082015201528152600b6020522060066040519161346583613113565b80546001600160a01b03908116845260018201548116602085015260028201541660408401526003810154606084015260048101546080840152600581015460a0840152015460c082015290565b80548210156134cf576000526005602060002091020190600090565b634e487b7160e01b600052603260045260246000fd5b906040516134f281613194565b825460ff81161515825260081c6001600160a01b031660208201526001830154604082015260028301546060820152600383015460808201526004929092015460a0830152565b91906040805161354881613194565b60009081815281602082015281838201528160608201528160808201528160a0820152948152600c6020522080548210613580575050565b61325892935090613590916134b3565b506134e5565b80548210156134cf5760005260206000209060021b0190600090565b906040516135bf81613179565b6060600382948054845260018101546020850152600281015460408501520154910152565b6000198114610d595760010190565b91908203918211610d5957565b91908201809211610d5957565b90816020910312610383575180151581036103835790565b91909493613631614633565b85600092848452602091600b83526040938486209785519061365282613113565b600160a01b60019003808b541683528060018c015416878401528060028c01541688840190815260038c0154606085015260049d8e8d0154948d60808201968752600501549d60a082019e8f526006015460c0819201521561391b5782161561390b57861580156138f8575b6138e8576136cb8b614276565b82339116036138d85784806138cf575b80156138bd575b6138ad57518116806138a5575b50898952600c875287892080549b8c94861561389c575051915b89519561371587613194565b15158652888601961695868152898601918883526060870193845260808701948552600160401b60a08801964388521015613888578d61375a916001820181556134b3565b96909661387557928f93926137f1999795926137888c9a9895511515889060ff801983541691151516179055565b518654610100600160a81b03191660089190911b610100600160a81b03161786555160018601555160028501555160038401555191015585516323b872dd60e01b815233818d019081523060208201526040810193909352938492839189918391606090910190565b03925af191821561386857849261384b575b50501561383c5750829394507f291e8ba3c0f4b0bd86e6e2346fcee1e7ca0975b1cc1886bfbc722d34f3f24d91339180a4906001600955565b5163078ecf4160e41b81528590fd5b6138619250803d106103465761033781836131ca565b3880613803565b50505051903d90823e3d90fd5b8f8c80602492634e487b7160e01b825252fd5b8f8c6041602492634e487b7160e01b835252fd5b90505191613709565b9450386136ef565b88516303bdf00d60e31b81528e90fd5b50841580156136e257508351156136e2565b508b51156136db565b8851630a781f0560e21b81528e90fd5b8851635f65f16560e11b81528e90fd5b508480156136be57508b518711156136be565b885163dfde867160e01b81528e90fd5b89516302721e1f60e61b81528f90fd5b80518210156134cf5760209160051b010190565b90613949826133a2565b61395660405191826131ca565b8281528092613967601f19916133a2565b0190602036910137565b91908110156134cf5760051b0190565b60005b82811061399057505050565b606082820152602001613984565b81156139a8570490565b634e487b7160e01b600052601260045260246000fd5b6001600160a01b039081166000818152600e6020908152604080832086845282528083208784528252808320549297949690958893613c6657808452600c8352868420948554613a0d816133a2565b96613a1a8a5198896131ca565b8188528652848620869086808a015b848410613c475750505050508286511115613c36578452600d83528684209084528252858320938454613a5b816133a2565b95613a68895197886131ca565b81875285528385208590858089015b848410613c17575050505050845115613c065790613a949161392b565b519260a0840194613aab8651608087015190613600565b431115613bf557835b8251811015613bcf57613ac7818461392b565b51606090818101518015908115613bc4575b508a8201518a511015908951159182159083613bb9575b81613bac575b82613ba4575b5081613b8b575b50613b1a575b505050613b15906135e4565b613ab4565b929b9215613b715751908988015191828102928184041490151715613b5d5791613b4e613b5492613b15948a01519061399e565b90613600565b99903880613b09565b634e487b7160e01b87526011600452602487fd5b50613b1591613b4e613b54928b8a0151908a01519061399e565b8291508115613b9c575b5038613b03565b905038613b95565b915038613afc565b848a015115159150613af6565b845115159350613af0565b905089511038613ad9565b5097969592505092508415613be5575001511691565b51635f65f16560e11b8152600490fd5b86516303a4fc3760e01b8152600490fd5b86516319a089c160e01b8152600490fd5b600191600491613c26856135b2565b8152019201920191908690613a77565b875163767afb7b60e11b8152600490fd5b600191600591613c56856134e5565b8152019201920191908790613a29565b8651632cfe303760e21b8152600490fd5b6000808052600b60209081527fdf7de25b7f1fd6d0b5205f0e18f1f35bd7b8d84cce336588d184533ce43a6f7b546040929190157fdf7de25b7f1fd6d0b5205f0e18f1f35bd7b8d84cce336588d184533ce43a6f7681613d4c575b50613d4557815b6001600160a01b038516808452600d808452858520858052845285852054909190831015613d3b578452825283832083805282526003613d1b82868620613596565b50015415613d3157613d2c906135e4565b613cd9565b5050505050600190565b5050505091505090565b5091505090565b6004915001541538613cd2565b6040516301ffc9a760e01b81526380ac58cd60e01b600482015290602090829060249082906001600160a01b03165afa60009181613d9d575b506132585750600090565b613db691925060203d81116103465761033781836131ca565b9038613d92565b60405190613dca82613194565b600060a08382815260606020820152606060408201528260608201528260808201520152565b602081830312610383578051906001600160401b038211610383570181601f82011215610383578051613e22816131eb565b92613e3060405194856131ca565b8184526020828401011161038357613258916020808501910161325b565b9190613e58613dbd565b926001600160a01b03918216908115158061407f575b613e7757505050565b604080516306fdde0360e01b81526000965092939192908682600481885afa918215614075578792614059575b5080516395d89b4160e01b8152908782600481895afa91821561404f578892614033575b50805163313ce56760e01b815292602080856004818b5afa948515613fbf578a95613ffa575b5082516370a0823160e01b8152958716600487015280866024818b5afa958615613fbf578a96613fc9575b508251636eb1769f60e11b81526001600160a01b0397909716600488015230602488015280876044818b5afa968715613fbf578a97613f87575b5060ff959697989950825198613f688a613194565b895288015286015216606084015260808301526000191460a082015290565b9080975081813d8311613fb8575b613f9f81836131ca565b81010312613fb4575197985088979538613f53565b8980fd5b503d613f95565b83513d8c823e3d90fd5b9695508087813d8311613ff3575b613fe181836131ca565b81010312613fb4579551949580613f19565b503d613fd7565b9080955081813d831161402c575b61401281836131ca565b81010312613fb4575160ff81168103613fb4579338613eee565b503d614008565b6140489192503d808a833e6103a481836131ca565b9038613ec8565b81513d8a823e3d90fd5b61406e9192503d8089833e6103a481836131ca565b9038613ea4565b81513d89823e3d90fd5b506001613e6e565b90600182811c921680156140b7575b60208310146140a157565b634e487b7160e01b600052602260045260246000fd5b91607f1691614096565b6007546001600160a01b031633036140d557565b60405163118cdaa760e01b8152336004820152602490fd5b6001600160a01b039182169290918315613047576000928284528260209560028752604096848888205416968791331515806141dd575b509060027fddf252ad1be2c89b69c2b068fc378daa952ba7f163c4a11628f55a4df523b3ef92846141aa575b858352600381528b8320805460010190558683525289812080546001600160a01b0319168517905580a416928383036141895750505050565b6064945051926364283d7b60e01b8452600484015260248301526044820152fd5b600087815260046020526040902080546001600160a01b0319169055848352600381528b83208054600019019055614150565b91939450915080614235575b156141f957859291879138614124565b878688614216576024915190637e27328960e01b82526004820152fd5b905163177e802f60e01b81523360048201526024810191909152604490fd5b50338714801561425a575b806141e957508582526004815233858984205416146141e9565b5086825260058152878220338352815260ff8883205416614240565b6000818152600260205260409020546001600160a01b0316908115614299575090565b60249060405190637e27328960e01b82526004820152fd5b813b6142be575b50505050565b604051630a85bd0160e11b8082523360048301526001600160a01b0392831660248301526044820194909452608060648201526020959290911693909290839061430c90608483019061327e565b039285816000958187895af18491816143b5575b50614380575050503d600014614378573d61433a816131eb565b9061434860405192836131ca565b81528091843d92013e5b8051928361437357604051633250574960e11b815260048101849052602490fd5b019050fd5b506060614352565b919450915063ffffffff60e01b160361439d5750388080806142b8565b60249060405190633250574960e11b82526004820152fd5b9091508681813d83116143f2575b6143cd81836131ca565b810103126143ee57516001600160e01b0319811681036143ee579038614320565b8480fd5b503d6143c3565b61440281614276565b50600090815260209060068252604081209160405180938390805461442681614087565b8085529160019180831690811561449c575060011461445f575b50505061444f925003836131ca565b60405161445b816131af565b5290565b86528486209492508591905b81831061448457505061444f9350820101388080614440565b8554888401850152948501948794509183019161446b565b9250505061444f94925060ff191682840152151560051b820101388080614440565b9190916000908082526020916006835260408120908551906001600160401b03821161461f576144ee8354614087565b601f81116145dc575b508490601f831160011461455857907ff8e1a15aba9398e019f0b49df1a4fde98ee17ae345cb5f6b5e2c27f5033e8ce796978361454d575b50508160011b916000199060031b1c19161790555b604051908152a1565b01519050388061452f565b9196601f198816848452868420935b8181106145c557509160019391897ff8e1a15aba9398e019f0b49df1a4fde98ee17ae345cb5f6b5e2c27f5033e8ce7999a94106145ac575b505050811b019055614544565b015160001960f88460031b161c1916905538808061459f565b929387600181928786015181550195019301614567565b838252858220601f840160051c810191878510614615575b601f0160051c01905b81811061460a57506144f7565b8281556001016145fd565b90915081906145f4565b634e487b7160e01b81526041600452602490fd5b600260095414614644576002600955565b604051633ee5aeb560e01b8152600490fdfea264697066735822122075827cefcee9a17c4046eeef512a9e98504fc72d74808041a864bc590b01652464736f6c63430008140033","linkReferences":{}},"methodIdentifiers":{"addReward(uint256,address,uint256,uint256,bool)":"7ebfee3e","addRewardWithPermit(uint256,address,uint256,uint256,bool,uint256,uint8,bytes32,bytes32,bool)":"3a2e1747","approve(address,uint256)":"095ea7b3","balanceOf(address)":"70a08231","calculateReward(address,uint256,uint256)":"2c32c360","claimRewards(uint256[],uint256[][],address)":"99a47faa","contractURI()":"e8a3d485","editPool(uint256,uint256,string)":"04e4d711","getApproved(uint256)":"081812fc","getClaimedAmount(address,uint256,uint256)":"5ea6bda1","getPool(address,uint256)":"5b5b9ea2","getPool(uint256)":"068bcd8d","getReward(address,uint256,uint256)":"50f9b39e","getReward(uint256,uint256)":"b90bc519","getRewards(uint256)":"c0d8012c","getStake(address,uint256,uint256)":"d33560e6","getStakes(address,uint256)":"4cb8a68b","getTotalPools()":"d3ffe67a","isApprovedForAll(address,address)":"e985e9c5","launchPool(address,address,address,uint256,string)":"00936c9a","name()":"06fdde03","owner()":"8da5cb5b","ownerOf(uint256)":"6352211e","renounceOwnership()":"715018a6","safeTransferFrom(address,address,uint256)":"42842e0e","safeTransferFrom(address,address,uint256,bytes)":"b88d4fde","setApprovalForAll(address,bool)":"a22cb465","setContractURI(string)":"938e3d7b","stake(uint256,uint256,uint256)":"a638f2e2","stakeWithPermit(uint256,uint256,uint256,uint8,bytes32,bytes32,bool)":"3025ec6d","supportsInterface(bytes4)":"01ffc9a7","symbol()":"95d89b41","tokenInfo(address,address,address)":"fa37c3ca","tokenURI(uint256)":"c87b56dd","transferFrom(address,address,uint256)":"23b872dd","transferOwnership(address)":"f2fde38b","unstake(uint256,uint256[])":"395de242"},"id":1}