{"abi":[{"type":"constructor","inputs":[{"name":"stakeERC20","type":"address","internalType":"contract IERC20"},{"name":"stakeERC721","type":"address","internalType":"contract IERC721"},{"name":"rewardToken","type":"address","internalType":"contract IERC20"}],"stateMutability":"nonpayable"},{"type":"function","name":"addReward","inputs":[{"name":"poolId","type":"uint256","internalType":"uint256"},{"name":"rewardToken","type":"address","internalType":"contract IERC20"},{"name":"rewardAmount","type":"uint256","internalType":"uint256"},{"name":"claimAfterBlocks","type":"uint256","internalType":"uint256"},{"name":"isForERC721Stakers","type":"bool","internalType":"bool"}],"outputs":[{"name":"rewardId","type":"uint256","internalType":"uint256"}],"stateMutability":"nonpayable"},{"type":"function","name":"addRewardWithPermit","inputs":[{"name":"poolId","type":"uint256","internalType":"uint256"},{"name":"rewardToken","type":"address","internalType":"contract IERC20"},{"name":"rewardAmount","type":"uint256","internalType":"uint256"},{"name":"claimAfterBlocks","type":"uint256","internalType":"uint256"},{"name":"isForERC721Stakers","type":"bool","internalType":"bool"},{"name":"deadline","type":"uint256","internalType":"uint256"},{"name":"v","type":"uint8","internalType":"uint8"},{"name":"r","type":"bytes32","internalType":"bytes32"},{"name":"s","type":"bytes32","internalType":"bytes32"},{"name":"max","type":"bool","internalType":"bool"}],"outputs":[{"name":"rewardId","type":"uint256","internalType":"uint256"}],"stateMutability":"nonpayable"},{"type":"function","name":"approve","inputs":[{"name":"to","type":"address","internalType":"address"},{"name":"tokenId","type":"uint256","internalType":"uint256"}],"outputs":[],"stateMutability":"nonpayable"},{"type":"function","name":"balanceOf","inputs":[{"name":"owner","type":"address","internalType":"address"}],"outputs":[{"name":"","type":"uint256","internalType":"uint256"}],"stateMutability":"view"},{"type":"function","name":"calculateReward","inputs":[{"name":"staker","type":"address","internalType":"address"},{"name":"poolId","type":"uint256","internalType":"uint256"},{"name":"rewardId","type":"uint256","internalType":"uint256"}],"outputs":[{"name":"","type":"address","internalType":"contract IERC20"},{"name":"","type":"uint256","internalType":"uint256"}],"stateMutability":"view"},{"type":"function","name":"claimRewards","inputs":[{"name":"poolIds","type":"uint256[]","internalType":"uint256[]"},{"name":"rewardIds","type":"uint256[][]","internalType":"uint256[][]"},{"name":"recipient","type":"address","internalType":"address"},{"name":"chainSelector","type":"uint64","internalType":"uint64"}],"outputs":[{"name":"tokens","type":"address[][]","internalType":"contract IERC20[][]"},{"name":"amounts","type":"uint256[][]","internalType":"uint256[][]"}],"stateMutability":"nonpayable"},{"type":"function","name":"claimRewards","inputs":[{"name":"poolIds","type":"uint256[]","internalType":"uint256[]"},{"name":"rewardIds","type":"uint256[][]","internalType":"uint256[][]"},{"name":"recipient","type":"address","internalType":"address"}],"outputs":[{"name":"tokens","type":"address[][]","internalType":"contract IERC20[][]"},{"name":"amounts","type":"uint256[][]","internalType":"uint256[][]"}],"stateMutability":"nonpayable"},{"type":"function","name":"contractURI","inputs":[],"outputs":[{"name":"","type":"string","internalType":"string"}],"stateMutability":"view"},{"type":"function","name":"editPool","inputs":[{"name":"poolId","type":"uint256","internalType":"uint256"},{"name":"totalMax","type":"uint256","internalType":"uint256"},{"name":"tokenURI","type":"string","internalType":"string"}],"outputs":[],"stateMutability":"nonpayable"},{"type":"function","name":"getApproved","inputs":[{"name":"tokenId","type":"uint256","internalType":"uint256"}],"outputs":[{"name":"","type":"address","internalType":"address"}],"stateMutability":"view"},{"type":"function","name":"getClaimedAmount","inputs":[{"name":"staker","type":"address","internalType":"address"},{"name":"poolId","type":"uint256","internalType":"uint256"},{"name":"rewardId","type":"uint256","internalType":"uint256"}],"outputs":[{"name":"","type":"uint256","internalType":"uint256"}],"stateMutability":"view"},{"type":"function","name":"getPool","inputs":[{"name":"poolId","type":"uint256","internalType":"uint256"}],"outputs":[{"name":"poolDetails","type":"tuple","internalType":"struct IStaqeStructs.Pool","components":[{"name":"stakeERC20","type":"address","internalType":"contract IERC20"},{"name":"stakeERC721","type":"address","internalType":"contract IERC721"},{"name":"rewardToken","type":"address","internalType":"contract IERC20"},{"name":"totalMax","type":"uint256","internalType":"uint256"},{"name":"totalStakedERC20","type":"uint256","internalType":"uint256"},{"name":"totalStakedERC721","type":"uint256","internalType":"uint256"},{"name":"launchBlock","type":"uint256","internalType":"uint256"}]}],"stateMutability":"view"},{"type":"function","name":"getPool","inputs":[{"name":"staker","type":"address","internalType":"address"},{"name":"poolId","type":"uint256","internalType":"uint256"}],"outputs":[{"name":"poolDetails","type":"tuple","internalType":"struct StaqeDetails.PoolDetails","components":[{"name":"stakeERC20","type":"tuple","internalType":"struct StaqeDetails.Token","components":[{"name":"tokenAddress","type":"address","internalType":"address"},{"name":"name","type":"string","internalType":"string"},{"name":"symbol","type":"string","internalType":"string"},{"name":"decimals","type":"uint256","internalType":"uint256"},{"name":"balance","type":"uint256","internalType":"uint256"}]},{"name":"stakeERC721","type":"tuple","internalType":"struct StaqeDetails.Token","components":[{"name":"tokenAddress","type":"address","internalType":"address"},{"name":"name","type":"string","internalType":"string"},{"name":"symbol","type":"string","internalType":"string"},{"name":"decimals","type":"uint256","internalType":"uint256"},{"name":"balance","type":"uint256","internalType":"uint256"}]},{"name":"rewardToken","type":"tuple","internalType":"struct StaqeDetails.Token","components":[{"name":"tokenAddress","type":"address","internalType":"address"},{"name":"name","type":"string","internalType":"string"},{"name":"symbol","type":"string","internalType":"string"},{"name":"decimals","type":"uint256","internalType":"uint256"},{"name":"balance","type":"uint256","internalType":"uint256"}]},{"name":"owner","type":"address","internalType":"address"},{"name":"tokenURI","type":"string","internalType":"string"},{"name":"totalRewards","type":"uint256","internalType":"uint256"},{"name":"totalStakerStakes","type":"uint256","internalType":"uint256"},{"name":"totalMax","type":"uint256","internalType":"uint256"},{"name":"totalStakedERC20","type":"uint256","internalType":"uint256"},{"name":"totalStakedERC721","type":"uint256","internalType":"uint256"},{"name":"launchBlock","type":"uint256","internalType":"uint256"}]}],"stateMutability":"view"},{"type":"function","name":"getReward","inputs":[{"name":"staker","type":"address","internalType":"address"},{"name":"poolId","type":"uint256","internalType":"uint256"},{"name":"rewardId","type":"uint256","internalType":"uint256"}],"outputs":[{"name":"rewardDetails","type":"tuple","internalType":"struct StaqeDetails.RewardDetails","components":[{"name":"rewardToken","type":"tuple","internalType":"struct StaqeDetails.Token","components":[{"name":"tokenAddress","type":"address","internalType":"address"},{"name":"name","type":"string","internalType":"string"},{"name":"symbol","type":"string","internalType":"string"},{"name":"decimals","type":"uint256","internalType":"uint256"},{"name":"balance","type":"uint256","internalType":"uint256"}]},{"name":"stakerRewardAmount","type":"uint256","internalType":"uint256"},{"name":"isClaimed","type":"bool","internalType":"bool"},{"name":"isForERC721Stakers","type":"bool","internalType":"bool"},{"name":"rewardAmount","type":"uint256","internalType":"uint256"},{"name":"totalStaked","type":"uint256","internalType":"uint256"},{"name":"claimAfterBlocks","type":"uint256","internalType":"uint256"},{"name":"rewardBlock","type":"uint256","internalType":"uint256"}]}],"stateMutability":"view"},{"type":"function","name":"getReward","inputs":[{"name":"poolId","type":"uint256","internalType":"uint256"},{"name":"rewardId","type":"uint256","internalType":"uint256"}],"outputs":[{"name":"rewardDetails","type":"tuple","internalType":"struct IStaqeStructs.Reward","components":[{"name":"isForERC721Stakers","type":"bool","internalType":"bool"},{"name":"rewardToken","type":"address","internalType":"contract IERC20"},{"name":"rewardAmount","type":"uint256","internalType":"uint256"},{"name":"totalStaked","type":"uint256","internalType":"uint256"},{"name":"claimAfterBlocks","type":"uint256","internalType":"uint256"},{"name":"rewardBlock","type":"uint256","internalType":"uint256"}]}],"stateMutability":"view"},{"type":"function","name":"getRewards","inputs":[{"name":"poolId","type":"uint256","internalType":"uint256"}],"outputs":[{"name":"","type":"tuple[]","internalType":"struct IStaqeStructs.Reward[]","components":[{"name":"isForERC721Stakers","type":"bool","internalType":"bool"},{"name":"rewardToken","type":"address","internalType":"contract IERC20"},{"name":"rewardAmount","type":"uint256","internalType":"uint256"},{"name":"totalStaked","type":"uint256","internalType":"uint256"},{"name":"claimAfterBlocks","type":"uint256","internalType":"uint256"},{"name":"rewardBlock","type":"uint256","internalType":"uint256"}]}],"stateMutability":"view"},{"type":"function","name":"getStake","inputs":[{"name":"staker","type":"address","internalType":"address"},{"name":"poolId","type":"uint256","internalType":"uint256"},{"name":"stakeId","type":"uint256","internalType":"uint256"}],"outputs":[{"name":"stakeDetails","type":"tuple","internalType":"struct IStaqeStructs.Stake","components":[{"name":"amountERC20","type":"uint256","internalType":"uint256"},{"name":"idERC721","type":"uint256","internalType":"uint256"},{"name":"stakeBlock","type":"uint256","internalType":"uint256"},{"name":"unstakeBlock","type":"uint256","internalType":"uint256"}]}],"stateMutability":"view"},{"type":"function","name":"getStakes","inputs":[{"name":"staker","type":"address","internalType":"address"},{"name":"poolId","type":"uint256","internalType":"uint256"}],"outputs":[{"name":"","type":"tuple[]","internalType":"struct IStaqeStructs.Stake[]","components":[{"name":"amountERC20","type":"uint256","internalType":"uint256"},{"name":"idERC721","type":"uint256","internalType":"uint256"},{"name":"stakeBlock","type":"uint256","internalType":"uint256"},{"name":"unstakeBlock","type":"uint256","internalType":"uint256"}]}],"stateMutability":"view"},{"type":"function","name":"getTotalPools","inputs":[],"outputs":[{"name":"","type":"uint256","internalType":"uint256"}],"stateMutability":"view"},{"type":"function","name":"isApprovedForAll","inputs":[{"name":"owner","type":"address","internalType":"address"},{"name":"operator","type":"address","internalType":"address"}],"outputs":[{"name":"","type":"bool","internalType":"bool"}],"stateMutability":"view"},{"type":"function","name":"launchPool","inputs":[{"name":"stakeERC20","type":"address","internalType":"contract IERC20"},{"name":"stakeERC721","type":"address","internalType":"contract IERC721"},{"name":"rewardToken","type":"address","internalType":"contract IERC20"},{"name":"totalMax","type":"uint256","internalType":"uint256"},{"name":"tokenURI","type":"string","internalType":"string"}],"outputs":[{"name":"poolId","type":"uint256","internalType":"uint256"}],"stateMutability":"nonpayable"},{"type":"function","name":"name","inputs":[],"outputs":[{"name":"","type":"string","internalType":"string"}],"stateMutability":"view"},{"type":"function","name":"owner","inputs":[],"outputs":[{"name":"","type":"address","internalType":"address"}],"stateMutability":"view"},{"type":"function","name":"ownerOf","inputs":[{"name":"tokenId","type":"uint256","internalType":"uint256"}],"outputs":[{"name":"","type":"address","internalType":"address"}],"stateMutability":"view"},{"type":"function","name":"renounceOwnership","inputs":[],"outputs":[],"stateMutability":"nonpayable"},{"type":"function","name":"safeTransferFrom","inputs":[{"name":"from","type":"address","internalType":"address"},{"name":"to","type":"address","internalType":"address"},{"name":"tokenId","type":"uint256","internalType":"uint256"}],"outputs":[],"stateMutability":"nonpayable"},{"type":"function","name":"safeTransferFrom","inputs":[{"name":"from","type":"address","internalType":"address"},{"name":"to","type":"address","internalType":"address"},{"name":"tokenId","type":"uint256","internalType":"uint256"},{"name":"data","type":"bytes","internalType":"bytes"}],"outputs":[],"stateMutability":"nonpayable"},{"type":"function","name":"setApprovalForAll","inputs":[{"name":"operator","type":"address","internalType":"address"},{"name":"approved","type":"bool","internalType":"bool"}],"outputs":[],"stateMutability":"nonpayable"},{"type":"function","name":"setContractURI","inputs":[{"name":"newURI","type":"string","internalType":"string"}],"outputs":[],"stateMutability":"nonpayable"},{"type":"function","name":"stake","inputs":[{"name":"poolId","type":"uint256","internalType":"uint256"},{"name":"amount","type":"uint256","internalType":"uint256"},{"name":"id","type":"uint256","internalType":"uint256"}],"outputs":[{"name":"stakeId","type":"uint256","internalType":"uint256"}],"stateMutability":"nonpayable"},{"type":"function","name":"stakeWithPermit","inputs":[{"name":"poolId","type":"uint256","internalType":"uint256"},{"name":"amount","type":"uint256","internalType":"uint256"},{"name":"deadline","type":"uint256","internalType":"uint256"},{"name":"v","type":"uint8","internalType":"uint8"},{"name":"r","type":"bytes32","internalType":"bytes32"},{"name":"s","type":"bytes32","internalType":"bytes32"},{"name":"max","type":"bool","internalType":"bool"}],"outputs":[{"name":"stakeId","type":"uint256","internalType":"uint256"}],"stateMutability":"nonpayable"},{"type":"function","name":"supportsInterface","inputs":[{"name":"interfaceId","type":"bytes4","internalType":"bytes4"}],"outputs":[{"name":"","type":"bool","internalType":"bool"}],"stateMutability":"view"},{"type":"function","name":"symbol","inputs":[],"outputs":[{"name":"","type":"string","internalType":"string"}],"stateMutability":"view"},{"type":"function","name":"tokenInfo","inputs":[{"name":"user","type":"address","internalType":"address"},{"name":"ierc20","type":"address","internalType":"contract IERC20"},{"name":"ierc721","type":"address","internalType":"contract IERC721"}],"outputs":[{"name":"token","type":"tuple","internalType":"struct StaqeDetails.Token","components":[{"name":"tokenAddress","type":"address","internalType":"address"},{"name":"name","type":"string","internalType":"string"},{"name":"symbol","type":"string","internalType":"string"},{"name":"decimals","type":"uint256","internalType":"uint256"},{"name":"balance","type":"uint256","internalType":"uint256"}]}],"stateMutability":"view"},{"type":"function","name":"tokenURI","inputs":[{"name":"tokenId","type":"uint256","internalType":"uint256"}],"outputs":[{"name":"","type":"string","internalType":"string"}],"stateMutability":"view"},{"type":"function","name":"transferFrom","inputs":[{"name":"from","type":"address","internalType":"address"},{"name":"to","type":"address","internalType":"address"},{"name":"tokenId","type":"uint256","internalType":"uint256"}],"outputs":[],"stateMutability":"nonpayable"},{"type":"function","name":"transferOwnership","inputs":[{"name":"newOwner","type":"address","internalType":"address"}],"outputs":[],"stateMutability":"nonpayable"},{"type":"function","name":"unstake","inputs":[{"name":"poolId","type":"uint256","internalType":"uint256"},{"name":"stakeIds","type":"uint256[]","internalType":"uint256[]"}],"outputs":[{"name":"amountERC20","type":"uint256","internalType":"uint256"},{"name":"idsERC721","type":"uint256[]","internalType":"uint256[]"}],"stateMutability":"nonpayable"},{"type":"event","name":"Approval","inputs":[{"name":"owner","type":"address","indexed":true,"internalType":"address"},{"name":"approved","type":"address","indexed":true,"internalType":"address"},{"name":"tokenId","type":"uint256","indexed":true,"internalType":"uint256"}],"anonymous":false},{"type":"event","name":"ApprovalForAll","inputs":[{"name":"owner","type":"address","indexed":true,"internalType":"address"},{"name":"operator","type":"address","indexed":true,"internalType":"address"},{"name":"approved","type":"bool","indexed":false,"internalType":"bool"}],"anonymous":false},{"type":"event","name":"BatchMetadataUpdate","inputs":[{"name":"_fromTokenId","type":"uint256","indexed":false,"internalType":"uint256"},{"name":"_toTokenId","type":"uint256","indexed":false,"internalType":"uint256"}],"anonymous":false},{"type":"event","name":"Claimed","inputs":[{"name":"staker","type":"address","indexed":true,"internalType":"address"},{"name":"poolId","type":"uint256","indexed":true,"internalType":"uint256"}],"anonymous":false},{"type":"event","name":"ContractURIUpdated","inputs":[],"anonymous":false},{"type":"event","name":"Launched","inputs":[{"name":"launcher","type":"address","indexed":true,"internalType":"address"},{"name":"poolId","type":"uint256","indexed":true,"internalType":"uint256"}],"anonymous":false},{"type":"event","name":"MetadataUpdate","inputs":[{"name":"_tokenId","type":"uint256","indexed":false,"internalType":"uint256"}],"anonymous":false},{"type":"event","name":"OwnershipTransferred","inputs":[{"name":"previousOwner","type":"address","indexed":true,"internalType":"address"},{"name":"newOwner","type":"address","indexed":true,"internalType":"address"}],"anonymous":false},{"type":"event","name":"Rewarded","inputs":[{"name":"rewarder","type":"address","indexed":true,"internalType":"address"},{"name":"poolId","type":"uint256","indexed":true,"internalType":"uint256"},{"name":"rewardId","type":"uint256","indexed":true,"internalType":"uint256"}],"anonymous":false},{"type":"event","name":"Staked","inputs":[{"name":"staker","type":"address","indexed":true,"internalType":"address"},{"name":"poolId","type":"uint256","indexed":true,"internalType":"uint256"},{"name":"stakeId","type":"uint256","indexed":true,"internalType":"uint256"}],"anonymous":false},{"type":"event","name":"Transfer","inputs":[{"name":"from","type":"address","indexed":true,"internalType":"address"},{"name":"to","type":"address","indexed":true,"internalType":"address"},{"name":"tokenId","type":"uint256","indexed":true,"internalType":"uint256"}],"anonymous":false},{"type":"event","name":"Unstaked","inputs":[{"name":"staker","type":"address","indexed":true,"internalType":"address"},{"name":"poolId","type":"uint256","indexed":true,"internalType":"uint256"}],"anonymous":false},{"type":"error","name":"ERC721IncorrectOwner","inputs":[{"name":"sender","type":"address","internalType":"address"},{"name":"tokenId","type":"uint256","internalType":"uint256"},{"name":"owner","type":"address","internalType":"address"}]},{"type":"error","name":"ERC721InsufficientApproval","inputs":[{"name":"operator","type":"address","internalType":"address"},{"name":"tokenId","type":"uint256","internalType":"uint256"}]},{"type":"error","name":"ERC721InvalidApprover","inputs":[{"name":"approver","type":"address","internalType":"address"}]},{"type":"error","name":"ERC721InvalidOperator","inputs":[{"name":"operator","type":"address","internalType":"address"}]},{"type":"error","name":"ERC721InvalidOwner","inputs":[{"name":"owner","type":"address","internalType":"address"}]},{"type":"error","name":"ERC721InvalidReceiver","inputs":[{"name":"receiver","type":"address","internalType":"address"}]},{"type":"error","name":"ERC721InvalidSender","inputs":[{"name":"sender","type":"address","internalType":"address"}]},{"type":"error","name":"ERC721NonexistentToken","inputs":[{"name":"tokenId","type":"uint256","internalType":"uint256"}]},{"type":"error","name":"InvalidAmountOrId","inputs":[]},{"type":"error","name":"InvalidERC721Token","inputs":[]},{"type":"error","name":"InvalidRewardToken","inputs":[]},{"type":"error","name":"InvalidStakeId","inputs":[]},{"type":"error","name":"InvalidStakeToken","inputs":[]},{"type":"error","name":"InvalidTokenURI","inputs":[]},{"type":"error","name":"MoreThanTheTotalMaxTokens","inputs":[]},{"type":"error","name":"OnlyAvailableToStakersInGenesis","inputs":[]},{"type":"error","name":"OnlyOwnerHasAccessToAddRewards","inputs":[]},{"type":"error","name":"OnlyOwnerHasAccessToEditTokenURI","inputs":[]},{"type":"error","name":"OwnableInvalidOwner","inputs":[{"name":"owner","type":"address","internalType":"address"}]},{"type":"error","name":"OwnableUnauthorizedAccount","inputs":[{"name":"account","type":"address","internalType":"address"}]},{"type":"error","name":"PoolDoesNotExist","inputs":[]},{"type":"error","name":"PoolDoesNotHaveStakes","inputs":[]},{"type":"error","name":"ReentrancyGuardReentrantCall","inputs":[]},{"type":"error","name":"RewardAlreadyClaimed","inputs":[]},{"type":"error","name":"RewardIsEmpty","inputs":[]},{"type":"error","name":"RewardIsNotYetAvailableForClaim","inputs":[]},{"type":"error","name":"RewardNotFoundInPool","inputs":[]},{"type":"error","name":"RewardTransferFailed","inputs":[]},{"type":"error","name":"StakeAlreadyUnstaked","inputs":[]},{"type":"error","name":"StakeOnNextBlockAfterReward","inputs":[]},{"type":"error","name":"StakeTransferFailed","inputs":[]},{"type":"error","name":"StakerDoesNotHaveStakesInPool","inputs":[]},{"type":"error","name":"TotalMaxForOnlyOneTypeOfToken","inputs":[]},{"type":"error","name":"UnstakeOnNextBlockAndGetReward","inputs":[]},{"type":"error","name":"UnstakeTransferFailed","inputs":[]}],"bytecode":{"object":"0x6080346200043757601f1990601f62004d5f3881900382810185168401936001600160401b0393929091908486118387101762000421578160609284926040988952833981010312620004375762000057816200045c565b94602092838301519060018060a01b03938483168093036200043757876200008091016200045c565b906200008b6200043c565b94600b86526a537461716520506f6f6c7360a81b87870152620000ad6200043c565b936003958686526253545160e81b8987015287518a81116200042157806000998a8c620000db825462000471565b89808211620003f0575b505050508b908783116001146200038c578b9262000380575b50508160011b91600019908a1b1c19161788555b8551908a82116200036c5781906001978a8c620001308b5462000471565b898c8183116200032f575b50505050508b91878411600114620002ce57508a92620002c2575b505060001982891b1c191690861b1785555b3315620002aa57600780546001600160a01b03198082163390811790935594919084167f8be0079c531659141344cd1fd0a4f28419497f9722a3daafe3b4186f6b6457e08a80a3620001bc60085462000471565b81811162000288575b505060006008558460095589519860e08a01908a82109082111762000274578a9b83918b9c9b999a9b52168752888701908152818b880194168452816060880195898752818d8b60808c019b818d5260a081019d8e5260c0019d8e439052818052600b9052209c5116858d5416178c558b019151168382541617905560028901925116908254161790555190850155516004840155516005830155519060060155516148979081620004c88239f35b634e487b7160e01b88526041600452602488fd5b620002a29160088a528a8a20910160051c810190620004ae565b3880620001c5565b8951631e4fbdf760e01b815260048101889052602490fd5b01519050388062000156565b898c528c8c208a9590939291168c8e5b828210620003175750508411620002fe575b505050811b01855562000168565b0151600019838b1b60f8161c19169055388080620002f0565b8385015186558c979095019493840193018e620002de565b848491620003579652209181880160051c830193881062000362575b0160051c0190620004ae565b8a8c38898c6200013b565b925081926200034b565b634e487b7160e01b89526041600452602489fd5b015190503880620000fe565b8b80528c8c209285168c8e5b828210620003d8575050908460019594939210620003bf575b505050811b01885562000112565b0151600019838c1b60f8161c19169055388080620003b1565b60018596829396860151815501950193018e62000398565b828480620004179652209181870160051c830193871062000362570160051c0190620004ae565b8a8c3889620000e5565b634e487b7160e01b600052604160045260246000fd5b600080fd5b60408051919082016001600160401b038111838210176200042157604052565b51906001600160a01b03821682036200043757565b90600182811c92168015620004a3575b60208310146200048d57565b634e487b7160e01b600052602260045260246000fd5b91607f169162000481565b818110620004ba575050565b60008155600101620004ae56fe6080604052600436101561001257600080fd5b60003560e01c8062936c9a14612c7f57806301ffc9a714612bf757806304e4d71114612b34578063068bcd8d14612ac557806306fdde0314612a22578063081812fc146129e4578063095ea7b3146128fd57806323b872dd146128e65780632c32c360146128b75780633025ec6d146125db578063395de242146120f25780633a2e17471461200957806342842e0e14611fdb5780634cb8a68b14611ee757806350f9b39e14611ce95780635b5b9ea2146117e85780635baeb8dc1461156a5780635ea6bda1146115235780636352211e146114f357806370a082311461149a578063715018a61461143d5780637ebfee3e146113fe5780638da5cb5b146113d5578063938e3d7b1461123557806395d89b411461119257806399a47faa14610ec9578063a22cb46514610e1b578063a638f2e214610a95578063b88d4fde14610a29578063b90bc519146109c0578063c0d8012c146108cb578063c87b56dd146107dd578063d33560e614610715578063d3ffe67a146106f7578063e8a3d48514610615578063e985e9c5146105bf578063f2fde38b146105315763fa37c3ca146101bd57600080fd5b34610325576060366003190112610325576101d6613091565b6101de6130bd565b6101e66130a7565b6101ee6140e7565b916001600160a01b0390811680159290831580610527575b610388575b508116918215159081610380575b50610239575b6040516020808252819061023590820186613320565b0390f35b6040516306fdde0360e01b8152919250600082600481865afa91821561033257600092610363575b506040516395d89b4160e01b815293600085600481875afa9485156103325760009561033e575b501692836102c55761023593506000915b604051936102a68561316f565b845260208401526040830152600060608301526080820152388061021f565b604051936370a0823160e01b85526004850152602084602481865afa8015610332576000906102fa575b610235945091610299565b506020843d821161032a575b81610313602093836131a5565b810103126103255761023593516102ef565b600080fd5b3d9150610306565b6040513d6000823e3d90fd5b61035c9195503d806000833e61035481836131a5565b810190614114565b9338610288565b6103799192503d806000833e61035481836131a5565b9038610261565b905038610219565b6040516306fdde0360e01b8152919450600082600481845afa9182156103325760009261050a575b506040516395d89b4160e01b8152600081600481855afa908115610332576000916104ef575b5060405163313ce56760e01b8152926020918285600481875afa9182156103325786956000936104b1575b508986168061043d57509060ff92916000945b604051966104218861316f565b875286015260408501521660608301526080820152939061020b565b9550604051956370a0823160e01b875260048701528386602481885afa8015610332578796600091610477575b509060ff93929194610414565b809493929750858092503d83116104aa575b61049381836131a5565b8101031261032557869560ff93519091929361046a565b503d610489565b91955091508281813d81116104e8575b6104cb81836131a5565b8101031261032557519360ff851685036103255785949138610401565b503d6104c1565b61050491503d806000833e61035481836131a5565b386103d6565b6105209192503d806000833e61035481836131a5565b90386103b0565b5082821615610206565b346103255760203660031901126103255761054a613091565b610552614391565b6001600160a01b039081169081156105a657600754826bffffffffffffffffffffffff60a01b821617600755167f8be0079c531659141344cd1fd0a4f28419497f9722a3daafe3b4186f6b6457e0600080a3005b604051631e4fbdf760e01b815260006004820152602490fd5b34610325576040366003190112610325576105d8613091565b6105e06130bd565b9060018060a01b03809116600052600560205260406000209116600052602052602060ff604060002054166040519015158152f35b3461032557600036600319011261032557604051600060085461063781614357565b808452906001908181169081156106d05750600114610675575b61023584610661818603826131a5565b604051918291602083526020830190613259565b6008600090815292507ff3f7a9fe364faab93b216da50a3214154f22a0a2b415b23a84c8169e8b636ee35b8284106106b857505050810160200161066182610651565b805460208587018101919091529093019281016106a0565b60ff191660208087019190915292151560051b850190920192506106619150839050610651565b34610325576000366003190112610325576020600a54604051908152f35b34610325576080610725366132b3565b60405191929161073481613139565b600081526000602082015260006040820152600060608201529160018060a01b03169283600052600d60205260406000208160005260205260406000205482106107a8575b84836107a66040518092606080918051845260208101516020850152604081015160408501520151910152565bf35b6107cf92506107d593600052600d60205260406000209060005260205260406000206136d8565b506136f4565b808380610779565b3461032557602080600319360112610325576004356107fb81614546565b506000526006815260406000209060405191826000825461081b81614357565b938484526001918683821691826000146108a957505060011461086a575b5050610847925003836131a5565b60006040516108558161318a565b52610235604051928284938452830190613259565b85925060005281600020906000915b85831061089157505061084793508201018580610839565b80548389018501528794508693909201918101610879565b925093505061084794915060ff191682840152151560051b8201018580610839565b346103255760208060031936011261032557600435600052600c815260406000209081546108f881613371565b9061090660405192836131a5565b8082528282018094600052836000206000915b8383106109a35760408051878152865181890181905289928201908960005b8281106109455784840385f35b9091928260c0826109946001948a5160a08091805115158452600180831b0360208201511660208501526040810151604085015260608101516060850152608081015160808501520151910152565b01960191019492919094610938565b6005866001926109b285613627565b815201920192019190610919565b346103255760403660031901126103255760c06109e160243560043561367b565b6107a6604051809260a08091805115158452600180831b0360208201511660208501526040810151604085015260608101516060850152608081015160808501520151910152565b3461032557608036600319011261032557610a42613091565b610a4a6130bd565b90604435606435926001600160401b038411610325573660238501121561032557610a82610a939436906024816004013591016131e1565b92610a8e8383836143bd565b614581565b005b34610325576060366003190112610325576000604435602435600435610ab961483e565b80600052602093600b8552604060002093600685015415610e095783159485159580610e01575b610def5783600052600c8752604060002080548015159182610dc8575b5050610db65733600052600d875260406000208460005287528560406000205496610da0575b8215159586610d72575b600383015480610d27575b5033600052600d8952604060002086600052895260406000209060405191610b5f83613139565b8183528a83019286845260408101914383526060820190600082528054600160401b811015610d1157610b97916001820181556136d8565b939093610cfb578d956003935185555160018501555160028401555191015582610c7b575b5050610c69578594610bfd575b50507f1449c6dd7851abc30abf37f57715f492010519147cc2652fbc38202c18a6ee90339180a46001600955604051908152f35b600101549093506001600160a01b0316803b15610325576040516323b872dd60e01b815233600482015230602482015260448101949094526000908490606490829084905af1928315610332578493610c57575b80610bc9565b610c6191506130ee565b600085610c51565b604051631231ec2f60e21b8152600490fd5b83546040516323b872dd60e01b81523360048201523060248201526044810192909252909250829060649082906000906001600160a01b03165af190811561033257600091610cce575b50158789610bbc565b610cee9150883d8a11610cf4575b610ce681836131a5565b81019061374f565b88610cc5565b503d610cdc565b634e487b7160e01b600052600060045260246000fd5b634e487b7160e01b600052604160045260246000fd5b8280610d65575b610d4557879081610d57575b50610d455789610b38565b604051636dce347360e11b8152600490fd5b90506005840154118a610d3a565b5080600485015411610d2e565b6005830180549060018201809211610d8a5755610b2d565b634e487b7160e01b600052601160045260246000fd5b60048201610daf878254613742565b9055610b23565b604051630485995160e51b8152600490fd5b60001982019250908211610d8a57600491610de2916135f5565b5001544311158880610afd565b604051633b91be2160e21b8152600490fd5b508115610ae0565b6040516302721e1f60e61b8152600490fd5b3461032557604036600319011261032557610e34613091565b6024359081151590818303610325576001600160a01b0316918215610eb057610e829033600052600560205260406000208460005260205260406000209060ff801983541691151516179055565b6040519081527f17307eab39ab6107e8899845ad3d59bd9653f200f220920489ca2b5937696c3160203392a3005b604051630b61174360e31b815260048101849052602490fd5b34610325576060366003190112610325576001600160401b0360043581811161032557610efa903690600401613388565b9060243590811161032557610f139036906004016133e6565b90610f1c6130a7565b610f2461483e565b6001600160a01b038082161561118a575b610f3f8484613ae0565b9190926000925b855184101561117557610f598487613a6d565b51600052602095600b8752836002604060002001541680156000146110ad575060005b610f86868a613a6d565b515181101561106857610fa381610f9d8886613a6d565b51613a6d565b5180156110565788610ff960009288610fc086610f9d8d8f613a6d565b5160405163a9059cbb60e01b81526001600160a01b038b1660048201526024810193909352919485939190921691839182906044820190565b03925af190811561033257600091611039575b5015611027578561101f610f8692613726565b915050610f7c565b60405163078ecf4160e41b8152600490fd5b6110509150893d8b11610cf457610ce681836131a5565b8a61100c565b604051635f65f16560e11b8152600490fd5b509550926110a7905b61107b8188613a6d565b51337fd8138f8a3f377c5259ca548e70e4c2de94f129f5a11036a15b69513cba2b426a600080a3613726565b92610f46565b91949796929093956000906000915b6110c68b8b613a6d565b51518310156110f7576110eb6110f1916110e485610f9d8f8d613a6d565b5190613742565b92613726565b916110bc565b9150969497989293919381156110565760405163a9059cbb60e01b81526001600160a01b038616600482015260248101929092528290829060449082906000905af191821561033257600092611158575b505015611027576110a790611071565b61116e9250803d10610cf457610ce681836131a5565b8880611148565b84600160095561023560405192839283613466565b339150610f35565b3461032557600036600319011261032557604051600060018054906111b682614357565b808552918181169081156106d057506001146111dc5761023584610661818603826131a5565b600081815292507fb10e2d527612073b26eecdfd717e6a320cf44b4afac2b0732d9fcbe2b7fa0cf65b82841061121d57505050810160200161066182610651565b80546020858701810191909152909301928101611205565b3461032557602080600319360112610325576001600160401b0360043581811161032557611267903690600401613218565b91611270614391565b8251918211610d1157611284600854614357565b601f8111611371575b5080601f83116001146112ed575081926000926112e2575b50508160011b916000199060031b1c1916176008555b7fa5d4097edda6d87cb9329af83fb3712ef77eeb13738ffe43cc35a4ce305ad962600080a1005b0151905082806112a5565b90601f1983169360086000527ff3f7a9fe364faab93b216da50a3214154f22a0a2b415b23a84c8169e8b636ee3926000905b8682106113595750508360019510611340575b505050811b016008556112bb565b015160001960f88460031b161c19169055828080611332565b8060018596829496860151815501950193019061131f565b60086000527ff3f7a9fe364faab93b216da50a3214154f22a0a2b415b23a84c8169e8b636ee3601f840160051c8101918385106113cb575b601f0160051c01905b8181106113bf575061128d565b600081556001016113b2565b90915081906113a9565b34610325576000366003190112610325576007546040516001600160a01b039091168152602090f35b346103255760a036600319011261032557602061143561141c6130bd565b6114246132dd565b906064359060443590600435613767565b604051908152f35b3461032557600036600319011261032557611456614391565b600780546001600160a01b031981169091556000906001600160a01b03167f8be0079c531659141344cd1fd0a4f28419497f9722a3daafe3b4186f6b6457e08280a3005b34610325576020366003190112610325576001600160a01b036114bb613091565b1680156114da5760005260036020526020604060002054604051908152f35b6040516322718ad960e21b815260006004820152602490fd5b34610325576020366003190112610325576020611511600435614546565b6040516001600160a01b039091168152f35b3461032557611531366132b3565b9160018060a01b0316600052600e6020526040600020906000526020526040600020906000526020526020604060002054604051908152f35b34610325576080366003190112610325576001600160401b036004358181116103255761159b903690600401613388565b602435828111610325576115b39036906004016133e6565b916115bc6130a7565b916064359182168203610325576115d161483e565b6001600160a01b039290838216156117e0575b6115ee8582613ae0565b6000949194925b80518410156117ca5786604061161461160e8785613a6d565b51613559565b015116806116fd575060005b61162a858a613a6d565b51518110156116e65761164181610f9d8786613a6d565b518015611056578861165783610f9d898c613a6d565b516040516319fffedd60e11b81526001600160a01b038a16600482015260248101939093526001600160401b038716604484015260209291839183916064918391600091165af1918215610332576000926116c9575b50501561102757846116c161162a92613726565b915050611620565b6116df9250803d10610cf457610ce681836131a5565b8a806116ad565b50926116f7905b61107b8186613a6d565b926115f5565b92909397966000959295906000915b6117168b8b613a6d565b515183101561173a576110eb611734916110e485610f9d8f8d613a6d565b9161170c565b9150979891939592958115611056576040516319fffedd60e11b81526001600160a01b038816600482015260248101929092526001600160401b0385166044830152602091908290829060649082906000905af1918215610332576000926117ad575b505015611027576116f7906116ed565b6117c39250803d10610cf457610ce681836131a5565b898061179d565b5084600160095561023560405192839283613466565b3391506115e4565b3461032557604036600319011261032557611801613091565b60006101406040516118128161311d565b61181a6140e7565b81526118246140e7565b60208201526118316140e7565b6040820152826060820152606060808201528260a08201528260c08201528260e082015282610100820152826101208201520152611870602435613559565b60009160405161187f8161318a565b60008152926040516331a9108f60e11b81526024356004820152602081602481305afa60009181611ca5575b50611c9d575b5060405163c87b56dd60e01b81526024356004820152600081602481305afa60009181611c80575b50611c78575b5082516118f5906001600160a01b031683614172565b9360018060a01b036020850151169361190c6140e7565b9480151580611c70575b611b3f575b506040810151611934906001600160a01b031685614172565b9360608201519260808301519460a084015196602435600052600c6020526040600020805461196281613371565b9161197060405193846131a5565b818352602083019060005260206000206000915b838310611b215750505050519360018060a01b0316600052600d6020526040600020602435600052602052604060002080546119bf81613371565b916119cd60405193846131a5565b818352602083019060005260206000206000915b838310611b03575050505060c09051950151986040519a611a018c61311d565b8b5260208b015260408a015260018060a01b03166060890152608088015260a087015260c086015260e0850152610100840152610120830152610140820152604051809160208252610140611ac1611a6783516101606020870152610180860190613320565b611a9a611a86602086015192601f1993848983030160408a0152613320565b604086015183888303016060890152613320565b9060018060a01b0360608601511660808701526080850151908683030160a0870152613259565b9160a081015160c085015260c081015160e085015260e08101516101008501526101008101516101208501526101208101518285015201516101608301520390f35b60046020600192611b13856136f4565b8152019201920191906119e1565b60056020600192611b3185613627565b815201920192019190611984565b6040516306fdde0360e01b815291955090600081600481855afa90811561033257600091611c55575b506040516395d89b4160e01b8152600081600481865afa90811561033257600091611c3a575b506001600160a01b038616611bcd576000915b60405193611bae8561316f565b845260208401526040830152600060608301526080820152938661191b565b6040516370a0823160e01b81526001600160a01b0387166004820152602081602481875afa90811561033257600091611c08575b5091611ba1565b90506020813d602011611c32575b81611c23602093836131a5565b81010312610325575189611c01565b3d9150611c16565b611c4f91503d806000833e61035481836131a5565b88611b8e565b611c6a91503d806000833e61035481836131a5565b87611b68565b506001611916565b9350846118df565b611c969192503d806000833e61035481836131a5565b90866118d9565b9050846118b1565b9091506020813d602011611ce1575b81611cc1602093836131a5565b8101031261032557516001600160a01b03811681036103255790866118ab565b3d9150611cb4565b3461032557611cf7366132b3565b91604051611d0481613101565b611d0c6140e7565b8152600060e060209282848201528260408201528260608201528260808201528260a08201528260c08201520152611d44848461367b565b9160009260009160405196630161961b60e51b885260018060a01b03968783168060048b01528160248b01528260448b015260408a606481305afa8060009b600092611ea2575b50611e4d9b8b91611e8d57505050600052600e86526040600020906000528552604060002090600052845260406000205480611e7f575b50611dd8905b8251151596858401511690614172565b94604082015160608301519160a060808501519401519460405198611dfc8a613101565b8952868901978852604089019015158152606089019182526080890192835260a0890193845260c0890194855260e08901958652604051998a99888b525161010080998c01526101208b0190613320565b975160408a0152511515606089015251151560808801525160a08701525160c08601525160e085015251908301520390f35b945060019250611dd8611dc2565b16868901529750611dd8939250611dc8915050565b9b50905060408b3d604011611edf575b81611ebf604093836131a5565b81010312610325578a519a8a8c168c036103255788015190611e4d611d8b565b3d9150611eb2565b34610325576040366003190112610325576001600160a01b03611f08613091565b166000526020600d8152604060002060243560005281526040600020908154611f3081613371565b90611f3e60405192836131a5565b8082528282018094600052836000206000915b838310611fbe5760408051878152865181890181905289928201908960005b828110611f7d5784840385f35b90919282608082611faf6001948a51606080918051845260208101516020850152604081015160408501520151910152565b01960191019492919094611f70565b600486600192611fcd856136f4565b815201920192019190611f51565b3461032557610a93611fec3661327e565b9060405192611ffa8461318a565b60008452610a8e8383836143bd565b3461032557610140366003190112610325576120236130bd565b60443561202e6132dd565b60c4359260ff841684036103255761012435938415158503610325576001600160a01b03821694156120eb57600019905b853b156103255760405163d505accf60e01b8152336004820152306024820152604481019290925260a48035606484015260ff91909116608483015260e48035918301919091526101043560c483015290946000918691829084905af192831561033257602094611435946120dc575b5060643591600435613767565b6120e5906130ee565b856120cf565b839061205f565b34610325576040366003190112610325576001600160401b038060243511610325573660236024350112156103255760243560040135116103255736602480356004013560051b81350101116103255761214a61483e565b600435600052600b602052604060002060405190612167826130d3565b60018060a01b038154168252600660018060a01b03600183015416916020840192835260018060a01b0360028201541660408501526003810154606085015260048101546080850152600581015460a0850152015460c0830152600435600052600c602052604060002080546121dc81613371565b916121ea60405193846131a5565b818352602083019060005260206000206000915b8383106125bd575050505080518015159182612596575b505061258457600435600052600b602052604060002090600682015415610e095733600052600d60205260406000206004356000526020526040600020602435600401351590811561257a575b5061245a57600091600061227b60243560040135613a81565b9460005b60243560040135811061247457508415918215928061246c575b61245a5782612444575b801515938461242c575b5050816123c1575b506123af5761230a575b50610235604051928392600435337f0f5bb82176feb1b5e747e28471aa92156a04d9f3ab9f45f28e2d704232b93f75600080a3600160095583526040602084015260408301906132ec565b60005b83518110156123a7576123208185613a6d565b511561239e5781516001600160a01b03169061233c8186613a6d565b5191803b1561032557604051632142170760e11b815230600482015233602482015260448101939093526000908390606490829084905af19182156103325761238a9261238f575b50613726565b61230d565b612398906130ee565b85612384565b61238a90613726565b5050826122bf565b604051631b9f013160e11b8152600490fd5b5160405163a9059cbb60e01b8152336004820152602481018690529150602090829060449082906000906001600160a01b03165af19081156103325760009161240d575b5015856122b5565b612426915060203d602011610cf457610ce681836131a5565b85612405565b600561243b9101918254613735565b905586806122ad565b60048401612453878254613735565b90556122a3565b6040516319a089c160e01b8152600490fd5b508015612299565b61248981602435600401356024803501613ab3565b3533600052600d602052604060002060043560005260205260406000205411156125685733600052600d60205260406000206004356000526020526124e860406000206124e183602435600401356024803501613ab3565b35906136d8565b509560038701541580159061255a575b612548576125106001914360038a0155885490613742565b96015480612528575b5061252390613726565b61227f565b81936125419161253b612523948b613a6d565b52613726565b9290612519565b60405163793ef5e960e11b8152600490fd5b5043600288015410156124f8565b604051639b763f7160e01b8152600490fd5b9050541584612262565b6040516371f7dfa560e01b8152600490fd5b60001982019250908211610d8a5760a0916125b091613a6d565b5101514311158380612215565b600560206001926125cd85613627565b8152019201920191906121fe565b346103255760e03660031901126103255760643560243560043560ff831683036103255760c4358015158103610325576001600160a01b03938461261e84613559565b511691156128b057600019905b823b156103255760405163d505accf60e01b81523360048201523060248201526044808201939093529135606483015260ff166084808301919091523560a4808301919091523560c482015290600090829060e490829084905af18015610332576128a1575b5061269a61483e565b80600052602092600b84526040600020600681015415610e095783159384159480612899575b610def5783600052600c8652604060002080548015159182612872575b5050610db657849233600052600d875260406000208560005287526040600020549561285c575b8360038401548061283c575b505033600052600d875260406000208560005287526040600020926040519361273885613139565b838552888501946000865260408101914383526060820190600082528054600160401b811015610d1157612771916001820181556136d8565b939093610cfb578b9760039351855551600185015551600284015551910155846127d3575b50505050610c69578190337f1449c6dd7851abc30abf37f57715f492010519147cc2652fbc38202c18a6ee90600080a46001600955604051908152f35b546040516323b872dd60e01b8152336004820152306024820152604481019390935291935083916064918391600091165af19081156103325760009161281f575b501583858080612796565b6128369150843d8611610cf457610ce681836131a5565b84612814565b8161284e575b50610d45578388612710565b905060048401541188612842565b6004830161286b838254613742565b9055612704565b60001982019250908211610d8a5760049161288c916135f5565b50015443111587806126dd565b5060016126c0565b6128aa906130ee565b83612691565b839061262b565b346103255760406128d06128ca366132b3565b91613ce8565b82516001600160a01b0390921682526020820152f35b3461032557610a936128f73661327e565b916143bd565b3461032557604036600319011261032557612916613091565b60243561292281614546565b331515806129d1575b806129a4575b61298c576001600160a01b039283169282918491167f8c5be1e5ebec7d5bd14f71427d1e84f3dd0314c0f7b2291e5b200ac8c7c3b925600080a4600090815260046020526040902080546001600160a01b0319169091179055005b60405163a9fbf51f60e01b8152336004820152602490fd5b5060018060a01b038116600052600560205260406000203360005260205260ff6040600020541615612931565b506001600160a01b03811633141561292b565b3461032557602036600319011261032557600435612a0181614546565b506000526004602052602060018060a01b0360406000205416604051908152f35b346103255760003660031901126103255760405160008054612a4381614357565b808452906001908181169081156106d05750600114612a6c5761023584610661818603826131a5565b600080805292507f290decd9548b62a8d60345a988386fc84ba6bc95484008f6362f93160ef3e5635b828410612aad57505050810160200161066182610651565b80546020858701810191909152909301928101612a95565b346103255760203660031901126103255760e0612ae3600435613559565b60c06040519160018060a01b038082511684528060208301511660208501526040820151166040840152606081015160608401526080810151608084015260a081015160a0840152015160c0820152f35b34610325576060366003190112610325576024356004356044356001600160401b03811161032557612b6a903690600401613218565b90612b7361483e565b80600052600b602052604060002092600684015415610e0957825115612be557612b9c82614546565b336001600160a01b0390911603612bd3576003612bc4940180548211612bcb575b50506146c9565b6001600955005b558380612bbd565b604051637cefe4d160e01b8152600490fd5b6040516313f04adb60e01b8152600490fd5b346103255760203660031901126103255760043563ffffffff60e01b811680910361032557602090632483248360e11b8114908115612c3c575b506040519015158152f35b6380ac58cd60e01b811491508115612c6e575b8115612c5d575b5082612c31565b6301ffc9a760e01b14905082612c56565b635b5e139f60e01b81149150612c4f565b346103255760a036600319011261032557612c98613091565b612ca06130bd565b612ca86130a7565b90606435926084356001600160401b03811161032557612ccc903690600401613218565b90612cd561483e565b612cde33613fa1565b1561307f576001600160a01b03928316918215801592838061306f575b61305d57851692831580928193613055575b5061304357825115612be557871515918261303a575b5081613032575b5061302057612dea916006612d40600a54613726565b9687600a5560405192612d52846130d3565b835260209889840196875287604085019216825260608401908152608084016000815260a08501916000835260c08601934385528b600052600b8d528a6040600020975116996bffffffffffffffffffffffff60a01b9a8b8954161788558b600189019151168b8254161790558a600288019151168a82541617905551600386015551600485015551600584015551910155846146c9565b60405191612df78361318a565b6000835233156130075783908160005260028652604060002054168015159283612fd4575b33600052600387526040600020600181540190558260005260028752604060002090339082541617905533907fddf252ad1be2c89b69c2b068fc378daa952ba7f163c4a11628f55a4df523b3ef600080a4612fbb57333b612ead575b506040519080337f8ad1ba2dbd33c6313fa50cd4016351a36437d7dcd0e0800a3a0b191d22095d93600080a360016009558152f35b604051838180612ee6630a85bd0160e11b9586835233600484015260006024840152876044840152608060648401526084830190613259565b03816000335af160009181612f7b575b50612f4e57833d15612f47573d612f0c816131c6565b90612f1a60405192836131a5565b81523d60008383013e5b80519182612f4457604051633250574960e11b8152336004820152602490fd5b01fd5b6060612f24565b6001600160e01b03191603612f635782612e78565b604051633250574960e11b8152336004820152602490fd5b9091508481813d8311612fb4575b612f9381836131a5565b8101031261032557516001600160e01b031981168103610325579085612ef6565b503d612f89565b6040516339e3563760e11b815260006004820152602490fd5b60008381526004602052604080822080546001600160a01b03191690558382526003895290208054600019019055612e1c565b604051633250574960e11b815260006004820152602490fd5b60405163df9c3d7d60e01b8152600490fd5b905087612d2a565b15915088612d23565b6040516314ec381360e11b8152600490fd5b905089612d0d565b6040516366a0777760e01b8152600490fd5b5061307985614083565b15612cfb565b6040516358fd19b960e11b8152600490fd5b600435906001600160a01b038216820361032557565b604435906001600160a01b038216820361032557565b602435906001600160a01b038216820361032557565b60e081019081106001600160401b03821117610d1157604052565b6001600160401b038111610d1157604052565b61010081019081106001600160401b03821117610d1157604052565b61016081019081106001600160401b03821117610d1157604052565b608081019081106001600160401b03821117610d1157604052565b60c081019081106001600160401b03821117610d1157604052565b60a081019081106001600160401b03821117610d1157604052565b602081019081106001600160401b03821117610d1157604052565b90601f801991011681019081106001600160401b03821117610d1157604052565b6001600160401b038111610d1157601f01601f191660200190565b9291926131ed826131c6565b916131fb60405193846131a5565b829481845281830111610325578281602093846000960137010152565b9080601f8301121561032557816020613233933591016131e1565b90565b60005b8381106132495750506000910152565b8181015183820152602001613239565b9060209161327281518092818552858086019101613236565b601f01601f1916010190565b6060906003190112610325576001600160a01b0390600435828116810361032557916024359081168103610325579060443590565b6060906003190112610325576004356001600160a01b038116810361032557906024359060443590565b60843590811515820361032557565b90815180825260208080930193019160005b82811061330c575050505090565b8351855293810193928101926001016132fe565b9060018060a01b03825116815260808061335e61334c602086015160a0602087015260a0860190613259565b60408601518582036040870152613259565b9360608101516060850152015191015290565b6001600160401b038111610d115760051b60200190565b81601f820112156103255780359161339f83613371565b926133ad60405194856131a5565b808452602092838086019260051b820101928311610325578301905b8282106133d7575050505090565b813581529083019083016133c9565b9080601f83011215610325578135906133fe82613371565b9261340c60405194856131a5565b828452602092838086019160051b8301019280841161032557848301915b84831061343a5750505050505090565b82356001600160401b03811161032557869161345b84848094890101613388565b81520192019161342a565b9060408201916040815281518093526060810160608460051b830101936020809401916000905b8282106134f75750505050818184039101528251908183528083019281808460051b8301019501936000915b8483106134c95750505050505090565b90919293949584806134e7600193601f198682030187528a516132ec565b98019301930191949392906134b9565b909192958590605f198682030183528751908280835192838152019201906000905b80821061353657505050908060019298019201920190929161348d565b82516001600160a01b031684528994938401939092019160019190910190613519565b60c06040918251613569816130d3565b600092818480935282602082015282868201528260608201528260808201528260a082015201528152600b602052206006604051916135a7836130d3565b80546001600160a01b03908116845260018201548116602085015260028201541660408401526003810154606084015260048101546080840152600581015460a0840152015460c082015290565b8054821015613611576000526005602060002091020190600090565b634e487b7160e01b600052603260045260246000fd5b9060405161363481613154565b825460ff81161515825260081c6001600160a01b031660208201526001830154604082015260028301546060820152600383015460808201526004929092015460a0830152565b91906040805161368a81613154565b60009081815281602082015281838201528160608201528160808201528160a0820152948152600c60205220805482106136c2575050565b613233929350906136d2916135f5565b50613627565b80548210156136115760005260206000209060021b0190600090565b9060405161370181613139565b6060600382948054845260018101546020850152600281015460408501520154910152565b6000198114610d8a5760010190565b91908203918211610d8a57565b91908201809211610d8a57565b90816020910312610325575180151581036103255790565b9190949361377361483e565b85600092848452602091600b835260409384862097855190613794826130d3565b600160a01b60019003808b541683528060018c015416878401528060028c01541688840190815260038c0154606085015260049d8e8d0154948d60808201968752600501549d60a082019e8f526006015460c08192015215613a5d57821615613a4d5786158015613a3a575b613a2a5761380d8b614546565b8233911603613a1a578480613a11575b80156139ff575b6139ef57518116806139e7575b50898952600c875287892080549b8c9486156139de575051915b89519561385787613154565b15158652888601961695868152898601918883526060870193845260808701948552600160401b60a088019643885210156139ca578d61389c916001820181556135f5565b9690966139b757928f9392613933999795926138ca8c9a9895511515889060ff801983541691151516179055565b518654610100600160a81b03191660089190911b610100600160a81b03161786555160018601555160028501555160038401555191015585516323b872dd60e01b815233818d019081523060208201526040810193909352938492839189918391606090910190565b03925af19182156139aa57849261398d575b50501561397e5750829394507f291e8ba3c0f4b0bd86e6e2346fcee1e7ca0975b1cc1886bfbc722d34f3f24d91339180a4906001600955565b5163078ecf4160e41b81528590fd5b6139a39250803d10610cf457610ce681836131a5565b3880613945565b50505051903d90823e3d90fd5b8f8c80602492634e487b7160e01b825252fd5b8f8c6041602492634e487b7160e01b835252fd5b9050519161384b565b945038613831565b88516303bdf00d60e31b81528e90fd5b50841580156138245750835115613824565b508b511561381d565b8851630a781f0560e21b81528e90fd5b8851635f65f16560e11b81528e90fd5b5084801561380057508b51871115613800565b885163dfde867160e01b81528e90fd5b89516302721e1f60e61b81528f90fd5b80518210156136115760209160051b010190565b90613a8b82613371565b613a9860405191826131a5565b8281528092613aa9601f1991613371565b0190602036910137565b91908110156136115760051b0190565b60005b828110613ad257505050565b606082820152602001613ac6565b8051613b0e9392613af082613371565b93604092613b00845196876131a5565b808652601f19968791613371565b0190613b1e602092838801613ac3565b8596855191613b5182613b48613b3386613371565b95613b408a5197886131a5565b808752613371565b01858501613ac3565b82916000995b88518b1015613cbb57613b6a8b88613a6d565b515182613b8e613b7983613371565b92613b868c5194856131a5565b808452613371565b013688830137613b9e8c8c613a6d565b52613ba98b8b613a6d565b50613bbe613bb78c89613a6d565b5151613a81565b613bc88c87613a6d565b52613bd38b86613a6d565b5060005b613be18c89613a6d565b5151811015613ca257808789613c8d8f948f8f968f88613c678f610f9d858892610f9d98613c9d9f85848f613c37613c3f91613c2f85610f9d86613c2881613c559b613a6d565b5194613a6d565b519033613ce8565b929095613a6d565b5190613c4f83610f9d8989613a6d565b52613a6d565b6001600160a01b039091169052613a6d565b519733600052600e8152613c7f848460002093613a6d565b516000525260002094613a6d565b5160005289528a60002055613726565b613bd7565b509199613cb190939193613726565b9991929092613b57565b9950509550955050505050565b8115613cd2570490565b634e487b7160e01b600052601260045260246000fd5b6001600160a01b039081166000818152600e6020908152604080832086845282528083208784528252808320549297949690958893613f9057808452600c8352868420948554613d3781613371565b96613d448a5198896131a5565b8188528652848620869086808a015b848410613f715750505050508286511115613f60578452600d83528684209084528252858320938454613d8581613371565b95613d92895197886131a5565b81875285528385208590858089015b848410613f41575050505050845115613f305790613dbe91613a6d565b519260a0840194613dd58651608087015190613742565b431115613f1f57835b8251811015613ef957613df18184613a6d565b51606090818101518015908115613eee575b508a8201518a511015908951159182159083613ee3575b81613ed6575b82613ece575b5081613eb5575b50613e44575b505050613e3f90613726565b613dde565b929b9215613e9b5751908988015191828102928184041490151715613e875791613e78613e7e92613e3f948a015190613cc8565b90613742565b99903880613e33565b634e487b7160e01b87526011600452602487fd5b50613e3f91613e78613e7e928b8a0151908a015190613cc8565b8291508115613ec6575b5038613e2d565b905038613ebf565b915038613e26565b848a015115159150613e20565b845115159350613e1a565b905089511038613e03565b5097969592505092508415613f0f575001511691565b51635f65f16560e11b8152600490fd5b86516303a4fc3760e01b8152600490fd5b86516319a089c160e01b8152600490fd5b600191600491613f50856136f4565b8152019201920191908690613da1565b875163767afb7b60e11b8152600490fd5b600191600591613f8085613627565b8152019201920191908790613d53565b8651632cfe303760e21b8152600490fd5b6000808052600b60209081527fdf7de25b7f1fd6d0b5205f0e18f1f35bd7b8d84cce336588d184533ce43a6f7b546040929190157fdf7de25b7f1fd6d0b5205f0e18f1f35bd7b8d84cce336588d184533ce43a6f7681614076575b5061406f57815b6001600160a01b038516808452600d808452858520858052845285852054909190831015614065578452825283832083805282526003614045828686206136d8565b5001541561405b5761405690613726565b614003565b5050505050600190565b5050505091505090565b5091505090565b6004915001541538613ffc565b6040516301ffc9a760e01b81526380ac58cd60e01b600482015290602090829060249082906001600160a01b03165afa600091816140c7575b506132335750600090565b6140e091925060203d8111610cf457610ce681836131a5565b90386140bc565b604051906140f48261316f565b600060808382815260606020820152606060408201528260608201520152565b602081830312610325578051906001600160401b038211610325570181601f82011215610325578051614146816131c6565b9261415460405194856131a5565b81845260208284010111610325576132339160208085019101613236565b919061417c6140e7565b926001600160a01b03918216908115158061434f575b61419b57505050565b604080516306fdde0360e01b81526000965092939192908682600481885afa918215614345578792614329575b5080516395d89b4160e01b8152918783600481895afa92831561431f578893614303575b5081519363313ce56760e01b855260209586866004818b5afa9586156142f9578a966142bc575b501680614245575060ff94959697955b82519761422f8961316f565b8852870152850152166060830152608082015290565b8251906370a0823160e01b8252600482015285816024818a5afa9081156142b257899161427b575b5060ff959697985095614223565b90508581813d83116142ab575b61429281836131a5565b810103126142a75751969750879660ff61426d565b8880fd5b503d614288565b83513d8b823e3d90fd5b9095508681813d83116142f2575b6142d481836131a5565b810103126142ee575160ff811681036142ee579438614213565b8980fd5b503d6142ca565b84513d8c823e3d90fd5b6143189193503d808a833e61035481836131a5565b91386141ec565b82513d8a823e3d90fd5b61433e9192503d8089833e61035481836131a5565b90386141c8565b81513d89823e3d90fd5b506001614192565b90600182811c92168015614387575b602083101461437157565b634e487b7160e01b600052602260045260246000fd5b91607f1691614366565b6007546001600160a01b031633036143a557565b60405163118cdaa760e01b8152336004820152602490fd5b6001600160a01b039182169290918315613007576000928284528260209560028752604096848888205416968791331515806144ad575b509060027fddf252ad1be2c89b69c2b068fc378daa952ba7f163c4a11628f55a4df523b3ef928461447a575b858352600381528b8320805460010190558683525289812080546001600160a01b0319168517905580a416928383036144595750505050565b6064945051926364283d7b60e01b8452600484015260248301526044820152fd5b600087815260046020526040902080546001600160a01b0319169055848352600381528b83208054600019019055614420565b91939450915080614505575b156144c9578592918791386143f4565b8786886144e6576024915190637e27328960e01b82526004820152fd5b905163177e802f60e01b81523360048201526024810191909152604490fd5b50338714801561452a575b806144b957508582526004815233858984205416146144b9565b5086825260058152878220338352815260ff8883205416614510565b6000818152600260205260409020546001600160a01b0316908115614569575090565b60249060405190637e27328960e01b82526004820152fd5b813b61458e575b50505050565b604051630a85bd0160e11b8082523360048301526001600160a01b039283166024830152604482019490945260806064820152602095929091169390929083906145dc906084830190613259565b039285816000958187895af1849181614685575b50614650575050503d600014614648573d61460a816131c6565b9061461860405192836131a5565b81528091843d92013e5b8051928361464357604051633250574960e11b815260048101849052602490fd5b019050fd5b506060614622565b919450915063ffffffff60e01b160361466d575038808080614588565b60249060405190633250574960e11b82526004820152fd5b9091508681813d83116146c2575b61469d81836131a5565b810103126146be57516001600160e01b0319811681036146be5790386145f0565b8480fd5b503d614693565b9190916000908082526020916006835260408120908551906001600160401b03821161482a576146f98354614357565b601f81116147e7575b508490601f831160011461476357907ff8e1a15aba9398e019f0b49df1a4fde98ee17ae345cb5f6b5e2c27f5033e8ce7969783614758575b50508160011b916000199060031b1c19161790555b604051908152a1565b01519050388061473a565b9196601f198816848452868420935b8181106147d057509160019391897ff8e1a15aba9398e019f0b49df1a4fde98ee17ae345cb5f6b5e2c27f5033e8ce7999a94106147b7575b505050811b01905561474f565b015160001960f88460031b161c191690553880806147aa565b929387600181928786015181550195019301614772565b838252858220601f840160051c810191878510614820575b601f0160051c01905b8181106148155750614702565b828155600101614808565b90915081906147ff565b634e487b7160e01b81526041600452602490fd5b60026009541461484f576002600955565b604051633ee5aeb560e01b8152600490fdfea2646970667358221220898720e0293bd707e3f0064e4e73f7f54f1c1cf6901cbbff36706c54ecb0e01064736f6c63430008140033","linkReferences":{}},"methodIdentifiers":{"addReward(uint256,address,uint256,uint256,bool)":"7ebfee3e","addRewardWithPermit(uint256,address,uint256,uint256,bool,uint256,uint8,bytes32,bytes32,bool)":"3a2e1747","approve(address,uint256)":"095ea7b3","balanceOf(address)":"70a08231","calculateReward(address,uint256,uint256)":"2c32c360","claimRewards(uint256[],uint256[][],address)":"99a47faa","claimRewards(uint256[],uint256[][],address,uint64)":"5baeb8dc","contractURI()":"e8a3d485","editPool(uint256,uint256,string)":"04e4d711","getApproved(uint256)":"081812fc","getClaimedAmount(address,uint256,uint256)":"5ea6bda1","getPool(address,uint256)":"5b5b9ea2","getPool(uint256)":"068bcd8d","getReward(address,uint256,uint256)":"50f9b39e","getReward(uint256,uint256)":"b90bc519","getRewards(uint256)":"c0d8012c","getStake(address,uint256,uint256)":"d33560e6","getStakes(address,uint256)":"4cb8a68b","getTotalPools()":"d3ffe67a","isApprovedForAll(address,address)":"e985e9c5","launchPool(address,address,address,uint256,string)":"00936c9a","name()":"06fdde03","owner()":"8da5cb5b","ownerOf(uint256)":"6352211e","renounceOwnership()":"715018a6","safeTransferFrom(address,address,uint256)":"42842e0e","safeTransferFrom(address,address,uint256,bytes)":"b88d4fde","setApprovalForAll(address,bool)":"a22cb465","setContractURI(string)":"938e3d7b","stake(uint256,uint256,uint256)":"a638f2e2","stakeWithPermit(uint256,uint256,uint256,uint8,bytes32,bytes32,bool)":"3025ec6d","supportsInterface(bytes4)":"01ffc9a7","symbol()":"95d89b41","tokenInfo(address,address,address)":"fa37c3ca","tokenURI(uint256)":"c87b56dd","transferFrom(address,address,uint256)":"23b872dd","transferOwnership(address)":"f2fde38b","unstake(uint256,uint256[])":"395de242"},"id":1}