{"abi":[{"type":"constructor","inputs":[{"name":"stakeERC20","type":"address","internalType":"contract IERC20"},{"name":"stakeERC721","type":"address","internalType":"contract IERC721"},{"name":"rewardToken","type":"address","internalType":"contract IERC20"},{"name":"metadata","type":"string","internalType":"string"}],"stateMutability":"nonpayable"},{"type":"function","name":"addReward","inputs":[{"name":"poolId","type":"uint256","internalType":"uint256"},{"name":"rewardToken","type":"address","internalType":"contract IERC20"},{"name":"rewardAmount","type":"uint256","internalType":"uint256"},{"name":"claimAfterBlocks","type":"uint256","internalType":"uint256"},{"name":"isForERC721Stakers","type":"bool","internalType":"bool"}],"outputs":[{"name":"rewardId","type":"uint256","internalType":"uint256"}],"stateMutability":"nonpayable"},{"type":"function","name":"addRewardWithPermit","inputs":[{"name":"poolId","type":"uint256","internalType":"uint256"},{"name":"rewardToken","type":"address","internalType":"contract IERC20"},{"name":"rewardAmount","type":"uint256","internalType":"uint256"},{"name":"claimAfterBlocks","type":"uint256","internalType":"uint256"},{"name":"isForERC721Stakers","type":"bool","internalType":"bool"},{"name":"deadline","type":"uint256","internalType":"uint256"},{"name":"v","type":"uint8","internalType":"uint8"},{"name":"r","type":"bytes32","internalType":"bytes32"},{"name":"s","type":"bytes32","internalType":"bytes32"},{"name":"max","type":"bool","internalType":"bool"}],"outputs":[],"stateMutability":"nonpayable"},{"type":"function","name":"approve","inputs":[{"name":"to","type":"address","internalType":"address"},{"name":"tokenId","type":"uint256","internalType":"uint256"}],"outputs":[],"stateMutability":"nonpayable"},{"type":"function","name":"balanceOf","inputs":[{"name":"owner","type":"address","internalType":"address"}],"outputs":[{"name":"","type":"uint256","internalType":"uint256"}],"stateMutability":"view"},{"type":"function","name":"calculateReward","inputs":[{"name":"staker","type":"address","internalType":"address"},{"name":"poolId","type":"uint256","internalType":"uint256"},{"name":"rewardId","type":"uint256","internalType":"uint256"}],"outputs":[{"name":"","type":"address","internalType":"contract IERC20"},{"name":"","type":"uint256","internalType":"uint256"}],"stateMutability":"view"},{"type":"function","name":"claimRewards","inputs":[{"name":"poolIds","type":"uint256[]","internalType":"uint256[]"},{"name":"rewardIds","type":"uint256[][]","internalType":"uint256[][]"},{"name":"recipient","type":"address","internalType":"address"}],"outputs":[{"name":"tokens","type":"address[][]","internalType":"contract IERC20[][]"},{"name":"amounts","type":"uint256[][]","internalType":"uint256[][]"}],"stateMutability":"nonpayable"},{"type":"function","name":"contractURI","inputs":[],"outputs":[{"name":"","type":"string","internalType":"string"}],"stateMutability":"view"},{"type":"function","name":"editPool","inputs":[{"name":"poolId","type":"uint256","internalType":"uint256"},{"name":"totalMax","type":"uint256","internalType":"uint256"},{"name":"metadata","type":"string","internalType":"string"}],"outputs":[],"stateMutability":"nonpayable"},{"type":"function","name":"getApproved","inputs":[{"name":"tokenId","type":"uint256","internalType":"uint256"}],"outputs":[{"name":"","type":"address","internalType":"address"}],"stateMutability":"view"},{"type":"function","name":"getPool","inputs":[{"name":"poolId","type":"uint256","internalType":"uint256"}],"outputs":[{"name":"poolDetails","type":"tuple","internalType":"struct IStaqeStructs.Pool","components":[{"name":"stakeERC20","type":"address","internalType":"contract IERC20"},{"name":"stakeERC721","type":"address","internalType":"contract IERC721"},{"name":"rewardToken","type":"address","internalType":"contract IERC20"},{"name":"totalMax","type":"uint256","internalType":"uint256"},{"name":"totalStakedERC20","type":"uint256","internalType":"uint256"},{"name":"totalStakedERC721","type":"uint256","internalType":"uint256"},{"name":"launchBlock","type":"uint256","internalType":"uint256"}]}],"stateMutability":"view"},{"type":"function","name":"getPool","inputs":[{"name":"staker","type":"address","internalType":"address"},{"name":"poolId","type":"uint256","internalType":"uint256"}],"outputs":[{"name":"poolDetails","type":"tuple","internalType":"struct IStaqeStructs.PoolDetails","components":[{"name":"stakeERC20","type":"address","internalType":"contract IERC20"},{"name":"stakeERC721","type":"address","internalType":"contract IERC721"},{"name":"rewardToken","type":"address","internalType":"contract IERC20"},{"name":"rewarder","type":"address","internalType":"address"},{"name":"metadata","type":"string","internalType":"string"},{"name":"totalMax","type":"uint256","internalType":"uint256"},{"name":"totalStakedERC20","type":"uint256","internalType":"uint256"},{"name":"totalStakedERC721","type":"uint256","internalType":"uint256"},{"name":"totalRewards","type":"uint256","internalType":"uint256"},{"name":"totalStakerStakes","type":"uint256","internalType":"uint256"},{"name":"launchBlock","type":"uint256","internalType":"uint256"}]}],"stateMutability":"view"},{"type":"function","name":"getReward","inputs":[{"name":"staker","type":"address","internalType":"address"},{"name":"poolId","type":"uint256","internalType":"uint256"},{"name":"rewardId","type":"uint256","internalType":"uint256"}],"outputs":[{"name":"rewardDetails","type":"tuple","internalType":"struct IStaqeStructs.RewardDetails","components":[{"name":"isForERC721Stakers","type":"bool","internalType":"bool"},{"name":"rewardToken","type":"address","internalType":"contract IERC20"},{"name":"rewardAmount","type":"uint256","internalType":"uint256"},{"name":"stakerRewardAmount","type":"uint256","internalType":"uint256"},{"name":"totalStaked","type":"uint256","internalType":"uint256"},{"name":"claimAfterBlocks","type":"uint256","internalType":"uint256"},{"name":"rewardBlock","type":"uint256","internalType":"uint256"},{"name":"claimed","type":"bool","internalType":"bool"}]}],"stateMutability":"view"},{"type":"function","name":"getReward","inputs":[{"name":"poolId","type":"uint256","internalType":"uint256"},{"name":"rewardId","type":"uint256","internalType":"uint256"}],"outputs":[{"name":"rewardDetails","type":"tuple","internalType":"struct IStaqeStructs.Reward","components":[{"name":"isForERC721Stakers","type":"bool","internalType":"bool"},{"name":"rewardToken","type":"address","internalType":"contract IERC20"},{"name":"rewardAmount","type":"uint256","internalType":"uint256"},{"name":"totalStaked","type":"uint256","internalType":"uint256"},{"name":"claimAfterBlocks","type":"uint256","internalType":"uint256"},{"name":"rewardBlock","type":"uint256","internalType":"uint256"}]}],"stateMutability":"view"},{"type":"function","name":"getRewards","inputs":[{"name":"poolId","type":"uint256","internalType":"uint256"}],"outputs":[{"name":"","type":"tuple[]","internalType":"struct IStaqeStructs.Reward[]","components":[{"name":"isForERC721Stakers","type":"bool","internalType":"bool"},{"name":"rewardToken","type":"address","internalType":"contract IERC20"},{"name":"rewardAmount","type":"uint256","internalType":"uint256"},{"name":"totalStaked","type":"uint256","internalType":"uint256"},{"name":"claimAfterBlocks","type":"uint256","internalType":"uint256"},{"name":"rewardBlock","type":"uint256","internalType":"uint256"}]}],"stateMutability":"view"},{"type":"function","name":"getStake","inputs":[{"name":"staker","type":"address","internalType":"address"},{"name":"poolId","type":"uint256","internalType":"uint256"},{"name":"stakeId","type":"uint256","internalType":"uint256"}],"outputs":[{"name":"stakeDetails","type":"tuple","internalType":"struct IStaqeStructs.Stake","components":[{"name":"amountERC20","type":"uint256","internalType":"uint256"},{"name":"idERC721","type":"uint256","internalType":"uint256"},{"name":"stakeBlock","type":"uint256","internalType":"uint256"},{"name":"unstakeBlock","type":"uint256","internalType":"uint256"}]}],"stateMutability":"view"},{"type":"function","name":"getStakes","inputs":[{"name":"staker","type":"address","internalType":"address"},{"name":"poolId","type":"uint256","internalType":"uint256"}],"outputs":[{"name":"","type":"tuple[]","internalType":"struct IStaqeStructs.Stake[]","components":[{"name":"amountERC20","type":"uint256","internalType":"uint256"},{"name":"idERC721","type":"uint256","internalType":"uint256"},{"name":"stakeBlock","type":"uint256","internalType":"uint256"},{"name":"unstakeBlock","type":"uint256","internalType":"uint256"}]}],"stateMutability":"view"},{"type":"function","name":"getTotalPools","inputs":[],"outputs":[{"name":"","type":"uint256","internalType":"uint256"}],"stateMutability":"view"},{"type":"function","name":"isApprovedForAll","inputs":[{"name":"owner","type":"address","internalType":"address"},{"name":"operator","type":"address","internalType":"address"}],"outputs":[{"name":"","type":"bool","internalType":"bool"}],"stateMutability":"view"},{"type":"function","name":"launchPool","inputs":[{"name":"stakeERC20","type":"address","internalType":"contract IERC20"},{"name":"stakeERC721","type":"address","internalType":"contract IERC721"},{"name":"rewardToken","type":"address","internalType":"contract IERC20"},{"name":"totalMax","type":"uint256","internalType":"uint256"},{"name":"metadata","type":"string","internalType":"string"}],"outputs":[{"name":"poolId","type":"uint256","internalType":"uint256"}],"stateMutability":"nonpayable"},{"type":"function","name":"name","inputs":[],"outputs":[{"name":"","type":"string","internalType":"string"}],"stateMutability":"view"},{"type":"function","name":"owner","inputs":[],"outputs":[{"name":"","type":"address","internalType":"address"}],"stateMutability":"view"},{"type":"function","name":"ownerOf","inputs":[{"name":"tokenId","type":"uint256","internalType":"uint256"}],"outputs":[{"name":"","type":"address","internalType":"address"}],"stateMutability":"view"},{"type":"function","name":"renounceOwnership","inputs":[],"outputs":[],"stateMutability":"nonpayable"},{"type":"function","name":"safeTransferFrom","inputs":[{"name":"from","type":"address","internalType":"address"},{"name":"to","type":"address","internalType":"address"},{"name":"tokenId","type":"uint256","internalType":"uint256"}],"outputs":[],"stateMutability":"nonpayable"},{"type":"function","name":"safeTransferFrom","inputs":[{"name":"from","type":"address","internalType":"address"},{"name":"to","type":"address","internalType":"address"},{"name":"tokenId","type":"uint256","internalType":"uint256"},{"name":"data","type":"bytes","internalType":"bytes"}],"outputs":[],"stateMutability":"nonpayable"},{"type":"function","name":"setApprovalForAll","inputs":[{"name":"operator","type":"address","internalType":"address"},{"name":"approved","type":"bool","internalType":"bool"}],"outputs":[],"stateMutability":"nonpayable"},{"type":"function","name":"setContractURI","inputs":[{"name":"newURI","type":"string","internalType":"string"}],"outputs":[],"stateMutability":"nonpayable"},{"type":"function","name":"stake","inputs":[{"name":"poolId","type":"uint256","internalType":"uint256"},{"name":"amount","type":"uint256","internalType":"uint256"},{"name":"id","type":"uint256","internalType":"uint256"}],"outputs":[{"name":"stakeId","type":"uint256","internalType":"uint256"}],"stateMutability":"nonpayable"},{"type":"function","name":"stakeWithPermit","inputs":[{"name":"poolId","type":"uint256","internalType":"uint256"},{"name":"amount","type":"uint256","internalType":"uint256"},{"name":"deadline","type":"uint256","internalType":"uint256"},{"name":"v","type":"uint8","internalType":"uint8"},{"name":"r","type":"bytes32","internalType":"bytes32"},{"name":"s","type":"bytes32","internalType":"bytes32"},{"name":"max","type":"bool","internalType":"bool"}],"outputs":[],"stateMutability":"nonpayable"},{"type":"function","name":"supportsInterface","inputs":[{"name":"interfaceId","type":"bytes4","internalType":"bytes4"}],"outputs":[{"name":"","type":"bool","internalType":"bool"}],"stateMutability":"view"},{"type":"function","name":"symbol","inputs":[],"outputs":[{"name":"","type":"string","internalType":"string"}],"stateMutability":"view"},{"type":"function","name":"tokenURI","inputs":[{"name":"tokenId","type":"uint256","internalType":"uint256"}],"outputs":[{"name":"","type":"string","internalType":"string"}],"stateMutability":"view"},{"type":"function","name":"transferFrom","inputs":[{"name":"from","type":"address","internalType":"address"},{"name":"to","type":"address","internalType":"address"},{"name":"tokenId","type":"uint256","internalType":"uint256"}],"outputs":[],"stateMutability":"nonpayable"},{"type":"function","name":"transferOwnership","inputs":[{"name":"newOwner","type":"address","internalType":"address"}],"outputs":[],"stateMutability":"nonpayable"},{"type":"function","name":"unstake","inputs":[{"name":"poolId","type":"uint256","internalType":"uint256"},{"name":"stakeIds","type":"uint256[]","internalType":"uint256[]"}],"outputs":[{"name":"amountERC20","type":"uint256","internalType":"uint256"},{"name":"idsERC721","type":"uint256[]","internalType":"uint256[]"}],"stateMutability":"nonpayable"},{"type":"event","name":"Approval","inputs":[{"name":"owner","type":"address","indexed":true,"internalType":"address"},{"name":"approved","type":"address","indexed":true,"internalType":"address"},{"name":"tokenId","type":"uint256","indexed":true,"internalType":"uint256"}],"anonymous":false},{"type":"event","name":"ApprovalForAll","inputs":[{"name":"owner","type":"address","indexed":true,"internalType":"address"},{"name":"operator","type":"address","indexed":true,"internalType":"address"},{"name":"approved","type":"bool","indexed":false,"internalType":"bool"}],"anonymous":false},{"type":"event","name":"BatchMetadataUpdate","inputs":[{"name":"_fromTokenId","type":"uint256","indexed":false,"internalType":"uint256"},{"name":"_toTokenId","type":"uint256","indexed":false,"internalType":"uint256"}],"anonymous":false},{"type":"event","name":"Claimed","inputs":[{"name":"staker","type":"address","indexed":true,"internalType":"address"},{"name":"poolId","type":"uint256","indexed":true,"internalType":"uint256"}],"anonymous":false},{"type":"event","name":"ContractURIUpdated","inputs":[],"anonymous":false},{"type":"event","name":"Launched","inputs":[{"name":"poolId","type":"uint256","indexed":true,"internalType":"uint256"}],"anonymous":false},{"type":"event","name":"MetadataUpdate","inputs":[{"name":"_tokenId","type":"uint256","indexed":false,"internalType":"uint256"}],"anonymous":false},{"type":"event","name":"OwnershipTransferred","inputs":[{"name":"previousOwner","type":"address","indexed":true,"internalType":"address"},{"name":"newOwner","type":"address","indexed":true,"internalType":"address"}],"anonymous":false},{"type":"event","name":"Rewarded","inputs":[{"name":"poolId","type":"uint256","indexed":true,"internalType":"uint256"},{"name":"rewardId","type":"uint256","indexed":true,"internalType":"uint256"}],"anonymous":false},{"type":"event","name":"Staked","inputs":[{"name":"staker","type":"address","indexed":true,"internalType":"address"},{"name":"poolId","type":"uint256","indexed":true,"internalType":"uint256"},{"name":"stakeId","type":"uint256","indexed":true,"internalType":"uint256"}],"anonymous":false},{"type":"event","name":"Transfer","inputs":[{"name":"from","type":"address","indexed":true,"internalType":"address"},{"name":"to","type":"address","indexed":true,"internalType":"address"},{"name":"tokenId","type":"uint256","indexed":true,"internalType":"uint256"}],"anonymous":false},{"type":"event","name":"Unstaked","inputs":[{"name":"staker","type":"address","indexed":true,"internalType":"address"},{"name":"poolId","type":"uint256","indexed":true,"internalType":"uint256"}],"anonymous":false},{"type":"error","name":"ERC721IncorrectOwner","inputs":[{"name":"sender","type":"address","internalType":"address"},{"name":"tokenId","type":"uint256","internalType":"uint256"},{"name":"owner","type":"address","internalType":"address"}]},{"type":"error","name":"ERC721InsufficientApproval","inputs":[{"name":"operator","type":"address","internalType":"address"},{"name":"tokenId","type":"uint256","internalType":"uint256"}]},{"type":"error","name":"ERC721InvalidApprover","inputs":[{"name":"approver","type":"address","internalType":"address"}]},{"type":"error","name":"ERC721InvalidOperator","inputs":[{"name":"operator","type":"address","internalType":"address"}]},{"type":"error","name":"ERC721InvalidOwner","inputs":[{"name":"owner","type":"address","internalType":"address"}]},{"type":"error","name":"ERC721InvalidReceiver","inputs":[{"name":"receiver","type":"address","internalType":"address"}]},{"type":"error","name":"ERC721InvalidSender","inputs":[{"name":"sender","type":"address","internalType":"address"}]},{"type":"error","name":"ERC721NonexistentToken","inputs":[{"name":"tokenId","type":"uint256","internalType":"uint256"}]},{"type":"error","name":"InvalidAmountOrId","inputs":[]},{"type":"error","name":"InvalidERC721Token","inputs":[]},{"type":"error","name":"InvalidMetadata","inputs":[]},{"type":"error","name":"InvalidRewardToken","inputs":[]},{"type":"error","name":"InvalidStakeId","inputs":[]},{"type":"error","name":"InvalidStakeToken","inputs":[]},{"type":"error","name":"MoreThanTheTotalMaxTokens","inputs":[]},{"type":"error","name":"OnlyAvailableToStakersInGenesis","inputs":[]},{"type":"error","name":"OnlyOwnerHasAccessToAddRewards","inputs":[]},{"type":"error","name":"OnlyOwnerHasAccessToEditMetadata","inputs":[]},{"type":"error","name":"OwnableInvalidOwner","inputs":[{"name":"owner","type":"address","internalType":"address"}]},{"type":"error","name":"OwnableUnauthorizedAccount","inputs":[{"name":"account","type":"address","internalType":"address"}]},{"type":"error","name":"PoolDoesNotExist","inputs":[]},{"type":"error","name":"PoolDoesNotHaveStakes","inputs":[]},{"type":"error","name":"ReentrancyGuardReentrantCall","inputs":[]},{"type":"error","name":"RewardAlreadyClaimed","inputs":[]},{"type":"error","name":"RewardIsEmpty","inputs":[]},{"type":"error","name":"RewardIsNotYetAvailableForClaim","inputs":[]},{"type":"error","name":"RewardNotFoundInPool","inputs":[]},{"type":"error","name":"RewardTransferFailed","inputs":[]},{"type":"error","name":"StakeAlreadyUnstaked","inputs":[]},{"type":"error","name":"StakeOnNextBlockAfterReward","inputs":[]},{"type":"error","name":"StakeTransferFailed","inputs":[]},{"type":"error","name":"StakerDoesNotHaveStakesInPool","inputs":[]},{"type":"error","name":"TotalMaxForOnlyOneTypeOfToken","inputs":[]},{"type":"error","name":"UnstakeOnNextBlockAndGetReward","inputs":[]},{"type":"error","name":"UnstakeTransferFailed","inputs":[]}],"bytecode":{"object":"0x604060808152346200047a5762004290803803806200001e816200049f565b9283398101906080818303126200047a576200003a81620004c5565b6020808301516001600160a01b0394858216949293918590036200047a5762000065878401620004c5565b60608401516001600160401b03948582116200047a570190601f928084840112156200047a57825190868211620002c057601f1993620000ab83870186168a016200049f565b918383528984830101116200047a5790889160005b84811062000465575050600092010152620000da6200047f565b92600b84526a537461716520506f6f6c7360a81b87850152620000fc6200047f565b926003948585526253545160e81b89860152805190888211620002c057819062000128600054620004da565b8b86821162000432575b50508a90858311600114620003cc57600092620003c0575b50508160011b9160001990881b1c1916176000555b835190878211620002c05781906001956200017b8754620004da565b8b86821162000382575b50508a918584116001146200031e575060009262000312575b505060001982871b1c191690841b1783555b3315620002fa57600780546001600160a01b0319808216339081179093559291908b167f8be0079c531659141344cd1fd0a4f28419497f9722a3daafe3b4186f6b6457e0600080a362000205600854620004da565b818111620002d6575b505060006008558260095589519460e086019686881090881117620002c0576006988a80928d998a52168752888701908152818888019416845281606088019560008752608089019860008a528560a082019b60008d52600b60c084019e8f43905260008052526000209e8f925116915416178d558c019151168382541617905560028a019251169082541617905551908601555160048501555160058401555191015551613d5f9081620005318239f35b634e487b7160e01b600052604160045260246000fd5b620002f291600860005289600020910160051c81019062000517565b38806200020e565b8951631e4fbdf760e01b815260006004820152602490fd5b0151905038806200019e565b87949291921691846000528b6000209260005b8d8282106200036b575050841162000352575b505050811b018355620001b0565b015160001983891b60f8161c1916905538808062000344565b8385015186558a9790950194938401930162000331565b620003ae918960005287826000209181880160051c8301938810620003b6575b0160051c019062000517565b388b62000185565b92508192620003a2565b0151905038806200014a565b60008080528c8120938616905b8d8282106200041b57505090846001959493921062000402575b505050811b016000556200015f565b0151600019838a1b60f8161c19169055388080620003f3565b6001859682939686015181550195019301620003d9565b6200045d916000805287826000209181870160051c8301938710620003b6570160051c019062000517565b388b62000132565b8181018401518382018501528a9301620000c0565b600080fd5b60408051919082016001600160401b03811183821017620002c057604052565b6040519190601f01601f191682016001600160401b03811183821017620002c057604052565b51906001600160a01b03821682036200047a57565b90600182811c921680156200050c575b6020831014620004f657565b634e487b7160e01b600052602260045260246000fd5b91607f1691620004ea565b81811062000523575050565b600081556001016200051756fe6080604052600436101561001257600080fd5b6000803560e01c8062936c9a146126bd57806301ffc9a71461263457806304e4d71114612571578063068bcd8d1461250157806306fdde031461245d578063081812fc14612420578063095ea7b31461233d57806323b872dd146123255780632c32c360146122f55780633025ec6d14611fc4578063395de24214611aec5780633a2e1747146119df57806342842e0e146119b15780634cb8a68b146118b857806350f9b39e146116bd5780635b5b9ea21461148b5780636352211e1461145a57806370a0823114611402578063715018a6146113a45780637ebfee3e146113645780638da5cb5b1461133b578063938e3d7b1461118857806395d89b41146110e457806399a47faa14610a9f578063a22cb465146109ec578063a638f2e214610643578063b88d4fde146105d1578063b90bc51914610567578063c0d8012c14610469578063c87b56dd14610449578063d33560e61461038a578063d3ffe67a1461036c578063e8a3d48514610283578063e985e9c51461022f5763f2fde38b1461019d57600080fd5b3461022c57602036600319011261022c576101b6612aca565b6101be61377f565b6001600160a01b0390811690811561021357600754826bffffffffffffffffffffffff60a01b821617600755167f8be0079c531659141344cd1fd0a4f28419497f9722a3daafe3b4186f6b6457e0600080a380f35b604051631e4fbdf760e01b815260048101849052602490fd5b80fd5b503461022c57604036600319011261022c57610249612aca565b6040610253612af6565b9260018060a01b0380931681526005602052209116600052602052602060ff604060002054166040519015158152f35b503461022c578060031936011261022c5760405190806008546102a581613745565b8085529160019180831690811561034257506001146102e7575b6102e3856102cf81870382612bc3565b604051918291602083526020830190612c54565b0390f35b9250600883527ff3f7a9fe364faab93b216da50a3214154f22a0a2b415b23a84c8169e8b636ee35b82841061032a5750505081016020016102cf826102e36102bf565b8054602085870181019190915290930192810161030f565b8695506102e3969350602092506102cf94915060ff191682840152151560051b82010192936102bf565b503461022c578060031936011261022c576020600a54604051908152f35b503461022c5760809061039c36612cc9565b9192906040516103ab81612b72565b8281528260208201528260408201528260608201529360018060a01b0316808352600d6020526040832082845260205260408320548410610416575b85856104146040518092606080918051845260208101516020850152604081015160408501520151910152565bf35b61044094509160409161043a94938252600d60205282822090825260205220612f2a565b50612f46565b388080806103e7565b503461022c57602036600319011261022c576102e36102cf600435613acc565b503461022c576020908160031936011261022c57906004358252600c815260408220805461049681612d36565b906104a46040519283612bc3565b8082528382018093865284862086915b83831061054057505050506040519280840191818552518092526040840192945b8281106104e25784840385f35b9091928260c0826105316001948a5160a08091805115158452600180831b0360208201511660208501526040810151604085015260608101516060850152608081015160808501520151910152565b019601910194929190946104d5565b600587600192610554859b9a98999b612e79565b81520192019201919096949395966104b4565b503461022c57604036600319011261022c5760c0610589602435600435612ecd565b610414604051809260a08091805115158452600180831b0360208201511660208501526040810151604085015260608101516060850152608081015160808501520151910152565b503461022c57608036600319011261022c576105eb612aca565b6105f3612af6565b90604435606435926001600160401b03841161063f573660238501121561063f5761062b61063c943690602481600401359101612bff565b926106378383836137ab565b613988565b80f35b8480fd5b503461022c57606036600319011261022c576044356000602435600435610668613d06565b808352602092600b845260408120946006860154156109da57831593841594806109d2575b6109c057838352600c86526040832080548015159182610985575b505061097357338352600d86526040832084845286528460408420549561095d575b8215159182610931575b6003890154806108e6575b50338552600d8852604085208686528852604085206040519061070182612b72565b82825289820186815260408301904382526060840192898452805490600160401b8210156108d2579061073991600182018155612f2a565b9490946108be57518455516001840155516002830155516003909101558490889083610834575b505050610822576107a2575b509082917f1449c6dd7851abc30abf37f57715f492010519147cc2652fbc38202c18a6ee90339180a46001600955604051908152f35b600190950154909485916001600160a01b031690813b1561081e576040516323b872dd60e01b8152336004820152306024820152604481019190915295829187916064918391905af194851561081157839495610802575b85945061076c565b61080b90612b27565b856107fa565b50604051903d90823e3d90fd5b8280fd5b604051631231ec2f60e21b8152600490fd5b8a546040516323b872dd60e01b815233600482015230602482015260448101929092529093509091839160649183916001600160a01b03165af19081156108b3578491610886575b501583878a610760565b6108a69150873d89116108ac575b61089e8183612bc3565b810190612fa1565b8861087c565b503d610894565b6040513d86823e3d90fd5b634e487b7160e01b8a5260048a905260248afd5b634e487b7160e01b8b52604160045260248bfd5b8280610924575b61090457839081610916575b5061090457896106df565b604051636dce347360e11b8152600490fd5b905060058a0154118a6108f9565b508060048b0154116108ed565b600589018054906001820180921161094957556106d4565b634e487b7160e01b87526011600452602487fd5b6004880161096c838254612f94565b90556106ca565b604051630485995160e51b8152600490fd5b600019820192509082116109ac5760049161099f91612e47565b50015443111588806106a8565b634e487b7160e01b85526011600452602485fd5b604051633b91be2160e21b8152600490fd5b50811561068d565b6040516302721e1f60e61b8152600490fd5b503461022c57604036600319011261022c57610a06612aca565b6024359081151590818303610a9a576001600160a01b0316918215610a8157610a52903385526005602052604085208460005260205260406000209060ff801983541691151516179055565b6040519081527f17307eab39ab6107e8899845ad3d59bd9653f200f220920489ca2b5937696c3160203392a380f35b604051630b61174360e31b815260048101849052602490fd5b600080fd5b503461022c57606036600319011261022c576001600160401b0360043581811161081e57610ad1903690600401612d4d565b9060249081359080821161063f573660238301121561063f578160040135610af881612d36565b93610b066040519586612bc3565b81855280602086019260051b850101923684116110e057818501925b8484106110b557888888610b34612ae0565b610b3c613d06565b6001600160a01b038116156110ae575b825191610b82610b5b84612d36565b93610b696040519586612bc3565b808552610b78601f1991612d36565b016020850161330b565b835194610bb8610b9187612d36565b96610b9f6040519889612bc3565b808852610bae601f1991612d36565b016020880161330b565b80925b8551841015610cdb5786868692610bd287876132b5565b5151610bdd81612d36565b90610beb6040519283612bc3565b808252610bfa601f1991612d36565b01366020830137610c0b88866132b5565b52610c1687856132b5565b50610c2b610c2488886132b5565b51516132c9565b610c3588856132b5565b52610c4087846132b5565b50845b610c4d88886132b5565b5151811015610cc6578085610caf828b80610ca983610c8b8f610c99610ca191610c918f9d610c8b610cc19f610c848b80926132b5565b51946132b5565b516132b5565b519033613348565b9590996132b5565b51948d6132b5565b526132b5565b6001600160a01b039091169052612f78565b610c43565b5095915050610cd59150612f78565b92610bbb565b868683858882955b8451871015610d6857835b610cf888856132b5565b5151811015610d575780610d13610d5292610c8b8b8b6132b5565b51338752600e60205260408720610d2a8b8a6132b5565b51885260205260408720610d4283610c8b8d8a6132b5565b5188526020526040872055612f78565b610cee565b5095610d6290612f78565b95610ce3565b909293919484925b8051841015610fae57610d8384826132b5565b518652600b60205260408620600201546001600160a01b031680610ee15750855b610dae85896132b5565b5151811015610e9f57610dc581610c8b87866132b5565b518015610e8d578790602090610e24906001600160a01b03610deb86610c8b8c8e6132b5565b5160405163a9059cbb60e01b81526001600160a01b038b1660048201526024810193909352919485939190921691839182906044820190565b03925af1908115610e82578891610e63575b5015610e515784610e49610dae92612f78565b915050610da4565b60405163078ecf4160e41b8152600490fd5b610e7c915060203d6020116108ac5761089e8183612bc3565b89610e36565b6040513d8a823e3d90fd5b604051635f65f16560e11b8152600490fd5b5092610edb905b610eb081866132b5565b51337fd8138f8a3f377c5259ca548e70e4c2de94f129f5a11036a15b69513cba2b426a8980a3612f78565b92610d70565b9092869294979683905b610ef58a8a6132b5565b5151821015610f2657610f1a610f2091610f1384610c8b8e8c6132b5565b5190612f94565b91612f78565b90610eeb565b9194959397989290508115610e8d5760405163a9059cbb60e01b81526001600160a01b03861660048201526024810192909252602090829060449082908b905af1908115610fa3578791610f84575b5015610e5157610edb90610ea6565b610f9d915060203d6020116108ac5761089e8183612bc3565b88610f75565b6040513d89823e3d90fd5b50939150506001908160095560405192604084016040855281518091526060850190602060608260051b88010193019184905b82821061104857505050508381036020850152845190818152602081016020808460051b840101970193915b83831061101a5786880387f35b9091929394602080611037839a601f198682030187528951612d02565b99970195949190910192019061100d565b9091929395809896605f198982030183528551906020808351928381520192019088905b8481831061108d575050505060208091960192019201909291979597610fe1565b83516001600160a01b0316855260209485019490930192919091019061106c565b5033610b4c565b83358281116110dc576020916110d183928636918b0101612d4d565b815201930192610b22565b8980fd5b8780fd5b503461022c578060031936011261022c576040519080600180549161110883613745565b80865292828116908115610342575060011461112e576102e3856102cf81870382612bc3565b92508083527fb10e2d527612073b26eecdfd717e6a320cf44b4afac2b0732d9fcbe2b7fa0cf65b8284106111705750505081016020016102cf826102e36102bf565b80546020858701810191909152909301928101611155565b503461022c576020908160031936011261022c576001600160401b0360043581811161081e576111bc903690600401612c36565b926111c561377f565b8351918211611327576111d9600854613745565b601f81116112c5575b5080601f831160011461124257508293829392611237575b50508160011b916000199060031b1c1916176008555b7fa5d4097edda6d87cb9329af83fb3712ef77eeb13738ffe43cc35a4ce305ad9628180a180f35b0151905038806111fa565b60088452601f198316947ff3f7a9fe364faab93b216da50a3214154f22a0a2b415b23a84c8169e8b636ee3929185905b8782106112ad575050836001959610611294575b505050811b01600855611210565b015160001960f88460031b161c19169055388080611286565b80600185968294968601518155019501930190611272565b600884527ff3f7a9fe364faab93b216da50a3214154f22a0a2b415b23a84c8169e8b636ee3601f840160051c81019183851061131d575b601f0160051c01905b81811061131257506111e2565b848155600101611305565b90915081906112fc565b634e487b7160e01b83526041600452602483fd5b503461022c578060031936011261022c576007546040516001600160a01b039091168152602090f35b503461022c5760a036600319011261022c57602061139c611383612af6565b61138b612cf3565b906064359060443590600435612fb9565b604051908152f35b503461022c578060031936011261022c576113bd61377f565b600780546001600160a01b031981169091556000906001600160a01b03167f8be0079c531659141344cd1fd0a4f28419497f9722a3daafe3b4186f6b6457e08280a380f35b503461022c57602036600319011261022c576001600160a01b03611424612aca565b168015611441578160409160209352600383522054604051908152f35b6040516322718ad960e21b815260048101839052602490fd5b503461022c57602036600319011261022c57602061147960043561394d565b6040516001600160a01b039091168152f35b503461022c57604036600319011261022c576114a5612aca565b816101406040516114b581612b56565b828152826020820152826040820152826060820152606060808201528260a08201528260c08201528260e0820152826101008201528261012082015201526024358252600b60205260408220906040519061150f82612b0c565b82546001600160a01b0390811680845260018501548216602085018190526002860154909216604085018190526003860154606086015260048601546080860152600586015460a086015260069095015460c085015294909361157360243561394d565b61157e602435613acc565b60608601519160808701519360c0604060a08a0151976024358152600c602052818120549960018060a01b03168152600d60205281812060243582526020522054980151986040519a6115d08c612b56565b8b5260208b015260408a015260018060a01b03166060890152608088015260a087015260c086015260e085015261010084015261012083015261014082015260405180916020825260018060a01b03815116602083015260018060a01b03602082015116604083015260018060a01b03604082015116606083015260018060a01b036060820151166080830152608081015161014061167d610160928360a0870152610180860190612c54565b9260a081015160c086015260c081015160e086015260e0810151610100860152610100810151610120860152610120810151828601520151908301520390f35b503461022c576116cc36612cc9565b909291604051906116dc82612b3a565b8382528360e060209382858201528260408201528260608201528260808201528260a08201528260c082015201526117148386612ecd565b9084809460405197630161961b60e51b895260018060a01b0393848116908160048c01528260248c01528360448c015260408b606481305afa8581879261186c575b6101009d506118595750506001600160a01b03166000908152600e60209081526040808320858452825280832086845290915290205461182d575b505050505b81511515948184840151169360408401519060608501519360a060808701519601519660e06040516117c781612b3a565b8b815284810192835260408101958652606081019687526080810197885260a0810198895260c08101998a52019815158952604051998a525116908801525160408701525160608601525160808501525160a08401525160c083015251151560e0820152f35b8352600e8652604080842091845290865280832091835290855290205494506001935038808080611791565b8716888a01529950611796945050505050565b91505060408c3d6040116118b0575b8161188860409383612bc3565b810103126118ac578b5187811681036118a857896101009d015191611756565b8680fd5b8580fd5b3d915061187b565b503461022c57604036600319011261022c576001600160a01b036118da612aca565b1681526020600d815260408220602435835281526040822080546118fd81612d36565b9061190b6040519283612bc3565b8082528382018093865284862086915b83831061198a57505050506040519280840191818552518092526040840192945b8281106119495784840385f35b9091928260808261197b6001948a51606080918051845260208101516020850152604081015160408501520151910152565b0196019101949291909461193c565b60048760019261199e859b9a98999b612f46565b815201920192019190969493959661191b565b503461022c5761063c6119c336612c94565b90604051926119d184612ba8565b8584526106378383836137ab565b503461022c5761014036600319011261022c576119fa612af6565b60443590611a06612cf3565b9060c43560ff81168103610a9a57610124358015158103610a9a578591611a2b613d06565b6001600160a01b0384169115611ae557600019905b823b15611ad65760405163d505accf60e01b8152336004820152306024820152604481019290925260a48035606484015260ff91909116608483015260e48035918301919091526101043560c4830152909183918391829084905af18015611ada57611ac2575b5050611ab99260643591600435612fb9565b50600160095580f35b611acb90612b27565b611ad6578338611aa7565b8380fd5b6040513d84823e3d90fd5b8590611a40565b503461022c57604036600319011261022c57602435906001600160401b03808311611fc05736602384011215611fc05782600401351161022c57366024836004013560051b8401011161022c57611b41613d06565b6004358152600b602052604081209160405192611b5d84612b0c565b80546001600160a01b0390811685526001820154811660208087019182526002840154909216604080880191909152600384015460608801526004808501546080890152600585015460a089015260069094015460c088015292358552600c9091529083208054611bcd81612d36565b91611bdb6040519384612bc3565b81835285526020808620869184015b838310611fa2575050505080518015159182611f7b575b5050611f69576004358352600b602052604083206006810154156109da57338452600d60205260408420600435855260205260408420836004013515908115611f5f575b50611e4d5783948490611c5b85600401356132c9565b94865b81600401358110611e6757505086159182159280611e5f575b611e4d5782611e37575b8015159384611e1f575b505081611dab575b50611d9957611ce9575b506102e390604051938493600435907f0f5bb82176feb1b5e747e28471aa92156a04d9f3ab9f45f28e2d704232b93f75339180a360016009558352604060208401526040830190612d02565b8293925b8251811015611d8c57611d0081846132b5565b5115611d8357815185906001600160a01b0316611d1d83866132b5565b5190803b1561081e57604051632142170760e11b8152306004820152336024820152604481019290925282908290606490829084905af18015611ada57611d6f575b5050611d6a90612f78565b611ced565b611d7890612b27565b61063f578438611d5f565b611d6a90612f78565b50919291506102e3611c9d565b604051631b9f013160e11b8152600490fd5b5160405163a9059cbb60e01b81523360048201526024810188905291506020908290604490829089906001600160a01b03165af1908115611e14578591611df5575b501538611c93565b611e0e915060203d6020116108ac5761089e8183612bc3565b38611ded565b6040513d87823e3d90fd5b6005611e2e9101918254612f87565b90553880611c8b565b60048401611e46898254612f87565b9055611c81565b6040516319a089c160e01b8152600490fd5b508015611c77565b611e79818360040135602485016132fb565b35338952600d602052604089206004358a5260205260408920541115611f4d57338852600d602052604088206004358952602052611ecd60408920611ec6838560040135602487016132fb565b3590612f2a565b509860038a015415801590611f3f575b611f2d57611ef56001914360038d01558b5490612f94565b99015480611f0d575b50611f0890612f78565b611c5e565b8194611f2691611f20611f08948b6132b5565b52612f78565b9390611efe565b60405163793ef5e960e11b8152600490fd5b504360028b01541015611edd565b604051639b763f7160e01b8152600490fd5b9050541538611c45565b6040516371f7dfa560e01b8152600490fd5b600019820192509082116109ac5760a091611f95916132b5565b5101514311153880611c01565b60056020600192611fb285612e79565b815201920192019190611bea565b5080fd5b503461022c5760e036600319011261022c5760643560043560243560ff83168303611ad65760c435801515810361063f57611ffd613d06565b6001600160a01b039385908561201286612dab565b511692156122ee57600019925b803b1561081e5760405163d505accf60e01b81523360048201523060248201526044808201959095529335606485015260ff919091166084808501919091523560a4808501919091523560c4840152829060e490829084905af18015611e14576122db575b5061208d613d06565b816000526020600b81526040600020916006830154156109da57801594851595806122d3575b6109c05784600052600c8352604060002080548015159182612296575b505061097357859333600052600d8452604060002086600052845260406000205496612280575b84600382015480612260575b505033600052600d84526040600020866000528452604060002060405161212981612b72565b8481528581019160008352604082014381526060830191600083528054600160401b81101561224a5761216191600182018155612f2a565b9490946122345760039351855551600185015551600284015551910155846121ba575b5050505061082257337f1449c6dd7851abc30abf37f57715f492010519147cc2652fbc38202c18a6ee90600080a4600160095580f35b546040516323b872dd60e01b815233600482015230602482015260448101939093529293509091839183916064918391600091165af19182156122285760009261220b575b50501538808080612184565b6122219250803d106108ac5761089e8183612bc3565b38806121ff565b6040513d6000823e3d90fd5b634e487b7160e01b600052600060045260246000fd5b634e487b7160e01b600052604160045260246000fd5b81612272575b50610904578438612103565b905060048201541138612266565b6004810161228f848254612f94565b90556120f7565b600019820192509082116122bd576004916122b091612e47565b50015443111538806120d0565b634e487b7160e01b600052601160045260246000fd5b5060016120b3565b6122e790949194612b27565b9238612084565b839261201f565b503461022c57604061230f61230936612cc9565b91613348565b82516001600160a01b0390921682526020820152f35b503461022c5761063c61233736612c94565b916137ab565b503461022c57604036600319011261022c57612357612aca565b6024356123638161394d565b3315158061240d575b806123e2575b6123ca576001600160a01b039283169282918491167f8c5be1e5ebec7d5bd14f71427d1e84f3dd0314c0f7b2291e5b200ac8c7c3b9258680a4825260046020526040822080546001600160a01b031916909117905580f35b60405163a9fbf51f60e01b8152336004820152602490fd5b506001600160a01b038116845260056020908152604080862033875290915284205460ff1615612372565b506001600160a01b03811633141561236c565b503461022c57602036600319011261022c576020906004356124418161394d565b50815260048252604060018060a01b0391205416604051908152f35b503461022c578060031936011261022c576040519080805461247e81613745565b8085529160019180831690811561034257506001146124a7576102e3856102cf81870382612bc3565b80809450527f290decd9548b62a8d60345a988386fc84ba6bc95484008f6362f93160ef3e5635b8284106124e95750505081016020016102cf826102e36102bf565b805460208587018101919091529093019281016124ce565b503461022c57602036600319011261022c5760e0612520600435612dab565b60c06040519160018060a01b038082511684528060208301511660208501526040820151166040840152606081015160608401526080810151608084015260a081015160a0840152015160c0820152f35b503461022c57606036600319011261022c576024356004356044356001600160401b038111611ad6576125a8903690600401612c36565b906125b1613d06565b808452600b60205260408420926006840154156109da57825115612622576125d88261394d565b336001600160a01b0390911603612610576003612600940180548211612608575b5050613b91565b600160095580f35b5538806125f9565b60405163982cbfb960e01b8152600490fd5b604051635e765b2560e11b8152600490fd5b503461022c57602036600319011261022c5760043563ffffffff60e01b8116809103611fc057602090632483248360e11b811490811561267a575b506040519015158152f35b6380ac58cd60e01b8114915081156126ac575b811561269b575b508261266f565b6301ffc9a760e01b14905082612694565b635b5e139f60e01b8114915061268d565b503461022c5760a036600319011261022c576126d7612aca565b60249182356001600160a01b038181169182900361081e576126f7612ae0565b91606435946084356001600160401b0381116118ac5761271b903690600401612c36565b612723613d06565b61272c336135ff565b15612ab85782158015928380612aa8575b612a9657851692831580928193612a8e575b50612a7c57825115612622578815159182612a73575b5081612a6b575b50612a595761282a916006612782600a54612f78565b809781600a556040519361279585612b0c565b84528960209b8c92838701998a528a6040880191168152606087019182528a60406080890194808652600b60a08b019782895260c08c0199438b5283525220975116996bffffffffffffffffffffffff60a01b9a8b8954161788558b600189019151168b8254161790558a600288019151168a8254161790555160038601555160048501555160058401555191015584613b91565b6040519161283783612ba8565b8483523315612a41578390818652600287526040862054168015159283612a0d575b338752600388526040872060018154019055828752600288526040872090339082541617905533907fddf252ad1be2c89b69c2b068fc378daa952ba7f163c4a11628f55a4df523b3ef8780a46129f557333b6128e2575b50807feca0dfbda743d141662328d4d48393e344b2c60df0430297221df823f2926dba6040519380a260016009558152f35b604051848180612919630a85bd0160e11b95868352336004840152888b840152876044840152608060648401526084830190612c54565b038187335af18491816129b5575b50612983575050503d60001461297b573d61294181612be4565b9061294f6040519283612bc3565b81528091833d92013e5b8051918261297857604051633250574960e11b81523360048201528490fd5b01fd5b506060612959565b63ffffffff60e096939495961b16036129a05750908291386128b0565b604051633250574960e11b8152336004820152fd5b9091508581813d83116129ee575b6129cd8183612bc3565b8101031261063f57516001600160e01b03198116810361063f579038612927565b503d6129c3565b6040516339e3563760e11b8152600481018490528590fd5b600083815260046020526040902080546001600160a01b031916905581875260038852604087208054600019019055612859565b604051633250574960e11b8152600481018690528790fd5b60405163df9c3d7d60e01b8152600490fd5b90503861276c565b15915038612765565b6040516314ec381360e11b8152600490fd5b90503861274f565b6040516366a0777760e01b8152600490fd5b50612ab2856136e1565b1561273d565b6040516358fd19b960e11b8152600490fd5b600435906001600160a01b0382168203610a9a57565b604435906001600160a01b0382168203610a9a57565b602435906001600160a01b0382168203610a9a57565b60e081019081106001600160401b0382111761224a57604052565b6001600160401b03811161224a57604052565b61010081019081106001600160401b0382111761224a57604052565b61016081019081106001600160401b0382111761224a57604052565b608081019081106001600160401b0382111761224a57604052565b60c081019081106001600160401b0382111761224a57604052565b602081019081106001600160401b0382111761224a57604052565b90601f801991011681019081106001600160401b0382111761224a57604052565b6001600160401b03811161224a57601f01601f191660200190565b929192612c0b82612be4565b91612c196040519384612bc3565b829481845281830111610a9a578281602093846000960137010152565b9080601f83011215610a9a57816020612c5193359101612bff565b90565b919082519283825260005b848110612c80575050826000602080949584010152601f8019910116010190565b602081830181015184830182015201612c5f565b6060906003190112610a9a576001600160a01b03906004358281168103610a9a57916024359081168103610a9a579060443590565b6060906003190112610a9a576004356001600160a01b0381168103610a9a57906024359060443590565b608435908115158203610a9a57565b90815180825260208080930193019160005b828110612d22575050505090565b835185529381019392810192600101612d14565b6001600160401b03811161224a5760051b60200190565b81601f82011215610a9a57803591612d6483612d36565b92612d726040519485612bc3565b808452602092838086019260051b820101928311610a9a578301905b828210612d9c575050505090565b81358152908301908301612d8e565b60c06040918251612dbb81612b0c565b600092818480935282602082015282868201528260608201528260808201528260a082015201528152600b60205220600660405191612df983612b0c565b80546001600160a01b03908116845260018201548116602085015260028201541660408401526003810154606084015260048101546080840152600581015460a0840152015460c082015290565b8054821015612e63576000526005602060002091020190600090565b634e487b7160e01b600052603260045260246000fd5b90604051612e8681612b8d565b825460ff81161515825260081c6001600160a01b031660208201526001830154604082015260028301546060820152600383015460808201526004929092015460a0830152565b919060408051612edc81612b8d565b60009081815281602082015281838201528160608201528160808201528160a0820152948152600c6020522080548210612f14575050565b612c5192935090612f2491612e47565b50612e79565b8054821015612e635760005260206000209060021b0190600090565b90604051612f5381612b72565b6060600382948054845260018101546020850152600281015460408501520154910152565b60001981146122bd5760010190565b919082039182116122bd57565b919082018092116122bd57565b90816020910312610a9a57518015158103610a9a5790565b9293612fc3613d06565b81600093858552600b60205260409283862097845190612fe282612b0c565b600160a01b60019003808b541683528060018c01541660208401528060028c01541687840190815260038c01546060850152600498898d0154948d60808201968752600501549d60a082019e8f526006015460c081920152156132a5578216156132955785158015613282575b6132725761305c8b61394d565b8233911603613262578480613259575b8015613247575b613237575181168061322f575b50898952600c60205286892080549b8c948615613226575051915b8851956130a787612b8d565b1515865260208601971696878152888601918783526060870193845260808701948552600160401b60a08801964388521015613213578d6130ed91600182018155612e47565b969096613201579361318396938b938d9a979361311c60209b98511515889060ff801983541691151516179055565b518654610100600160a81b03191660089190911b610100600160a81b03161786555160018601555160028501555160038401555191015585516323b872dd60e01b815233888201908152306020820152604081019290925294859384928391606090910190565b03925af19081156131f75784916131d8575b50156131cb575050907fa3497b969e8cb093a223f5d62236b21822e7983269a8d00d3f0281e03da24a09828493a3906001600955565b5163078ecf4160e41b8152fd5b6131f1915060203d6020116108ac5761089e8183612bc3565b38613195565b82513d86823e3d90fd5b634e487b7160e01b8c528b8b5260248cfd5b634e487b7160e01b8c5260418b5260248cfd5b9050519161309b565b955038613080565b87516303bdf00d60e31b81528990fd5b50841580156130735750835115613073565b508b511561306c565b8751630a781f0560e21b81528990fd5b8751635f65f16560e11b81528990fd5b5084801561304f57508b5186111561304f565b875163dfde867160e01b81528990fd5b88516302721e1f60e61b81528a90fd5b8051821015612e635760209160051b010190565b906132d382612d36565b6132e06040519182612bc3565b82815280926132f1601f1991612d36565b0190602036910137565b9190811015612e635760051b0190565b60005b82811061331a57505050565b60608282015260200161330e565b8115613332570490565b634e487b7160e01b600052601260045260246000fd5b6001600160a01b0381166000908152600e60209081526040808320858452825280832086845290915281205490949193929085906135ed578181526020600c815260409485832093845461339b81612d36565b956133a889519788612bc3565b81875285528385208590858089015b8484106135ce57505050505081855111156135bd576001600160a01b039788168452600d8352868420908452825285832080549094906133f681612d36565b9561340389519788612bc3565b81875285528385208590858089015b84841061359e57505050505084511561358d579061342f916132b5565b519260a08401946134468651608087015190612f94565b43111561357c57835b82518110156135565761346281846132b5565b5160609081810151801590811561354b575b508a8201518a511015908951159182159083613540575b81613533575b8261352b575b5081613512575b506134b5575b5050506134b090612f78565b61344f565b929b92156134f8575190898801519182810292818404149015171561094957916134e96134ef926134b0948a015190613328565b90612f94565b999038806134a4565b506134b0916134e96134ef928b8a0151908a015190613328565b8291508115613523575b503861349e565b90503861351c565b915038613497565b848a015115159150613491565b84511515935061348b565b905089511038613474565b509796959250509250841561356c575001511691565b51635f65f16560e11b8152600490fd5b86516303a4fc3760e01b8152600490fd5b86516319a089c160e01b8152600490fd5b6001916004916135ad85612f46565b8152019201920191908690613412565b865163767afb7b60e11b8152600490fd5b6001916005916135dd85612e79565b81520192019201919086906133b7565b604051632cfe303760e21b8152600490fd5b6000808052600b60209081527fdf7de25b7f1fd6d0b5205f0e18f1f35bd7b8d84cce336588d184533ce43a6f7b546040929190157fdf7de25b7f1fd6d0b5205f0e18f1f35bd7b8d84cce336588d184533ce43a6f76816136d4575b506136cd57815b6001600160a01b038516808452600d8084528585208580528452858520549091908310156136c35784528252838320838052825260036136a382868620612f2a565b500154156136b9576136b490612f78565b613661565b5050505050600190565b5050505091505090565b5091505090565b600491500154153861365a565b6040516301ffc9a760e01b81526380ac58cd60e01b600482015290602090829060249082906001600160a01b03165afa60009181613725575b50612c515750600090565b61373e91925060203d81116108ac5761089e8183612bc3565b903861371a565b90600182811c92168015613775575b602083101461375f57565b634e487b7160e01b600052602260045260246000fd5b91607f1691613754565b6007546001600160a01b0316330361379357565b60405163118cdaa760e01b8152336004820152602490fd5b6001600160a01b0391821692909183156139345760009282845282602095600287526040968488882054169687913315158061389b575b509060027fddf252ad1be2c89b69c2b068fc378daa952ba7f163c4a11628f55a4df523b3ef9284613868575b858352600381528b8320805460010190558683525289812080546001600160a01b0319168517905580a416928383036138475750505050565b6064945051926364283d7b60e01b8452600484015260248301526044820152fd5b600087815260046020526040902080546001600160a01b0319169055848352600381528b8320805460001901905561380e565b919394509150806138f3575b156138b7578592918791386137e2565b8786886138d4576024915190637e27328960e01b82526004820152fd5b905163177e802f60e01b81523360048201526024810191909152604490fd5b503387148015613918575b806138a757508582526004815233858984205416146138a7565b5086825260058152878220338352815260ff88832054166138fe565b604051633250574960e11b815260006004820152602490fd5b6000818152600260205260409020546001600160a01b0316908115613970575090565b60249060405190637e27328960e01b82526004820152fd5b813b613995575b50505050565b604051630a85bd0160e11b8082523360048301526001600160a01b039283166024830152604482019490945260806064820152602095929091169390929083906139e3906084830190612c54565b039285816000958187895af1849181613a8c575b50613a57575050503d600014613a4f573d613a1181612be4565b90613a1f6040519283612bc3565b81528091843d92013e5b80519283613a4a57604051633250574960e11b815260048101849052602490fd5b019050fd5b506060613a29565b919450915063ffffffff60e01b1603613a7457503880808061398f565b60249060405190633250574960e11b82526004820152fd5b9091508681813d8311613ac5575b613aa48183612bc3565b8101031261063f57516001600160e01b03198116810361063f5790386139f7565b503d613a9a565b613ad58161394d565b506000908152602090600682526040812091604051809383908054613af981613745565b80855291600191808316908115613b6f5750600114613b32575b505050613b2292500383612bc3565b604051613b2e81612ba8565b5290565b86528486209492508591905b818310613b57575050613b229350820101388080613b13565b85548884018501529485019487945091830191613b3e565b92505050613b2294925060ff191682840152151560051b820101388080613b13565b9190916000908082526020916006835260408120908551906001600160401b038211613cf257613bc18354613745565b601f8111613caf575b508490601f8311600114613c2b57907ff8e1a15aba9398e019f0b49df1a4fde98ee17ae345cb5f6b5e2c27f5033e8ce7969783613c20575b50508160011b916000199060031b1c19161790555b604051908152a1565b015190503880613c02565b9196601f198816848452868420935b818110613c9857509160019391897ff8e1a15aba9398e019f0b49df1a4fde98ee17ae345cb5f6b5e2c27f5033e8ce7999a9410613c7f575b505050811b019055613c17565b015160001960f88460031b161c19169055388080613c72565b929387600181928786015181550195019301613c3a565b838252858220601f840160051c810191878510613ce8575b601f0160051c01905b818110613cdd5750613bca565b828155600101613cd0565b9091508190613cc7565b634e487b7160e01b81526041600452602490fd5b600260095414613d17576002600955565b604051633ee5aeb560e01b8152600490fdfea264697066735822122034f42097a1098f782155ab69b1d71abf998e36a10a3eab88ea44827f224ff98264736f6c63430008140033","linkReferences":{}},"methodIdentifiers":{"addReward(uint256,address,uint256,uint256,bool)":"7ebfee3e","addRewardWithPermit(uint256,address,uint256,uint256,bool,uint256,uint8,bytes32,bytes32,bool)":"3a2e1747","approve(address,uint256)":"095ea7b3","balanceOf(address)":"70a08231","calculateReward(address,uint256,uint256)":"2c32c360","claimRewards(uint256[],uint256[][],address)":"99a47faa","contractURI()":"e8a3d485","editPool(uint256,uint256,string)":"04e4d711","getApproved(uint256)":"081812fc","getPool(address,uint256)":"5b5b9ea2","getPool(uint256)":"068bcd8d","getReward(address,uint256,uint256)":"50f9b39e","getReward(uint256,uint256)":"b90bc519","getRewards(uint256)":"c0d8012c","getStake(address,uint256,uint256)":"d33560e6","getStakes(address,uint256)":"4cb8a68b","getTotalPools()":"d3ffe67a","isApprovedForAll(address,address)":"e985e9c5","launchPool(address,address,address,uint256,string)":"00936c9a","name()":"06fdde03","owner()":"8da5cb5b","ownerOf(uint256)":"6352211e","renounceOwnership()":"715018a6","safeTransferFrom(address,address,uint256)":"42842e0e","safeTransferFrom(address,address,uint256,bytes)":"b88d4fde","setApprovalForAll(address,bool)":"a22cb465","setContractURI(string)":"938e3d7b","stake(uint256,uint256,uint256)":"a638f2e2","stakeWithPermit(uint256,uint256,uint256,uint8,bytes32,bytes32,bool)":"3025ec6d","supportsInterface(bytes4)":"01ffc9a7","symbol()":"95d89b41","tokenURI(uint256)":"c87b56dd","transferFrom(address,address,uint256)":"23b872dd","transferOwnership(address)":"f2fde38b","unstake(uint256,uint256[])":"395de242"},"id":1}