{"abi":[{"type":"constructor","inputs":[{"name":"stakeERC20","type":"address","internalType":"contract IERC20"},{"name":"stakeERC721","type":"address","internalType":"contract IERC721"},{"name":"rewardToken","type":"address","internalType":"contract IERC20"},{"name":"metadata","type":"string","internalType":"string"}],"stateMutability":"nonpayable"},{"type":"function","name":"addReward","inputs":[{"name":"poolId","type":"uint256","internalType":"uint256"},{"name":"rewardToken","type":"address","internalType":"contract IERC20"},{"name":"rewardAmount","type":"uint256","internalType":"uint256"},{"name":"claimAfterBlocks","type":"uint256","internalType":"uint256"},{"name":"isForERC721Stakers","type":"bool","internalType":"bool"}],"outputs":[{"name":"rewardId","type":"uint256","internalType":"uint256"}],"stateMutability":"nonpayable"},{"type":"function","name":"addRewardWithPermit","inputs":[{"name":"poolId","type":"uint256","internalType":"uint256"},{"name":"rewardToken","type":"address","internalType":"contract IERC20"},{"name":"rewardAmount","type":"uint256","internalType":"uint256"},{"name":"claimAfterBlocks","type":"uint256","internalType":"uint256"},{"name":"isForERC721Stakers","type":"bool","internalType":"bool"},{"name":"deadline","type":"uint256","internalType":"uint256"},{"name":"v","type":"uint8","internalType":"uint8"},{"name":"r","type":"bytes32","internalType":"bytes32"},{"name":"s","type":"bytes32","internalType":"bytes32"},{"name":"max","type":"bool","internalType":"bool"}],"outputs":[{"name":"rewardId","type":"uint256","internalType":"uint256"}],"stateMutability":"nonpayable"},{"type":"function","name":"approve","inputs":[{"name":"to","type":"address","internalType":"address"},{"name":"tokenId","type":"uint256","internalType":"uint256"}],"outputs":[],"stateMutability":"nonpayable"},{"type":"function","name":"balanceOf","inputs":[{"name":"owner","type":"address","internalType":"address"}],"outputs":[{"name":"","type":"uint256","internalType":"uint256"}],"stateMutability":"view"},{"type":"function","name":"calculateReward","inputs":[{"name":"staker","type":"address","internalType":"address"},{"name":"poolId","type":"uint256","internalType":"uint256"},{"name":"rewardId","type":"uint256","internalType":"uint256"}],"outputs":[{"name":"","type":"address","internalType":"contract IERC20"},{"name":"","type":"uint256","internalType":"uint256"}],"stateMutability":"view"},{"type":"function","name":"claimRewards","inputs":[{"name":"poolIds","type":"uint256[]","internalType":"uint256[]"},{"name":"rewardIds","type":"uint256[][]","internalType":"uint256[][]"},{"name":"recipient","type":"address","internalType":"address"}],"outputs":[{"name":"tokens","type":"address[][]","internalType":"contract IERC20[][]"},{"name":"amounts","type":"uint256[][]","internalType":"uint256[][]"}],"stateMutability":"nonpayable"},{"type":"function","name":"contractURI","inputs":[],"outputs":[{"name":"","type":"string","internalType":"string"}],"stateMutability":"view"},{"type":"function","name":"editPool","inputs":[{"name":"poolId","type":"uint256","internalType":"uint256"},{"name":"totalMax","type":"uint256","internalType":"uint256"},{"name":"metadata","type":"string","internalType":"string"}],"outputs":[],"stateMutability":"nonpayable"},{"type":"function","name":"getApproved","inputs":[{"name":"tokenId","type":"uint256","internalType":"uint256"}],"outputs":[{"name":"","type":"address","internalType":"address"}],"stateMutability":"view"},{"type":"function","name":"getPool","inputs":[{"name":"poolId","type":"uint256","internalType":"uint256"}],"outputs":[{"name":"poolDetails","type":"tuple","internalType":"struct IStaqeStructs.Pool","components":[{"name":"stakeERC20","type":"address","internalType":"contract IERC20"},{"name":"stakeERC721","type":"address","internalType":"contract IERC721"},{"name":"rewardToken","type":"address","internalType":"contract IERC20"},{"name":"totalMax","type":"uint256","internalType":"uint256"},{"name":"totalStakedERC20","type":"uint256","internalType":"uint256"},{"name":"totalStakedERC721","type":"uint256","internalType":"uint256"},{"name":"launchBlock","type":"uint256","internalType":"uint256"}]}],"stateMutability":"view"},{"type":"function","name":"getPool","inputs":[{"name":"staker","type":"address","internalType":"address"},{"name":"poolId","type":"uint256","internalType":"uint256"}],"outputs":[{"name":"poolDetails","type":"tuple","internalType":"struct IStaqeStructs.PoolDetails","components":[{"name":"stakeERC20","type":"address","internalType":"contract IERC20"},{"name":"stakeERC721","type":"address","internalType":"contract IERC721"},{"name":"rewardToken","type":"address","internalType":"contract IERC20"},{"name":"rewarder","type":"address","internalType":"address"},{"name":"metadata","type":"string","internalType":"string"},{"name":"totalMax","type":"uint256","internalType":"uint256"},{"name":"totalStakedERC20","type":"uint256","internalType":"uint256"},{"name":"totalStakedERC721","type":"uint256","internalType":"uint256"},{"name":"totalRewards","type":"uint256","internalType":"uint256"},{"name":"totalStakerStakes","type":"uint256","internalType":"uint256"},{"name":"launchBlock","type":"uint256","internalType":"uint256"}]}],"stateMutability":"view"},{"type":"function","name":"getReward","inputs":[{"name":"staker","type":"address","internalType":"address"},{"name":"poolId","type":"uint256","internalType":"uint256"},{"name":"rewardId","type":"uint256","internalType":"uint256"}],"outputs":[{"name":"rewardDetails","type":"tuple","internalType":"struct IStaqeStructs.RewardDetails","components":[{"name":"isForERC721Stakers","type":"bool","internalType":"bool"},{"name":"rewardToken","type":"address","internalType":"contract IERC20"},{"name":"rewardAmount","type":"uint256","internalType":"uint256"},{"name":"stakerRewardAmount","type":"uint256","internalType":"uint256"},{"name":"totalStaked","type":"uint256","internalType":"uint256"},{"name":"claimAfterBlocks","type":"uint256","internalType":"uint256"},{"name":"rewardBlock","type":"uint256","internalType":"uint256"},{"name":"claimed","type":"bool","internalType":"bool"}]}],"stateMutability":"view"},{"type":"function","name":"getReward","inputs":[{"name":"poolId","type":"uint256","internalType":"uint256"},{"name":"rewardId","type":"uint256","internalType":"uint256"}],"outputs":[{"name":"rewardDetails","type":"tuple","internalType":"struct IStaqeStructs.Reward","components":[{"name":"isForERC721Stakers","type":"bool","internalType":"bool"},{"name":"rewardToken","type":"address","internalType":"contract IERC20"},{"name":"rewardAmount","type":"uint256","internalType":"uint256"},{"name":"totalStaked","type":"uint256","internalType":"uint256"},{"name":"claimAfterBlocks","type":"uint256","internalType":"uint256"},{"name":"rewardBlock","type":"uint256","internalType":"uint256"}]}],"stateMutability":"view"},{"type":"function","name":"getRewards","inputs":[{"name":"poolId","type":"uint256","internalType":"uint256"}],"outputs":[{"name":"","type":"tuple[]","internalType":"struct IStaqeStructs.Reward[]","components":[{"name":"isForERC721Stakers","type":"bool","internalType":"bool"},{"name":"rewardToken","type":"address","internalType":"contract IERC20"},{"name":"rewardAmount","type":"uint256","internalType":"uint256"},{"name":"totalStaked","type":"uint256","internalType":"uint256"},{"name":"claimAfterBlocks","type":"uint256","internalType":"uint256"},{"name":"rewardBlock","type":"uint256","internalType":"uint256"}]}],"stateMutability":"view"},{"type":"function","name":"getStake","inputs":[{"name":"staker","type":"address","internalType":"address"},{"name":"poolId","type":"uint256","internalType":"uint256"},{"name":"stakeId","type":"uint256","internalType":"uint256"}],"outputs":[{"name":"stakeDetails","type":"tuple","internalType":"struct IStaqeStructs.Stake","components":[{"name":"amountERC20","type":"uint256","internalType":"uint256"},{"name":"idERC721","type":"uint256","internalType":"uint256"},{"name":"stakeBlock","type":"uint256","internalType":"uint256"},{"name":"unstakeBlock","type":"uint256","internalType":"uint256"}]}],"stateMutability":"view"},{"type":"function","name":"getStakes","inputs":[{"name":"staker","type":"address","internalType":"address"},{"name":"poolId","type":"uint256","internalType":"uint256"}],"outputs":[{"name":"","type":"tuple[]","internalType":"struct IStaqeStructs.Stake[]","components":[{"name":"amountERC20","type":"uint256","internalType":"uint256"},{"name":"idERC721","type":"uint256","internalType":"uint256"},{"name":"stakeBlock","type":"uint256","internalType":"uint256"},{"name":"unstakeBlock","type":"uint256","internalType":"uint256"}]}],"stateMutability":"view"},{"type":"function","name":"getTotalPools","inputs":[],"outputs":[{"name":"","type":"uint256","internalType":"uint256"}],"stateMutability":"view"},{"type":"function","name":"isApprovedForAll","inputs":[{"name":"owner","type":"address","internalType":"address"},{"name":"operator","type":"address","internalType":"address"}],"outputs":[{"name":"","type":"bool","internalType":"bool"}],"stateMutability":"view"},{"type":"function","name":"launchPool","inputs":[{"name":"stakeERC20","type":"address","internalType":"contract IERC20"},{"name":"stakeERC721","type":"address","internalType":"contract IERC721"},{"name":"rewardToken","type":"address","internalType":"contract IERC20"},{"name":"totalMax","type":"uint256","internalType":"uint256"},{"name":"metadata","type":"string","internalType":"string"}],"outputs":[{"name":"poolId","type":"uint256","internalType":"uint256"}],"stateMutability":"nonpayable"},{"type":"function","name":"name","inputs":[],"outputs":[{"name":"","type":"string","internalType":"string"}],"stateMutability":"view"},{"type":"function","name":"owner","inputs":[],"outputs":[{"name":"","type":"address","internalType":"address"}],"stateMutability":"view"},{"type":"function","name":"ownerOf","inputs":[{"name":"tokenId","type":"uint256","internalType":"uint256"}],"outputs":[{"name":"","type":"address","internalType":"address"}],"stateMutability":"view"},{"type":"function","name":"renounceOwnership","inputs":[],"outputs":[],"stateMutability":"nonpayable"},{"type":"function","name":"safeTransferFrom","inputs":[{"name":"from","type":"address","internalType":"address"},{"name":"to","type":"address","internalType":"address"},{"name":"tokenId","type":"uint256","internalType":"uint256"}],"outputs":[],"stateMutability":"nonpayable"},{"type":"function","name":"safeTransferFrom","inputs":[{"name":"from","type":"address","internalType":"address"},{"name":"to","type":"address","internalType":"address"},{"name":"tokenId","type":"uint256","internalType":"uint256"},{"name":"data","type":"bytes","internalType":"bytes"}],"outputs":[],"stateMutability":"nonpayable"},{"type":"function","name":"setApprovalForAll","inputs":[{"name":"operator","type":"address","internalType":"address"},{"name":"approved","type":"bool","internalType":"bool"}],"outputs":[],"stateMutability":"nonpayable"},{"type":"function","name":"setContractURI","inputs":[{"name":"newURI","type":"string","internalType":"string"}],"outputs":[],"stateMutability":"nonpayable"},{"type":"function","name":"stake","inputs":[{"name":"poolId","type":"uint256","internalType":"uint256"},{"name":"amount","type":"uint256","internalType":"uint256"},{"name":"id","type":"uint256","internalType":"uint256"}],"outputs":[{"name":"stakeId","type":"uint256","internalType":"uint256"}],"stateMutability":"nonpayable"},{"type":"function","name":"stakeWithPermit","inputs":[{"name":"poolId","type":"uint256","internalType":"uint256"},{"name":"amount","type":"uint256","internalType":"uint256"},{"name":"deadline","type":"uint256","internalType":"uint256"},{"name":"v","type":"uint8","internalType":"uint8"},{"name":"r","type":"bytes32","internalType":"bytes32"},{"name":"s","type":"bytes32","internalType":"bytes32"},{"name":"max","type":"bool","internalType":"bool"}],"outputs":[{"name":"stakeId","type":"uint256","internalType":"uint256"}],"stateMutability":"nonpayable"},{"type":"function","name":"supportsInterface","inputs":[{"name":"interfaceId","type":"bytes4","internalType":"bytes4"}],"outputs":[{"name":"","type":"bool","internalType":"bool"}],"stateMutability":"view"},{"type":"function","name":"symbol","inputs":[],"outputs":[{"name":"","type":"string","internalType":"string"}],"stateMutability":"view"},{"type":"function","name":"tokenURI","inputs":[{"name":"tokenId","type":"uint256","internalType":"uint256"}],"outputs":[{"name":"","type":"string","internalType":"string"}],"stateMutability":"view"},{"type":"function","name":"transferFrom","inputs":[{"name":"from","type":"address","internalType":"address"},{"name":"to","type":"address","internalType":"address"},{"name":"tokenId","type":"uint256","internalType":"uint256"}],"outputs":[],"stateMutability":"nonpayable"},{"type":"function","name":"transferOwnership","inputs":[{"name":"newOwner","type":"address","internalType":"address"}],"outputs":[],"stateMutability":"nonpayable"},{"type":"function","name":"unstake","inputs":[{"name":"poolId","type":"uint256","internalType":"uint256"},{"name":"stakeIds","type":"uint256[]","internalType":"uint256[]"}],"outputs":[{"name":"amountERC20","type":"uint256","internalType":"uint256"},{"name":"idsERC721","type":"uint256[]","internalType":"uint256[]"}],"stateMutability":"nonpayable"},{"type":"event","name":"Approval","inputs":[{"name":"owner","type":"address","indexed":true,"internalType":"address"},{"name":"approved","type":"address","indexed":true,"internalType":"address"},{"name":"tokenId","type":"uint256","indexed":true,"internalType":"uint256"}],"anonymous":false},{"type":"event","name":"ApprovalForAll","inputs":[{"name":"owner","type":"address","indexed":true,"internalType":"address"},{"name":"operator","type":"address","indexed":true,"internalType":"address"},{"name":"approved","type":"bool","indexed":false,"internalType":"bool"}],"anonymous":false},{"type":"event","name":"BatchMetadataUpdate","inputs":[{"name":"_fromTokenId","type":"uint256","indexed":false,"internalType":"uint256"},{"name":"_toTokenId","type":"uint256","indexed":false,"internalType":"uint256"}],"anonymous":false},{"type":"event","name":"Claimed","inputs":[{"name":"staker","type":"address","indexed":true,"internalType":"address"},{"name":"poolId","type":"uint256","indexed":true,"internalType":"uint256"}],"anonymous":false},{"type":"event","name":"ContractURIUpdated","inputs":[],"anonymous":false},{"type":"event","name":"Launched","inputs":[{"name":"poolId","type":"uint256","indexed":true,"internalType":"uint256"}],"anonymous":false},{"type":"event","name":"MetadataUpdate","inputs":[{"name":"_tokenId","type":"uint256","indexed":false,"internalType":"uint256"}],"anonymous":false},{"type":"event","name":"OwnershipTransferred","inputs":[{"name":"previousOwner","type":"address","indexed":true,"internalType":"address"},{"name":"newOwner","type":"address","indexed":true,"internalType":"address"}],"anonymous":false},{"type":"event","name":"Rewarded","inputs":[{"name":"poolId","type":"uint256","indexed":true,"internalType":"uint256"},{"name":"rewardId","type":"uint256","indexed":true,"internalType":"uint256"}],"anonymous":false},{"type":"event","name":"Staked","inputs":[{"name":"staker","type":"address","indexed":true,"internalType":"address"},{"name":"poolId","type":"uint256","indexed":true,"internalType":"uint256"},{"name":"stakeId","type":"uint256","indexed":true,"internalType":"uint256"}],"anonymous":false},{"type":"event","name":"Transfer","inputs":[{"name":"from","type":"address","indexed":true,"internalType":"address"},{"name":"to","type":"address","indexed":true,"internalType":"address"},{"name":"tokenId","type":"uint256","indexed":true,"internalType":"uint256"}],"anonymous":false},{"type":"event","name":"Unstaked","inputs":[{"name":"staker","type":"address","indexed":true,"internalType":"address"},{"name":"poolId","type":"uint256","indexed":true,"internalType":"uint256"}],"anonymous":false},{"type":"error","name":"ERC721IncorrectOwner","inputs":[{"name":"sender","type":"address","internalType":"address"},{"name":"tokenId","type":"uint256","internalType":"uint256"},{"name":"owner","type":"address","internalType":"address"}]},{"type":"error","name":"ERC721InsufficientApproval","inputs":[{"name":"operator","type":"address","internalType":"address"},{"name":"tokenId","type":"uint256","internalType":"uint256"}]},{"type":"error","name":"ERC721InvalidApprover","inputs":[{"name":"approver","type":"address","internalType":"address"}]},{"type":"error","name":"ERC721InvalidOperator","inputs":[{"name":"operator","type":"address","internalType":"address"}]},{"type":"error","name":"ERC721InvalidOwner","inputs":[{"name":"owner","type":"address","internalType":"address"}]},{"type":"error","name":"ERC721InvalidReceiver","inputs":[{"name":"receiver","type":"address","internalType":"address"}]},{"type":"error","name":"ERC721InvalidSender","inputs":[{"name":"sender","type":"address","internalType":"address"}]},{"type":"error","name":"ERC721NonexistentToken","inputs":[{"name":"tokenId","type":"uint256","internalType":"uint256"}]},{"type":"error","name":"InvalidAmountOrId","inputs":[]},{"type":"error","name":"InvalidERC721Token","inputs":[]},{"type":"error","name":"InvalidMetadata","inputs":[]},{"type":"error","name":"InvalidRewardToken","inputs":[]},{"type":"error","name":"InvalidStakeId","inputs":[]},{"type":"error","name":"InvalidStakeToken","inputs":[]},{"type":"error","name":"MoreThanTheTotalMaxTokens","inputs":[]},{"type":"error","name":"OnlyAvailableToStakersInGenesis","inputs":[]},{"type":"error","name":"OnlyOwnerHasAccessToAddRewards","inputs":[]},{"type":"error","name":"OnlyOwnerHasAccessToEditMetadata","inputs":[]},{"type":"error","name":"OwnableInvalidOwner","inputs":[{"name":"owner","type":"address","internalType":"address"}]},{"type":"error","name":"OwnableUnauthorizedAccount","inputs":[{"name":"account","type":"address","internalType":"address"}]},{"type":"error","name":"PoolDoesNotExist","inputs":[]},{"type":"error","name":"PoolDoesNotHaveStakes","inputs":[]},{"type":"error","name":"ReentrancyGuardReentrantCall","inputs":[]},{"type":"error","name":"RewardAlreadyClaimed","inputs":[]},{"type":"error","name":"RewardIsEmpty","inputs":[]},{"type":"error","name":"RewardIsNotYetAvailableForClaim","inputs":[]},{"type":"error","name":"RewardNotFoundInPool","inputs":[]},{"type":"error","name":"RewardTransferFailed","inputs":[]},{"type":"error","name":"StakeAlreadyUnstaked","inputs":[]},{"type":"error","name":"StakeOnNextBlockAfterReward","inputs":[]},{"type":"error","name":"StakeTransferFailed","inputs":[]},{"type":"error","name":"StakerDoesNotHaveStakesInPool","inputs":[]},{"type":"error","name":"TotalMaxForOnlyOneTypeOfToken","inputs":[]},{"type":"error","name":"UnstakeOnNextBlockAndGetReward","inputs":[]},{"type":"error","name":"UnstakeTransferFailed","inputs":[]}],"bytecode":{"object":"0x604060808152346200047a5762004200803803806200001e816200049f565b9283398101906080818303126200047a576200003a81620004c5565b6020808301516001600160a01b0394858216949293918590036200047a5762000065878401620004c5565b60608401516001600160401b03948582116200047a570190601f928084840112156200047a57825190868211620002c057601f1993620000ab83870186168a016200049f565b918383528984830101116200047a5790889160005b84811062000465575050600092010152620000da6200047f565b92600b84526a537461716520506f6f6c7360a81b87850152620000fc6200047f565b926003948585526253545160e81b89860152805190888211620002c057819062000128600054620004da565b8b86821162000432575b50508a90858311600114620003cc57600092620003c0575b50508160011b9160001990881b1c1916176000555b835190878211620002c05781906001956200017b8754620004da565b8b86821162000382575b50508a918584116001146200031e575060009262000312575b505060001982871b1c191690841b1783555b3315620002fa57600780546001600160a01b0319808216339081179093559291908b167f8be0079c531659141344cd1fd0a4f28419497f9722a3daafe3b4186f6b6457e0600080a362000205600854620004da565b818111620002d6575b505060006008558260095589519460e086019686881090881117620002c0576006988a80928d998a52168752888701908152818888019416845281606088019560008752608089019860008a528560a082019b60008d52600b60c084019e8f43905260008052526000209e8f925116915416178d558c019151168382541617905560028a019251169082541617905551908601555160048501555160058401555191015551613ccf9081620005318239f35b634e487b7160e01b600052604160045260246000fd5b620002f291600860005289600020910160051c81019062000517565b38806200020e565b8951631e4fbdf760e01b815260006004820152602490fd5b0151905038806200019e565b87949291921691846000528b6000209260005b8d8282106200036b575050841162000352575b505050811b018355620001b0565b015160001983891b60f8161c1916905538808062000344565b8385015186558a9790950194938401930162000331565b620003ae918960005287826000209181880160051c8301938810620003b6575b0160051c019062000517565b388b62000185565b92508192620003a2565b0151905038806200014a565b60008080528c8120938616905b8d8282106200041b57505090846001959493921062000402575b505050811b016000556200015f565b0151600019838a1b60f8161c19169055388080620003f3565b6001859682939686015181550195019301620003d9565b6200045d916000805287826000209181870160051c8301938710620003b6570160051c019062000517565b388b62000132565b8181018401518382018501528a9301620000c0565b600080fd5b60408051919082016001600160401b03811183821017620002c057604052565b6040519190601f01601f191682016001600160401b03811183821017620002c057604052565b51906001600160a01b03821682036200047a57565b90600182811c921680156200050c575b6020831014620004f657565b634e487b7160e01b600052602260045260246000fd5b91607f1691620004ea565b81811062000523575050565b600081556001016200051756fe6080604052600436101561001257600080fd5b60003560e01c8062936c9a1461260a57806301ffc9a71461258257806304e4d711146124bf578063068bcd8d1461245057806306fdde03146123ad578063081812fc1461236f578063095ea7b31461228857806323b872dd146122715780632c32c360146122425780633025ec6d14611f66578063395de24214611a7d5780633a2e17471461199457806342842e0e146119665780634cb8a68b1461187257806350f9b39e1461167b5780635b5b9ea2146114405780636352211e1461141057806370a08231146113b7578063715018a61461135a5780637ebfee3e1461131b5780638da5cb5b146112f2578063938e3d7b1461115257806395d89b41146110af57806399a47faa14610a7a578063a22cb465146109cc578063a638f2e21461063a578063b88d4fde146105ce578063b90bc51914610565578063c0d8012c14610470578063c87b56dd14610451578063d33560e614610389578063d3ffe67a1461036b578063e8a3d48514610285578063e985e9c51461022f5763f2fde38b1461019c57600080fd5b3461022a57602036600319011261022a576101b5612a22565b6101bd6136eb565b6001600160a01b0390811690811561021157600754826bffffffffffffffffffffffff60a01b821617600755167f8be0079c531659141344cd1fd0a4f28419497f9722a3daafe3b4186f6b6457e0600080a3005b604051631e4fbdf760e01b815260006004820152602490fd5b600080fd5b3461022a57604036600319011261022a57610248612a22565b610250612a4e565b9060018060a01b03809116600052600560205260406000209116600052602052602060ff604060002054166040519015158152f35b3461022a57600036600319011261022a5760405160006008546102a7816136b1565b8084529060019081811690811561034457506001146102e9575b6102e5846102d181860382612b1b565b604051918291602083526020830190612bac565b0390f35b6008600090815292507ff3f7a9fe364faab93b216da50a3214154f22a0a2b415b23a84c8169e8b636ee35b82841061032c5750505081016020016102d1826102c1565b80546020858701810191909152909301928101610314565b60ff191660208087019190915292151560051b850190920192506102d191508390506102c1565b3461022a57600036600319011261022a576020600a54604051908152f35b3461022a57608061039936612c21565b6040519192916103a881612aca565b600081526000602082015260006040820152600060608201529160018060a01b03169283600052600d602052604060002081600052602052604060002054821061041c575b848361041a6040518092606080918051845260208101516020850152604081015160408501520151910152565bf35b610443925061044993600052600d6020526040600020906000526020526040600020612e82565b50612e9e565b8083806103ed565b3461022a57602036600319011261022a576102e56102d1600435613a3c565b3461022a5760208060031936011261022a57600435600052600c8152604060002090815461049d81612c8e565b906104ab6040519283612b1b565b8082528282018094600052836000206000915b8383106105485760408051878152865181890181905289928201908960005b8281106104ea5784840385f35b9091928260c0826105396001948a5160a08091805115158452600180831b0360208201511660208501526040810151604085015260608101516060850152608081015160808501520151910152565b019601910194929190946104dd565b60058660019261055785612dd1565b8152019201920191906104be565b3461022a57604036600319011261022a5760c0610586602435600435612e25565b61041a604051809260a08091805115158452600180831b0360208201511660208501526040810151604085015260608101516060850152608081015160808501520151910152565b3461022a57608036600319011261022a576105e7612a22565b6105ef612a4e565b90604435606435926001600160401b03841161022a573660238501121561022a57610627610638943690602481600401359101612b57565b92610633838383613717565b6138f4565b005b3461022a57606036600319011261022a57600060443560243560043561065e613c76565b80600052602093600b85526040600020936006850154156109ba57831594851595806109b2575b6109a05783600052600c8752604060002080548015159182610979575b50506109675733600052600d875260406000208460005287528560406000205496610951575b8215159586610923575b6003830154806108d8575b5033600052600d895260406000208660005289526040600020906040519161070483612aca565b8183528a83019286845260408101914383526060820190600082528054600160401b8110156108c25761073c91600182018155612e82565b9390936108ac578d95600393518555516001850155516002840155519101558261082c575b505061081a5785946107a2575b50507f1449c6dd7851abc30abf37f57715f492010519147cc2652fbc38202c18a6ee90339180a46001600955604051908152f35b600101549093506001600160a01b0316803b1561022a576040516323b872dd60e01b815233600482015230602482015260448101949094526000908490606490829084905af192831561080e5784936107fc575b8061076e565b6108069150612a7f565b6000856107f6565b6040513d6000823e3d90fd5b604051631231ec2f60e21b8152600490fd5b83546040516323b872dd60e01b81523360048201523060248201526044810192909252909250829060649082906000906001600160a01b03165af190811561080e5760009161087f575b50158789610761565b61089f9150883d8a116108a5575b6108978183612b1b565b810190612ef9565b88610876565b503d61088d565b634e487b7160e01b600052600060045260246000fd5b634e487b7160e01b600052604160045260246000fd5b8280610916575b6108f657879081610908575b506108f657896106dd565b604051636dce347360e11b8152600490fd5b90506005840154118a6108eb565b50806004850154116108df565b600583018054906001820180921161093b57556106d2565b634e487b7160e01b600052601160045260246000fd5b60048201610960878254612eec565b90556106c8565b604051630485995160e51b8152600490fd5b6000198201925090821161093b5760049161099391612d9f565b50015443111588806106a2565b604051633b91be2160e21b8152600490fd5b508115610685565b6040516302721e1f60e61b8152600490fd5b3461022a57604036600319011261022a576109e5612a22565b602435908115159081830361022a576001600160a01b0316918215610a6157610a339033600052600560205260406000208460005260205260406000209060ff801983541691151516179055565b6040519081527f17307eab39ab6107e8899845ad3d59bd9653f200f220920489ca2b5937696c3160203392a3005b604051630b61174360e31b815260048101849052602490fd5b3461022a57606036600319011261022a576001600160401b0360043581811161022a57610aab903690600401612ca5565b60249182359080821161022a573660238301121561022a57816004013593610ad285612c8e565b94610ae06040519687612b1b565b80865281602087019160051b8501019236841161022a57828501915b848310611088578787610b0d612a38565b610b15613c76565b6001600160a01b03811615611081575b815190610b5b610b3483612c8e565b92610b426040519485612b1b565b808452610b51601f1991612c8e565b0160208401613263565b825193610b91610b6a86612c8e565b95610b786040519788612b1b565b808752610b87601f1991612c8e565b0160208701613263565b6000915b8451831015610cb357610ba8838361320d565b5151610bb381612c8e565b90610bc16040519283612b1b565b808252610bd0601f1991612c8e565b01366020830137610be1848661320d565b52610bec838561320d565b50610c01610bfa848461320d565b5151613221565b610c0b848861320d565b52610c16838761320d565b5083868660005b610c27878761320d565b5151811015610c9f578084610c88828a80610c8283610c64610c7a8f610c7290610c6a610c9a9d8f89610c5d81610c649361320d565b519461320d565b5161320d565b5190336132a0565b95909961320d565b51948c61320d565b5261320d565b6001600160a01b039091169052612ed0565b610c1d565b5050505091610cad90612ed0565b91610b95565b858583866000945b8351861015610d475760005b610cd1878561320d565b5151811015610d365780610cec610d3192610c648a8a61320d565b5133600052600e6020526040600020610d058a8961320d565b516000526020526040600020610d1f83610c648c8a61320d565b51600052602052604060002055612ed0565b610cc7565b5094610d4190612ed0565b94610cbb565b60009085855b8051841015610f8157610d60848261320d565b516000908152600b60205260409020600201546001600160a01b031680610eba575060005b610d8f858861320d565b5151811015610e7757610da681610c64878661320d565b518015610e6557600090602090610e06906001600160a01b03610dcd86610c648c8e61320d565b5160405163a9059cbb60e01b81526001600160a01b038b1660048201526024810193909352919485939190921691839182906044820190565b03925af190811561080e57600091610e46575b5015610e345784610e2c610d8f92612ed0565b915050610d85565b60405163078ecf4160e41b8152600490fd5b610e5f915060203d6020116108a5576108978183612b1b565b88610e19565b604051635f65f16560e11b8152600490fd5b5092610eb4905b610e88818661320d565b51337fd8138f8a3f377c5259ca548e70e4c2de94f129f5a11036a15b69513cba2b426a600080a3612ed0565b92610d4d565b90919260009695966000905b610ed0878961320d565b5151821015610f0157610ef5610efb91610eee84610c648b8b61320d565b5190612eec565b91612ed0565b90610ec6565b919493959290509695968115610e655760405163a9059cbb60e01b81526001600160a01b03861660048201526024810192909252602090829060449082906000905af190811561080e57600091610f62575b5015610e3457610eb490610e7e565b610f7b915060203d6020116108a5576108978183612b1b565b87610f53565b508360018060095560405191604083016040845281518091526060840190602060608260051b8701019301916000905b82821061101a57505050508281036020840152835180825260208201916020808360051b8301019601926000915b838310610fec5786880387f35b9091929394602080611009839a601f198682030187528951612c5a565b999701959491909101920190610fdf565b9091929394809795605f19888203018352855190602080835192838152019201906000905b84818310611060575050505060208091960192019201909291969496610fb1565b83516001600160a01b0316855260209485019490930192919091019061103f565b5033610b25565b823582811161022a576020916110a483928736918b0101612ca5565b815201920191610afc565b3461022a57600036600319011261022a57604051600060018054906110d3826136b1565b8085529181811690811561034457506001146110f9576102e5846102d181860382612b1b565b600081815292507fb10e2d527612073b26eecdfd717e6a320cf44b4afac2b0732d9fcbe2b7fa0cf65b82841061113a5750505081016020016102d1826102c1565b80546020858701810191909152909301928101611122565b3461022a5760208060031936011261022a576001600160401b0360043581811161022a57611184903690600401612b8e565b9161118d6136eb565b82519182116108c2576111a16008546136b1565b601f811161128e575b5080601f831160011461120a575081926000926111ff575b50508160011b916000199060031b1c1916176008555b7fa5d4097edda6d87cb9329af83fb3712ef77eeb13738ffe43cc35a4ce305ad962600080a1005b0151905082806111c2565b90601f1983169360086000527ff3f7a9fe364faab93b216da50a3214154f22a0a2b415b23a84c8169e8b636ee3926000905b868210611276575050836001951061125d575b505050811b016008556111d8565b015160001960f88460031b161c1916905582808061124f565b8060018596829496860151815501950193019061123c565b60086000527ff3f7a9fe364faab93b216da50a3214154f22a0a2b415b23a84c8169e8b636ee3601f840160051c8101918385106112e8575b601f0160051c01905b8181106112dc57506111aa565b600081556001016112cf565b90915081906112c6565b3461022a57600036600319011261022a576007546040516001600160a01b039091168152602090f35b3461022a5760a036600319011261022a576020611352611339612a4e565b611341612c4b565b906064359060443590600435612f11565b604051908152f35b3461022a57600036600319011261022a576113736136eb565b600780546001600160a01b031981169091556000906001600160a01b03167f8be0079c531659141344cd1fd0a4f28419497f9722a3daafe3b4186f6b6457e08280a3005b3461022a57602036600319011261022a576001600160a01b036113d8612a22565b1680156113f75760005260036020526020604060002054604051908152f35b6040516322718ad960e21b815260006004820152602490fd5b3461022a57602036600319011261022a57602061142e6004356138b9565b6040516001600160a01b039091168152f35b3461022a57604036600319011261022a57611459612a22565b600061014060405161146a81612aae565b828152826020820152826040820152826060820152606060808201528260a08201528260c08201528260e082015282610100820152826101208201520152602435600052600b60205260406000206040516114c481612a64565b81546001600160a01b0390811680835260018401548216602084018190526002850154909216604084018190526003850154606085015260048501546080850152600585015460a085015260069094015460c08401529390926115286024356138b9565b611533602435613a3c565b60608501519060808601519260a087015194602435600052600c6020526040600020549660018060a01b0316600052600d602052604060002060243560005260205260c0604060002054980151986040519a61158e8c612aae565b8b5260208b015260408a015260018060a01b03166060890152608088015260a087015260c086015260e085015261010084015261012083015261014082015260405180916020825260018060a01b03815116602083015260018060a01b03602082015116604083015260018060a01b03604082015116606083015260018060a01b036060820151166080830152608081015161014061163b610160928360a0870152610180860190612bac565b9260a081015160c086015260c081015160e086015260e0810151610100860152610100810151610120860152610120810151828601520151908301520390f35b3461022a5761168936612c21565b60409291925161169881612a92565b60008152600060e060209282848201528260408201528260608201528260808201528260a08201528260c082015201526116d28285612e25565b60009360009360405196630161961b60e51b885260018060a01b0392838116908160048b01528260248b01528360448b015260408a606481305afa60008160009261182e575b6101009c5061181c5750506001600160a01b03166000908152600e6020908152604080832085845282528083208684529091529020546117ee575b5050505b81511515948184840151169360408401519060608501519360a060808701519601519660e060405161178881612a92565b8b815284810192835260408101958652606081019687526080810197885260a0810198895260c08101998a52019815158952604051998a525116908801525160408701525160608601525160808501525160a08401525160c083015251151560e0820152f35b6000908152600e86526040808220928252918652818120928152918552902054945060019350868080611753565b86168789015298506117579350505050565b91505060408b3d60401161186a575b8161184a60409383612b1b565b8101031261022a578a51868116810361022a57886101009c015191611718565b3d915061183d565b3461022a57604036600319011261022a576001600160a01b03611893612a22565b166000526020600d81526040600020602435600052815260406000209081546118bb81612c8e565b906118c96040519283612b1b565b8082528282018094600052836000206000915b8383106119495760408051878152865181890181905289928201908960005b8281106119085784840385f35b9091928260808261193a6001948a51606080918051845260208101516020850152604081015160408501520151910152565b019601910194929190946118fb565b60048660019261195885612e9e565b8152019201920191906118dc565b3461022a5761063861197736612bec565b906040519261198584612b00565b60008452610633838383613717565b3461022a5761014036600319011261022a576119ae612a4e565b6044356119b9612c4b565b60c4359260ff8416840361022a576101243593841515850361022a576001600160a01b0382169415611a7657600019905b853b1561022a5760405163d505accf60e01b8152336004820152306024820152604481019290925260a48035606484015260ff91909116608483015260e48035918301919091526101043560c483015290946000918691829084905af192831561080e5760209461135294611a67575b5060643591600435612f11565b611a7090612a7f565b85611a5a565b83906119ea565b3461022a57604036600319011261022a576001600160401b03806024351161022a5736602360243501121561022a57602435600401351161022a5736602480356004013560051b813501011161022a57611ad5613c76565b600435600052600b602052604060002060405190611af282612a64565b60018060a01b038154168252600660018060a01b03600183015416916020840192835260018060a01b0360028201541660408501526003810154606085015260048101546080850152600581015460a0850152015460c0830152600435600052600c60205260406000208054611b6781612c8e565b91611b756040519384612b1b565b818352602083019060005260206000206000915b838310611f48575050505080518015159182611f21575b5050611f0f57600435600052600b6020526040600020906006820154156109ba5733600052600d602052604060002060043560005260205260406000206024356004013515908115611f05575b50611de5576000916000611c0660243560040135613221565b9460005b602435600401358110611dff575084159182159280611df7575b611de55782611dcf575b8015159384611db7575b505081611d4c575b50611d3a57611c95575b506102e5604051928392600435337f0f5bb82176feb1b5e747e28471aa92156a04d9f3ab9f45f28e2d704232b93f75600080a360016009558352604060208401526040830190612c5a565b60005b8351811015611d3257611cab818561320d565b5115611d295781516001600160a01b031690611cc7818661320d565b5191803b1561022a57604051632142170760e11b815230600482015233602482015260448101939093526000908390606490829084905af191821561080e57611d1592611d1a575b50612ed0565b611c98565b611d2390612a7f565b85611d0f565b611d1590612ed0565b505082611c4a565b604051631b9f013160e11b8152600490fd5b5160405163a9059cbb60e01b8152336004820152602481018690529150602090829060449082906000906001600160a01b03165af190811561080e57600091611d98575b501585611c40565b611db1915060203d6020116108a5576108978183612b1b565b85611d90565b6005611dc69101918254612edf565b90558680611c38565b60048401611dde878254612edf565b9055611c2e565b6040516319a089c160e01b8152600490fd5b508015611c24565b611e1481602435600401356024803501613253565b3533600052600d60205260406000206004356000526020526040600020541115611ef35733600052600d6020526040600020600435600052602052611e736040600020611e6c83602435600401356024803501613253565b3590612e82565b5095600387015415801590611ee5575b611ed357611e9b6001914360038a0155885490612eec565b96015480611eb3575b50611eae90612ed0565b611c0a565b8193611ecc91611ec6611eae948b61320d565b52612ed0565b9290611ea4565b60405163793ef5e960e11b8152600490fd5b504360028801541015611e83565b604051639b763f7160e01b8152600490fd5b9050541584611bed565b6040516371f7dfa560e01b8152600490fd5b6000198201925090821161093b5760a091611f3b9161320d565b5101514311158380611ba0565b60056020600192611f5885612dd1565b815201920192019190611b89565b3461022a5760e036600319011261022a5760643560243560043560ff8316830361022a5760c435801515810361022a576001600160a01b039384611fa984612d03565b5116911561223b57600019905b823b1561022a5760405163d505accf60e01b81523360048201523060248201526044808201939093529135606483015260ff166084808301919091523560a4808301919091523560c482015290600090829060e490829084905af1801561080e5761222c575b50612025613c76565b80600052602092600b845260406000206006810154156109ba5783159384159480612224575b6109a05783600052600c86526040600020805480151591826121fd575b505061096757849233600052600d87526040600020856000528752604060002054956121e7575b836003840154806121c7575b505033600052600d87526040600020856000528752604060002092604051936120c385612aca565b838552888501946000865260408101914383526060820190600082528054600160401b8110156108c2576120fc91600182018155612e82565b9390936108ac578b97600393518555516001850155516002840155519101558461215e575b5050505061081a578190337f1449c6dd7851abc30abf37f57715f492010519147cc2652fbc38202c18a6ee90600080a46001600955604051908152f35b546040516323b872dd60e01b8152336004820152306024820152604481019390935291935083916064918391600091165af190811561080e576000916121aa575b501583858080612121565b6121c19150843d86116108a5576108978183612b1b565b8461219f565b816121d9575b506108f657838861209b565b9050600484015411886121cd565b600483016121f6838254612eec565b905561208f565b6000198201925090821161093b5760049161221791612d9f565b5001544311158780612068565b50600161204b565b61223590612a7f565b8361201c565b8390611fb6565b3461022a57604061225b61225536612c21565b916132a0565b82516001600160a01b0390921682526020820152f35b3461022a5761063861228236612bec565b91613717565b3461022a57604036600319011261022a576122a1612a22565b6024356122ad816138b9565b3315158061235c575b8061232f575b612317576001600160a01b039283169282918491167f8c5be1e5ebec7d5bd14f71427d1e84f3dd0314c0f7b2291e5b200ac8c7c3b925600080a4600090815260046020526040902080546001600160a01b0319169091179055005b60405163a9fbf51f60e01b8152336004820152602490fd5b5060018060a01b038116600052600560205260406000203360005260205260ff60406000205416156122bc565b506001600160a01b0381163314156122b6565b3461022a57602036600319011261022a5760043561238c816138b9565b506000526004602052602060018060a01b0360406000205416604051908152f35b3461022a57600036600319011261022a57604051600080546123ce816136b1565b8084529060019081811690811561034457506001146123f7576102e5846102d181860382612b1b565b600080805292507f290decd9548b62a8d60345a988386fc84ba6bc95484008f6362f93160ef3e5635b8284106124385750505081016020016102d1826102c1565b80546020858701810191909152909301928101612420565b3461022a57602036600319011261022a5760e061246e600435612d03565b60c06040519160018060a01b038082511684528060208301511660208501526040820151166040840152606081015160608401526080810151608084015260a081015160a0840152015160c0820152f35b3461022a57606036600319011261022a576024356004356044356001600160401b03811161022a576124f5903690600401612b8e565b906124fe613c76565b80600052600b6020526040600020926006840154156109ba5782511561257057612527826138b9565b336001600160a01b039091160361255e57600361254f940180548211612556575b5050613b01565b6001600955005b558380612548565b60405163982cbfb960e01b8152600490fd5b604051635e765b2560e11b8152600490fd5b3461022a57602036600319011261022a5760043563ffffffff60e01b811680910361022a57602090632483248360e11b81149081156125c7575b506040519015158152f35b6380ac58cd60e01b8114915081156125f9575b81156125e8575b50826125bc565b6301ffc9a760e01b149050826125e1565b635b5e139f60e01b811491506125da565b3461022a5760a036600319011261022a57612623612a22565b60249081356001600160a01b038181169182900361022a57612643612a38565b91606435936084356001600160401b03811161022a57612667903690600401612b8e565b61266f613c76565b6126783361356b565b15612a105782158015928380612a00575b6129ee578516928315809281936129e6575b506129d4578251156125705787151591826129cb575b50816129c3575b506129b1576127789160066126ce600a54612ed0565b9687600a55604051926126e084612a64565b835260209889840196875287604085019216825260608401908152608084016000815260a08501916000835260c08601934385528b600052600b8d528a6040600020975116996bffffffffffffffffffffffff60a01b9a8b8954161788558b600189019151168b8254161790558a600288019151168a8254161790555160038601555160048501555160058401555191015584613b01565b6040519161278583612b00565b6000835233156129995783908160005260028652604060002054168015159283612966575b33600052600387526040600020600181540190558260005260028752604060002090339082541617905533907fddf252ad1be2c89b69c2b068fc378daa952ba7f163c4a11628f55a4df523b3ef600080a461294e57333b61283a575b5060405190807feca0dfbda743d141662328d4d48393e344b2c60df0430297221df823f2926dba600080a260016009558152f35b604051838180612872630a85bd0160e11b9586835233600484015260008a840152876044840152608060648401526084830190612bac565b03816000335af16000918161290e575b506128dd575050503d6000146128d6573d61289c81612b3c565b906128aa6040519283612b1b565b81523d60008383013e5b805191826128d357604051633250574960e11b81523360048201528490fd5b01fd5b60606128b4565b929391926001600160e01b031916036128f95750819083612806565b604051633250574960e11b8152336004820152fd5b9091508481813d8311612947575b6129268183612b1b565b8101031261022a57516001600160e01b03198116810361022a579086612882565b503d61291c565b6040516339e3563760e11b8152600060048201528490fd5b60008381526004602052604080822080546001600160a01b031916905583825260038952902080546000190190556127aa565b604051633250574960e11b8152600060048201528690fd5b60405163df9c3d7d60e01b8152600490fd5b9050886126b8565b159150896126b1565b6040516314ec381360e11b8152600490fd5b90508a61269b565b6040516366a0777760e01b8152600490fd5b50612a0a8561364d565b15612689565b6040516358fd19b960e11b8152600490fd5b600435906001600160a01b038216820361022a57565b604435906001600160a01b038216820361022a57565b602435906001600160a01b038216820361022a57565b60e081019081106001600160401b038211176108c257604052565b6001600160401b0381116108c257604052565b61010081019081106001600160401b038211176108c257604052565b61016081019081106001600160401b038211176108c257604052565b608081019081106001600160401b038211176108c257604052565b60c081019081106001600160401b038211176108c257604052565b602081019081106001600160401b038211176108c257604052565b90601f801991011681019081106001600160401b038211176108c257604052565b6001600160401b0381116108c257601f01601f191660200190565b929192612b6382612b3c565b91612b716040519384612b1b565b82948184528183011161022a578281602093846000960137010152565b9080601f8301121561022a57816020612ba993359101612b57565b90565b919082519283825260005b848110612bd8575050826000602080949584010152601f8019910116010190565b602081830181015184830182015201612bb7565b606090600319011261022a576001600160a01b0390600435828116810361022a5791602435908116810361022a579060443590565b606090600319011261022a576004356001600160a01b038116810361022a57906024359060443590565b60843590811515820361022a57565b90815180825260208080930193019160005b828110612c7a575050505090565b835185529381019392810192600101612c6c565b6001600160401b0381116108c25760051b60200190565b81601f8201121561022a57803591612cbc83612c8e565b92612cca6040519485612b1b565b808452602092838086019260051b82010192831161022a578301905b828210612cf4575050505090565b81358152908301908301612ce6565b60c06040918251612d1381612a64565b600092818480935282602082015282868201528260608201528260808201528260a082015201528152600b60205220600660405191612d5183612a64565b80546001600160a01b03908116845260018201548116602085015260028201541660408401526003810154606084015260048101546080840152600581015460a0840152015460c082015290565b8054821015612dbb576000526005602060002091020190600090565b634e487b7160e01b600052603260045260246000fd5b90604051612dde81612ae5565b825460ff81161515825260081c6001600160a01b031660208201526001830154604082015260028301546060820152600383015460808201526004929092015460a0830152565b919060408051612e3481612ae5565b60009081815281602082015281838201528160608201528160808201528160a0820152948152600c6020522080548210612e6c575050565b612ba992935090612e7c91612d9f565b50612dd1565b8054821015612dbb5760005260206000209060021b0190600090565b90604051612eab81612aca565b6060600382948054845260018101546020850152600281015460408501520154910152565b600019811461093b5760010190565b9190820391821161093b57565b9190820180921161093b57565b9081602091031261022a5751801515810361022a5790565b9293612f1b613c76565b81600093858552600b60205260409283862097845190612f3a82612a64565b600160a01b60019003808b541683528060018c01541660208401528060028c01541687840190815260038c01546060850152600498898d0154948d60808201968752600501549d60a082019e8f526006015460c081920152156131fd578216156131ed57851580156131da575b6131ca57612fb48b6138b9565b82339116036131ba5784806131b1575b801561319f575b61318f5751811680613187575b50898952600c60205286892080549b8c94861561317e575051915b885195612fff87612ae5565b1515865260208601971696878152888601918783526060870193845260808701948552600160401b60a0880196438852101561316b578d61304591600182018155612d9f565b96909661315957936130db96938b938d9a979361307460209b98511515889060ff801983541691151516179055565b518654610100600160a81b03191660089190911b610100600160a81b03161786555160018601555160028501555160038401555191015585516323b872dd60e01b815233888201908152306020820152604081019290925294859384928391606090910190565b03925af190811561314f578491613130575b5015613123575050907fa3497b969e8cb093a223f5d62236b21822e7983269a8d00d3f0281e03da24a09828493a3906001600955565b5163078ecf4160e41b8152fd5b613149915060203d6020116108a5576108978183612b1b565b386130ed565b82513d86823e3d90fd5b634e487b7160e01b8c528b8b5260248cfd5b634e487b7160e01b8c5260418b5260248cfd5b90505191612ff3565b955038612fd8565b87516303bdf00d60e31b81528990fd5b5084158015612fcb5750835115612fcb565b508b5115612fc4565b8751630a781f0560e21b81528990fd5b8751635f65f16560e11b81528990fd5b50848015612fa757508b51861115612fa7565b875163dfde867160e01b81528990fd5b88516302721e1f60e61b81528a90fd5b8051821015612dbb5760209160051b010190565b9061322b82612c8e565b6132386040519182612b1b565b8281528092613249601f1991612c8e565b0190602036910137565b9190811015612dbb5760051b0190565b60005b82811061327257505050565b606082820152602001613266565b811561328a570490565b634e487b7160e01b600052601260045260246000fd5b6001600160a01b0381166000908152600e6020908152604080832085845282528083208684529091528120549094919392908590613559578181526020600c81526040948583209384546132f381612c8e565b9561330089519788612b1b565b81875285528385208590858089015b84841061353a5750505050508185511115613529576001600160a01b039788168452600d83528684209084528252858320805490949061334e81612c8e565b9561335b89519788612b1b565b81875285528385208590858089015b84841061350a5750505050508451156134f957906133879161320d565b519260a084019461339e8651608087015190612eec565b4311156134e857835b82518110156134c2576133ba818461320d565b516060908181015180159081156134b7575b508a8201518a5110159089511591821590836134ac575b8161349f575b82613497575b508161347e575b5061340d575b50505061340890612ed0565b6133a7565b929b92156134645751908988015191828102928184041490151715613450579161344161344792613408948a015190613280565b90612eec565b999038806133fc565b634e487b7160e01b87526011600452602487fd5b5061340891613441613447928b8a0151908a015190613280565b829150811561348f575b50386133f6565b905038613488565b9150386133ef565b848a0151151591506133e9565b8451151593506133e3565b9050895110386133cc565b50979695925050925084156134d8575001511691565b51635f65f16560e11b8152600490fd5b86516303a4fc3760e01b8152600490fd5b86516319a089c160e01b8152600490fd5b60019160049161351985612e9e565b815201920192019190869061336a565b865163767afb7b60e11b8152600490fd5b60019160059161354985612dd1565b815201920192019190869061330f565b604051632cfe303760e21b8152600490fd5b6000808052600b60209081527fdf7de25b7f1fd6d0b5205f0e18f1f35bd7b8d84cce336588d184533ce43a6f7b546040929190157fdf7de25b7f1fd6d0b5205f0e18f1f35bd7b8d84cce336588d184533ce43a6f7681613640575b5061363957815b6001600160a01b038516808452600d80845285852085805284528585205490919083101561362f57845282528383208380528252600361360f82868620612e82565b500154156136255761362090612ed0565b6135cd565b5050505050600190565b5050505091505090565b5091505090565b60049150015415386135c6565b6040516301ffc9a760e01b81526380ac58cd60e01b600482015290602090829060249082906001600160a01b03165afa60009181613691575b50612ba95750600090565b6136aa91925060203d81116108a5576108978183612b1b565b9038613686565b90600182811c921680156136e1575b60208310146136cb57565b634e487b7160e01b600052602260045260246000fd5b91607f16916136c0565b6007546001600160a01b031633036136ff57565b60405163118cdaa760e01b8152336004820152602490fd5b6001600160a01b0391821692909183156138a057600092828452826020956002875260409684888820541696879133151580613807575b509060027fddf252ad1be2c89b69c2b068fc378daa952ba7f163c4a11628f55a4df523b3ef92846137d4575b858352600381528b8320805460010190558683525289812080546001600160a01b0319168517905580a416928383036137b35750505050565b6064945051926364283d7b60e01b8452600484015260248301526044820152fd5b600087815260046020526040902080546001600160a01b0319169055848352600381528b8320805460001901905561377a565b9193945091508061385f575b156138235785929187913861374e565b878688613840576024915190637e27328960e01b82526004820152fd5b905163177e802f60e01b81523360048201526024810191909152604490fd5b503387148015613884575b806138135750858252600481523385898420541614613813565b5086825260058152878220338352815260ff888320541661386a565b604051633250574960e11b815260006004820152602490fd5b6000818152600260205260409020546001600160a01b03169081156138dc575090565b60249060405190637e27328960e01b82526004820152fd5b813b613901575b50505050565b604051630a85bd0160e11b8082523360048301526001600160a01b0392831660248301526044820194909452608060648201526020959290911693909290839061394f906084830190612bac565b039285816000958187895af18491816139f8575b506139c3575050503d6000146139bb573d61397d81612b3c565b9061398b6040519283612b1b565b81528091843d92013e5b805192836139b657604051633250574960e11b815260048101849052602490fd5b019050fd5b506060613995565b919450915063ffffffff60e01b16036139e05750388080806138fb565b60249060405190633250574960e11b82526004820152fd5b9091508681813d8311613a35575b613a108183612b1b565b81010312613a3157516001600160e01b031981168103613a31579038613963565b8480fd5b503d613a06565b613a45816138b9565b506000908152602090600682526040812091604051809383908054613a69816136b1565b80855291600191808316908115613adf5750600114613aa2575b505050613a9292500383612b1b565b604051613a9e81612b00565b5290565b86528486209492508591905b818310613ac7575050613a929350820101388080613a83565b85548884018501529485019487945091830191613aae565b92505050613a9294925060ff191682840152151560051b820101388080613a83565b9190916000908082526020916006835260408120908551906001600160401b038211613c6257613b3183546136b1565b601f8111613c1f575b508490601f8311600114613b9b57907ff8e1a15aba9398e019f0b49df1a4fde98ee17ae345cb5f6b5e2c27f5033e8ce7969783613b90575b50508160011b916000199060031b1c19161790555b604051908152a1565b015190503880613b72565b9196601f198816848452868420935b818110613c0857509160019391897ff8e1a15aba9398e019f0b49df1a4fde98ee17ae345cb5f6b5e2c27f5033e8ce7999a9410613bef575b505050811b019055613b87565b015160001960f88460031b161c19169055388080613be2565b929387600181928786015181550195019301613baa565b838252858220601f840160051c810191878510613c58575b601f0160051c01905b818110613c4d5750613b3a565b828155600101613c40565b9091508190613c37565b634e487b7160e01b81526041600452602490fd5b600260095414613c87576002600955565b604051633ee5aeb560e01b8152600490fdfea26469706673582212202008df32426b07cf29ed0bb02ed0b700913db238b6dc429dd70d36c26aebd49964736f6c63430008140033","linkReferences":{}},"methodIdentifiers":{"addReward(uint256,address,uint256,uint256,bool)":"7ebfee3e","addRewardWithPermit(uint256,address,uint256,uint256,bool,uint256,uint8,bytes32,bytes32,bool)":"3a2e1747","approve(address,uint256)":"095ea7b3","balanceOf(address)":"70a08231","calculateReward(address,uint256,uint256)":"2c32c360","claimRewards(uint256[],uint256[][],address)":"99a47faa","contractURI()":"e8a3d485","editPool(uint256,uint256,string)":"04e4d711","getApproved(uint256)":"081812fc","getPool(address,uint256)":"5b5b9ea2","getPool(uint256)":"068bcd8d","getReward(address,uint256,uint256)":"50f9b39e","getReward(uint256,uint256)":"b90bc519","getRewards(uint256)":"c0d8012c","getStake(address,uint256,uint256)":"d33560e6","getStakes(address,uint256)":"4cb8a68b","getTotalPools()":"d3ffe67a","isApprovedForAll(address,address)":"e985e9c5","launchPool(address,address,address,uint256,string)":"00936c9a","name()":"06fdde03","owner()":"8da5cb5b","ownerOf(uint256)":"6352211e","renounceOwnership()":"715018a6","safeTransferFrom(address,address,uint256)":"42842e0e","safeTransferFrom(address,address,uint256,bytes)":"b88d4fde","setApprovalForAll(address,bool)":"a22cb465","setContractURI(string)":"938e3d7b","stake(uint256,uint256,uint256)":"a638f2e2","stakeWithPermit(uint256,uint256,uint256,uint8,bytes32,bytes32,bool)":"3025ec6d","supportsInterface(bytes4)":"01ffc9a7","symbol()":"95d89b41","tokenURI(uint256)":"c87b56dd","transferFrom(address,address,uint256)":"23b872dd","transferOwnership(address)":"f2fde38b","unstake(uint256,uint256[])":"395de242"},"id":1}