{"abi":[{"type":"constructor","inputs":[{"name":"stakeERC20","type":"address","internalType":"contract IERC20"},{"name":"stakeERC721","type":"address","internalType":"contract IERC721"},{"name":"rewardToken","type":"address","internalType":"contract IERC20"},{"name":"rewarder","type":"address","internalType":"address"},{"name":"metadata","type":"bytes32","internalType":"bytes32"}],"stateMutability":"nonpayable"},{"type":"function","name":"addReward","inputs":[{"name":"poolId","type":"uint256","internalType":"uint256"},{"name":"rewardToken","type":"address","internalType":"contract IERC20"},{"name":"rewardAmount","type":"uint256","internalType":"uint256"},{"name":"claimAfterBlocks","type":"uint256","internalType":"uint256"},{"name":"isForERC721Stakers","type":"bool","internalType":"bool"}],"outputs":[{"name":"rewardId","type":"uint256","internalType":"uint256"}],"stateMutability":"nonpayable"},{"type":"function","name":"addRewardWithPermit","inputs":[{"name":"poolId","type":"uint256","internalType":"uint256"},{"name":"rewardToken","type":"address","internalType":"contract IERC20"},{"name":"rewardAmount","type":"uint256","internalType":"uint256"},{"name":"claimAfterBlocks","type":"uint256","internalType":"uint256"},{"name":"isForERC721Stakers","type":"bool","internalType":"bool"},{"name":"deadline","type":"uint256","internalType":"uint256"},{"name":"v","type":"uint8","internalType":"uint8"},{"name":"r","type":"bytes32","internalType":"bytes32"},{"name":"s","type":"bytes32","internalType":"bytes32"},{"name":"max","type":"bool","internalType":"bool"}],"outputs":[],"stateMutability":"nonpayable"},{"type":"function","name":"calculateReward","inputs":[{"name":"staker","type":"address","internalType":"address"},{"name":"poolId","type":"uint256","internalType":"uint256"},{"name":"rewardId","type":"uint256","internalType":"uint256"}],"outputs":[{"name":"","type":"address","internalType":"contract IERC20"},{"name":"","type":"uint256","internalType":"uint256"}],"stateMutability":"view"},{"type":"function","name":"claimRewards","inputs":[{"name":"poolIds","type":"uint256[]","internalType":"uint256[]"},{"name":"rewardIds","type":"uint256[][]","internalType":"uint256[][]"},{"name":"recipient","type":"address","internalType":"address"}],"outputs":[{"name":"tokens","type":"address[][]","internalType":"contract IERC20[][]"},{"name":"amounts","type":"uint256[][]","internalType":"uint256[][]"}],"stateMutability":"nonpayable"},{"type":"function","name":"editPool","inputs":[{"name":"poolId","type":"uint256","internalType":"uint256"},{"name":"metadata","type":"bytes32","internalType":"bytes32"}],"outputs":[],"stateMutability":"nonpayable"},{"type":"function","name":"getPool","inputs":[{"name":"poolId","type":"uint256","internalType":"uint256"}],"outputs":[{"name":"poolDetails","type":"tuple","internalType":"struct IStaqeStructs.Pool","components":[{"name":"stakeERC20","type":"address","internalType":"contract IERC20"},{"name":"stakeERC721","type":"address","internalType":"contract IERC721"},{"name":"rewardToken","type":"address","internalType":"contract IERC20"},{"name":"rewarder","type":"address","internalType":"address"},{"name":"metadata","type":"bytes32","internalType":"bytes32"},{"name":"totalStakedERC20","type":"uint256","internalType":"uint256"},{"name":"totalStakedERC721","type":"uint256","internalType":"uint256"},{"name":"launchBlock","type":"uint256","internalType":"uint256"}]}],"stateMutability":"view"},{"type":"function","name":"getPool","inputs":[{"name":"staker","type":"address","internalType":"address"},{"name":"poolId","type":"uint256","internalType":"uint256"}],"outputs":[{"name":"poolDetails","type":"tuple","internalType":"struct IStaqeStructs.StakerPool","components":[{"name":"stakeERC20","type":"address","internalType":"contract IERC20"},{"name":"stakeERC721","type":"address","internalType":"contract IERC721"},{"name":"rewardToken","type":"address","internalType":"contract IERC20"},{"name":"rewarder","type":"address","internalType":"address"},{"name":"metadata","type":"bytes32","internalType":"bytes32"},{"name":"totalStakedERC20","type":"uint256","internalType":"uint256"},{"name":"totalStakedERC721","type":"uint256","internalType":"uint256"},{"name":"totalRewards","type":"uint256","internalType":"uint256"},{"name":"totalStakerStakes","type":"uint256","internalType":"uint256"},{"name":"launchBlock","type":"uint256","internalType":"uint256"}]}],"stateMutability":"view"},{"type":"function","name":"getReward","inputs":[{"name":"staker","type":"address","internalType":"address"},{"name":"poolId","type":"uint256","internalType":"uint256"},{"name":"rewardId","type":"uint256","internalType":"uint256"}],"outputs":[{"name":"rewardDetails","type":"tuple","internalType":"struct IStaqeStructs.StakerReward","components":[{"name":"isForERC721Stakers","type":"bool","internalType":"bool"},{"name":"rewardToken","type":"address","internalType":"contract IERC20"},{"name":"rewardAmount","type":"uint256","internalType":"uint256"},{"name":"stakerAmount","type":"uint256","internalType":"uint256"},{"name":"totalStaked","type":"uint256","internalType":"uint256"},{"name":"claimAfterBlocks","type":"uint256","internalType":"uint256"},{"name":"rewardBlock","type":"uint256","internalType":"uint256"},{"name":"claimed","type":"bool","internalType":"bool"}]}],"stateMutability":"view"},{"type":"function","name":"getReward","inputs":[{"name":"poolId","type":"uint256","internalType":"uint256"},{"name":"rewardId","type":"uint256","internalType":"uint256"}],"outputs":[{"name":"rewardDetails","type":"tuple","internalType":"struct IStaqeStructs.Reward","components":[{"name":"isForERC721Stakers","type":"bool","internalType":"bool"},{"name":"rewardToken","type":"address","internalType":"contract IERC20"},{"name":"rewardAmount","type":"uint256","internalType":"uint256"},{"name":"totalStaked","type":"uint256","internalType":"uint256"},{"name":"claimAfterBlocks","type":"uint256","internalType":"uint256"},{"name":"rewardBlock","type":"uint256","internalType":"uint256"}]}],"stateMutability":"view"},{"type":"function","name":"getRewards","inputs":[{"name":"poolId","type":"uint256","internalType":"uint256"}],"outputs":[{"name":"","type":"tuple[]","internalType":"struct IStaqeStructs.Reward[]","components":[{"name":"isForERC721Stakers","type":"bool","internalType":"bool"},{"name":"rewardToken","type":"address","internalType":"contract IERC20"},{"name":"rewardAmount","type":"uint256","internalType":"uint256"},{"name":"totalStaked","type":"uint256","internalType":"uint256"},{"name":"claimAfterBlocks","type":"uint256","internalType":"uint256"},{"name":"rewardBlock","type":"uint256","internalType":"uint256"}]}],"stateMutability":"view"},{"type":"function","name":"getStake","inputs":[{"name":"staker","type":"address","internalType":"address"},{"name":"poolId","type":"uint256","internalType":"uint256"},{"name":"stakeId","type":"uint256","internalType":"uint256"}],"outputs":[{"name":"stakeDetails","type":"tuple","internalType":"struct IStaqeStructs.Stake","components":[{"name":"amountERC20","type":"uint256","internalType":"uint256"},{"name":"idERC721","type":"uint256","internalType":"uint256"},{"name":"stakeBlock","type":"uint256","internalType":"uint256"},{"name":"unstakeBlock","type":"uint256","internalType":"uint256"}]}],"stateMutability":"view"},{"type":"function","name":"getStakes","inputs":[{"name":"staker","type":"address","internalType":"address"},{"name":"poolId","type":"uint256","internalType":"uint256"}],"outputs":[{"name":"","type":"tuple[]","internalType":"struct IStaqeStructs.Stake[]","components":[{"name":"amountERC20","type":"uint256","internalType":"uint256"},{"name":"idERC721","type":"uint256","internalType":"uint256"},{"name":"stakeBlock","type":"uint256","internalType":"uint256"},{"name":"unstakeBlock","type":"uint256","internalType":"uint256"}]}],"stateMutability":"view"},{"type":"function","name":"getTotalPools","inputs":[],"outputs":[{"name":"","type":"uint256","internalType":"uint256"}],"stateMutability":"view"},{"type":"function","name":"launchPool","inputs":[{"name":"stakeERC20","type":"address","internalType":"contract IERC20"},{"name":"stakeERC721","type":"address","internalType":"contract IERC721"},{"name":"rewardToken","type":"address","internalType":"contract IERC20"},{"name":"rewarder","type":"address","internalType":"address"},{"name":"metadata","type":"bytes32","internalType":"bytes32"}],"outputs":[{"name":"poolId","type":"uint256","internalType":"uint256"}],"stateMutability":"nonpayable"},{"type":"function","name":"stake","inputs":[{"name":"poolId","type":"uint256","internalType":"uint256"},{"name":"amount","type":"uint256","internalType":"uint256"},{"name":"id","type":"uint256","internalType":"uint256"}],"outputs":[{"name":"stakeId","type":"uint256","internalType":"uint256"}],"stateMutability":"nonpayable"},{"type":"function","name":"stakeWithPermit","inputs":[{"name":"poolId","type":"uint256","internalType":"uint256"},{"name":"amount","type":"uint256","internalType":"uint256"},{"name":"deadline","type":"uint256","internalType":"uint256"},{"name":"v","type":"uint8","internalType":"uint8"},{"name":"r","type":"bytes32","internalType":"bytes32"},{"name":"s","type":"bytes32","internalType":"bytes32"},{"name":"max","type":"bool","internalType":"bool"}],"outputs":[],"stateMutability":"nonpayable"},{"type":"function","name":"unstake","inputs":[{"name":"poolId","type":"uint256","internalType":"uint256"},{"name":"stakeIds","type":"uint256[]","internalType":"uint256[]"}],"outputs":[{"name":"amountERC20","type":"uint256","internalType":"uint256"},{"name":"idsERC721","type":"uint256[]","internalType":"uint256[]"}],"stateMutability":"nonpayable"},{"type":"event","name":"PoolEdited","inputs":[{"name":"poolId","type":"uint256","indexed":true,"internalType":"uint256"},{"name":"metadata","type":"bytes32","indexed":false,"internalType":"bytes32"}],"anonymous":false},{"type":"event","name":"PoolLaunched","inputs":[{"name":"poolId","type":"uint256","indexed":true,"internalType":"uint256"},{"name":"stakeERC20","type":"address","indexed":true,"internalType":"contract IERC20"},{"name":"stakeERC721","type":"address","indexed":true,"internalType":"contract IERC721"},{"name":"rewardToken","type":"address","indexed":false,"internalType":"contract IERC20"},{"name":"rewarder","type":"address","indexed":false,"internalType":"address"},{"name":"metadata","type":"bytes32","indexed":false,"internalType":"bytes32"}],"anonymous":false},{"type":"event","name":"RewardAdded","inputs":[{"name":"poolId","type":"uint256","indexed":true,"internalType":"uint256"},{"name":"rewardId","type":"uint256","indexed":true,"internalType":"uint256"},{"name":"rewardToken","type":"address","indexed":true,"internalType":"contract IERC20"},{"name":"rewardAmount","type":"uint256","indexed":false,"internalType":"uint256"},{"name":"totalStakedERC20","type":"uint256","indexed":false,"internalType":"uint256"},{"name":"totalStakedERC721","type":"uint256","indexed":false,"internalType":"uint256"},{"name":"isForERC721Stakers","type":"bool","indexed":false,"internalType":"bool"},{"name":"claimAfterBlock","type":"uint256","indexed":false,"internalType":"uint256"}],"anonymous":false},{"type":"event","name":"RewardClaimed","inputs":[{"name":"claimant","type":"address","indexed":true,"internalType":"address"},{"name":"poolId","type":"uint256","indexed":true,"internalType":"uint256"},{"name":"rewardId","type":"uint256","indexed":true,"internalType":"uint256"},{"name":"rewardToken","type":"address","indexed":false,"internalType":"contract IERC20"},{"name":"rewardAmount","type":"uint256","indexed":false,"internalType":"uint256"}],"anonymous":false},{"type":"event","name":"StakeCreated","inputs":[{"name":"staker","type":"address","indexed":true,"internalType":"address"},{"name":"poolId","type":"uint256","indexed":true,"internalType":"uint256"},{"name":"stakeId","type":"uint256","indexed":true,"internalType":"uint256"},{"name":"stakeAmountERC20","type":"uint256","indexed":false,"internalType":"uint256"},{"name":"stakeAmountERC721","type":"uint256","indexed":false,"internalType":"uint256"}],"anonymous":false},{"type":"event","name":"StakeWithdrawn","inputs":[{"name":"staker","type":"address","indexed":true,"internalType":"address"},{"name":"poolId","type":"uint256","indexed":true,"internalType":"uint256"},{"name":"stakeAmountERC20","type":"uint256","indexed":false,"internalType":"uint256"},{"name":"stakeAmountERC721","type":"uint256","indexed":false,"internalType":"uint256"}],"anonymous":false},{"type":"error","name":"InvalidAmountOrId","inputs":[]},{"type":"error","name":"InvalidERC721Token","inputs":[]},{"type":"error","name":"InvalidMetadata","inputs":[]},{"type":"error","name":"InvalidRewardToken","inputs":[]},{"type":"error","name":"InvalidStakeToken","inputs":[]},{"type":"error","name":"OnlyAvailableToStakersInGenesis","inputs":[]},{"type":"error","name":"OnlyRewinderHasAccessToAddRewards","inputs":[]},{"type":"error","name":"OnlyRewinderHasAccessToEditMetadata","inputs":[]},{"type":"error","name":"PoolDoesNotExist","inputs":[]},{"type":"error","name":"PoolDoesNotHaveStakes","inputs":[]},{"type":"error","name":"ReentrancyGuardReentrantCall","inputs":[]},{"type":"error","name":"RewardAlreadyClaimed","inputs":[]},{"type":"error","name":"RewardIsEmpty","inputs":[]},{"type":"error","name":"RewardIsNotYetAvailableForClaim","inputs":[]},{"type":"error","name":"RewardNotFoundInPool","inputs":[]},{"type":"error","name":"RewardTransferFailed","inputs":[]},{"type":"error","name":"StakeTransferFailed","inputs":[]},{"type":"error","name":"StakerDoesNotHaveStakesInPool","inputs":[]},{"type":"error","name":"UnstakeOnNextBlockAndGetReward","inputs":[]},{"type":"error","name":"UnstakeTransferFailed","inputs":[]}],"bytecode":{"object":"0x6080346200017057601f62002bb638819003918201601f19168301916001600160401b03918284118585101762000175578160a09286926040968752833981010312620001705762000051836200018b565b602084015190936001600160a01b03808316928390036200017057620000798583016200018b565b916060810151908282168092036200017057608001519060009460018655875196610100880190888210908211176200015c57889985916007999a52168852602088019081528389890195168552606088019182526080880192835260a088019386855260c0890195878752818b60e08c0199438b528080526002602052209a51169260018060a01b031993848c5416178b558260018c01915116848254161790558160028b019151168382541617905560038901925116908254161790555160048601555160058501555160068401555191015551612a159081620001a18239f35b634e487b7160e01b87526041600452602487fd5b600080fd5b634e487b7160e01b600052604160045260246000fd5b51906001600160a01b0382168203620001705756fe60a0604052600436101561001257600080fd5b6000803560e01c8063068bcd8d14611df65780632c32c36014611dc15780633025ec6d14611b14578063395de242146115c25780633a2e1747146114b65780634cb8a68b146113bd57806350f9b39e146111fc5780635b5b9ea21461101c5780637ebfee3e14610fdc57806399a47faa1461090e578063a638f2e21461064c578063b90bc519146105e2578063ba2b665114610399578063c0d8012c1461029b578063d33560e6146101dc578063d3ffe67a146101be5763e964a1a5146100d857600080fd5b346101bb5760403660031901126101bb576004356024356100f76129bc565b8183526002602052604083206007810154156101a95760048101908282541480156101a1575b61018f57600301546001600160a01b03168015908115610184575b5061017257817f714674aaab7ecdeba0ba39a4f15a46228e6047a135c6307b31659ec0d22205c59260209255604051908152a26001815580f35b6040516327e1476760e01b8152600490fd5b905033141538610138565b604051635e765b2560e11b8152600490fd5b50821561011d565b6040516302721e1f60e61b8152600490fd5b80fd5b50346101bb57806003193601126101bb576020600154604051908152f35b50346101bb576080906101ee36611e9f565b9192906040516101fd81611f3c565b8281528260208201528260408201528260608201529360018060a01b031680835260046020526040832082845260205260408320548410610268575b85856102666040518092606080918051845260208101516020850152604081015160408501520151910152565bf35b61029294509160409161028c949382526004602052828220908252602052206121af565b506121cb565b38808080610239565b50346101bb57602090816003193601126101bb57906004358252600381526040822080546102c881611f96565b906102d66040519283611f74565b8082528382018093865284862086915b83831061037257505050506040519280840191818552518092526040840192945b8281106103145784840385f35b9091928260c0826103636001948a5160a08091805115158452600180831b0360208201511660208501526040810151604085015260608101516060850152608081015160808501520151910152565b01960191019492919094610307565b600587600192610386859b9a98999b6120fb565b81520192019201919096949395966102e6565b50346101bb5760a03660031901126101bb576103b3611e73565b6001600160a01b039160243583811691908290036101bb576103d3611e89565b91606435938585168095036105dd57608435936103ee6129bc565b6103f7336128da565b156105cb57821591821580610559575b610547578716918215908161053f575b5061052d57841561018f577fea106409d97245a2f68aff18e645843ffebdce52ff84bdc4ab62096d5418617b606060209860019761045589546121fd565b998a95868b556007878b6040519361046c85611f02565b8b855260208501978d895280604087019216988983528a87019088825260808801928a845260a089019486865281604060c08c0198808a5260e08d019a438c528152602060029052209a5116926bffffffffffffffffffffffff60a01b93848c5416178b55600183908c01915116848254161790558160028b01915116838254161790556003890192511690825416179055516004860155516005850155516006840155519101556040519283528b8301526040820152a455604051908152f35b6040516314ec381360e11b8152600490fd5b905038610417565b6040516366a0777760e01b8152600490fd5b506040516301ffc9a760e01b81526380ac58cd60e01b6004820152602081602481885afa9081156105c0578691610592575b5015610407565b6105b3915060203d81116105b9575b6105ab8183611f74565b81019061222f565b3861058b565b503d6105a1565b6040513d88823e3d90fd5b6040516358fd19b960e11b8152600490fd5b600080fd5b50346101bb5760403660031901126101bb5760c061060460243560043561214f565b610266604051809260a08091805115158452600180831b0360208201511660208501526040810151604085015260608101516060850152608081015160808501520151910152565b50346101bb5760603660031901126101bb5760443560243560043560006106716129bc565b8181526020936002855260408220926007840154156101a95784159485159580610906575b6108f4578592338552600488526040852083865288526040852054966108de575b80151593846108b2575b3386526004895260408620848752895260408620604051906106e282611f3c565b8482528a8201848152604083019043825260608401928a8452805490600160401b82101561089e579061071a916001820181556121af565b94909461088a57518455516001840155516002830155516003909101558061081e575b61080c578693610785575b60019550604051918252878201527f78fd8d607a2c84896af35bb608d5ca0058d97d083f5c582d15bf11f1c87c31ed60403392a455604051908152f35b600190950154939491939092506001600160a01b0316803b15610808576040516323b872dd60e01b8152336004820152306024820152604481018390529085908290606490829084905af180156107fd579186939160019695936107ea575b50610748565b6107f690959195611eee565b93886107e4565b6040513d87823e3d90fd5b8480fd5b604051631231ec2f60e21b8152600490fd5b5085546040516323b872dd60e01b815233600482015230602482015260448101849052908990829060649082908a906001600160a01b03165af19081156105c057869161086d575b501561073d565b6108849150893d8b116105b9576105ab8183611f74565b89610866565b634e487b7160e01b8b5260048b905260248bfd5b634e487b7160e01b8c52604160045260248cfd5b60068701805490600182018092116108ca57556106c1565b634e487b7160e01b88526011600452602488fd5b600586016108ed838254612222565b90556106b7565b604051633b91be2160e21b8152600490fd5b508215610696565b50346101bb5760603660031901126101bb5767ffffffffffffffff600435818111610fd857610941903690600401611fae565b602491823590808211610808573660238301121561080857816004013561096781611f96565b946109756040519687611f74565b81865280602087019260051b85010192368411610fd457818501925b848410610fa9578888886109a3611e89565b926109ac6129bc565b6001600160a01b03841615610fa1575b8151926109f26109cb85611f96565b946109d96040519687611f74565b8086526109e8601f1991611f96565b01602086016125b5565b8251610a27610a0082611f96565b91610a0e6040519384611f74565b808352610a1d601f1991611f96565b01602083016125b5565b82955b8451871015610b8857610a3d87846125a1565b5151610a4881611f96565b90610a566040519283611f74565b808252610a65601f1991611f96565b01366020830137610a7688886125a1565b52610a8187876125a1565b50610a96610a8f88856125a1565b515161256f565b610aa088846125a1565b52610aab87836125a1565b50835b610ab888856125a1565b5151811015610b77578087610b18828b80610b1283610af4610b0a8f8e610afa610b729d610af489610aed81610b02976125a1565b51946125a1565b516125a1565b51903361260f565b9590996125a1565b51948c6125a1565b526125a1565b6001600160a01b039091169052610b3381610af48b876125a1565b51338752600560205260408720610b4a8b8a6125a1565b51885260205260408720610b6283610af48d8a6125a1565b51885260205260408720556121fd565b610aae565b5095610b82906121fd565b95610a2a565b93909183905b8251851015610e6f57610ba185846125a1565b518252600260208190526040832001546001600160a01b0316908115610cf8578290815b610bcf88886125a1565b5151831015610c0057610bf4610bfa91610bed85610af48c8c6125a1565b5190612222565b926121fd565b91610bc5565b9290989691508215610ce65760405163a9059cbb60e01b81526001600160a01b03891660048201526024810184905260208160448188865af19081156107fd578591610cc7575b5015610cb557610cae9284917f0968da03e3daa1681e040ac06832dc8b74955d289deeda5814ce26119323f010610ca6610c81868a6125a1565b51604080516001600160a01b0390951685526020850195909552933393918291820190565b0390a46121fd565b9395610b8e565b60405163078ecf4160e41b8152600490fd5b610ce0915060203d6020116105b9576105ab8183611f74565b8a610c47565b604051635f65f16560e11b8152600490fd5b9392918091509694965b610d0c88876125a1565b5151811015610e6157610d2381610af48a876125a1565b5115610ce657610d8a60206001600160a01b03610d4484610af48d8c6125a1565b5116610d5484610af48d8a6125a1565b5160405163a9059cbb60e01b81526001600160a01b038c1660048201526024810191909152928391908290879082906044820190565b03925af1908115610e56578391610e37575b5015610cb5578086868a7f0968da03e3daa1681e040ac06832dc8b74955d289deeda5814ce26119323f010610ca6610e0e86610af4610dee610e329a610af4888f81610de7916125a1565b519a6125a1565b5197610e0583610af48960018060a01b03946125a1565b5116958d6125a1565b51604080516001600160a01b03909516855260208501919091523393918291820190565b610d02565b610e50915060203d6020116105b9576105ab8183611f74565b89610d9c565b6040513d85823e3d90fd5b5090919295610cae906121fd565b83878360019081815560405192604084016040855281518091526060850190602060608260051b88010193019184905b828210610f3757505050508381036020850152845190818152602081016020808460051b84010197019380925b848410610ed95787890388f35b9091929394958098601f198382030185528751906020808351928381520192019085905b84818310610f205750505050602080919801940194019294939190979597610ecc565b909192936020809186518152019401920190610efd565b909192949395809896605f198982030183528651906020808351928381520192019087905b84818310610f80575050505060208091970192019201909291979597949394610e9f565b83516001600160a01b03168552602094850194909301929190910190610f5c565b3393506109bc565b8335828111610fd057602091610fc583928636918b0101611fae565b815201930192610991565b8980fd5b8780fd5b8280fd5b50346101bb5760a03660031901126101bb576020611014610ffb611ed8565b611003611ec9565b906064359060443590600435612247565b604051908152f35b50346101bb5760403660031901126101bb576101409061012061103d611e73565b91808260405161104c81611f1f565b8281528260208201528260408201528260608201528260808201528260a08201528260c08201528260e082015282610100820152015260243581526002602052604081209060405161109d81611f02565b60018060a01b038354169485825260018060a01b036001850154169384602084015260018060a01b036002820154169384604085015260018060a01b0360038301541680606086015260048301549081608087015260e060406005860154948560a08a015260076006880154978860c08c01520154838a015260243581526003602052818120549760018060a01b0316815260046020528181206024358252602052205496015196604051986111528a611f1f565b8b8a5260208a015260408901526060880152608087015260a086015260c085015260e08401526101008301528282015260405192835260018060a01b03602082015116602084015260018060a01b03604082015116604084015260018060a01b0360608201511660608401526080810151608084015260a081015160a084015260c081015160c084015260e081015160e08401526101008101516101008401520151610120820152f35b50346101bb5761120b36611e9f565b909261121561200c565b50611220828561214f565b81809360405196630161961b60e51b885260018060a01b0396878116908160048b01528260248b01528360448b015260408a606481305afa808691611376575b6101009b5061136957506001600160a01b031660009081526005602090815260408083208584528252808320868452909152902054611338575b505050505b80511515938060208301511692604083015160608401519260a060808601519501519560e06040516112d081611f02565b8a81526020810192835260408101948552606081019586526080810196875260a0810197885260c08101988952019715158852604051988952511660208801525160408701525160608601525160808501525160a08401525160c083015251151560e0820152f35b909192809496506040955052600560205283832090835260205282822090825260205220546001913880808061129a565b965061129f945050505050565b905060408b3d6040116113b5575b8161139160409383611f74565b810103126113b1578a518a8116036113b15760206101009b015190611260565b8580fd5b3d9150611384565b50346101bb5760403660031901126101bb576001600160a01b036113df611e73565b168152602060048152604082206024358352815260408220805461140281611f96565b906114106040519283611f74565b8082528382018093865284862086915b83831061148f57505050506040519280840191818552518092526040840192945b82811061144e5784840385f35b909192826080826114806001948a51606080918051845260208101516020850152604081015160408501520151910152565b01960191019492919094611441565b6004876001926114a3859b9a98999b6121cb565b8152019201920191909694939596611420565b50346101bb576101403660031901126101bb576114d1611ed8565b604435906114dd611ec9565b9060c43560ff811681036105dd576101243580151581036105dd5785916115026129bc565b6001600160a01b03841691156115bb57600019905b823b156115ac5760405163d505accf60e01b8152336004820152306024820152604481019290925260a48035606484015260ff91909116608483015260e48035918301919091526101043560c4830152909183918391829084905af180156115b057611598575b50506115909260643591600435612247565b506001815580f35b6115a190611eee565b6115ac57833861157e565b8380fd5b6040513d84823e3d90fd5b8590611517565b50346101bb5760403660031901126101bb5767ffffffffffffffff8060243511611b1057366023602435011215611b105760243560040135116101bb5736602480356004013560051b81350101116101bb5761161c6129bc565b6060600435825260026020526040822060076040519161163b83611f02565b60018060a01b03815416835260018060a01b03600182015416602084015260018060a01b03600282015416604084015260018060a01b036003820154168484015260048101546080840152600581015460a0840152600681015460c0840152015460e0820152829083600435855260036020526040852080546116bd81611f96565b916116cb6040519384611f74565b81835287526020808820889184015b838310611af2575050505080518015159182611ab7575b5050611aa5576004358552600260205260408520916007830154156101a9573386526004602052604086206004358752602052604086209160243560040135158015611a9c575b611a8a5761174b6024356004013561256f565b92875b6024356004013581106119cb575050841593841594806119c3575b6119b1578461199b575b8115159081611985575b50819480611911575b6118ff57611819575b505050604092919251908382526020820152600435907f88d1c46373223a4f1f60db2badc985b05ec9c2b2eab4537f0f8e1291b78b6e3760403392a360018355604051928392604084019084526040602085015282518091526020606085019301915b818110611800575050500390f35b82518452859450602093840193909201916001016117f2565b61182791939294955061256f565b855b84518110156118f15761183c81866125a1565b51156118e85761184c81866125a1565b519280156108ca57600019019261186384846125a1565b52602084015187906001600160a01b031661187e83886125a1565b5190803b15610fd857604051632142170760e11b8152306004820152336024820152604481019290925282908290606490829084905af180156115b0576118d0575b50506118cb906121fd565b611829565b6118d990611eee565b6118e45786386118c0565b8680fd5b6118cb906121fd565b50939250905038808061178f565b604051631b9f013160e11b8152600490fd5b50825160405163a9059cbb60e01b81523360048201526024810188905290602090829060449082908d906001600160a01b03165af190811561197a57899161195b575b5015611786565b611974915060203d6020116105b9576105ab8183611f74565b38611954565b6040513d8b823e3d90fd5b6006016119938382546125d2565b90553861177d565b600581016119aa8782546125d2565b9055611773565b6040516319a089c160e01b8152600490fd5b508115611769565b6119e0816024356004013560248035016125df565b3582541115611a8157611a08611a01826024356004013560248035016125df565b35836121af565b5096600388015415801590611a73575b611a6857611a306001914360038b0155895490612222565b97015480611a48575b50611a43906121fd565b61174e565b8193611a6191611a5b611a4394896125a1565b526121fd565b9290611a39565b9650611a43906121fd565b504360028901541015611a18565b611a43906121fd565b6040516303bdf00d60e31b8152600490fd5b50825415611738565b6040516371f7dfa560e01b8152600490fd5b60001982019250908211611ade5760a091611ad1916125a1565b51015143111538806116f1565b634e487b7160e01b87526011600452602487fd5b60056020600192611b02856120fb565b8152019201920191906116da565b5080fd5b50346101bb5760e03660031901126101bb5760643560043560243560ff831683036115ac5760c435801515810361080857611b4d6129bc565b6001600160a01b0393859085611b628661204a565b51169215611dba57600019925b803b15610fd85760405163d505accf60e01b81523360048201523060248201526044808201959095529335606485015260ff919091166084808501919091523560a4808501919091523560c4840152829060e490829084905af180156107fd57611da7575b50611bdd6129bc565b8160005260206002815260406000206007810154156101a95782159485159580611d9f575b6108f45785913360005260048452604060002086600052845260406000205496611d89575b336000526004845260406000208660005284526040600020604051611c4b81611f3c565b8681528581019160008352604082014381526060830191600083528054600160401b811015611d7357611c83916001820181556121af565b949094611d5d576003935185555160018501555160028401555191015582611cea575b505061080c576000906040519283528201527f78fd8d607a2c84896af35bb608d5ca0058d97d083f5c582d15bf11f1c87c31ed60403392a460016000556001815580f35b546040516323b872dd60e01b8152336004820152306024820152604481018690529250839183916064918391600091165af1908115611d5157600091611d34575b50153880611ca6565b611d4b9150823d84116105b9576105ab8183611f74565b38611d2b565b6040513d6000823e3d90fd5b634e487b7160e01b600052600060045260246000fd5b634e487b7160e01b600052604160045260246000fd5b60058101611d98868254612222565b9055611c27565b506001611c02565b611db390949194611eee565b9238611bd4565b8392611b6f565b50346101bb57611dd9611dd336611e9f565b9161260f565b604080516001600160a01b03939093168352602083019190915290f35b50346101bb5760203660031901126101bb57610100611e1660043561204a565b60e06040519160018060a01b0380825116845280602083015116602085015280604083015116604085015260608201511660608401526080810151608084015260a081015160a084015260c081015160c0840152015160e0820152f35b600435906001600160a01b03821682036105dd57565b604435906001600160a01b03821682036105dd57565b60609060031901126105dd576004356001600160a01b03811681036105dd57906024359060443590565b6084359081151582036105dd57565b602435906001600160a01b03821682036105dd57565b67ffffffffffffffff8111611d7357604052565b610100810190811067ffffffffffffffff821117611d7357604052565b610140810190811067ffffffffffffffff821117611d7357604052565b6080810190811067ffffffffffffffff821117611d7357604052565b60c0810190811067ffffffffffffffff821117611d7357604052565b90601f8019910116810190811067ffffffffffffffff821117611d7357604052565b67ffffffffffffffff8111611d735760051b60200190565b81601f820112156105dd57803591611fc583611f96565b92611fd36040519485611f74565b808452602092838086019260051b8201019283116105dd578301905b828210611ffd575050505090565b81358152908301908301611fef565b6040519061201982611f02565b8160e06000918281528260208201528260408201528260608201528260808201528260a08201528260c08201520152565b61205261200c565b506000526002602052604060002060076040519161206f83611f02565b80546001600160a01b039081168452600182015481166020850152600282015481166040850152600382015416606084015260048101546080840152600581015460a0840152600681015460c0840152015460e082015290565b80548210156120e5576000526005602060002091020190600090565b634e487b7160e01b600052603260045260246000fd5b9060405161210881611f58565b825460ff81161515825260081c6001600160a01b031660208201526001830154604082015260028301546060820152600383015460808201526004929092015460a0830152565b91906040805161215e81611f58565b60009081815281602082015281838201528160608201528160808201528160a082015294815260036020522080548210612196575050565b6121ac929350906121a6916120c9565b506120fb565b90565b80548210156120e55760005260206000209060021b0190600090565b906040516121d881611f3c565b6060600382948054845260018101546020850152600281015460408501520154910152565b600019811461220c5760010190565b634e487b7160e01b600052601160045260246000fd5b9190820180921161220c57565b908160209103126105dd575180151581036105dd5790565b909192936122536129bc565b8294600060805282600052600260205260406000206040519461227586611f02565b60018060a01b03918281541687528260018201541660208801528260028201541691604088019283526007846003840154169260608a01938452600481015460808b0152600581015460a08b0152600681015460c08b015201548060e08a0152156101a95783161561255d5787158015612547575b610ce657518216801515908161253c575b5061252a57838061251e575b8015612509575b611a8a5751811680612501575b5060808051859052600360205251604090208054979084156124f65760c0870151905b6040519161234b83611f58565b8615158352848416602084015289604084015260608301528460808301524360a0830152600160401b8a10156124de578961238b916001820181556120c9565b9190916124c757805182546020808401516001600160a81b031990921660ff931515939093169290921760089190911b610100600160a81b0316178355604080830151600185015560608301516002850155608080840151600386015560a090930151600494850155516323b872dd60e01b81523393810193909352306024840152604483018a90529051829060649082908688165af19081156124ba576080519161249b575b5015610cb557857f43861ad87d0ab505ab7da4b17b87cb88e18e8472e3c8da60c3cc0b69703ab6a39460a09461247260c0878d9b01519401519143612222565b926040519a8b5260208b015260408a01521515606089015260808801521694a490600160805155565b6124b4915060203d6020116105b9576105ab8183611f74565b38612432565b6040513d608051823e3d90fd5b634e487b7160e01b60805152602460805180600452fd5b634e487b7160e01b6080515260416004526024608051fd5b60a08701519061233e565b96503861231b565b508315801561230e575060a08601511561230e565b5060c086015115612307565b604051639ad136e360e01b8152600490fd5b9050331415386122fb565b508480156122ea575060c08701518811156122ea565b60405163dfde867160e01b8152600490fd5b9061257982611f96565b6125866040519182611f74565b8281528092612597601f1991611f96565b0190602036910137565b80518210156120e55760209160051b010190565b60005b8281106125c457505050565b6060828201526020016125b8565b9190820391821161220c57565b91908110156120e55760051b0190565b81156125f9570490565b634e487b7160e01b600052601260045260246000fd5b6001600160a01b03811660009081526005602090815260408083208584528252808320868452909152812054929491939092839291906128c8578583526020926003845260409384822092835461266581611f96565b9461267288519687611f74565b81865284528284208490848088015b8484106128a95750505050508084511115612898576001600160a01b039788168352600480835286842099845298825285832080549094906126c281611f96565b956126cf89519788611f74565b818752855283852085908588015b8d8785851061287e5750505050505084511561286e57906126fd916125a1565b519260a08401946127148651608087015190612222565b43111561285e57835b82518110156128375761273081846125a1565b5160609081810151801590811561282c575b508a8201518a511015908951159182159083612821575b81612814575b8261280c575b50816127f3575b50612783575b50505061277e906121fd565b61271d565b929a92156127d957519089880151918281029281840414901517156127c657916127b76127bd9261277e948a0151906125ef565b90612222565b98903880612772565b634e487b7160e01b875260118d52602487fd5b5061277e916127b76127bd928b8a0151908a0151906125ef565b8291508115612804575b503861276c565b9050386127fd565b915038612765565b848a01511515915061275f565b845115159350612759565b905089511038612742565b509893945050939050949394851561285157505001511691565b51635f65f16560e11b8152fd5b86516303a4fc3760e01b81528a90fd5b86516319a089c160e01b81528a90fd5b60019261288a856121cb565b8152019201920191906126dd565b855163767afb7b60e11b8152600490fd5b6001916005916128b8856120fb565b8152019201920191908590612681565b604051632cfe303760e21b8152600490fd5b6000808052600260209081527fac33ff75c19e70fe83507db0d683fd3465c996598dc972688b7ace676c890781546040929190157fac33ff75c19e70fe83507db0d683fd3465c996598dc972688b7ace676c89077b816129af575b506129a857815b6001600160a01b038516808452600480845285852085805284528585205490919083101561299e57845282528383208380528252600361297e828686206121af565b500154156129945761298f906121fd565b61293c565b5050505050600190565b5050505091505090565b5091505090565b6005915001541538612935565b6002600054146129cd576002600055565b604051633ee5aeb560e01b8152600490fdfea2646970667358221220d6668e7d0b22a8ce3841a29590432e4b972a82ba43557263fdffb0db1f24f07264736f6c63430008140033","linkReferences":{}},"methodIdentifiers":{"addReward(uint256,address,uint256,uint256,bool)":"7ebfee3e","addRewardWithPermit(uint256,address,uint256,uint256,bool,uint256,uint8,bytes32,bytes32,bool)":"3a2e1747","calculateReward(address,uint256,uint256)":"2c32c360","claimRewards(uint256[],uint256[][],address)":"99a47faa","editPool(uint256,bytes32)":"e964a1a5","getPool(address,uint256)":"5b5b9ea2","getPool(uint256)":"068bcd8d","getReward(address,uint256,uint256)":"50f9b39e","getReward(uint256,uint256)":"b90bc519","getRewards(uint256)":"c0d8012c","getStake(address,uint256,uint256)":"d33560e6","getStakes(address,uint256)":"4cb8a68b","getTotalPools()":"d3ffe67a","launchPool(address,address,address,address,bytes32)":"ba2b6651","stake(uint256,uint256,uint256)":"a638f2e2","stakeWithPermit(uint256,uint256,uint256,uint8,bytes32,bytes32,bool)":"3025ec6d","unstake(uint256,uint256[])":"395de242"},"id":1}