{"abi":[{"type":"constructor","inputs":[{"name":"stakeERC20","type":"address","internalType":"contract IERC20"},{"name":"stakeERC721","type":"address","internalType":"contract IERC721"},{"name":"rewardToken","type":"address","internalType":"contract IERC20"}],"stateMutability":"nonpayable"},{"type":"function","name":"addReward","inputs":[{"name":"poolId","type":"uint256","internalType":"uint256"},{"name":"rewardToken","type":"address","internalType":"contract IERC20"},{"name":"rewardAmount","type":"uint256","internalType":"uint256"},{"name":"claimAfterBlocks","type":"uint256","internalType":"uint256"},{"name":"isForERC721Stakers","type":"bool","internalType":"bool"}],"outputs":[{"name":"rewardId","type":"uint256","internalType":"uint256"}],"stateMutability":"nonpayable"},{"type":"function","name":"addRewardWithPermit","inputs":[{"name":"poolId","type":"uint256","internalType":"uint256"},{"name":"rewardToken","type":"address","internalType":"contract IERC20"},{"name":"rewardAmount","type":"uint256","internalType":"uint256"},{"name":"claimAfterBlocks","type":"uint256","internalType":"uint256"},{"name":"isForERC721Stakers","type":"bool","internalType":"bool"},{"name":"deadline","type":"uint256","internalType":"uint256"},{"name":"v","type":"uint8","internalType":"uint8"},{"name":"r","type":"bytes32","internalType":"bytes32"},{"name":"s","type":"bytes32","internalType":"bytes32"},{"name":"max","type":"bool","internalType":"bool"}],"outputs":[{"name":"rewardId","type":"uint256","internalType":"uint256"}],"stateMutability":"nonpayable"},{"type":"function","name":"approve","inputs":[{"name":"to","type":"address","internalType":"address"},{"name":"tokenId","type":"uint256","internalType":"uint256"}],"outputs":[],"stateMutability":"nonpayable"},{"type":"function","name":"balanceOf","inputs":[{"name":"owner","type":"address","internalType":"address"}],"outputs":[{"name":"","type":"uint256","internalType":"uint256"}],"stateMutability":"view"},{"type":"function","name":"calculateReward","inputs":[{"name":"staker","type":"address","internalType":"address"},{"name":"poolId","type":"uint256","internalType":"uint256"},{"name":"rewardId","type":"uint256","internalType":"uint256"}],"outputs":[{"name":"","type":"address","internalType":"contract IERC20"},{"name":"","type":"uint256","internalType":"uint256"}],"stateMutability":"view"},{"type":"function","name":"claimRewards","inputs":[{"name":"poolIds","type":"uint256[]","internalType":"uint256[]"},{"name":"rewardIds","type":"uint256[][]","internalType":"uint256[][]"},{"name":"recipient","type":"address","internalType":"address"}],"outputs":[{"name":"tokens","type":"address[][]","internalType":"contract IERC20[][]"},{"name":"amounts","type":"uint256[][]","internalType":"uint256[][]"}],"stateMutability":"nonpayable"},{"type":"function","name":"contractURI","inputs":[],"outputs":[{"name":"","type":"string","internalType":"string"}],"stateMutability":"view"},{"type":"function","name":"editPool","inputs":[{"name":"poolId","type":"uint256","internalType":"uint256"},{"name":"totalMax","type":"uint256","internalType":"uint256"},{"name":"tokenURI","type":"string","internalType":"string"}],"outputs":[],"stateMutability":"nonpayable"},{"type":"function","name":"getApproved","inputs":[{"name":"tokenId","type":"uint256","internalType":"uint256"}],"outputs":[{"name":"","type":"address","internalType":"address"}],"stateMutability":"view"},{"type":"function","name":"getClaimedAmount","inputs":[{"name":"staker","type":"address","internalType":"address"},{"name":"poolId","type":"uint256","internalType":"uint256"},{"name":"rewardId","type":"uint256","internalType":"uint256"}],"outputs":[{"name":"","type":"uint256","internalType":"uint256"}],"stateMutability":"view"},{"type":"function","name":"getPool","inputs":[{"name":"poolId","type":"uint256","internalType":"uint256"}],"outputs":[{"name":"poolDetails","type":"tuple","internalType":"struct IStaqeStructs.Pool","components":[{"name":"stakeERC20","type":"address","internalType":"contract IERC20"},{"name":"stakeERC721","type":"address","internalType":"contract IERC721"},{"name":"rewardToken","type":"address","internalType":"contract IERC20"},{"name":"totalMax","type":"uint256","internalType":"uint256"},{"name":"totalStakedERC20","type":"uint256","internalType":"uint256"},{"name":"totalStakedERC721","type":"uint256","internalType":"uint256"},{"name":"launchBlock","type":"uint256","internalType":"uint256"}]}],"stateMutability":"view"},{"type":"function","name":"getPool","inputs":[{"name":"staker","type":"address","internalType":"address"},{"name":"poolId","type":"uint256","internalType":"uint256"}],"outputs":[{"name":"poolDetails","type":"tuple","internalType":"struct StaqeDetails.PoolDetails","components":[{"name":"stakeERC20","type":"tuple","internalType":"struct StaqeDetails.Token","components":[{"name":"tokenAddress","type":"address","internalType":"address"},{"name":"name","type":"string","internalType":"string"},{"name":"symbol","type":"string","internalType":"string"},{"name":"decimals","type":"uint256","internalType":"uint256"},{"name":"balance","type":"uint256","internalType":"uint256"},{"name":"isApproved","type":"bool","internalType":"bool"}]},{"name":"stakeERC721","type":"tuple","internalType":"struct StaqeDetails.Token","components":[{"name":"tokenAddress","type":"address","internalType":"address"},{"name":"name","type":"string","internalType":"string"},{"name":"symbol","type":"string","internalType":"string"},{"name":"decimals","type":"uint256","internalType":"uint256"},{"name":"balance","type":"uint256","internalType":"uint256"},{"name":"isApproved","type":"bool","internalType":"bool"}]},{"name":"rewardToken","type":"tuple","internalType":"struct StaqeDetails.Token","components":[{"name":"tokenAddress","type":"address","internalType":"address"},{"name":"name","type":"string","internalType":"string"},{"name":"symbol","type":"string","internalType":"string"},{"name":"decimals","type":"uint256","internalType":"uint256"},{"name":"balance","type":"uint256","internalType":"uint256"},{"name":"isApproved","type":"bool","internalType":"bool"}]},{"name":"owner","type":"address","internalType":"address"},{"name":"tokenURI","type":"string","internalType":"string"},{"name":"totalRewards","type":"uint256","internalType":"uint256"},{"name":"totalStakerStakes","type":"uint256","internalType":"uint256"},{"name":"totalMax","type":"uint256","internalType":"uint256"},{"name":"totalStakedERC20","type":"uint256","internalType":"uint256"},{"name":"totalStakedERC721","type":"uint256","internalType":"uint256"},{"name":"launchBlock","type":"uint256","internalType":"uint256"}]}],"stateMutability":"view"},{"type":"function","name":"getReward","inputs":[{"name":"staker","type":"address","internalType":"address"},{"name":"poolId","type":"uint256","internalType":"uint256"},{"name":"rewardId","type":"uint256","internalType":"uint256"}],"outputs":[{"name":"rewardDetails","type":"tuple","internalType":"struct StaqeDetails.RewardDetails","components":[{"name":"rewardToken","type":"tuple","internalType":"struct StaqeDetails.Token","components":[{"name":"tokenAddress","type":"address","internalType":"address"},{"name":"name","type":"string","internalType":"string"},{"name":"symbol","type":"string","internalType":"string"},{"name":"decimals","type":"uint256","internalType":"uint256"},{"name":"balance","type":"uint256","internalType":"uint256"},{"name":"isApproved","type":"bool","internalType":"bool"}]},{"name":"stakerRewardAmount","type":"uint256","internalType":"uint256"},{"name":"isClaimed","type":"bool","internalType":"bool"},{"name":"isForERC721Stakers","type":"bool","internalType":"bool"},{"name":"rewardAmount","type":"uint256","internalType":"uint256"},{"name":"totalStaked","type":"uint256","internalType":"uint256"},{"name":"claimAfterBlocks","type":"uint256","internalType":"uint256"},{"name":"rewardBlock","type":"uint256","internalType":"uint256"}]}],"stateMutability":"view"},{"type":"function","name":"getReward","inputs":[{"name":"poolId","type":"uint256","internalType":"uint256"},{"name":"rewardId","type":"uint256","internalType":"uint256"}],"outputs":[{"name":"rewardDetails","type":"tuple","internalType":"struct IStaqeStructs.Reward","components":[{"name":"isForERC721Stakers","type":"bool","internalType":"bool"},{"name":"rewardToken","type":"address","internalType":"contract IERC20"},{"name":"rewardAmount","type":"uint256","internalType":"uint256"},{"name":"totalStaked","type":"uint256","internalType":"uint256"},{"name":"claimAfterBlocks","type":"uint256","internalType":"uint256"},{"name":"rewardBlock","type":"uint256","internalType":"uint256"}]}],"stateMutability":"view"},{"type":"function","name":"getRewards","inputs":[{"name":"poolId","type":"uint256","internalType":"uint256"}],"outputs":[{"name":"","type":"tuple[]","internalType":"struct IStaqeStructs.Reward[]","components":[{"name":"isForERC721Stakers","type":"bool","internalType":"bool"},{"name":"rewardToken","type":"address","internalType":"contract IERC20"},{"name":"rewardAmount","type":"uint256","internalType":"uint256"},{"name":"totalStaked","type":"uint256","internalType":"uint256"},{"name":"claimAfterBlocks","type":"uint256","internalType":"uint256"},{"name":"rewardBlock","type":"uint256","internalType":"uint256"}]}],"stateMutability":"view"},{"type":"function","name":"getStake","inputs":[{"name":"staker","type":"address","internalType":"address"},{"name":"poolId","type":"uint256","internalType":"uint256"},{"name":"stakeId","type":"uint256","internalType":"uint256"}],"outputs":[{"name":"stakeDetails","type":"tuple","internalType":"struct IStaqeStructs.Stake","components":[{"name":"amountERC20","type":"uint256","internalType":"uint256"},{"name":"idERC721","type":"uint256","internalType":"uint256"},{"name":"stakeBlock","type":"uint256","internalType":"uint256"},{"name":"unstakeBlock","type":"uint256","internalType":"uint256"}]}],"stateMutability":"view"},{"type":"function","name":"getStakes","inputs":[{"name":"staker","type":"address","internalType":"address"},{"name":"poolId","type":"uint256","internalType":"uint256"}],"outputs":[{"name":"","type":"tuple[]","internalType":"struct IStaqeStructs.Stake[]","components":[{"name":"amountERC20","type":"uint256","internalType":"uint256"},{"name":"idERC721","type":"uint256","internalType":"uint256"},{"name":"stakeBlock","type":"uint256","internalType":"uint256"},{"name":"unstakeBlock","type":"uint256","internalType":"uint256"}]}],"stateMutability":"view"},{"type":"function","name":"getTotalPools","inputs":[],"outputs":[{"name":"","type":"uint256","internalType":"uint256"}],"stateMutability":"view"},{"type":"function","name":"isApprovedForAll","inputs":[{"name":"owner","type":"address","internalType":"address"},{"name":"operator","type":"address","internalType":"address"}],"outputs":[{"name":"","type":"bool","internalType":"bool"}],"stateMutability":"view"},{"type":"function","name":"launchPool","inputs":[{"name":"stakeERC20","type":"address","internalType":"contract IERC20"},{"name":"stakeERC721","type":"address","internalType":"contract IERC721"},{"name":"rewardToken","type":"address","internalType":"contract IERC20"},{"name":"totalMax","type":"uint256","internalType":"uint256"},{"name":"tokenURI","type":"string","internalType":"string"}],"outputs":[{"name":"poolId","type":"uint256","internalType":"uint256"}],"stateMutability":"nonpayable"},{"type":"function","name":"name","inputs":[],"outputs":[{"name":"","type":"string","internalType":"string"}],"stateMutability":"view"},{"type":"function","name":"owner","inputs":[],"outputs":[{"name":"","type":"address","internalType":"address"}],"stateMutability":"view"},{"type":"function","name":"ownerOf","inputs":[{"name":"tokenId","type":"uint256","internalType":"uint256"}],"outputs":[{"name":"","type":"address","internalType":"address"}],"stateMutability":"view"},{"type":"function","name":"renounceOwnership","inputs":[],"outputs":[],"stateMutability":"nonpayable"},{"type":"function","name":"safeTransferFrom","inputs":[{"name":"from","type":"address","internalType":"address"},{"name":"to","type":"address","internalType":"address"},{"name":"tokenId","type":"uint256","internalType":"uint256"}],"outputs":[],"stateMutability":"nonpayable"},{"type":"function","name":"safeTransferFrom","inputs":[{"name":"from","type":"address","internalType":"address"},{"name":"to","type":"address","internalType":"address"},{"name":"tokenId","type":"uint256","internalType":"uint256"},{"name":"data","type":"bytes","internalType":"bytes"}],"outputs":[],"stateMutability":"nonpayable"},{"type":"function","name":"setApprovalForAll","inputs":[{"name":"operator","type":"address","internalType":"address"},{"name":"approved","type":"bool","internalType":"bool"}],"outputs":[],"stateMutability":"nonpayable"},{"type":"function","name":"setContractURI","inputs":[{"name":"newURI","type":"string","internalType":"string"}],"outputs":[],"stateMutability":"nonpayable"},{"type":"function","name":"stake","inputs":[{"name":"poolId","type":"uint256","internalType":"uint256"},{"name":"amount","type":"uint256","internalType":"uint256"},{"name":"id","type":"uint256","internalType":"uint256"}],"outputs":[{"name":"stakeId","type":"uint256","internalType":"uint256"}],"stateMutability":"nonpayable"},{"type":"function","name":"stakeWithPermit","inputs":[{"name":"poolId","type":"uint256","internalType":"uint256"},{"name":"amount","type":"uint256","internalType":"uint256"},{"name":"deadline","type":"uint256","internalType":"uint256"},{"name":"v","type":"uint8","internalType":"uint8"},{"name":"r","type":"bytes32","internalType":"bytes32"},{"name":"s","type":"bytes32","internalType":"bytes32"},{"name":"max","type":"bool","internalType":"bool"}],"outputs":[{"name":"stakeId","type":"uint256","internalType":"uint256"}],"stateMutability":"nonpayable"},{"type":"function","name":"supportsInterface","inputs":[{"name":"interfaceId","type":"bytes4","internalType":"bytes4"}],"outputs":[{"name":"","type":"bool","internalType":"bool"}],"stateMutability":"view"},{"type":"function","name":"symbol","inputs":[],"outputs":[{"name":"","type":"string","internalType":"string"}],"stateMutability":"view"},{"type":"function","name":"tokenInfo","inputs":[{"name":"user","type":"address","internalType":"address"},{"name":"ierc20","type":"address","internalType":"contract IERC20"},{"name":"ierc721","type":"address","internalType":"contract IERC721"}],"outputs":[{"name":"token","type":"tuple","internalType":"struct StaqeDetails.Token","components":[{"name":"tokenAddress","type":"address","internalType":"address"},{"name":"name","type":"string","internalType":"string"},{"name":"symbol","type":"string","internalType":"string"},{"name":"decimals","type":"uint256","internalType":"uint256"},{"name":"balance","type":"uint256","internalType":"uint256"},{"name":"isApproved","type":"bool","internalType":"bool"}]}],"stateMutability":"view"},{"type":"function","name":"tokenURI","inputs":[{"name":"tokenId","type":"uint256","internalType":"uint256"}],"outputs":[{"name":"","type":"string","internalType":"string"}],"stateMutability":"view"},{"type":"function","name":"transferFrom","inputs":[{"name":"from","type":"address","internalType":"address"},{"name":"to","type":"address","internalType":"address"},{"name":"tokenId","type":"uint256","internalType":"uint256"}],"outputs":[],"stateMutability":"nonpayable"},{"type":"function","name":"transferOwnership","inputs":[{"name":"newOwner","type":"address","internalType":"address"}],"outputs":[],"stateMutability":"nonpayable"},{"type":"function","name":"unstake","inputs":[{"name":"poolId","type":"uint256","internalType":"uint256"},{"name":"stakeIds","type":"uint256[]","internalType":"uint256[]"}],"outputs":[{"name":"amountERC20","type":"uint256","internalType":"uint256"},{"name":"idsERC721","type":"uint256[]","internalType":"uint256[]"}],"stateMutability":"nonpayable"},{"type":"event","name":"Approval","inputs":[{"name":"owner","type":"address","indexed":true,"internalType":"address"},{"name":"approved","type":"address","indexed":true,"internalType":"address"},{"name":"tokenId","type":"uint256","indexed":true,"internalType":"uint256"}],"anonymous":false},{"type":"event","name":"ApprovalForAll","inputs":[{"name":"owner","type":"address","indexed":true,"internalType":"address"},{"name":"operator","type":"address","indexed":true,"internalType":"address"},{"name":"approved","type":"bool","indexed":false,"internalType":"bool"}],"anonymous":false},{"type":"event","name":"BatchMetadataUpdate","inputs":[{"name":"_fromTokenId","type":"uint256","indexed":false,"internalType":"uint256"},{"name":"_toTokenId","type":"uint256","indexed":false,"internalType":"uint256"}],"anonymous":false},{"type":"event","name":"Claimed","inputs":[{"name":"staker","type":"address","indexed":true,"internalType":"address"},{"name":"poolId","type":"uint256","indexed":true,"internalType":"uint256"}],"anonymous":false},{"type":"event","name":"ContractURIUpdated","inputs":[],"anonymous":false},{"type":"event","name":"Launched","inputs":[{"name":"launcher","type":"address","indexed":true,"internalType":"address"},{"name":"poolId","type":"uint256","indexed":true,"internalType":"uint256"}],"anonymous":false},{"type":"event","name":"MetadataUpdate","inputs":[{"name":"_tokenId","type":"uint256","indexed":false,"internalType":"uint256"}],"anonymous":false},{"type":"event","name":"OwnershipTransferred","inputs":[{"name":"previousOwner","type":"address","indexed":true,"internalType":"address"},{"name":"newOwner","type":"address","indexed":true,"internalType":"address"}],"anonymous":false},{"type":"event","name":"Rewarded","inputs":[{"name":"rewarder","type":"address","indexed":true,"internalType":"address"},{"name":"poolId","type":"uint256","indexed":true,"internalType":"uint256"},{"name":"rewardId","type":"uint256","indexed":true,"internalType":"uint256"}],"anonymous":false},{"type":"event","name":"Staked","inputs":[{"name":"staker","type":"address","indexed":true,"internalType":"address"},{"name":"poolId","type":"uint256","indexed":true,"internalType":"uint256"},{"name":"stakeId","type":"uint256","indexed":true,"internalType":"uint256"}],"anonymous":false},{"type":"event","name":"Transfer","inputs":[{"name":"from","type":"address","indexed":true,"internalType":"address"},{"name":"to","type":"address","indexed":true,"internalType":"address"},{"name":"tokenId","type":"uint256","indexed":true,"internalType":"uint256"}],"anonymous":false},{"type":"event","name":"Unstaked","inputs":[{"name":"staker","type":"address","indexed":true,"internalType":"address"},{"name":"poolId","type":"uint256","indexed":true,"internalType":"uint256"}],"anonymous":false},{"type":"error","name":"ERC721IncorrectOwner","inputs":[{"name":"sender","type":"address","internalType":"address"},{"name":"tokenId","type":"uint256","internalType":"uint256"},{"name":"owner","type":"address","internalType":"address"}]},{"type":"error","name":"ERC721InsufficientApproval","inputs":[{"name":"operator","type":"address","internalType":"address"},{"name":"tokenId","type":"uint256","internalType":"uint256"}]},{"type":"error","name":"ERC721InvalidApprover","inputs":[{"name":"approver","type":"address","internalType":"address"}]},{"type":"error","name":"ERC721InvalidOperator","inputs":[{"name":"operator","type":"address","internalType":"address"}]},{"type":"error","name":"ERC721InvalidOwner","inputs":[{"name":"owner","type":"address","internalType":"address"}]},{"type":"error","name":"ERC721InvalidReceiver","inputs":[{"name":"receiver","type":"address","internalType":"address"}]},{"type":"error","name":"ERC721InvalidSender","inputs":[{"name":"sender","type":"address","internalType":"address"}]},{"type":"error","name":"ERC721NonexistentToken","inputs":[{"name":"tokenId","type":"uint256","internalType":"uint256"}]},{"type":"error","name":"InvalidAmountOrId","inputs":[]},{"type":"error","name":"InvalidERC721Token","inputs":[]},{"type":"error","name":"InvalidRewardToken","inputs":[]},{"type":"error","name":"InvalidStakeId","inputs":[]},{"type":"error","name":"InvalidStakeToken","inputs":[]},{"type":"error","name":"InvalidTokenURI","inputs":[]},{"type":"error","name":"MoreThanTheTotalMaxTokens","inputs":[]},{"type":"error","name":"OnlyAvailableToStakersInGenesis","inputs":[]},{"type":"error","name":"OnlyOwnerHasAccessToAddRewards","inputs":[]},{"type":"error","name":"OnlyOwnerHasAccessToEditTokenURI","inputs":[]},{"type":"error","name":"OwnableInvalidOwner","inputs":[{"name":"owner","type":"address","internalType":"address"}]},{"type":"error","name":"OwnableUnauthorizedAccount","inputs":[{"name":"account","type":"address","internalType":"address"}]},{"type":"error","name":"PoolDoesNotExist","inputs":[]},{"type":"error","name":"PoolDoesNotHaveStakes","inputs":[]},{"type":"error","name":"ReentrancyGuardReentrantCall","inputs":[]},{"type":"error","name":"RewardAlreadyClaimed","inputs":[]},{"type":"error","name":"RewardIsEmpty","inputs":[]},{"type":"error","name":"RewardIsNotYetAvailableForClaim","inputs":[]},{"type":"error","name":"RewardNotFoundInPool","inputs":[]},{"type":"error","name":"RewardTransferFailed","inputs":[]},{"type":"error","name":"StakeAlreadyUnstaked","inputs":[]},{"type":"error","name":"StakeOnNextBlockAfterReward","inputs":[]},{"type":"error","name":"StakeTransferFailed","inputs":[]},{"type":"error","name":"StakerDoesNotHaveStakesInPool","inputs":[]},{"type":"error","name":"TotalMaxForOnlyOneTypeOfToken","inputs":[]},{"type":"error","name":"UnstakeOnNextBlockAndGetReward","inputs":[]},{"type":"error","name":"UnstakeTransferFailed","inputs":[]}],"bytecode":{"object":"0x6080346200043757601f1990601f62004c6f3881900382810185168401936001600160401b0393929091908486118387101762000421578160609284926040988952833981010312620004375762000057816200045c565b94602092838301519060018060a01b03938483168093036200043757876200008091016200045c565b906200008b6200043c565b94600b86526a537461716520506f6f6c7360a81b87870152620000ad6200043c565b936003958686526253545160e81b8987015287518a81116200042157806000998a8c620000db825462000471565b89808211620003f0575b505050508b908783116001146200038c578b9262000380575b50508160011b91600019908a1b1c19161788555b8551908a82116200036c5781906001978a8c620001308b5462000471565b898c8183116200032f575b50505050508b91878411600114620002ce57508a92620002c2575b505060001982891b1c191690861b1785555b3315620002aa57600780546001600160a01b03198082163390811790935594919084167f8be0079c531659141344cd1fd0a4f28419497f9722a3daafe3b4186f6b6457e08a80a3620001bc60085462000471565b81811162000288575b505060006008558460095589519860e08a01908a82109082111762000274578a9b83918b9c9b999a9b52168752888701908152818b880194168452816060880195898752818d8b60808c019b818d5260a081019d8e5260c0019d8e439052818052600b9052209c5116858d5416178c558b019151168382541617905560028901925116908254161790555190850155516004840155516005830155519060060155516147a79081620004c88239f35b634e487b7160e01b88526041600452602488fd5b620002a29160088a528a8a20910160051c810190620004ae565b3880620001c5565b8951631e4fbdf760e01b815260048101889052602490fd5b01519050388062000156565b898c528c8c208a9590939291168c8e5b828210620003175750508411620002fe575b505050811b01855562000168565b0151600019838b1b60f8161c19169055388080620002f0565b8385015186558c979095019493840193018e620002de565b848491620003579652209181880160051c830193881062000362575b0160051c0190620004ae565b8a8c38898c6200013b565b925081926200034b565b634e487b7160e01b89526041600452602489fd5b015190503880620000fe565b8b80528c8c209285168c8e5b828210620003d8575050908460019594939210620003bf575b505050811b01885562000112565b0151600019838c1b60f8161c19169055388080620003b1565b60018596829396860151815501950193018e62000398565b828480620004179652209181870160051c830193871062000362570160051c0190620004ae565b8a8c3889620000e5565b634e487b7160e01b600052604160045260246000fd5b600080fd5b60408051919082016001600160401b038111838210176200042157604052565b51906001600160a01b03821682036200043757565b90600182811c92168015620004a3575b60208310146200048d57565b634e487b7160e01b600052602260045260246000fd5b91607f169162000481565b818110620004ba575050565b60008155600101620004ae56fe6080604052600436101561001257600080fd5b60003560e01c8062936c9a14612e9f57806301ffc9a714612e1757806304e4d71114612d54578063068bcd8d14612ce557806306fdde0314612c42578063081812fc14612c04578063095ea7b314612b1d57806323b872dd14612b065780632c32c36014612ad75780633025ec6d146127fb578063395de242146123125780633a2e17471461222957806342842e0e146121fb5780634cb8a68b1461210757806350f9b39e14611f095780635b5b9ea21461199f5780635ea6bda1146119585780636352211e1461192857806370a08231146118cf578063715018a6146118725780637ebfee3e146118335780638da5cb5b1461180a578063938e3d7b1461166a57806395d89b41146115c757806399a47faa14610f92578063a22cb46514610ee4578063a638f2e214610b6e578063b88d4fde14610b02578063b90bc51914610a99578063c0d8012c146109a4578063c87b56dd146108b6578063d33560e6146107ee578063d3ffe67a146107d0578063e8a3d485146106ee578063e985e9c514610698578063f2fde38b1461060a5763fa37c3ca146101b257600080fd5b346103ab5760603660031901126103ab576101cb6132b1565b6101d36132dd565b6101db6132c7565b6101e3613f9d565b916001600160a01b0390811680159290831580610600575b610402575b5081169182151590816103fa575b5061022e575b6040516020808252819061022a90820186613525565b0390f35b6040516306fdde0360e01b8152919250600082600481865afa918215610344576000926103dd575b506040516395d89b4160e01b815290600082600481875afa918215610344576000926103b8575b50841680159190821561035057506000915b156102d05761022a94506000925b604051946102aa86613374565b855260208501526040840152600060608401526080830152151560a08201523880610214565b60405163e985e9c560e01b81526001600160a01b03959095166004860152306024860152602085604481875afa80156103445761022a95600091610316575b509261029d565b610337915060203d811161033d575b61032f81836133aa565b8101906137ed565b3861030f565b503d610325565b6040513d6000823e3d90fd5b604051906370a0823160e01b82526004820152602081602481885afa90811561034457600091610382575b509161028f565b90506020813d82116103b0575b8161039c602093836133aa565b810103126103ab57513861037b565b600080fd5b3d915061038f565b6103d69192503d806000833e6103ce81836133aa565b810190613fd0565b903861027d565b6103f39192503d806000833e6103ce81836133aa565b9038610256565b90503861020e565b6040516306fdde0360e01b8152919450600082600481845afa918215610344576000926105e3575b506040516395d89b4160e01b815291600083600481855afa928315610344576000936105c6575b5060405163313ce56760e01b8152602091908281600481875afa9081156103445760009161058f575b506040516370a0823160e01b81528987166004820152948386602481885afa9283156103445760009361055e575b604051636eb1769f60e11b81526001600160a01b038c1660048201523060248201529650848780604481015b0381895afa948515610344578897600096610523575b509060ff939291604051976104fe89613374565b8852870152604086015216606084015260808301526000191460a08201529390610200565b809493929850818097503d8311610557575b61053f81836133aa565b810103126103ab57879660ff935195909192936104ea565b503d610535565b92508386813d8311610588575b61057581836133aa565b810103126103ab576104d49551926104a8565b503d61056b565b90508281813d83116105bf575b6105a681836133aa565b810103126103ab575160ff811681036103ab573861047a565b503d61059c565b6105dc9193503d806000833e6103ce81836133aa565b9138610451565b6105f99192503d806000833e6103ce81836133aa565b903861042a565b50828216156101fb565b346103ab5760203660031901126103ab576106236132b1565b61062b6142a1565b6001600160a01b0390811690811561067f57600754826bffffffffffffffffffffffff60a01b821617600755167f8be0079c531659141344cd1fd0a4f28419497f9722a3daafe3b4186f6b6457e0600080a3005b604051631e4fbdf760e01b815260006004820152602490fd5b346103ab5760403660031901126103ab576106b16132b1565b6106b96132dd565b9060018060a01b03809116600052600560205260406000209116600052602052602060ff604060002054166040519015158152f35b346103ab5760003660031901126103ab57604051600060085461071081614267565b808452906001908181169081156107a9575060011461074e575b61022a8461073a818603826133aa565b60405191829160208352602083019061345e565b6008600090815292507ff3f7a9fe364faab93b216da50a3214154f22a0a2b415b23a84c8169e8b636ee35b82841061079157505050810160200161073a8261072a565b80546020858701810191909152909301928101610779565b60ff191660208087019190915292151560051b8501909201925061073a915083905061072a565b346103ab5760003660031901126103ab576020600a54604051908152f35b346103ab5760806107fe366134b8565b60405191929161080d81613359565b600081526000602082015260006040820152600060608201529160018060a01b03169283600052600d6020526040600020816000526020526040600020548210610881575b848361087f6040518092606080918051845260208101516020850152604081015160408501520151910152565bf35b6108a892506108ae93600052600d6020526040600020906000526020526040600020613776565b50613792565b808380610852565b346103ab576020806003193601126103ab576004356108d481614456565b50600052600681526040600020906040519182600082546108f481614267565b93848452600191868382169182600014610982575050600114610943575b5050610920925003836133aa565b600060405161092e8161338f565b5261022a60405192828493845283019061345e565b85925060005281600020906000915b85831061096a57505061092093508201018580610912565b80548389018501528794508693909201918101610952565b925093505061092094915060ff191682840152151560051b8201018580610912565b346103ab576020806003193601126103ab57600435600052600c815260406000209081546109d181613582565b906109df60405192836133aa565b8082528282018094600052836000206000915b838310610a7c5760408051878152865181890181905289928201908960005b828110610a1e5784840385f35b9091928260c082610a6d6001948a5160a08091805115158452600180831b0360208201511660208501526040810151604085015260608101516060850152608081015160808501520151910152565b01960191019492919094610a11565b600586600192610a8b856136c5565b8152019201920191906109f2565b346103ab5760403660031901126103ab5760c0610aba602435600435613719565b61087f604051809260a08091805115158452600180831b0360208201511660208501526040810151604085015260608101516060850152608081015160808501520151910152565b346103ab5760803660031901126103ab57610b1b6132b1565b610b236132dd565b90604435606435926001600160401b0384116103ab57366023850112156103ab57610b5b610b6c9436906024816004013591016133e6565b92610b678383836142cd565b614491565b005b346103ab5760603660031901126103ab576000604435602435600435610b9261474e565b80600052602093600b8552604060002093600685015415610ed25783159485159580610eca575b610eb85783600052600c8752604060002080548015159182610e91575b5050610e7f5733600052600d875260406000208460005287528560406000205496610e69575b8215159586610e3b575b600383015480610df0575b5033600052600d8952604060002086600052895260406000209060405191610c3883613359565b8183528a83019286845260408101914383526060820190600082528054600160401b811015610dda57610c7091600182018155613776565b939093610dc4578d956003935185555160018501555160028401555191015582610d54575b5050610d42578594610cd6575b50507f1449c6dd7851abc30abf37f57715f492010519147cc2652fbc38202c18a6ee90339180a46001600955604051908152f35b600101549093506001600160a01b0316803b156103ab576040516323b872dd60e01b815233600482015230602482015260448101949094526000908490606490829084905af1928315610344578493610d30575b80610ca2565b610d3a915061330e565b600085610d2a565b604051631231ec2f60e21b8152600490fd5b83546040516323b872dd60e01b81523360048201523060248201526044810192909252909250829060649082906000906001600160a01b03165af190811561034457600091610da7575b50158789610c95565b610dbe9150883d8a1161033d5761032f81836133aa565b88610d9e565b634e487b7160e01b600052600060045260246000fd5b634e487b7160e01b600052604160045260246000fd5b8280610e2e575b610e0e57879081610e20575b50610e0e5789610c11565b604051636dce347360e11b8152600490fd5b90506005840154118a610e03565b5080600485015411610df7565b6005830180549060018201809211610e535755610c06565b634e487b7160e01b600052601160045260246000fd5b60048201610e788782546137e0565b9055610bfc565b604051630485995160e51b8152600490fd5b60001982019250908211610e5357600491610eab91613693565b5001544311158880610bd6565b604051633b91be2160e21b8152600490fd5b508115610bb9565b6040516302721e1f60e61b8152600490fd5b346103ab5760403660031901126103ab57610efd6132b1565b60243590811515908183036103ab576001600160a01b0316918215610f7957610f4b9033600052600560205260406000208460005260205260406000209060ff801983541691151516179055565b6040519081527f17307eab39ab6107e8899845ad3d59bd9653f200f220920489ca2b5937696c3160203392a3005b604051630b61174360e31b815260048101849052602490fd5b346103ab5760603660031901126103ab576001600160401b036004358181116103ab57610fc3903690600401613599565b6024918235908082116103ab57366023830112156103ab57816004013593610fea85613582565b94610ff860405196876133aa565b80865281602087019160051b850101923684116103ab57828501915b8483106115a05787876110256132c7565b61102d61474e565b6001600160a01b03811615611599575b81519061107361104c83613582565b9261105a60405194856133aa565b808452611069601f1991613582565b0160208401613b61565b8251936110a961108286613582565b9561109060405197886133aa565b80875261109f601f1991613582565b0160208701613b61565b6000915b84518310156111cb576110c08383613b0b565b51516110cb81613582565b906110d960405192836133aa565b8082526110e8601f1991613582565b013660208301376110f98486613b0b565b526111048385613b0b565b506111196111128484613b0b565b5151613b1f565b6111238488613b0b565b5261112e8387613b0b565b5083868660005b61113f8787613b0b565b51518110156111b75780846111a0828a8061119a8361117c6111928f61118a906111826111b29d8f896111758161117c93613b0b565b5194613b0b565b51613b0b565b519033613b9e565b959099613b0b565b51948c613b0b565b52613b0b565b6001600160a01b0390911690526137c4565b611135565b50505050916111c5906137c4565b916110ad565b858583866000945b835186101561125f5760005b6111e98785613b0b565b515181101561124e57806112046112499261117c8a8a613b0b565b5133600052600e602052604060002061121d8a89613b0b565b5160005260205260406000206112378361117c8c8a613b0b565b516000526020526040600020556137c4565b6111df565b5094611259906137c4565b946111d3565b60009085855b8051841015611499576112788482613b0b565b516000908152600b60205260409020600201546001600160a01b0316806113d2575060005b6112a78588613b0b565b515181101561138f576112be8161117c8786613b0b565b51801561137d5760009060209061131e906001600160a01b036112e58661117c8c8e613b0b565b5160405163a9059cbb60e01b81526001600160a01b038b1660048201526024810193909352919485939190921691839182906044820190565b03925af19081156103445760009161135e575b501561134c57846113446112a7926137c4565b91505061129d565b60405163078ecf4160e41b8152600490fd5b611377915060203d60201161033d5761032f81836133aa565b88611331565b604051635f65f16560e11b8152600490fd5b50926113cc905b6113a08186613b0b565b51337fd8138f8a3f377c5259ca548e70e4c2de94f129f5a11036a15b69513cba2b426a600080a36137c4565b92611265565b90919260009695966000905b6113e88789613b0b565b51518210156114195761140d611413916114068461117c8b8b613b0b565b51906137e0565b916137c4565b906113de565b91949395929050969596811561137d5760405163a9059cbb60e01b81526001600160a01b03861660048201526024810192909252602090829060449082906000905af19081156103445760009161147a575b501561134c576113cc90611396565b611493915060203d60201161033d5761032f81836133aa565b8761146b565b508360018060095560405191604083016040845281518091526060840190602060608260051b8701019301916000905b82821061153257505050508281036020840152835180825260208201916020808360051b8301019601926000915b8383106115045786880387f35b9091929394602080611521839a601f1986820301875289516134f1565b9997019594919091019201906114f7565b9091929394809795605f19888203018352855190602080835192838152019201906000905b848183106115785750505050602080919601920192019092919694966114c9565b83516001600160a01b03168552602094850194909301929190910190611557565b503361103d565b82358281116103ab576020916115bc83928736918b0101613599565b815201920191611014565b346103ab5760003660031901126103ab57604051600060018054906115eb82614267565b808552918181169081156107a957506001146116115761022a8461073a818603826133aa565b600081815292507fb10e2d527612073b26eecdfd717e6a320cf44b4afac2b0732d9fcbe2b7fa0cf65b82841061165257505050810160200161073a8261072a565b8054602085870181019190915290930192810161163a565b346103ab576020806003193601126103ab576001600160401b036004358181116103ab5761169c90369060040161341d565b916116a56142a1565b8251918211610dda576116b9600854614267565b601f81116117a6575b5080601f831160011461172257508192600092611717575b50508160011b916000199060031b1c1916176008555b7fa5d4097edda6d87cb9329af83fb3712ef77eeb13738ffe43cc35a4ce305ad962600080a1005b0151905082806116da565b90601f1983169360086000527ff3f7a9fe364faab93b216da50a3214154f22a0a2b415b23a84c8169e8b636ee3926000905b86821061178e5750508360019510611775575b505050811b016008556116f0565b015160001960f88460031b161c19169055828080611767565b80600185968294968601518155019501930190611754565b60086000527ff3f7a9fe364faab93b216da50a3214154f22a0a2b415b23a84c8169e8b636ee3601f840160051c810191838510611800575b601f0160051c01905b8181106117f457506116c2565b600081556001016117e7565b90915081906117de565b346103ab5760003660031901126103ab576007546040516001600160a01b039091168152602090f35b346103ab5760a03660031901126103ab57602061186a6118516132dd565b6118596134e2565b906064359060443590600435613805565b604051908152f35b346103ab5760003660031901126103ab5761188b6142a1565b600780546001600160a01b031981169091556000906001600160a01b03167f8be0079c531659141344cd1fd0a4f28419497f9722a3daafe3b4186f6b6457e08280a3005b346103ab5760203660031901126103ab576001600160a01b036118f06132b1565b16801561190f5760005260036020526020604060002054604051908152f35b6040516322718ad960e21b815260006004820152602490fd5b346103ab5760203660031901126103ab576020611946600435614456565b6040516001600160a01b039091168152f35b346103ab57611966366134b8565b9160018060a01b0316600052600e6020526040600020906000526020526040600020906000526020526020604060002054604051908152f35b346103ab5760403660031901126103ab576119b86132b1565b60006101406040516119c98161333d565b6119d1613f9d565b81526119db613f9d565b60208201526119e8613f9d565b6040820152826060820152606060808201528260a08201528260c08201528260e082015282610100820152826101208201520152611a276024356135f7565b600091604051611a368161338f565b60008152926040516331a9108f60e11b81526024356004820152602081602481305afa60009181611ec5575b50611ebd575b5060405163c87b56dd60e01b81526024356004820152600081602481305afa60009181611ea0575b50611e98575b508251611aac906001600160a01b03168361402e565b9360018060a01b0360208501511693611ac3613f9d565b9480151580611e90575b611cf6575b506040810151611aeb906001600160a01b03168561402e565b9360608201519260808301519460a084015196602435600052600c60205260406000208054611b1981613582565b91611b2760405193846133aa565b818352602083019060005260206000206000915b838310611cd85750505050519360018060a01b0316600052600d602052604060002060243560005260205260406000208054611b7681613582565b91611b8460405193846133aa565b818352602083019060005260206000206000915b838310611cba575050505060c09051950151986040519a611bb88c61333d565b8b5260208b015260408a015260018060a01b03166060890152608088015260a087015260c086015260e0850152610100840152610120830152610140820152604051809160208252610140611c78611c1e83516101606020870152610180860190613525565b611c51611c3d602086015192601f1993848983030160408a0152613525565b604086015183888303016060890152613525565b9060018060a01b0360608601511660808701526080850151908683030160a087015261345e565b9160a081015160c085015260c081015160e085015260e08101516101008501526101008101516101208501526101208101518285015201516101608301520390f35b60046020600192611cca85613792565b815201920192019190611b98565b60056020600192611ce8856136c5565b815201920192019190611b3b565b6040516306fdde0360e01b815291955090600081600481855afa90811561034457600091611e75575b506040516395d89b4160e01b8152600081600481865afa90811561034457600091611e5a575b506001600160a01b0386169081611df5576000915b611d95576000925b60405194611d6f86613374565b855260208501526040840152600060608401526080830152151560a08201529386611ad2565b60405163e985e9c560e01b81526001600160a01b0388166004820152306024820152602081604481885afa90811561034457600091611dd6575b5092611d62565b611def915060203d60201161033d5761032f81836133aa565b8a611dcf565b6040516370a0823160e01b815260048101839052602081602481885afa90811561034457600091611e28575b5091611d5a565b90506020813d602011611e52575b81611e43602093836133aa565b810103126103ab57518a611e21565b3d9150611e36565b611e6f91503d806000833e6103ce81836133aa565b88611d45565b611e8a91503d806000833e6103ce81836133aa565b87611d1f565b506001611acd565b935084611a96565b611eb69192503d806000833e6103ce81836133aa565b9086611a90565b905084611a68565b9091506020813d602011611f01575b81611ee1602093836133aa565b810103126103ab57516001600160a01b03811681036103ab579086611a62565b3d9150611ed4565b346103ab57611f17366134b8565b91604051611f2481613321565b611f2c613f9d565b8152600060e060209282848201528260408201528260608201528260808201528260a08201528260c08201520152611f648484613719565b9160009260009160405196630161961b60e51b885260018060a01b03968783168060048b01528160248b01528260448b015260408a606481305afa8060009b6000926120c2575b5061206d9b8b916120ad57505050600052600e8652604060002090600052855260406000209060005284526040600020548061209f575b50611ff8905b825115159685840151169061402e565b94604082015160608301519160a06080850151940151946040519861201c8a613321565b8952868901978852604089019015158152606089019182526080890192835260a0890193845260c0890194855260e08901958652604051998a99888b525161010080998c01526101208b0190613525565b975160408a0152511515606089015251151560808801525160a08701525160c08601525160e085015251908301520390f35b945060019250611ff8611fe2565b16868901529750611ff8939250611fe8915050565b9b50905060408b3d6040116120ff575b816120df604093836133aa565b810103126103ab578a519a8a8c168c036103ab578801519061206d611fab565b3d91506120d2565b346103ab5760403660031901126103ab576001600160a01b036121286132b1565b166000526020600d815260406000206024356000528152604060002090815461215081613582565b9061215e60405192836133aa565b8082528282018094600052836000206000915b8383106121de5760408051878152865181890181905289928201908960005b82811061219d5784840385f35b909192826080826121cf6001948a51606080918051845260208101516020850152604081015160408501520151910152565b01960191019492919094612190565b6004866001926121ed85613792565b815201920192019190612171565b346103ab57610b6c61220c36613483565b906040519261221a8461338f565b60008452610b678383836142cd565b346103ab576101403660031901126103ab576122436132dd565b60443561224e6134e2565b60c4359260ff841684036103ab57610124359384151585036103ab576001600160a01b038216941561230b57600019905b853b156103ab5760405163d505accf60e01b8152336004820152306024820152604481019290925260a48035606484015260ff91909116608483015260e48035918301919091526101043560c483015290946000918691829084905af19283156103445760209461186a946122fc575b5060643591600435613805565b6123059061330e565b856122ef565b839061227f565b346103ab5760403660031901126103ab576001600160401b0380602435116103ab573660236024350112156103ab5760243560040135116103ab5736602480356004013560051b81350101116103ab5761236a61474e565b600435600052600b602052604060002060405190612387826132f3565b60018060a01b038154168252600660018060a01b03600183015416916020840192835260018060a01b0360028201541660408501526003810154606085015260048101546080850152600581015460a0850152015460c0830152600435600052600c602052604060002080546123fc81613582565b9161240a60405193846133aa565b818352602083019060005260206000206000915b8383106127dd5750505050805180151591826127b6575b50506127a457600435600052600b602052604060002090600682015415610ed25733600052600d60205260406000206004356000526020526040600020602435600401351590811561279a575b5061267a57600091600061249b60243560040135613b1f565b9460005b60243560040135811061269457508415918215928061268c575b61267a5782612664575b801515938461264c575b5050816125e1575b506125cf5761252a575b5061022a604051928392600435337f0f5bb82176feb1b5e747e28471aa92156a04d9f3ab9f45f28e2d704232b93f75600080a3600160095583526040602084015260408301906134f1565b60005b83518110156125c7576125408185613b0b565b51156125be5781516001600160a01b03169061255c8186613b0b565b5191803b156103ab57604051632142170760e11b815230600482015233602482015260448101939093526000908390606490829084905af1918215610344576125aa926125af575b506137c4565b61252d565b6125b89061330e565b856125a4565b6125aa906137c4565b5050826124df565b604051631b9f013160e11b8152600490fd5b5160405163a9059cbb60e01b8152336004820152602481018690529150602090829060449082906000906001600160a01b03165af19081156103445760009161262d575b5015856124d5565b612646915060203d60201161033d5761032f81836133aa565b85612625565b600561265b91019182546137d3565b905586806124cd565b600484016126738782546137d3565b90556124c3565b6040516319a089c160e01b8152600490fd5b5080156124b9565b6126a981602435600401356024803501613b51565b3533600052600d602052604060002060043560005260205260406000205411156127885733600052600d6020526040600020600435600052602052612708604060002061270183602435600401356024803501613b51565b3590613776565b509560038701541580159061277a575b612768576127306001914360038a01558854906137e0565b96015480612748575b50612743906137c4565b61249f565b81936127619161275b612743948b613b0b565b526137c4565b9290612739565b60405163793ef5e960e11b8152600490fd5b504360028801541015612718565b604051639b763f7160e01b8152600490fd5b9050541584612482565b6040516371f7dfa560e01b8152600490fd5b60001982019250908211610e535760a0916127d091613b0b565b5101514311158380612435565b600560206001926127ed856136c5565b81520192019201919061241e565b346103ab5760e03660031901126103ab5760643560243560043560ff831683036103ab5760c43580151581036103ab576001600160a01b03938461283e846135f7565b51169115612ad057600019905b823b156103ab5760405163d505accf60e01b81523360048201523060248201526044808201939093529135606483015260ff166084808301919091523560a4808301919091523560c482015290600090829060e490829084905af1801561034457612ac1575b506128ba61474e565b80600052602092600b84526040600020600681015415610ed25783159384159480612ab9575b610eb85783600052600c8652604060002080548015159182612a92575b5050610e7f57849233600052600d8752604060002085600052875260406000205495612a7c575b83600384015480612a5c575b505033600052600d875260406000208560005287526040600020926040519361295885613359565b838552888501946000865260408101914383526060820190600082528054600160401b811015610dda5761299191600182018155613776565b939093610dc4578b9760039351855551600185015551600284015551910155846129f3575b50505050610d42578190337f1449c6dd7851abc30abf37f57715f492010519147cc2652fbc38202c18a6ee90600080a46001600955604051908152f35b546040516323b872dd60e01b8152336004820152306024820152604481019390935291935083916064918391600091165af190811561034457600091612a3f575b5015838580806129b6565b612a569150843d861161033d5761032f81836133aa565b84612a34565b81612a6e575b50610e0e578388612930565b905060048401541188612a62565b60048301612a8b8382546137e0565b9055612924565b60001982019250908211610e5357600491612aac91613693565b50015443111587806128fd565b5060016128e0565b612aca9061330e565b836128b1565b839061284b565b346103ab576040612af0612aea366134b8565b91613b9e565b82516001600160a01b0390921682526020820152f35b346103ab57610b6c612b1736613483565b916142cd565b346103ab5760403660031901126103ab57612b366132b1565b602435612b4281614456565b33151580612bf1575b80612bc4575b612bac576001600160a01b039283169282918491167f8c5be1e5ebec7d5bd14f71427d1e84f3dd0314c0f7b2291e5b200ac8c7c3b925600080a4600090815260046020526040902080546001600160a01b0319169091179055005b60405163a9fbf51f60e01b8152336004820152602490fd5b5060018060a01b038116600052600560205260406000203360005260205260ff6040600020541615612b51565b506001600160a01b038116331415612b4b565b346103ab5760203660031901126103ab57600435612c2181614456565b506000526004602052602060018060a01b0360406000205416604051908152f35b346103ab5760003660031901126103ab5760405160008054612c6381614267565b808452906001908181169081156107a95750600114612c8c5761022a8461073a818603826133aa565b600080805292507f290decd9548b62a8d60345a988386fc84ba6bc95484008f6362f93160ef3e5635b828410612ccd57505050810160200161073a8261072a565b80546020858701810191909152909301928101612cb5565b346103ab5760203660031901126103ab5760e0612d036004356135f7565b60c06040519160018060a01b038082511684528060208301511660208501526040820151166040840152606081015160608401526080810151608084015260a081015160a0840152015160c0820152f35b346103ab5760603660031901126103ab576024356004356044356001600160401b0381116103ab57612d8a90369060040161341d565b90612d9361474e565b80600052600b602052604060002092600684015415610ed257825115612e0557612dbc82614456565b336001600160a01b0390911603612df3576003612de4940180548211612deb575b50506145d9565b6001600955005b558380612ddd565b604051637cefe4d160e01b8152600490fd5b6040516313f04adb60e01b8152600490fd5b346103ab5760203660031901126103ab5760043563ffffffff60e01b81168091036103ab57602090632483248360e11b8114908115612e5c575b506040519015158152f35b6380ac58cd60e01b811491508115612e8e575b8115612e7d575b5082612e51565b6301ffc9a760e01b14905082612e76565b635b5e139f60e01b81149150612e6f565b346103ab5760a03660031901126103ab57612eb86132b1565b612ec06132dd565b612ec86132c7565b90606435926084356001600160401b0381116103ab57612eec90369060040161341d565b90612ef561474e565b612efe33613e57565b1561329f576001600160a01b03928316918215801592838061328f575b61327d57851692831580928193613275575b5061326357825115612e0557871515918261325a575b5081613252575b506132405761300a916006612f60600a546137c4565b9687600a5560405192612f72846132f3565b835260209889840196875287604085019216825260608401908152608084016000815260a08501916000835260c08601934385528b600052600b8d528a6040600020975116996bffffffffffffffffffffffff60a01b9a8b8954161788558b600189019151168b8254161790558a600288019151168a82541617905551600386015551600485015551600584015551910155846145d9565b604051916130178361338f565b60008352331561322757839081600052600286526040600020541680151592836131f4575b33600052600387526040600020600181540190558260005260028752604060002090339082541617905533907fddf252ad1be2c89b69c2b068fc378daa952ba7f163c4a11628f55a4df523b3ef600080a46131db57333b6130cd575b506040519080337f8ad1ba2dbd33c6313fa50cd4016351a36437d7dcd0e0800a3a0b191d22095d93600080a360016009558152f35b604051838180613106630a85bd0160e11b958683523360048401526000602484015287604484015260806064840152608483019061345e565b03816000335af16000918161319b575b5061316e57833d15613167573d61312c816133cb565b9061313a60405192836133aa565b81523d60008383013e5b8051918261316457604051633250574960e11b8152336004820152602490fd5b01fd5b6060613144565b6001600160e01b031916036131835782613098565b604051633250574960e11b8152336004820152602490fd5b9091508481813d83116131d4575b6131b381836133aa565b810103126103ab57516001600160e01b0319811681036103ab579085613116565b503d6131a9565b6040516339e3563760e11b815260006004820152602490fd5b60008381526004602052604080822080546001600160a01b0319169055838252600389529020805460001901905561303c565b604051633250574960e11b815260006004820152602490fd5b60405163df9c3d7d60e01b8152600490fd5b905087612f4a565b15915088612f43565b6040516314ec381360e11b8152600490fd5b905089612f2d565b6040516366a0777760e01b8152600490fd5b5061329985613f39565b15612f1b565b6040516358fd19b960e11b8152600490fd5b600435906001600160a01b03821682036103ab57565b604435906001600160a01b03821682036103ab57565b602435906001600160a01b03821682036103ab57565b60e081019081106001600160401b03821117610dda57604052565b6001600160401b038111610dda57604052565b61010081019081106001600160401b03821117610dda57604052565b61016081019081106001600160401b03821117610dda57604052565b608081019081106001600160401b03821117610dda57604052565b60c081019081106001600160401b03821117610dda57604052565b602081019081106001600160401b03821117610dda57604052565b90601f801991011681019081106001600160401b03821117610dda57604052565b6001600160401b038111610dda57601f01601f191660200190565b9291926133f2826133cb565b9161340060405193846133aa565b8294818452818301116103ab578281602093846000960137010152565b9080601f830112156103ab57816020613438933591016133e6565b90565b60005b83811061344e5750506000910152565b818101518382015260200161343e565b906020916134778151809281855285808601910161343b565b601f01601f1916010190565b60609060031901126103ab576001600160a01b039060043582811681036103ab579160243590811681036103ab579060443590565b60609060031901126103ab576004356001600160a01b03811681036103ab57906024359060443590565b6084359081151582036103ab57565b90815180825260208080930193019160005b828110613511575050505090565b835185529381019392810192600101613503565b9060018060a01b03825116815260a080613563613551602086015160c0602087015260c086019061345e565b6040860151858203604087015261345e565b9360608101516060850152608081015160808501520151151591015290565b6001600160401b038111610dda5760051b60200190565b81601f820112156103ab578035916135b083613582565b926135be60405194856133aa565b808452602092838086019260051b8201019283116103ab578301905b8282106135e8575050505090565b813581529083019083016135da565b60c06040918251613607816132f3565b600092818480935282602082015282868201528260608201528260808201528260a082015201528152600b60205220600660405191613645836132f3565b80546001600160a01b03908116845260018201548116602085015260028201541660408401526003810154606084015260048101546080840152600581015460a0840152015460c082015290565b80548210156136af576000526005602060002091020190600090565b634e487b7160e01b600052603260045260246000fd5b906040516136d281613374565b825460ff81161515825260081c6001600160a01b031660208201526001830154604082015260028301546060820152600383015460808201526004929092015460a0830152565b91906040805161372881613374565b60009081815281602082015281838201528160608201528160808201528160a0820152948152600c6020522080548210613760575050565b6134389293509061377091613693565b506136c5565b80548210156136af5760005260206000209060021b0190600090565b9060405161379f81613359565b6060600382948054845260018101546020850152600281015460408501520154910152565b6000198114610e535760010190565b91908203918211610e5357565b91908201809211610e5357565b908160209103126103ab575180151581036103ab5790565b9190949361381161474e565b85600092848452602091600b835260409384862097855190613832826132f3565b600160a01b60019003808b541683528060018c015416878401528060028c01541688840190815260038c0154606085015260049d8e8d0154948d60808201968752600501549d60a082019e8f526006015460c08192015215613afb57821615613aeb5786158015613ad8575b613ac8576138ab8b614456565b8233911603613ab8578480613aaf575b8015613a9d575b613a8d5751811680613a85575b50898952600c875287892080549b8c948615613a7c575051915b8951956138f587613374565b15158652888601961695868152898601918883526060870193845260808701948552600160401b60a08801964388521015613a68578d61393a91600182018155613693565b969096613a5557928f93926139d1999795926139688c9a9895511515889060ff801983541691151516179055565b518654610100600160a81b03191660089190911b610100600160a81b03161786555160018601555160028501555160038401555191015585516323b872dd60e01b815233818d019081523060208201526040810193909352938492839189918391606090910190565b03925af1918215613a48578492613a2b575b505015613a1c5750829394507f291e8ba3c0f4b0bd86e6e2346fcee1e7ca0975b1cc1886bfbc722d34f3f24d91339180a4906001600955565b5163078ecf4160e41b81528590fd5b613a419250803d1061033d5761032f81836133aa565b38806139e3565b50505051903d90823e3d90fd5b8f8c80602492634e487b7160e01b825252fd5b8f8c6041602492634e487b7160e01b835252fd5b905051916138e9565b9450386138cf565b88516303bdf00d60e31b81528e90fd5b50841580156138c257508351156138c2565b508b51156138bb565b8851630a781f0560e21b81528e90fd5b8851635f65f16560e11b81528e90fd5b5084801561389e57508b5187111561389e565b885163dfde867160e01b81528e90fd5b89516302721e1f60e61b81528f90fd5b80518210156136af5760209160051b010190565b90613b2982613582565b613b3660405191826133aa565b8281528092613b47601f1991613582565b0190602036910137565b91908110156136af5760051b0190565b60005b828110613b7057505050565b606082820152602001613b64565b8115613b88570490565b634e487b7160e01b600052601260045260246000fd5b6001600160a01b039081166000818152600e6020908152604080832086845282528083208784528252808320549297949690958893613e4657808452600c8352868420948554613bed81613582565b96613bfa8a5198896133aa565b8188528652848620869086808a015b848410613e275750505050508286511115613e16578452600d83528684209084528252858320938454613c3b81613582565b95613c48895197886133aa565b81875285528385208590858089015b848410613df7575050505050845115613de65790613c7491613b0b565b519260a0840194613c8b86516080870151906137e0565b431115613dd557835b8251811015613daf57613ca78184613b0b565b51606090818101518015908115613da4575b508a8201518a511015908951159182159083613d99575b81613d8c575b82613d84575b5081613d6b575b50613cfa575b505050613cf5906137c4565b613c94565b929b9215613d515751908988015191828102928184041490151715613d3d5791613d2e613d3492613cf5948a015190613b7e565b906137e0565b99903880613ce9565b634e487b7160e01b87526011600452602487fd5b50613cf591613d2e613d34928b8a0151908a015190613b7e565b8291508115613d7c575b5038613ce3565b905038613d75565b915038613cdc565b848a015115159150613cd6565b845115159350613cd0565b905089511038613cb9565b5097969592505092508415613dc5575001511691565b51635f65f16560e11b8152600490fd5b86516303a4fc3760e01b8152600490fd5b86516319a089c160e01b8152600490fd5b600191600491613e0685613792565b8152019201920191908690613c57565b875163767afb7b60e11b8152600490fd5b600191600591613e36856136c5565b8152019201920191908790613c09565b8651632cfe303760e21b8152600490fd5b6000808052600b60209081527fdf7de25b7f1fd6d0b5205f0e18f1f35bd7b8d84cce336588d184533ce43a6f7b546040929190157fdf7de25b7f1fd6d0b5205f0e18f1f35bd7b8d84cce336588d184533ce43a6f7681613f2c575b50613f2557815b6001600160a01b038516808452600d808452858520858052845285852054909190831015613f1b578452825283832083805282526003613efb82868620613776565b50015415613f1157613f0c906137c4565b613eb9565b5050505050600190565b5050505091505090565b5091505090565b6004915001541538613eb2565b6040516301ffc9a760e01b81526380ac58cd60e01b600482015290602090829060249082906001600160a01b03165afa60009181613f7d575b506134385750600090565b613f9691925060203d811161033d5761032f81836133aa565b9038613f72565b60405190613faa82613374565b600060a08382815260606020820152606060408201528260608201528260808201520152565b6020818303126103ab578051906001600160401b0382116103ab570181601f820112156103ab578051614002816133cb565b9261401060405194856133aa565b818452602082840101116103ab57613438916020808501910161343b565b9190614038613f9d565b926001600160a01b03918216908115158061425f575b61405757505050565b604080516306fdde0360e01b81526000965092939192908682600481885afa918215614255578792614239575b5080516395d89b4160e01b8152908782600481895afa91821561422f578892614213575b50805163313ce56760e01b815292602080856004818b5afa94851561419f578a956141da575b5082516370a0823160e01b8152958716600487015280866024818b5afa95861561419f578a966141a9575b508251636eb1769f60e11b81526001600160a01b0397909716600488015230602488015280876044818b5afa96871561419f578a97614167575b5060ff9596979899508251986141488a613374565b895288015286015216606084015260808301526000191460a082015290565b9080975081813d8311614198575b61417f81836133aa565b81010312614194575197985088979538614133565b8980fd5b503d614175565b83513d8c823e3d90fd5b9695508087813d83116141d3575b6141c181836133aa565b810103126141945795519495806140f9565b503d6141b7565b9080955081813d831161420c575b6141f281836133aa565b81010312614194575160ff811681036141945793386140ce565b503d6141e8565b6142289192503d808a833e6103ce81836133aa565b90386140a8565b81513d8a823e3d90fd5b61424e9192503d8089833e6103ce81836133aa565b9038614084565b81513d89823e3d90fd5b50600161404e565b90600182811c92168015614297575b602083101461428157565b634e487b7160e01b600052602260045260246000fd5b91607f1691614276565b6007546001600160a01b031633036142b557565b60405163118cdaa760e01b8152336004820152602490fd5b6001600160a01b039182169290918315613227576000928284528260209560028752604096848888205416968791331515806143bd575b509060027fddf252ad1be2c89b69c2b068fc378daa952ba7f163c4a11628f55a4df523b3ef928461438a575b858352600381528b8320805460010190558683525289812080546001600160a01b0319168517905580a416928383036143695750505050565b6064945051926364283d7b60e01b8452600484015260248301526044820152fd5b600087815260046020526040902080546001600160a01b0319169055848352600381528b83208054600019019055614330565b91939450915080614415575b156143d957859291879138614304565b8786886143f6576024915190637e27328960e01b82526004820152fd5b905163177e802f60e01b81523360048201526024810191909152604490fd5b50338714801561443a575b806143c957508582526004815233858984205416146143c9565b5086825260058152878220338352815260ff8883205416614420565b6000818152600260205260409020546001600160a01b0316908115614479575090565b60249060405190637e27328960e01b82526004820152fd5b813b61449e575b50505050565b604051630a85bd0160e11b8082523360048301526001600160a01b039283166024830152604482019490945260806064820152602095929091169390929083906144ec90608483019061345e565b039285816000958187895af1849181614595575b50614560575050503d600014614558573d61451a816133cb565b9061452860405192836133aa565b81528091843d92013e5b8051928361455357604051633250574960e11b815260048101849052602490fd5b019050fd5b506060614532565b919450915063ffffffff60e01b160361457d575038808080614498565b60249060405190633250574960e11b82526004820152fd5b9091508681813d83116145d2575b6145ad81836133aa565b810103126145ce57516001600160e01b0319811681036145ce579038614500565b8480fd5b503d6145a3565b9190916000908082526020916006835260408120908551906001600160401b03821161473a576146098354614267565b601f81116146f7575b508490601f831160011461467357907ff8e1a15aba9398e019f0b49df1a4fde98ee17ae345cb5f6b5e2c27f5033e8ce7969783614668575b50508160011b916000199060031b1c19161790555b604051908152a1565b01519050388061464a565b9196601f198816848452868420935b8181106146e057509160019391897ff8e1a15aba9398e019f0b49df1a4fde98ee17ae345cb5f6b5e2c27f5033e8ce7999a94106146c7575b505050811b01905561465f565b015160001960f88460031b161c191690553880806146ba565b929387600181928786015181550195019301614682565b838252858220601f840160051c810191878510614730575b601f0160051c01905b8181106147255750614612565b828155600101614718565b909150819061470f565b634e487b7160e01b81526041600452602490fd5b60026009541461475f576002600955565b604051633ee5aeb560e01b8152600490fdfea26469706673582212206d32e3ee7884648d1ccf206aa57bb83eaa188a9e60d9c97fb7e07d1363902a6164736f6c63430008140033","linkReferences":{}},"methodIdentifiers":{"addReward(uint256,address,uint256,uint256,bool)":"7ebfee3e","addRewardWithPermit(uint256,address,uint256,uint256,bool,uint256,uint8,bytes32,bytes32,bool)":"3a2e1747","approve(address,uint256)":"095ea7b3","balanceOf(address)":"70a08231","calculateReward(address,uint256,uint256)":"2c32c360","claimRewards(uint256[],uint256[][],address)":"99a47faa","contractURI()":"e8a3d485","editPool(uint256,uint256,string)":"04e4d711","getApproved(uint256)":"081812fc","getClaimedAmount(address,uint256,uint256)":"5ea6bda1","getPool(address,uint256)":"5b5b9ea2","getPool(uint256)":"068bcd8d","getReward(address,uint256,uint256)":"50f9b39e","getReward(uint256,uint256)":"b90bc519","getRewards(uint256)":"c0d8012c","getStake(address,uint256,uint256)":"d33560e6","getStakes(address,uint256)":"4cb8a68b","getTotalPools()":"d3ffe67a","isApprovedForAll(address,address)":"e985e9c5","launchPool(address,address,address,uint256,string)":"00936c9a","name()":"06fdde03","owner()":"8da5cb5b","ownerOf(uint256)":"6352211e","renounceOwnership()":"715018a6","safeTransferFrom(address,address,uint256)":"42842e0e","safeTransferFrom(address,address,uint256,bytes)":"b88d4fde","setApprovalForAll(address,bool)":"a22cb465","setContractURI(string)":"938e3d7b","stake(uint256,uint256,uint256)":"a638f2e2","stakeWithPermit(uint256,uint256,uint256,uint8,bytes32,bytes32,bool)":"3025ec6d","supportsInterface(bytes4)":"01ffc9a7","symbol()":"95d89b41","tokenInfo(address,address,address)":"fa37c3ca","tokenURI(uint256)":"c87b56dd","transferFrom(address,address,uint256)":"23b872dd","transferOwnership(address)":"f2fde38b","unstake(uint256,uint256[])":"395de242"},"id":1}