{"abi":[{"type":"constructor","inputs":[{"name":"stakeERC20","type":"address","internalType":"contract IERC20"},{"name":"stakeERC721","type":"address","internalType":"contract IERC721"},{"name":"rewardToken","type":"address","internalType":"contract IERC20"},{"name":"metadata","type":"string","internalType":"string"}],"stateMutability":"nonpayable"},{"type":"function","name":"addReward","inputs":[{"name":"poolId","type":"uint256","internalType":"uint256"},{"name":"rewardToken","type":"address","internalType":"contract IERC20"},{"name":"rewardAmount","type":"uint256","internalType":"uint256"},{"name":"claimAfterBlocks","type":"uint256","internalType":"uint256"},{"name":"isForERC721Stakers","type":"bool","internalType":"bool"}],"outputs":[{"name":"rewardId","type":"uint256","internalType":"uint256"}],"stateMutability":"nonpayable"},{"type":"function","name":"addRewardWithPermit","inputs":[{"name":"poolId","type":"uint256","internalType":"uint256"},{"name":"rewardToken","type":"address","internalType":"contract IERC20"},{"name":"rewardAmount","type":"uint256","internalType":"uint256"},{"name":"claimAfterBlocks","type":"uint256","internalType":"uint256"},{"name":"isForERC721Stakers","type":"bool","internalType":"bool"},{"name":"deadline","type":"uint256","internalType":"uint256"},{"name":"v","type":"uint8","internalType":"uint8"},{"name":"r","type":"bytes32","internalType":"bytes32"},{"name":"s","type":"bytes32","internalType":"bytes32"},{"name":"max","type":"bool","internalType":"bool"}],"outputs":[],"stateMutability":"nonpayable"},{"type":"function","name":"approve","inputs":[{"name":"to","type":"address","internalType":"address"},{"name":"tokenId","type":"uint256","internalType":"uint256"}],"outputs":[],"stateMutability":"nonpayable"},{"type":"function","name":"balanceOf","inputs":[{"name":"owner","type":"address","internalType":"address"}],"outputs":[{"name":"","type":"uint256","internalType":"uint256"}],"stateMutability":"view"},{"type":"function","name":"calculateReward","inputs":[{"name":"staker","type":"address","internalType":"address"},{"name":"poolId","type":"uint256","internalType":"uint256"},{"name":"rewardId","type":"uint256","internalType":"uint256"}],"outputs":[{"name":"","type":"address","internalType":"contract IERC20"},{"name":"","type":"uint256","internalType":"uint256"}],"stateMutability":"view"},{"type":"function","name":"claimRewards","inputs":[{"name":"poolIds","type":"uint256[]","internalType":"uint256[]"},{"name":"rewardIds","type":"uint256[][]","internalType":"uint256[][]"},{"name":"recipient","type":"address","internalType":"address"}],"outputs":[{"name":"tokens","type":"address[][]","internalType":"contract IERC20[][]"},{"name":"amounts","type":"uint256[][]","internalType":"uint256[][]"}],"stateMutability":"nonpayable"},{"type":"function","name":"contractURI","inputs":[],"outputs":[{"name":"","type":"string","internalType":"string"}],"stateMutability":"view"},{"type":"function","name":"editPool","inputs":[{"name":"poolId","type":"uint256","internalType":"uint256"},{"name":"metadata","type":"string","internalType":"string"}],"outputs":[],"stateMutability":"nonpayable"},{"type":"function","name":"getApproved","inputs":[{"name":"tokenId","type":"uint256","internalType":"uint256"}],"outputs":[{"name":"","type":"address","internalType":"address"}],"stateMutability":"view"},{"type":"function","name":"getPool","inputs":[{"name":"poolId","type":"uint256","internalType":"uint256"}],"outputs":[{"name":"poolDetails","type":"tuple","internalType":"struct IStaqeStructs.Pool","components":[{"name":"stakeERC20","type":"address","internalType":"contract IERC20"},{"name":"stakeERC721","type":"address","internalType":"contract IERC721"},{"name":"rewardToken","type":"address","internalType":"contract IERC20"},{"name":"totalStakedERC20","type":"uint256","internalType":"uint256"},{"name":"totalStakedERC721","type":"uint256","internalType":"uint256"},{"name":"launchBlock","type":"uint256","internalType":"uint256"}]}],"stateMutability":"view"},{"type":"function","name":"getPool","inputs":[{"name":"staker","type":"address","internalType":"address"},{"name":"poolId","type":"uint256","internalType":"uint256"}],"outputs":[{"name":"poolDetails","type":"tuple","internalType":"struct IStaqeStructs.PoolDetails","components":[{"name":"stakeERC20","type":"address","internalType":"contract IERC20"},{"name":"stakeERC721","type":"address","internalType":"contract IERC721"},{"name":"rewardToken","type":"address","internalType":"contract IERC20"},{"name":"rewarder","type":"address","internalType":"address"},{"name":"metadata","type":"string","internalType":"string"},{"name":"totalStakedERC20","type":"uint256","internalType":"uint256"},{"name":"totalStakedERC721","type":"uint256","internalType":"uint256"},{"name":"totalRewards","type":"uint256","internalType":"uint256"},{"name":"totalStakerStakes","type":"uint256","internalType":"uint256"},{"name":"launchBlock","type":"uint256","internalType":"uint256"}]}],"stateMutability":"view"},{"type":"function","name":"getReward","inputs":[{"name":"staker","type":"address","internalType":"address"},{"name":"poolId","type":"uint256","internalType":"uint256"},{"name":"rewardId","type":"uint256","internalType":"uint256"}],"outputs":[{"name":"rewardDetails","type":"tuple","internalType":"struct IStaqeStructs.RewardDetails","components":[{"name":"isForERC721Stakers","type":"bool","internalType":"bool"},{"name":"rewardToken","type":"address","internalType":"contract IERC20"},{"name":"rewardAmount","type":"uint256","internalType":"uint256"},{"name":"stakerRewardAmount","type":"uint256","internalType":"uint256"},{"name":"totalStaked","type":"uint256","internalType":"uint256"},{"name":"claimAfterBlocks","type":"uint256","internalType":"uint256"},{"name":"rewardBlock","type":"uint256","internalType":"uint256"},{"name":"claimed","type":"bool","internalType":"bool"}]}],"stateMutability":"view"},{"type":"function","name":"getReward","inputs":[{"name":"poolId","type":"uint256","internalType":"uint256"},{"name":"rewardId","type":"uint256","internalType":"uint256"}],"outputs":[{"name":"rewardDetails","type":"tuple","internalType":"struct IStaqeStructs.Reward","components":[{"name":"isForERC721Stakers","type":"bool","internalType":"bool"},{"name":"rewardToken","type":"address","internalType":"contract IERC20"},{"name":"rewardAmount","type":"uint256","internalType":"uint256"},{"name":"totalStaked","type":"uint256","internalType":"uint256"},{"name":"claimAfterBlocks","type":"uint256","internalType":"uint256"},{"name":"rewardBlock","type":"uint256","internalType":"uint256"}]}],"stateMutability":"view"},{"type":"function","name":"getRewards","inputs":[{"name":"poolId","type":"uint256","internalType":"uint256"}],"outputs":[{"name":"","type":"tuple[]","internalType":"struct IStaqeStructs.Reward[]","components":[{"name":"isForERC721Stakers","type":"bool","internalType":"bool"},{"name":"rewardToken","type":"address","internalType":"contract IERC20"},{"name":"rewardAmount","type":"uint256","internalType":"uint256"},{"name":"totalStaked","type":"uint256","internalType":"uint256"},{"name":"claimAfterBlocks","type":"uint256","internalType":"uint256"},{"name":"rewardBlock","type":"uint256","internalType":"uint256"}]}],"stateMutability":"view"},{"type":"function","name":"getStake","inputs":[{"name":"staker","type":"address","internalType":"address"},{"name":"poolId","type":"uint256","internalType":"uint256"},{"name":"stakeId","type":"uint256","internalType":"uint256"}],"outputs":[{"name":"stakeDetails","type":"tuple","internalType":"struct IStaqeStructs.Stake","components":[{"name":"amountERC20","type":"uint256","internalType":"uint256"},{"name":"idERC721","type":"uint256","internalType":"uint256"},{"name":"stakeBlock","type":"uint256","internalType":"uint256"},{"name":"unstakeBlock","type":"uint256","internalType":"uint256"}]}],"stateMutability":"view"},{"type":"function","name":"getStakes","inputs":[{"name":"staker","type":"address","internalType":"address"},{"name":"poolId","type":"uint256","internalType":"uint256"}],"outputs":[{"name":"","type":"tuple[]","internalType":"struct IStaqeStructs.Stake[]","components":[{"name":"amountERC20","type":"uint256","internalType":"uint256"},{"name":"idERC721","type":"uint256","internalType":"uint256"},{"name":"stakeBlock","type":"uint256","internalType":"uint256"},{"name":"unstakeBlock","type":"uint256","internalType":"uint256"}]}],"stateMutability":"view"},{"type":"function","name":"getTotalPools","inputs":[],"outputs":[{"name":"","type":"uint256","internalType":"uint256"}],"stateMutability":"view"},{"type":"function","name":"isApprovedForAll","inputs":[{"name":"owner","type":"address","internalType":"address"},{"name":"operator","type":"address","internalType":"address"}],"outputs":[{"name":"","type":"bool","internalType":"bool"}],"stateMutability":"view"},{"type":"function","name":"launchPool","inputs":[{"name":"stakeERC20","type":"address","internalType":"contract IERC20"},{"name":"stakeERC721","type":"address","internalType":"contract IERC721"},{"name":"rewardToken","type":"address","internalType":"contract IERC20"},{"name":"metadata","type":"string","internalType":"string"}],"outputs":[{"name":"poolId","type":"uint256","internalType":"uint256"}],"stateMutability":"nonpayable"},{"type":"function","name":"name","inputs":[],"outputs":[{"name":"","type":"string","internalType":"string"}],"stateMutability":"view"},{"type":"function","name":"owner","inputs":[],"outputs":[{"name":"","type":"address","internalType":"address"}],"stateMutability":"view"},{"type":"function","name":"ownerOf","inputs":[{"name":"tokenId","type":"uint256","internalType":"uint256"}],"outputs":[{"name":"","type":"address","internalType":"address"}],"stateMutability":"view"},{"type":"function","name":"renounceOwnership","inputs":[],"outputs":[],"stateMutability":"nonpayable"},{"type":"function","name":"safeTransferFrom","inputs":[{"name":"from","type":"address","internalType":"address"},{"name":"to","type":"address","internalType":"address"},{"name":"tokenId","type":"uint256","internalType":"uint256"}],"outputs":[],"stateMutability":"nonpayable"},{"type":"function","name":"safeTransferFrom","inputs":[{"name":"from","type":"address","internalType":"address"},{"name":"to","type":"address","internalType":"address"},{"name":"tokenId","type":"uint256","internalType":"uint256"},{"name":"data","type":"bytes","internalType":"bytes"}],"outputs":[],"stateMutability":"nonpayable"},{"type":"function","name":"setApprovalForAll","inputs":[{"name":"operator","type":"address","internalType":"address"},{"name":"approved","type":"bool","internalType":"bool"}],"outputs":[],"stateMutability":"nonpayable"},{"type":"function","name":"setContractURI","inputs":[{"name":"newURI","type":"string","internalType":"string"}],"outputs":[],"stateMutability":"nonpayable"},{"type":"function","name":"stake","inputs":[{"name":"poolId","type":"uint256","internalType":"uint256"},{"name":"amount","type":"uint256","internalType":"uint256"},{"name":"id","type":"uint256","internalType":"uint256"}],"outputs":[{"name":"stakeId","type":"uint256","internalType":"uint256"}],"stateMutability":"nonpayable"},{"type":"function","name":"stakeWithPermit","inputs":[{"name":"poolId","type":"uint256","internalType":"uint256"},{"name":"amount","type":"uint256","internalType":"uint256"},{"name":"deadline","type":"uint256","internalType":"uint256"},{"name":"v","type":"uint8","internalType":"uint8"},{"name":"r","type":"bytes32","internalType":"bytes32"},{"name":"s","type":"bytes32","internalType":"bytes32"},{"name":"max","type":"bool","internalType":"bool"}],"outputs":[],"stateMutability":"nonpayable"},{"type":"function","name":"supportsInterface","inputs":[{"name":"interfaceId","type":"bytes4","internalType":"bytes4"}],"outputs":[{"name":"","type":"bool","internalType":"bool"}],"stateMutability":"view"},{"type":"function","name":"symbol","inputs":[],"outputs":[{"name":"","type":"string","internalType":"string"}],"stateMutability":"view"},{"type":"function","name":"tokenURI","inputs":[{"name":"tokenId","type":"uint256","internalType":"uint256"}],"outputs":[{"name":"","type":"string","internalType":"string"}],"stateMutability":"view"},{"type":"function","name":"transferFrom","inputs":[{"name":"from","type":"address","internalType":"address"},{"name":"to","type":"address","internalType":"address"},{"name":"tokenId","type":"uint256","internalType":"uint256"}],"outputs":[],"stateMutability":"nonpayable"},{"type":"function","name":"transferOwnership","inputs":[{"name":"newOwner","type":"address","internalType":"address"}],"outputs":[],"stateMutability":"nonpayable"},{"type":"function","name":"unstake","inputs":[{"name":"poolId","type":"uint256","internalType":"uint256"},{"name":"stakeIds","type":"uint256[]","internalType":"uint256[]"}],"outputs":[{"name":"amountERC20","type":"uint256","internalType":"uint256"},{"name":"idsERC721","type":"uint256[]","internalType":"uint256[]"}],"stateMutability":"nonpayable"},{"type":"event","name":"Approval","inputs":[{"name":"owner","type":"address","indexed":true,"internalType":"address"},{"name":"approved","type":"address","indexed":true,"internalType":"address"},{"name":"tokenId","type":"uint256","indexed":true,"internalType":"uint256"}],"anonymous":false},{"type":"event","name":"ApprovalForAll","inputs":[{"name":"owner","type":"address","indexed":true,"internalType":"address"},{"name":"operator","type":"address","indexed":true,"internalType":"address"},{"name":"approved","type":"bool","indexed":false,"internalType":"bool"}],"anonymous":false},{"type":"event","name":"BatchMetadataUpdate","inputs":[{"name":"_fromTokenId","type":"uint256","indexed":false,"internalType":"uint256"},{"name":"_toTokenId","type":"uint256","indexed":false,"internalType":"uint256"}],"anonymous":false},{"type":"event","name":"Claimed","inputs":[{"name":"staker","type":"address","indexed":true,"internalType":"address"},{"name":"poolId","type":"uint256","indexed":true,"internalType":"uint256"}],"anonymous":false},{"type":"event","name":"ContractURIUpdated","inputs":[],"anonymous":false},{"type":"event","name":"Launched","inputs":[{"name":"poolId","type":"uint256","indexed":true,"internalType":"uint256"}],"anonymous":false},{"type":"event","name":"MetadataUpdate","inputs":[{"name":"_tokenId","type":"uint256","indexed":false,"internalType":"uint256"}],"anonymous":false},{"type":"event","name":"OwnershipTransferred","inputs":[{"name":"previousOwner","type":"address","indexed":true,"internalType":"address"},{"name":"newOwner","type":"address","indexed":true,"internalType":"address"}],"anonymous":false},{"type":"event","name":"Rewarded","inputs":[{"name":"poolId","type":"uint256","indexed":true,"internalType":"uint256"},{"name":"rewardId","type":"uint256","indexed":true,"internalType":"uint256"}],"anonymous":false},{"type":"event","name":"Staked","inputs":[{"name":"staker","type":"address","indexed":true,"internalType":"address"},{"name":"poolId","type":"uint256","indexed":true,"internalType":"uint256"},{"name":"stakeId","type":"uint256","indexed":true,"internalType":"uint256"}],"anonymous":false},{"type":"event","name":"Transfer","inputs":[{"name":"from","type":"address","indexed":true,"internalType":"address"},{"name":"to","type":"address","indexed":true,"internalType":"address"},{"name":"tokenId","type":"uint256","indexed":true,"internalType":"uint256"}],"anonymous":false},{"type":"event","name":"Unstaked","inputs":[{"name":"staker","type":"address","indexed":true,"internalType":"address"},{"name":"poolId","type":"uint256","indexed":true,"internalType":"uint256"}],"anonymous":false},{"type":"error","name":"ERC721IncorrectOwner","inputs":[{"name":"sender","type":"address","internalType":"address"},{"name":"tokenId","type":"uint256","internalType":"uint256"},{"name":"owner","type":"address","internalType":"address"}]},{"type":"error","name":"ERC721InsufficientApproval","inputs":[{"name":"operator","type":"address","internalType":"address"},{"name":"tokenId","type":"uint256","internalType":"uint256"}]},{"type":"error","name":"ERC721InvalidApprover","inputs":[{"name":"approver","type":"address","internalType":"address"}]},{"type":"error","name":"ERC721InvalidOperator","inputs":[{"name":"operator","type":"address","internalType":"address"}]},{"type":"error","name":"ERC721InvalidOwner","inputs":[{"name":"owner","type":"address","internalType":"address"}]},{"type":"error","name":"ERC721InvalidReceiver","inputs":[{"name":"receiver","type":"address","internalType":"address"}]},{"type":"error","name":"ERC721InvalidSender","inputs":[{"name":"sender","type":"address","internalType":"address"}]},{"type":"error","name":"ERC721NonexistentToken","inputs":[{"name":"tokenId","type":"uint256","internalType":"uint256"}]},{"type":"error","name":"InvalidAmountOrId","inputs":[]},{"type":"error","name":"InvalidERC721Token","inputs":[]},{"type":"error","name":"InvalidMetadata","inputs":[]},{"type":"error","name":"InvalidRewardToken","inputs":[]},{"type":"error","name":"InvalidStakeId","inputs":[]},{"type":"error","name":"InvalidStakeToken","inputs":[]},{"type":"error","name":"OnlyAvailableToStakersInGenesis","inputs":[]},{"type":"error","name":"OnlyOwnerHasAccessToAddRewards","inputs":[]},{"type":"error","name":"OnlyOwnerHasAccessToEditMetadata","inputs":[]},{"type":"error","name":"OwnableInvalidOwner","inputs":[{"name":"owner","type":"address","internalType":"address"}]},{"type":"error","name":"OwnableUnauthorizedAccount","inputs":[{"name":"account","type":"address","internalType":"address"}]},{"type":"error","name":"PoolDoesNotExist","inputs":[]},{"type":"error","name":"PoolDoesNotHaveStakes","inputs":[]},{"type":"error","name":"ReentrancyGuardReentrantCall","inputs":[]},{"type":"error","name":"RewardAlreadyClaimed","inputs":[]},{"type":"error","name":"RewardIsEmpty","inputs":[]},{"type":"error","name":"RewardIsNotYetAvailableForClaim","inputs":[]},{"type":"error","name":"RewardNotFoundInPool","inputs":[]},{"type":"error","name":"RewardTransferFailed","inputs":[]},{"type":"error","name":"StakeAlreadyUnstaked","inputs":[]},{"type":"error","name":"StakeOnNextBlockAfterReward","inputs":[]},{"type":"error","name":"StakeTransferFailed","inputs":[]},{"type":"error","name":"StakerDoesNotHaveStakesInPool","inputs":[]},{"type":"error","name":"UnstakeOnNextBlockAndGetReward","inputs":[]},{"type":"error","name":"UnstakeTransferFailed","inputs":[]}],"bytecode":{"object":"0x604060808152346200046757620040f5803803806200001e816200048c565b928339810160808282031262000467576200003982620004b2565b602083810151919290916001600160a01b039081811690819003620004675762000065878701620004b2565b60608701516001600160401b039788821162000467570193601f908082870112156200046757855190898211620002ad57601f1996620000ab83850189168a016200048c565b91838352898483010111620004675790889160005b84811062000452575050600092010152620000da6200046c565b93600b85526a537461716520506f6f6c7360a81b87860152620000fc6200046c565b956003958688526253545160e81b898901528051908b8211620002ad57819062000128600054620004c7565b8b8782116200041f575b50508a90868311600114620003b957600092620003ad575b50508160011b9160001990891b1c1916176000555b8651908a8211620002ad5781906001986200017b8a54620004c7565b8b8782116200036f575b50508a918684116001146200030b5750600092620002ff575b505060001982881b1c191690871b1786555b3315620002e757600780546001600160a01b03198082163390811790935593919083167f8be0079c531659141344cd1fd0a4f28419497f9722a3daafe3b4186f6b6457e0600080a362000205600854620004c7565b818111620002c3575b505060006008558560095589519860c08a01908a821090821117620002ad5760059882918c52168952868901938452808a8a01931683526060890193600085528160808b019760008952600b60a08d019a438c526000805252818d6000209c5116858d5416178c558b0191511683825416179055600289019251169082541617905551908501555160048401555191015551613bd790816200051e8239f35b634e487b7160e01b600052604160045260246000fd5b620002df91600860005289600020910160051c81019062000504565b38806200020e565b8951631e4fbdf760e01b815260006004820152602490fd5b0151905038806200019e565b8a949291921691846000528b6000209260005b8d8282106200035857505084116200033f575b505050811b018655620001b0565b0151600019838a1b60f8161c1916905538808062000331565b8385015186558d979095019493840193016200031e565b6200039b918c60005288826000209181880160051c8301938810620003a3575b0160051c019062000504565b388b62000185565b925081926200038f565b0151905038806200014a565b60008080528c8120938616905b8d82821062000408575050908460019594939210620003ef575b505050811b016000556200015f565b0151600019838b1b60f8161c19169055388080620003e0565b6001859682939686015181550195019301620003c6565b6200044a916000805288826000209181870160051c8301938710620003a3570160051c019062000504565b388b62000132565b8181018401518382018501528a9301620000c0565b600080fd5b60408051919082016001600160401b03811183821017620002ad57604052565b6040519190601f01601f191682016001600160401b03811183821017620002ad57604052565b51906001600160a01b03821682036200046757565b90600182811c92168015620004f9575b6020831014620004e357565b634e487b7160e01b600052602260045260246000fd5b91607f1691620004d7565b81811062000510575050565b600081556001016200050456fe608080604052600436101561001357600080fd5b600090813560e01c90816301ffc9a71461296457508063068bcd8d146128ff57806306fdde031461285b578063081812fc1461281e578063095ea7b31461273b57806323b872dd146127235780632c32c360146126f35780633025ec6d146123f0578063395de24214611f265780633a2e174714611e1957806342842e0e14611deb5780634cb8a68b14611cf257806350f9b39e14611af75780635b5b9ea2146118ee5780636352211e146118bd57806370a0823114611865578063715018a6146118075780637ebfee3e146117c75780638da5cb5b1461179e578063938e3d7b146115eb57806395d89b411461154757806399a47faa14610f0d5780639dd7986f14610e78578063a22cb46514610dc5578063a638f2e214610a87578063b88d4fde14610a19578063b90bc519146109af578063c0d8012c146108b1578063c87b56dd14610891578063d33560e6146107d2578063d3ffe67a146107b4578063d6eeeb7614610371578063e8a3d48514610288578063e985e9c5146102345763f2fde38b146101a257600080fd5b34610231576020366003190112610231576101bb612a2b565b6101c36135f7565b6001600160a01b0390811690811561021857600754826bffffffffffffffffffffffff60a01b821617600755167f8be0079c531659141344cd1fd0a4f28419497f9722a3daafe3b4186f6b6457e0600080a380f35b604051631e4fbdf760e01b815260048101849052602490fd5b80fd5b50346102315760403660031901126102315761024e612a2b565b6040610258612a57565b9260018060a01b0380931681526005602052209116600052602052602060ff604060002054166040519015158152f35b503461023157806003193601126102315760405190806008546102aa816135bd565b8085529160019180831690811561034757506001146102ec575b6102e8856102d481870382612bab565b6040519182916020835260208301906129eb565b0390f35b9250600883527ff3f7a9fe364faab93b216da50a3214154f22a0a2b415b23a84c8169e8b636ee35b82841061032f5750505081016020016102d4826102e86102c4565b80546020858701810191909152909301928101610314565b8695506102e8969350602092506102d494915060ff191682840152151560051b82010192936102c4565b50346102315760803660031901126102315761038b612a2b565b60249182356001600160a01b0381811693918490036107b0576103ac612a41565b936064356001600160401b0381116107ac576103cc903690600401612c1e565b6103d4613b7e565b6103dd336134db565b1561079a57811593841580610729575b610717578316938415908161070f575b506106fd578051156106eb576104b390610418600a54612e5a565b9485600a556040519061042a82612b22565b815260056020988983019586528660408401911681526060830189815260808401908a825260a08501924384528a8c52600b8d528960408d20965116986bffffffffffffffffffffffff60a01b998a8854161787558a600188019151168a8254161790558960028701915116898254161790555160038501555160048401555191015584613a09565b604051916104c083612b90565b84835233156106d357839081600052600287526040600020541680151592836106a0575b33600052600388526040600020600181540190558260005260028852604060002090339082541617905533907fddf252ad1be2c89b69c2b068fc378daa952ba7f163c4a11628f55a4df523b3ef600080a461068857333b610572575b50807feca0dfbda743d141662328d4d48393e344b2c60df0430297221df823f2926dba6040519380a260016009558152f35b6040518481806105aa630a85bd0160e11b9586835233600484015260008b8401528760448401526080606484015260848301906129eb565b03816000335af18091600091610646575b50906106145785853d1561060d573d6105d381612bcc565b906105e16040519283612bab565b81523d60008383013e5b8051918261060a57604051633250574960e11b81523360048201528490fd5b01fd5b60606105eb565b63ffffffff60e096939495961b1603610631575090829138610540565b604051633250574960e11b8152336004820152fd5b8681813d8311610681575b61065b8183612bab565b8101031261067d5751906001600160e01b0319821682036102315750386105bb565b5080fd5b503d610651565b6040516339e3563760e11b8152600481018490528590fd5b60008381526004602052604080822080546001600160a01b031916905583825260038a52902080546000190190556104e4565b604051633250574960e11b8152600481018690528790fd5b604051635e765b2560e11b8152600490fd5b6040516314ec381360e11b8152600490fd5b9050386103fd565b6040516366a0777760e01b8152600490fd5b506040516301ffc9a760e01b81526380ac58cd60e01b60048201526020818a81875afa90811561078f578791610761575b50156103ed565b610782915060203d8111610788575b61077a8183612bab565b810190612e83565b3861075a565b503d610770565b6040513d89823e3d90fd5b6040516358fd19b960e11b8152600490fd5b8480fd5b8280fd5b50346102315780600319360112610231576020600a54604051908152f35b5034610231576080906107e436612aa2565b9192906040516107f381612b75565b8281528260208201528260408201528260608201529360018060a01b0316808352600d602052604083208284526020526040832054841061085e575b858561085c6040518092606080918051845260208101516020850152604081015160408501520151910152565bf35b61088894509160409161088294938252600d60205282822090825260205220612e0c565b50612e28565b3880808061082f565b5034610231576020366003190112610231576102e86102d4600435613944565b5034610231576020908160031936011261023157906004358252600c81526040822080546108de81612c3c565b906108ec6040519283612bab565b8082528382018093865284862086915b83831061098857505050506040519280840191818552518092526040840192945b82811061092a5784840385f35b9091928260c0826109796001948a5160a08091805115158452600180831b0360208201511660208501526040810151604085015260608101516060850152608081015160808501520151910152565b0196019101949291909461091d565b60058760019261099c859b9a98999b612d7e565b81520192019201919096949395966108fc565b50346102315760403660031901126102315760c06109d1602435600435612dd2565b61085c604051809260a08091805115158452600180831b0360208201511660208501526040810151604085015260608101516060850152608081015160808501520151910152565b503461023157608036600319011261023157610a33612a2b565b610a3b612a57565b90604435606435926001600160401b0384116107ac57366023850112156107ac57610a73610a84943690602481600401359101612be7565b92610a7f838383613623565b613800565b80f35b5034610231576060366003190112610231576044356000602435600435610aac613b7e565b808352602092600b84526040812094600586015415610db35783159384159480610dab575b610d9957838352600c86526040832080548015159182610d5e575b5050610d4c57338352600d865260408320848452865284604084205495610d36575b8215159182610d0a575b338552600d88526040852086865288526040852060405190610b3982612b75565b82825289820186815260408301904382526060840192898452805490600160401b821015610cf65790610b7191600182018155612e0c565b949094610ce257518455516001840155516002830155516003909101558490889083610c68575b505050610c5657610bda575b509082917f1449c6dd7851abc30abf37f57715f492010519147cc2652fbc38202c18a6ee90339180a46001600955604051908152f35b600190950154909485916001600160a01b031690813b156107b0576040516323b872dd60e01b8152336004820152306024820152604481019190915295829187916064918391905af1948515610c4957839495610c3a575b859450610ba4565b610c4390612b0f565b85610c32565b50604051903d90823e3d90fd5b604051631231ec2f60e21b8152600490fd5b8a546040516323b872dd60e01b815233600482015230602482015260448101929092529093509091839160649183916001600160a01b03165af1908115610cd7578491610cba575b501583878a610b98565b610cd19150873d89116107885761077a8183612bab565b88610cb0565b6040513d86823e3d90fd5b634e487b7160e01b8a5260048a905260248afd5b634e487b7160e01b8b52604160045260248bfd5b6004890180549060018201809211610d225755610b18565b634e487b7160e01b87526011600452602487fd5b60038801610d45838254612e76565b9055610b0e565b604051630485995160e51b8152600490fd5b60001982019250908211610d8557600491610d7891612d4c565b5001544311158880610aec565b634e487b7160e01b85526011600452602485fd5b604051633b91be2160e21b8152600490fd5b508115610ad1565b6040516302721e1f60e61b8152600490fd5b503461023157604036600319011261023157610ddf612a2b565b6024359081151590818303610e73576001600160a01b0316918215610e5a57610e2b903385526005602052604085208460005260205260406000209060ff801983541691151516179055565b6040519081527f17307eab39ab6107e8899845ad3d59bd9653f200f220920489ca2b5937696c3160203392a380f35b604051630b61174360e31b815260048101849052602490fd5b600080fd5b5034610231576040366003190112610231576004356024356001600160401b0381116107b057610eac903690600401612c1e565b610eb4613b7e565b818352600b602052600560408420015415610db3578051156106eb57610ed9826137c5565b336001600160a01b0390911603610efb57610ef391613a09565b600160095580f35b60405163982cbfb960e01b8152600490fd5b5034610231576060366003190112610231576001600160401b036004358181116107b057610f3f903690600401612c53565b906024908135908082116107ac57366023830112156107ac578160040135610f6681612c3c565b93610f746040519586612bab565b81855280602086019260051b8501019236841161154357818501925b84841061151857888888610fa2612a41565b610faa613b7e565b6001600160a01b03811615611511575b825191610ff0610fc984612c3c565b93610fd76040519586612bab565b808552610fe6601f1991612c3c565b01602085016131e7565b835194611026610fff87612c3c565b9661100d6040519889612bab565b80885261101c601f1991612c3c565b01602088016131e7565b80925b855184101561114957868686926110408787613191565b515161104b81612c3c565b906110596040519283612bab565b808252611068601f1991612c3c565b013660208301376110798886613191565b526110848785613191565b506110996110928888613191565b51516131a5565b6110a38885613191565b526110ae8784613191565b50845b6110bb8888613191565b515181101561113457808561111d828b80611117836110f98f61110761110f916110ff8f9d6110f961112f9f6110f28b8092613191565b5194613191565b51613191565b519033613224565b959099613191565b51948d613191565b52613191565b6001600160a01b039091169052612e5a565b6110b1565b50959150506111439150612e5a565b92611029565b868683858882955b84518710156111d657835b6111668885613191565b51518110156111c557806111816111c0926110f98b8b613191565b51338752600e602052604087206111988b8a613191565b518852602052604087206111b0836110f98d8a613191565b5188526020526040872055612e5a565b61115c565b50956111d090612e5a565b95611151565b909293919484925b8051841015611411576111f18482613191565b518652600b60205260408620600201546001600160a01b03168061134f5750855b61121c8589613191565b515181101561130d57611233816110f98786613191565b5180156112fb578790602090611292906001600160a01b03611259866110f98c8e613191565b5160405163a9059cbb60e01b81526001600160a01b038b1660048201526024810193909352919485939190921691839182906044820190565b03925af19081156112f05788916112d1575b50156112bf57846112b761121c92612e5a565b915050611212565b60405163078ecf4160e41b8152600490fd5b6112ea915060203d6020116107885761077a8183612bab565b896112a4565b6040513d8a823e3d90fd5b604051635f65f16560e11b8152600490fd5b5092611349905b61131e8186613191565b51337fd8138f8a3f377c5259ca548e70e4c2de94f129f5a11036a15b69513cba2b426a8980a3612e5a565b926111de565b9092869294979683905b6113638a8a613191565b51518210156113945761138861138e91611381846110f98e8c613191565b5190612e76565b91612e5a565b90611359565b91949593979892905081156112fb5760405163a9059cbb60e01b81526001600160a01b03861660048201526024810192909252602090829060449082908b905af190811561078f5787916113f2575b50156112bf5761134990611314565b61140b915060203d6020116107885761077a8183612bab565b886113e3565b50939150506001908160095560405192604084016040855281518091526060850190602060608260051b88010193019184905b8282106114ab57505050508381036020850152845190818152602081016020808460051b840101970193915b83831061147d5786880387f35b909192939460208061149a839a601f198682030187528951612adb565b999701959491909101920190611470565b9091929395809896605f198982030183528551906020808351928381520192019088905b848183106114f0575050505060208091960192019201909291979597611444565b83516001600160a01b031685526020948501949093019291909101906114cf565b5033610fba565b833582811161153f5760209161153483928636918b0101612c53565b815201930192610f90565b8980fd5b8780fd5b50346102315780600319360112610231576040519080600180549161156b836135bd565b808652928281169081156103475750600114611591576102e8856102d481870382612bab565b92508083527fb10e2d527612073b26eecdfd717e6a320cf44b4afac2b0732d9fcbe2b7fa0cf65b8284106115d35750505081016020016102d4826102e86102c4565b805460208587018101919091529093019281016115b8565b50346102315760209081600319360112610231576001600160401b036004358181116107b05761161f903690600401612c1e565b926116286135f7565b835191821161178a5761163c6008546135bd565b601f8111611728575b5080601f83116001146116a55750829382939261169a575b50508160011b916000199060031b1c1916176008555b7fa5d4097edda6d87cb9329af83fb3712ef77eeb13738ffe43cc35a4ce305ad9628180a180f35b01519050388061165d565b60088452601f198316947ff3f7a9fe364faab93b216da50a3214154f22a0a2b415b23a84c8169e8b636ee3929185905b8782106117105750508360019596106116f7575b505050811b01600855611673565b015160001960f88460031b161c191690553880806116e9565b806001859682949686015181550195019301906116d5565b600884527ff3f7a9fe364faab93b216da50a3214154f22a0a2b415b23a84c8169e8b636ee3601f840160051c810191838510611780575b601f0160051c01905b8181106117755750611645565b848155600101611768565b909150819061175f565b634e487b7160e01b83526041600452602483fd5b50346102315780600319360112610231576007546040516001600160a01b039091168152602090f35b50346102315760a03660031901126102315760206117ff6117e6612a57565b6117ee612acc565b906064359060443590600435612e9b565b604051908152f35b50346102315780600319360112610231576118206135f7565b600780546001600160a01b031981169091556000906001600160a01b03167f8be0079c531659141344cd1fd0a4f28419497f9722a3daafe3b4186f6b6457e08280a380f35b5034610231576020366003190112610231576001600160a01b03611887612a2b565b1680156118a4578160409160209352600383522054604051908152f35b6040516322718ad960e21b815260048101839052602490fd5b50346102315760203660031901126102315760206118dc6004356137c5565b6040516001600160a01b039091168152f35b503461023157604036600319011261023157611908612a2b565b8161012060405161191881612b59565b828152826020820152826040820152826060820152606060808201528260a08201528260c08201528260e08201528261010082015201526024358252600b60205260408220906040519061196b82612b22565b82546001600160a01b039081168084526001850154821660208501819052600286015490921660408501819052600386015460608601526004860154608086015260059095015460a08501529490936119c56024356137c5565b6119d0602435613944565b9060608601519260a060406080890151966024358152600c6020528181205498600180851b03168152600d602052818120602435825260205220549701519760405199611a1c8b612b59565b8a5260208a0152604089015260018060a01b03166060880152608087015260a086015260c085015260e084015261010083015261012082015260405180916020825260018060a01b03815116602083015260018060a01b03602082015116604083015260018060a01b03604082015116606083015260018060a01b0360608201511660808301526080810151610120611ac3610140928360a08701526101608601906129eb565b9260a081015160c086015260c081015160e086015260e0810151610100860152610100810151828601520151908301520390f35b503461023157611b0636612aa2565b90929160405190611b1682612b3d565b8382528360e060209382858201528260408201528260608201528260808201528260a08201528260c08201520152611b4e8386612dd2565b9084809460405197630161961b60e51b895260018060a01b0393848116908160048c01528260248c01528360448c015260408b606481305afa85818792611ca6575b6101009d50611c935750506001600160a01b03166000908152600e602090815260408083208584528252808320868452909152902054611c67575b505050505b81511515948184840151169360408401519060608501519360a060808701519601519660e0604051611c0181612b3d565b8b815284810192835260408101958652606081019687526080810197885260a0810198895260c08101998a52019815158952604051998a525116908801525160408701525160608601525160808501525160a08401525160c083015251151560e0820152f35b8352600e8652604080842091845290865280832091835290855290205494506001935038808080611bcb565b8716888a01529950611bd0945050505050565b91505060408c3d604011611cea575b81611cc260409383612bab565b81010312611ce6578b518781168103611ce257896101009d015191611b90565b8680fd5b8580fd5b3d9150611cb5565b5034610231576040366003190112610231576001600160a01b03611d14612a2b565b1681526020600d81526040822060243583528152604082208054611d3781612c3c565b90611d456040519283612bab565b8082528382018093865284862086915b838310611dc457505050506040519280840191818552518092526040840192945b828110611d835784840385f35b90919282608082611db56001948a51606080918051845260208101516020850152604081015160408501520151910152565b01960191019492919094611d76565b600487600192611dd8859b9a98999b612e28565b8152019201920191909694939596611d55565b503461023157610a84611dfd36612a6d565b9060405192611e0b84612b90565b858452610a7f838383613623565b50346102315761014036600319011261023157611e34612a57565b60443590611e40612acc565b9060c43560ff81168103610e7357610124358015158103610e73578591611e65613b7e565b6001600160a01b0384169115611f1f57600019905b823b15611f105760405163d505accf60e01b8152336004820152306024820152604481019290925260a48035606484015260ff91909116608483015260e48035918301919091526101043560c4830152909183918391829084905af18015611f1457611efc575b5050611ef39260643591600435612e9b565b50600160095580f35b611f0590612b0f565b611f10578338611ee1565b8380fd5b6040513d84823e3d90fd5b8590611e7a565b503461023157604036600319011261023157602435906001600160401b0380831161067d573660238401121561067d57826004013511610231576005913660248260040135851b8301011161067d57611f7d613b7e565b6004358252600b602052604082208360405191611f9983612b22565b60018060a01b03815416835260018060a01b03600182015416602084015260018060a01b0360028201541660408401526003810154606084015260048101546080840152015460a08201526004358352600c602052604083208054611ffd81612c3c565b9161200b6040519384612bab565b81835285526020808620869184015b888484106123d4575050505050805180151591826123ad575b505061239b576004358352600b602052604083209384015415610db357338352600d60205260408320600435845260205260408320826004013515908115612391575b5061227f5782938361208b84600401356131a5565b93855b8160040135811061229957505085159081159180612291575b61227f5781612269575b8015159283612251575b5050806121dd575b6121cb57612118575b506102e890604051938493600435907f0f5bb82176feb1b5e747e28471aa92156a04d9f3ab9f45f28e2d704232b93f75339180a360016009558352604060208401526040830190612adb565b8293925b82518110156121be5761212f8184613191565b51156121b557602082015185906001600160a01b031661214f8386613191565b5190803b156107b057604051632142170760e11b8152306004820152336024820152604481019290925282908290606490829084905af18015611f14576121a1575b505061219c90612e5a565b61211c565b6121aa90612b0f565b6107ac578438612191565b61219c90612e5a565b50919291506102e86120cc565b604051631b9f013160e11b8152600490fd5b50815160405163a9059cbb60e01b815233600482015260248101879052906020908290604490829089906001600160a01b03165af1908115612246578591612227575b50156120c3565b612240915060203d6020116107885761077a8183612bab565b38612220565b6040513d87823e3d90fd5b60046122609101918254612e69565b905538806120bb565b60038301612278888254612e69565b90556120b1565b6040516319a089c160e01b8152600490fd5b5080156120a7565b6122ab818360040135602485016131d7565b35338852600d6020526040882060043589526020526040882054111561237f57338752600d6020526040872060043588526020526122ff604088206122f8838560040135602487016131d7565b3590612e0c565b5097600389015415801590612371575b61235f576123276001914360038c01558a5490612e76565b9801548061233f575b5061233a90612e5a565b61208e565b81936123589161235261233a948a613191565b52612e5a565b9290612330565b60405163793ef5e960e11b8152600490fd5b504360028a0154101561230f565b604051639b763f7160e01b8152600490fd5b9050541538612076565b6040516371f7dfa560e01b8152600490fd5b60001982019250908211610d855760a0916123c791613191565b5101514311153880612033565b60206001926123e285612d7e565b81520192019201919061201a565b50346102315760e03660031901126102315760643560043560243560ff83168303611f105760c43580151581036107ac57612429613b7e565b6001600160a01b039385908561243e86612ce3565b511692156126ec57600019925b803b156107b05760405163d505accf60e01b81523360048201523060248201526044808201959095529335606485015260ff919091166084808501919091523560a4808501919091523560c4840152829060e490829084905af18015612246576126d9575b506124b9613b7e565b816000526020600b8152604060002091600583015415610db357801594851595806126d1575b610d995784600052600c8352604060002080548015159182612694575b5050610d4c57859333600052600d845260406000208660005284526040600020549661267e575b33600052600d84526040600020866000528452604060002060405161254781612b75565b8481528581019160008352604082014381526060830191600083528054600160401b8110156126685761257f91600182018155612e0c565b9490946126525760039351855551600185015551600284015551910155846125d8575b50505050610c5657337f1449c6dd7851abc30abf37f57715f492010519147cc2652fbc38202c18a6ee90600080a4600160095580f35b546040516323b872dd60e01b815233600482015230602482015260448101939093529293509091839183916064918391600091165af191821561264657600092612629575b505015388080806125a2565b61263f9250803d106107885761077a8183612bab565b388061261d565b6040513d6000823e3d90fd5b634e487b7160e01b600052600060045260246000fd5b634e487b7160e01b600052604160045260246000fd5b6003810161268d848254612e76565b9055612523565b600019820192509082116126bb576004916126ae91612d4c565b50015443111538806124fc565b634e487b7160e01b600052601160045260246000fd5b5060016124df565b6126e590949194612b0f565b92386124b0565b839261244b565b503461023157604061270d61270736612aa2565b91613224565b82516001600160a01b0390921682526020820152f35b503461023157610a8461273536612a6d565b91613623565b503461023157604036600319011261023157612755612a2b565b602435612761816137c5565b3315158061280b575b806127e0575b6127c8576001600160a01b039283169282918491167f8c5be1e5ebec7d5bd14f71427d1e84f3dd0314c0f7b2291e5b200ac8c7c3b9258680a4825260046020526040822080546001600160a01b031916909117905580f35b60405163a9fbf51f60e01b8152336004820152602490fd5b506001600160a01b038116845260056020908152604080862033875290915284205460ff1615612770565b506001600160a01b03811633141561276a565b50346102315760203660031901126102315760209060043561283f816137c5565b50815260048252604060018060a01b0391205416604051908152f35b50346102315780600319360112610231576040519080805461287c816135bd565b8085529160019180831690811561034757506001146128a5576102e8856102d481870382612bab565b80809450527f290decd9548b62a8d60345a988386fc84ba6bc95484008f6362f93160ef3e5635b8284106128e75750505081016020016102d4826102e86102c4565b805460208587018101919091529093019281016128cc565b50346102315760203660031901126102315760c061291e600435612ce3565b60a060405191600180831b0380825116845280602083015116602085015260408201511660408401526060810151606084015260808101516080840152015160a0820152f35b90503461067d57602036600319011261067d5760043563ffffffff60e01b81168091036107b05760209250632483248360e11b81149081156129a8575b5015158152f35b6380ac58cd60e01b8114915081156129da575b81156129c9575b50386129a1565b6301ffc9a760e01b149050386129c2565b635b5e139f60e01b811491506129bb565b919082519283825260005b848110612a17575050826000602080949584010152601f8019910116010190565b6020818301810151848301820152016129f6565b600435906001600160a01b0382168203610e7357565b604435906001600160a01b0382168203610e7357565b602435906001600160a01b0382168203610e7357565b6060906003190112610e73576001600160a01b03906004358281168103610e7357916024359081168103610e73579060443590565b6060906003190112610e73576004356001600160a01b0381168103610e7357906024359060443590565b608435908115158203610e7357565b90815180825260208080930193019160005b828110612afb575050505090565b835185529381019392810192600101612aed565b6001600160401b03811161266857604052565b60c081019081106001600160401b0382111761266857604052565b61010081019081106001600160401b0382111761266857604052565b61014081019081106001600160401b0382111761266857604052565b608081019081106001600160401b0382111761266857604052565b602081019081106001600160401b0382111761266857604052565b90601f801991011681019081106001600160401b0382111761266857604052565b6001600160401b03811161266857601f01601f191660200190565b929192612bf382612bcc565b91612c016040519384612bab565b829481845281830111610e73578281602093846000960137010152565b9080601f83011215610e7357816020612c3993359101612be7565b90565b6001600160401b0381116126685760051b60200190565b81601f82011215610e7357803591612c6a83612c3c565b92612c786040519485612bab565b808452602092838086019260051b820101928311610e73578301905b828210612ca2575050505090565b81358152908301908301612c94565b60405190612cbe82612b22565b8160a06000918281528260208201528260408201528260608201528260808201520152565b612ceb612cb1565b50600052600b6020526040600020600560405191612d0883612b22565b80546001600160a01b03908116845260018201548116602085015260028201541660408401526003810154606084015260048101546080840152015460a082015290565b8054821015612d68576000526005602060002091020190600090565b634e487b7160e01b600052603260045260246000fd5b90604051612d8b81612b22565b825460ff81161515825260081c6001600160a01b031660208201526001830154604082015260028301546060820152600383015460808201526004929092015460a0830152565b9190612ddc612cb1565b92600052600c602052604060002080548210612df6575050565b612c3992935090612e0691612d4c565b50612d7e565b8054821015612d685760005260206000209060021b0190600090565b90604051612e3581612b75565b6060600382948054845260018101546020850152600281015460408501520154910152565b60001981146126bb5760010190565b919082039182116126bb57565b919082018092116126bb57565b90816020910312610e7357518015158103610e735790565b929093612ea6613b7e565b84600093858552600b602052604092838620978895855191612ec783612b22565b600160a01b60019003908189541684528160018a01541660208501528160028a0154169088850191825260038a015494606081019586526004809b01549d608082019e8f526005015460a0819201521561318157821615613171578515801561315e575b61314e57612f388b6137c5565b823391160361313e578480613135575b8015613123575b613113575181168061310b575b50898952600c60205286892080549b8c948615613102575051915b885195612f8387612b22565b1515865260208601971696878152888601918783526060870193845260808701948552600160401b60a088019643885210156130ef578d612fc991600182018155612d4c565b9690966130dd579361305f96938b938d9a9793612ff860209b98511515889060ff801983541691151516179055565b518654610100600160a81b03191660089190911b610100600160a81b03161786555160018601555160028501555160038401555191015585516323b872dd60e01b815233888201908152306020820152604081019290925294859384928391606090910190565b03925af19081156130d35784916130b4575b50156130a7575050907fa3497b969e8cb093a223f5d62236b21822e7983269a8d00d3f0281e03da24a09828493a3906001600955565b5163078ecf4160e41b8152fd5b6130cd915060203d6020116107885761077a8183612bab565b38613071565b82513d86823e3d90fd5b634e487b7160e01b8c528b8b5260248cfd5b634e487b7160e01b8c5260418b5260248cfd5b90505191612f77565b955038612f5c565b87516303bdf00d60e31b81528990fd5b5084158015612f4f5750835115612f4f565b508b5115612f48565b8751630a781f0560e21b81528990fd5b8751635f65f16560e11b81528990fd5b50848015612f2b57508b51861115612f2b565b875163dfde867160e01b81528990fd5b88516302721e1f60e61b81528a90fd5b8051821015612d685760209160051b010190565b906131af82612c3c565b6131bc6040519182612bab565b82815280926131cd601f1991612c3c565b0190602036910137565b9190811015612d685760051b0190565b60005b8281106131f657505050565b6060828201526020016131ea565b811561320e570490565b634e487b7160e01b600052601260045260246000fd5b6001600160a01b0381166000908152600e60209081526040808320858452825280832086845290915281205490949193929085906134c9578181526020600c815260409485832093845461327781612c3c565b9561328489519788612bab565b81875285528385208590858089015b8484106134aa5750505050508185511115613499576001600160a01b039788168452600d8352868420908452825285832080549094906132d281612c3c565b956132df89519788612bab565b81875285528385208590858089015b84841061347a575050505050845115613469579061330b91613191565b519260a08401946133228651608087015190612e76565b43111561345857835b82518110156134325761333e8184613191565b51606090818101518015908115613427575b508a8201518a51101590895115918215908361341c575b8161340f575b82613407575b50816133ee575b50613391575b50505061338c90612e5a565b61332b565b929b92156133d45751908988015191828102928184041490151715610d2257916133c56133cb9261338c948a015190613204565b90612e76565b99903880613380565b5061338c916133c56133cb928b8a0151908a015190613204565b82915081156133ff575b503861337a565b9050386133f8565b915038613373565b848a01511515915061336d565b845115159350613367565b905089511038613350565b5097969592505092508415613448575001511691565b51635f65f16560e11b8152600490fd5b86516303a4fc3760e01b8152600490fd5b86516319a089c160e01b8152600490fd5b60019160049161348985612e28565b81520192019201919086906132ee565b865163767afb7b60e11b8152600490fd5b6001916005916134b985612d7e565b8152019201920191908690613293565b604051632cfe303760e21b8152600490fd5b6000808052600b60209081527fdf7de25b7f1fd6d0b5205f0e18f1f35bd7b8d84cce336588d184533ce43a6f7a546040929190157fdf7de25b7f1fd6d0b5205f0e18f1f35bd7b8d84cce336588d184533ce43a6f76816135b0575b506135a957815b6001600160a01b038516808452600d80845285852085805284528585205490919083101561359f57845282528383208380528252600361357f82868620612e0c565b500154156135955761359090612e5a565b61353d565b5050505050600190565b5050505091505090565b5091505090565b6003915001541538613536565b90600182811c921680156135ed575b60208310146135d757565b634e487b7160e01b600052602260045260246000fd5b91607f16916135cc565b6007546001600160a01b0316330361360b57565b60405163118cdaa760e01b8152336004820152602490fd5b6001600160a01b0391821692909183156137ac57600092828452826020956002875260409684888820541696879133151580613713575b509060027fddf252ad1be2c89b69c2b068fc378daa952ba7f163c4a11628f55a4df523b3ef92846136e0575b858352600381528b8320805460010190558683525289812080546001600160a01b0319168517905580a416928383036136bf5750505050565b6064945051926364283d7b60e01b8452600484015260248301526044820152fd5b600087815260046020526040902080546001600160a01b0319169055848352600381528b83208054600019019055613686565b9193945091508061376b575b1561372f5785929187913861365a565b87868861374c576024915190637e27328960e01b82526004820152fd5b905163177e802f60e01b81523360048201526024810191909152604490fd5b503387148015613790575b8061371f575085825260048152338589842054161461371f565b5086825260058152878220338352815260ff8883205416613776565b604051633250574960e11b815260006004820152602490fd5b6000818152600260205260409020546001600160a01b03169081156137e8575090565b60249060405190637e27328960e01b82526004820152fd5b813b61380d575b50505050565b604051630a85bd0160e11b8082523360048301526001600160a01b0392831660248301526044820194909452608060648201526020959290911693909290839061385b9060848301906129eb565b039285816000958187895af1849181613904575b506138cf575050503d6000146138c7573d61388981612bcc565b906138976040519283612bab565b81528091843d92013e5b805192836138c257604051633250574960e11b815260048101849052602490fd5b019050fd5b5060606138a1565b919450915063ffffffff60e01b16036138ec575038808080613807565b60249060405190633250574960e11b82526004820152fd5b9091508681813d831161393d575b61391c8183612bab565b810103126107ac57516001600160e01b0319811681036107ac57903861386f565b503d613912565b61394d816137c5565b506000908152602090600682526040812091604051809383908054613971816135bd565b808552916001918083169081156139e757506001146139aa575b50505061399a92500383612bab565b6040516139a681612b90565b5290565b86528486209492508591905b8183106139cf57505061399a935082010138808061398b565b855488840185015294850194879450918301916139b6565b9250505061399a94925060ff191682840152151560051b82010138808061398b565b9190916000908082526020916006835260408120908551906001600160401b038211613b6a57613a3983546135bd565b601f8111613b27575b508490601f8311600114613aa357907ff8e1a15aba9398e019f0b49df1a4fde98ee17ae345cb5f6b5e2c27f5033e8ce7969783613a98575b50508160011b916000199060031b1c19161790555b604051908152a1565b015190503880613a7a565b9196601f198816848452868420935b818110613b1057509160019391897ff8e1a15aba9398e019f0b49df1a4fde98ee17ae345cb5f6b5e2c27f5033e8ce7999a9410613af7575b505050811b019055613a8f565b015160001960f88460031b161c19169055388080613aea565b929387600181928786015181550195019301613ab2565b838252858220601f840160051c810191878510613b60575b601f0160051c01905b818110613b555750613a42565b828155600101613b48565b9091508190613b3f565b634e487b7160e01b81526041600452602490fd5b600260095414613b8f576002600955565b604051633ee5aeb560e01b8152600490fdfea2646970667358221220f7f9d08ccc10238364ee2328e662f7377e995011837eb195dd3c17302762978c64736f6c63430008140033","linkReferences":{}},"methodIdentifiers":{"addReward(uint256,address,uint256,uint256,bool)":"7ebfee3e","addRewardWithPermit(uint256,address,uint256,uint256,bool,uint256,uint8,bytes32,bytes32,bool)":"3a2e1747","approve(address,uint256)":"095ea7b3","balanceOf(address)":"70a08231","calculateReward(address,uint256,uint256)":"2c32c360","claimRewards(uint256[],uint256[][],address)":"99a47faa","contractURI()":"e8a3d485","editPool(uint256,string)":"9dd7986f","getApproved(uint256)":"081812fc","getPool(address,uint256)":"5b5b9ea2","getPool(uint256)":"068bcd8d","getReward(address,uint256,uint256)":"50f9b39e","getReward(uint256,uint256)":"b90bc519","getRewards(uint256)":"c0d8012c","getStake(address,uint256,uint256)":"d33560e6","getStakes(address,uint256)":"4cb8a68b","getTotalPools()":"d3ffe67a","isApprovedForAll(address,address)":"e985e9c5","launchPool(address,address,address,string)":"d6eeeb76","name()":"06fdde03","owner()":"8da5cb5b","ownerOf(uint256)":"6352211e","renounceOwnership()":"715018a6","safeTransferFrom(address,address,uint256)":"42842e0e","safeTransferFrom(address,address,uint256,bytes)":"b88d4fde","setApprovalForAll(address,bool)":"a22cb465","setContractURI(string)":"938e3d7b","stake(uint256,uint256,uint256)":"a638f2e2","stakeWithPermit(uint256,uint256,uint256,uint8,bytes32,bytes32,bool)":"3025ec6d","supportsInterface(bytes4)":"01ffc9a7","symbol()":"95d89b41","tokenURI(uint256)":"c87b56dd","transferFrom(address,address,uint256)":"23b872dd","transferOwnership(address)":"f2fde38b","unstake(uint256,uint256[])":"395de242"},"id":1}