{"abi":[{"type":"constructor","inputs":[{"name":"_owner","type":"address","internalType":"address"},{"name":"_name","type":"string","internalType":"string"},{"name":"_symbol","type":"string","internalType":"string"},{"name":"_maxSupply","type":"uint256","internalType":"uint256"},{"name":"_tokenPrice","type":"uint256","internalType":"uint256"}],"stateMutability":"nonpayable"},{"type":"receive","stateMutability":"payable"},{"type":"function","name":"DOMAIN_SEPARATOR","inputs":[],"outputs":[{"name":"","type":"bytes32","internalType":"bytes32"}],"stateMutability":"view"},{"type":"function","name":"allowance","inputs":[{"name":"owner","type":"address","internalType":"address"},{"name":"spender","type":"address","internalType":"address"}],"outputs":[{"name":"","type":"uint256","internalType":"uint256"}],"stateMutability":"view"},{"type":"function","name":"approve","inputs":[{"name":"spender","type":"address","internalType":"address"},{"name":"value","type":"uint256","internalType":"uint256"}],"outputs":[{"name":"","type":"bool","internalType":"bool"}],"stateMutability":"nonpayable"},{"type":"function","name":"balanceOf","inputs":[{"name":"account","type":"address","internalType":"address"}],"outputs":[{"name":"","type":"uint256","internalType":"uint256"}],"stateMutability":"view"},{"type":"function","name":"decimals","inputs":[],"outputs":[{"name":"","type":"uint8","internalType":"uint8"}],"stateMutability":"view"},{"type":"function","name":"eip712Domain","inputs":[],"outputs":[{"name":"fields","type":"bytes1","internalType":"bytes1"},{"name":"name","type":"string","internalType":"string"},{"name":"version","type":"string","internalType":"string"},{"name":"chainId","type":"uint256","internalType":"uint256"},{"name":"verifyingContract","type":"address","internalType":"address"},{"name":"salt","type":"bytes32","internalType":"bytes32"},{"name":"extensions","type":"uint256[]","internalType":"uint256[]"}],"stateMutability":"view"},{"type":"function","name":"maxSupply","inputs":[],"outputs":[{"name":"","type":"uint256","internalType":"uint256"}],"stateMutability":"view"},{"type":"function","name":"mint","inputs":[{"name":"account","type":"address","internalType":"address"},{"name":"amount","type":"uint256","internalType":"uint256"}],"outputs":[],"stateMutability":"payable"},{"type":"function","name":"name","inputs":[],"outputs":[{"name":"","type":"string","internalType":"string"}],"stateMutability":"view"},{"type":"function","name":"nonces","inputs":[{"name":"owner","type":"address","internalType":"address"}],"outputs":[{"name":"","type":"uint256","internalType":"uint256"}],"stateMutability":"view"},{"type":"function","name":"owner","inputs":[],"outputs":[{"name":"","type":"address","internalType":"address"}],"stateMutability":"view"},{"type":"function","name":"permit","inputs":[{"name":"owner","type":"address","internalType":"address"},{"name":"spender","type":"address","internalType":"address"},{"name":"value","type":"uint256","internalType":"uint256"},{"name":"deadline","type":"uint256","internalType":"uint256"},{"name":"v","type":"uint8","internalType":"uint8"},{"name":"r","type":"bytes32","internalType":"bytes32"},{"name":"s","type":"bytes32","internalType":"bytes32"}],"outputs":[],"stateMutability":"nonpayable"},{"type":"function","name":"symbol","inputs":[],"outputs":[{"name":"","type":"string","internalType":"string"}],"stateMutability":"view"},{"type":"function","name":"tokenPrice","inputs":[],"outputs":[{"name":"","type":"uint256","internalType":"uint256"}],"stateMutability":"view"},{"type":"function","name":"totalSupply","inputs":[],"outputs":[{"name":"","type":"uint256","internalType":"uint256"}],"stateMutability":"view"},{"type":"function","name":"transfer","inputs":[{"name":"to","type":"address","internalType":"address"},{"name":"value","type":"uint256","internalType":"uint256"}],"outputs":[{"name":"","type":"bool","internalType":"bool"}],"stateMutability":"nonpayable"},{"type":"function","name":"transferFrom","inputs":[{"name":"from","type":"address","internalType":"address"},{"name":"to","type":"address","internalType":"address"},{"name":"value","type":"uint256","internalType":"uint256"}],"outputs":[{"name":"","type":"bool","internalType":"bool"}],"stateMutability":"nonpayable"},{"type":"function","name":"withdraw","inputs":[],"outputs":[],"stateMutability":"nonpayable"},{"type":"event","name":"Approval","inputs":[{"name":"owner","type":"address","indexed":true,"internalType":"address"},{"name":"spender","type":"address","indexed":true,"internalType":"address"},{"name":"value","type":"uint256","indexed":false,"internalType":"uint256"}],"anonymous":false},{"type":"event","name":"EIP712DomainChanged","inputs":[],"anonymous":false},{"type":"event","name":"Transfer","inputs":[{"name":"from","type":"address","indexed":true,"internalType":"address"},{"name":"to","type":"address","indexed":true,"internalType":"address"},{"name":"value","type":"uint256","indexed":false,"internalType":"uint256"}],"anonymous":false},{"type":"error","name":"ECDSAInvalidSignature","inputs":[]},{"type":"error","name":"ECDSAInvalidSignatureLength","inputs":[{"name":"length","type":"uint256","internalType":"uint256"}]},{"type":"error","name":"ECDSAInvalidSignatureS","inputs":[{"name":"s","type":"bytes32","internalType":"bytes32"}]},{"type":"error","name":"ERC20InsufficientAllowance","inputs":[{"name":"spender","type":"address","internalType":"address"},{"name":"allowance","type":"uint256","internalType":"uint256"},{"name":"needed","type":"uint256","internalType":"uint256"}]},{"type":"error","name":"ERC20InsufficientBalance","inputs":[{"name":"sender","type":"address","internalType":"address"},{"name":"balance","type":"uint256","internalType":"uint256"},{"name":"needed","type":"uint256","internalType":"uint256"}]},{"type":"error","name":"ERC20InvalidApprover","inputs":[{"name":"approver","type":"address","internalType":"address"}]},{"type":"error","name":"ERC20InvalidReceiver","inputs":[{"name":"receiver","type":"address","internalType":"address"}]},{"type":"error","name":"ERC20InvalidSender","inputs":[{"name":"sender","type":"address","internalType":"address"}]},{"type":"error","name":"ERC20InvalidSpender","inputs":[{"name":"spender","type":"address","internalType":"address"}]},{"type":"error","name":"ERC2612ExpiredSignature","inputs":[{"name":"deadline","type":"uint256","internalType":"uint256"}]},{"type":"error","name":"ERC2612InvalidSigner","inputs":[{"name":"signer","type":"address","internalType":"address"},{"name":"owner","type":"address","internalType":"address"}]},{"type":"error","name":"InvalidAccountNonce","inputs":[{"name":"account","type":"address","internalType":"address"},{"name":"currentNonce","type":"uint256","internalType":"uint256"}]},{"type":"error","name":"InvalidShortString","inputs":[]},{"type":"error","name":"ReentrancyGuardReentrantCall","inputs":[]},{"type":"error","name":"StringTooLong","inputs":[{"name":"str","type":"string","internalType":"string"}]}],"bytecode":{"object":"0x6101c08060405234620002df5762001c308038038091620000218285620004f7565b8339810160a082820312620002df5781516001600160a01b0381168103620002df5760208301516001600160401b038111620002df57826200006591850162000540565b604084015190926001600160401b038211620002df576200008891850162000540565b926080606082015191015191604051946040860186811060018060401b03821117620002e45760405260018652603160f81b60208701528451906001600160401b038211620002e4576003918254600181811c91168015620004ec575b60208210146200040857601f81116200049f575b50806020601f8211600114620004355760009162000429575b508160011b9160001990851b1c19161782555b8051916001600160401b038311620002e45760045491600183811c931680156200041e575b6020841014620004085782601f85941162000394575b50602090601f84116001146200030657600093620002fa575b50508260011b92600019911b1c1916176004555b62000198846200059b565b93610120948552620001aa8662000740565b9061014091825260208151910120958660e0526020815191012094610100968688524660a0526040519660208801917f8b73c3c69bb8fe3d512ecc4cf759cc79239f7b179b0ffacaa9a75d522b39400f8352604089015260608801524660808801523060a088015260a0875260c087019680881060018060401b03891117620002e45760408890525190206080523060c05260016008556001600160a01b03831615620002df576101609283526101809384526101a09485526113989687620008988839608051876110ba015260a05187611186015260c05187611084015260e051876111090152518661112f015251856106040152518461062e0152518381816105be0152610925015251828181607d0152818161030001526107e301525181818160210152818161072201526108090152f35b600080fd5b634e487b7160e01b600052604160045260246000fd5b01519150388062000179565b600460009081527f8a35acfbc15ff81a39ae7d344fd709f28e8600b4aa8c65c6b64bfe7fe36bd19b9450601f198616905b8181106200037b57509085600196959493921062000360575b50505050811b016004556200018d565b01519060f884600019921b161c191690553880808062000350565b9294602060018192888601518155019601930162000337565b6004600052919250907f8a35acfbc15ff81a39ae7d344fd709f28e8600b4aa8c65c6b64bfe7fe36bd19b601f850160051c81016020861062000400575b9085949392915b601f830160051c82018110620003f057505062000160565b60008155869550600101620003d8565b5080620003d1565b634e487b7160e01b600052602260045260246000fd5b92607f16926200014a565b90508701513862000112565b6000858152602081209250601f198416905b8a8282106200048657505090836001949392106200046d575b5050811b01825562000125565b89015160001983871b60f8161c19169055388062000460565b6001849560209395849301518155019401920162000447565b836000526020600020601f830160051c81019160208410620004e1575b601f0160051c01905b818110620004d45750620000f9565b60008155600101620004c5565b9091508190620004bc565b90607f1690620000e5565b601f909101601f19168101906001600160401b03821190821017620002e457604052565b60005b8381106200052f5750506000910152565b81810151838201526020016200051e565b81601f82011215620002df5780516001600160401b038111620002e4576040519262000577601f8301601f191660200185620004f7565b81845260208284010111620002df576200059891602080850191016200051b565b90565b805160209190828110156200061b575090601f825111620005d95780825192015190808310620005ca57501790565b82600019910360031b1b161790565b6044906200060d9260405193849263305a27a960e01b8452806004850152825192839182602487015286860191016200051b565b601f01601f19168101030190fd5b6001600160401b038111620002e4576005928354926001938481811c9116801562000735575b838210146200040857601f8111620006fe575b5081601f841160011462000694575092829391839260009462000688575b50501b916000199060031b1c191617905560ff90565b01519250388062000672565b919083601f1981168760005284600020946000905b88838310620006e35750505010620006c9575b505050811b01905560ff90565b015160001960f88460031b161c19169055388080620006bc565b858701518855909601959485019487935090810190620006a9565b8560005284601f846000209201871c820191601f8601881c015b8281106200072857505062000654565b6000815501859062000718565b90607f169062000641565b8051602090818110156200076d5750601f825111620005d95780825192015190808310620005ca57501790565b906001600160401b038211620002e457600654926001938481811c911680156200088c575b838210146200040857601f811162000852575b5081601f8411600114620007e65750928293918392600094620007da575b50501b916000199060031b1c19161760065560ff90565b015192503880620007c3565b919083601f198116600660005284600020946000905b888383106200083757505050106200081d575b505050811b0160065560ff90565b015160001960f88460031b161c191690553880806200080f565b858701518855909601959485019487935090810190620007fc565b600660005284601f84600020920160051c820191601f860160051c015b8281106200087f575050620007a5565b600081550185906200086f565b90607f16906200079256fe6080604090808252600490813610156101cd575b50361561001f57600080fd5b7f000000000000000000000000000000000000000000000000000000000000000091821580159061017c57670de0b6b3a7640000803402348104821434151715610167578590049461006f610f49565b61007b86600254610ca6565b7f00000000000000000000000000000000000000000000000000000000000000001061012f5782610118575b50506100db5733156100c4576100bd8333610e48565b6001600855005b906000602492519163ec442f0560e01b8352820152fd5b906020606492519162461bcd60e51b83528201526017602482015276125b9cdd59999a58da595b9d08115d1a195c881cd95b9d604a1b6044820152fd5b61012491925085610cc9565b0434141538806100a7565b835162461bcd60e51b8152602081870152601260248201527145786365656473206d617820737570706c7960701b6044820152606490fd5b601185634e487b7160e01b6000525260246000fd5b815162461bcd60e51b8152602081850152602560248201527f43616e6e6f742073656e64204554482077697468207a65726f20746f6b656e20604482015264707269636560d81b6064820152608490fd5b600090813560e01c90816306fdde0314610b6457508063095ea7b314610b3a57806318160ddd14610b1b57806323b872dd14610a26578063313ce56714610a0a5780633644e515146109e65780633ccfd60b1461090457806340c10f19146107b457806370a082311461077d5780637ecebe00146107455780637ff9b5961461070a57806384b0196e146105ed5780638da5cb5b146105a957806395d89b41146104bb578063a9059cbb1461048a578063d505accf14610323578063d5abeb01146102e85763dd62ed3e036100135782346102e457806003193601126102e457806020926102b9610c75565b6102c1610c90565b6001600160a01b0391821683526001865283832091168252845220549051908152f35b5080fd5b5082346102e457816003193601126102e457602090517f00000000000000000000000000000000000000000000000000000000000000008152f35b5090346102e45760e03660031901126102e45761033e610c75565b610346610c90565b906044359260643560843560ff811681036104865781421161046f5760018060a01b0390818516928389526007602052898920908154916001830190558a519060208201927f6e71edae12b1b97f4d1f60370fef10105fa2faae0126114a169c64845d6126c98452868d840152858a1660608401528a608084015260a083015260c082015260c0815260e0810181811067ffffffffffffffff82111761045c578b5251902061042a91610421916103fb611081565b908c519161190160f01b83526002830152602282015260c43591604260a4359220610f6c565b90929192610ffc565b16818103610441578661043e878787610eb6565b80f35b87516325c0072360e11b815292830152602482015260449150fd5b634e487b7160e01b8b526041875260248bfd5b875163313c898160e11b8152808401839052602490fd5b8680fd5b5082346102e457806003193601126102e4576020906104b46104aa610c75565b6024359033610d6a565b5160018152f35b5091346105a557826003193601126105a557805191838154906104dd82610d30565b8086529260019280841690811561057a575060011461051e575b61051a8686610508828b0383610d0e565b51918291602083526020830190610c35565b0390f35b815294507f8a35acfbc15ff81a39ae7d344fd709f28e8600b4aa8c65c6b64bfe7fe36bd19b5b8286106105625750505061050882602061051a9582010194386104f7565b80546020878701810191909152909501948101610544565b905061051a97508693506020925061050894915060ff191682840152151560051b82010194386104f7565b8280fd5b5082346102e457816003193601126102e457517f00000000000000000000000000000000000000000000000000000000000000006001600160a01b03168152602090f35b5091346105a557826003193601126105a5576106287f00000000000000000000000000000000000000000000000000000000000000006111ac565b926106527f00000000000000000000000000000000000000000000000000000000000000006112a8565b908251926020928385019585871067ffffffffffffffff8811176106f7575092806106ad8388966106a0998b9996528686528151998a99600f60f81b8b5260e0868c015260e08b0190610c35565b91898303908a0152610c35565b924660608801523060808801528460a088015286840360c088015251928381520193925b8281106106e057505050500390f35b8351855286955093810193928101926001016106d1565b634e487b7160e01b845260419052602483fd5b5082346102e457816003193601126102e457602090517f00000000000000000000000000000000000000000000000000000000000000008152f35b5082346102e45760203660031901126102e45760209181906001600160a01b0361076d610c75565b1681526007845220549051908152f35b5082346102e45760203660031901126102e45760209181906001600160a01b036107a5610c75565b16815280845220549051908152f35b5090826003193601126102e4576107c9610c75565b602435916107d5610f49565b6107e183600254610ca6565b7f0000000000000000000000000000000000000000000000000000000000000000106108cc577f000000000000000000000000000000000000000000000000000000000000000080151590816108ad575b50610870576001600160a01b0382161561085957509061085191610e48565b600160085580f35b845163ec442f0560e01b8152908101849052602490fd5b606490602086519162461bcd60e51b83528201526017602482015276125b9cdd59999a58da595b9d08115d1a195c881cd95b9d604a1b6044820152fd5b670de0b6b3a764000091506108c29085610cc9565b0434141538610832565b606490602086519162461bcd60e51b8352820152601260248201527145786365656473206d617820737570706c7960701b6044820152fd5b5091346105a557826003193601126105a55761091e610f49565b82808080477f00000000000000000000000000000000000000000000000000000000000000006001600160a01b03165af13d156109e1573d67ffffffffffffffff81116109ce5782519061097c601f8201601f191660200183610d0e565b81528460203d92013e5b156109945782600160085580f35b906020606492519162461bcd60e51b835282015260146024820152732330b4b632b2103a379039b2b7321022ba3432b960611b6044820152fd5b634e487b7160e01b855260418452602485fd5b610986565b5082346102e457816003193601126102e457602090610a03611081565b9051908152f35b5082346102e457816003193601126102e4576020905160128152f35b5034610b18576060366003190112610b1857610a40610c75565b610a48610c90565b916044359360018060a01b038316808352600160205286832033845260205286832054916000198303610a84575b6020886104b4898989610d6a565b868310610aec578115610ad5573315610abe575082526001602090815286832033845281529186902090859003905582906104b438610a76565b8751634a1406b160e11b8152908101849052602490fd5b875163e602df0560e01b8152908101849052602490fd5b8751637dc7a0d960e11b8152339181019182526020820193909352604081018790528291506060010390fd5b80fd5b5082346102e457816003193601126102e4576020906002549051908152f35b5082346102e457806003193601126102e4576020906104b4610b5a610c75565b6024359033610eb6565b905083346105a557826003193601126105a55782600354610b8481610d30565b80855291600191808316908115610c0d5750600114610bb0575b5050506105088261051a940383610d0e565b9450600385527fc2575a0e9e593c00f959f8c92f12db2869c3395a3b0502d05e2516446f71f85b5b828610610bf55750505061050882602061051a9582010194610b9e565b80546020878701810191909152909501948101610bd8565b61051a97508693506020925061050894915060ff191682840152151560051b82010194610b9e565b919082519283825260005b848110610c61575050826000602080949584010152601f8019910116010190565b602081830181015184830182015201610c40565b600435906001600160a01b0382168203610c8b57565b600080fd5b602435906001600160a01b0382168203610c8b57565b91908201809211610cb357565b634e487b7160e01b600052601160045260246000fd5b81810292918115918404141715610cb357565b6040810190811067ffffffffffffffff821117610cf857604052565b634e487b7160e01b600052604160045260246000fd5b90601f8019910116810190811067ffffffffffffffff821117610cf857604052565b90600182811c92168015610d60575b6020831014610d4a57565b634e487b7160e01b600052602260045260246000fd5b91607f1691610d3f565b916001600160a01b03808416928315610e2f5716928315610e165760009083825281602052604082205490838210610de4575091604082827fddf252ad1be2c89b69c2b068fc378daa952ba7f163c4a11628f55a4df523b3ef958760209652828652038282205586815220818154019055604051908152a3565b60405163391434e360e21b81526001600160a01b03919091166004820152602481019190915260448101839052606490fd5b60405163ec442f0560e01b815260006004820152602490fd5b604051634b637e8f60e11b815260006004820152602490fd5b7fddf252ad1be2c89b69c2b068fc378daa952ba7f163c4a11628f55a4df523b3ef6020600092610e7a85600254610ca6565b6002556001600160a01b03169384158414610ea15780600254036002555b604051908152a3565b84845283825260408420818154019055610e98565b6001600160a01b03908116918215610f305716918215610f175760207f8c5be1e5ebec7d5bd14f71427d1e84f3dd0314c0f7b2291e5b200ac8c7c3b925918360005260018252604060002085600052825280604060002055604051908152a3565b604051634a1406b160e11b815260006004820152602490fd5b60405163e602df0560e01b815260006004820152602490fd5b600260085414610f5a576002600855565b604051633ee5aeb560e01b8152600490fd5b91907f7fffffffffffffffffffffffffffffff5d576e7357a4501ddfe92f46681b20a08411610ff057926020929160ff608095604051948552168484015260408301526060820152600092839182805260015afa15610fe45780516001600160a01b03811615610fdb57918190565b50809160019190565b604051903d90823e3d90fd5b50505060009160039190565b600481101561106b578061100e575050565b600181036110285760405163f645eedf60e01b8152600490fd5b600281036110495760405163fce698f760e01b815260048101839052602490fd5b6003146110535750565b602490604051906335e2f38360e21b82526004820152fd5b634e487b7160e01b600052602160045260246000fd5b307f00000000000000000000000000000000000000000000000000000000000000006001600160a01b03161480611183575b156110dc577f000000000000000000000000000000000000000000000000000000000000000090565b60405160208101907f8b73c3c69bb8fe3d512ecc4cf759cc79239f7b179b0ffacaa9a75d522b39400f82527f000000000000000000000000000000000000000000000000000000000000000060408201527f000000000000000000000000000000000000000000000000000000000000000060608201524660808201523060a082015260a0815260c0810181811067ffffffffffffffff821117610cf85760405251902090565b507f000000000000000000000000000000000000000000000000000000000000000046146110b3565b60ff81146111ea5760ff811690601f82116111d857604051916111ce83610cdc565b8252602082015290565b604051632cd44ac360e21b8152600490fd5b506040516005548160006111fd83610d30565b808352926001908181169081156112865750600114611227575b5061122492500382610d0e565b90565b6005600090815291507f036b6384b5eca791c62761152d0c79bb0604c104a5fb6f4eb0703f3154bb3db05b84831061126b5750611224935050810160200138611217565b81935090816020925483858901015201910190918492611252565b90506020925061122494915060ff191682840152151560051b82010138611217565b60ff81146112ca5760ff811690601f82116111d857604051916111ce83610cdc565b506040516006548160006112dd83610d30565b808352926001908181169081156112865750600114611303575061122492500382610d0e565b6006600090815291507ff652222313e28459528d920b65115c16c04f3efc82aaedc97be59f3f377c0d3f5b8483106113475750611224935050810160200138611217565b8193509081602092548385890101520191019091849261132e56fea264697066735822122044afb821647fc367ee36effca2055e5a161a62d0d60b8144458ddf4a3fbf4fb764736f6c63430008140033","linkReferences":{}},"methodIdentifiers":{"DOMAIN_SEPARATOR()":"3644e515","allowance(address,address)":"dd62ed3e","approve(address,uint256)":"095ea7b3","balanceOf(address)":"70a08231","decimals()":"313ce567","eip712Domain()":"84b0196e","maxSupply()":"d5abeb01","mint(address,uint256)":"40c10f19","name()":"06fdde03","nonces(address)":"7ecebe00","owner()":"8da5cb5b","permit(address,address,uint256,uint256,uint8,bytes32,bytes32)":"d505accf","symbol()":"95d89b41","tokenPrice()":"7ff9b596","totalSupply()":"18160ddd","transfer(address,uint256)":"a9059cbb","transferFrom(address,address,uint256)":"23b872dd","withdraw()":"3ccfd60b"},"id":12}