{"abi":[{"type":"constructor","inputs":[{"name":"_owner","type":"address","internalType":"address"},{"name":"_name","type":"string","internalType":"string"},{"name":"_symbol","type":"string","internalType":"string"},{"name":"_maxSupply","type":"uint256","internalType":"uint256"},{"name":"_tokenPrice","type":"uint256","internalType":"uint256"},{"name":"baseURI_","type":"string","internalType":"string"}],"stateMutability":"nonpayable"},{"type":"receive","stateMutability":"payable"},{"type":"function","name":"approve","inputs":[{"name":"to","type":"address","internalType":"address"},{"name":"tokenId","type":"uint256","internalType":"uint256"}],"outputs":[],"stateMutability":"nonpayable"},{"type":"function","name":"balanceOf","inputs":[{"name":"owner","type":"address","internalType":"address"}],"outputs":[{"name":"","type":"uint256","internalType":"uint256"}],"stateMutability":"view"},{"type":"function","name":"baseURI","inputs":[],"outputs":[{"name":"","type":"string","internalType":"string"}],"stateMutability":"view"},{"type":"function","name":"getApproved","inputs":[{"name":"tokenId","type":"uint256","internalType":"uint256"}],"outputs":[{"name":"","type":"address","internalType":"address"}],"stateMutability":"view"},{"type":"function","name":"isApprovedForAll","inputs":[{"name":"owner","type":"address","internalType":"address"},{"name":"operator","type":"address","internalType":"address"}],"outputs":[{"name":"","type":"bool","internalType":"bool"}],"stateMutability":"view"},{"type":"function","name":"maxSupply","inputs":[],"outputs":[{"name":"","type":"uint256","internalType":"uint256"}],"stateMutability":"view"},{"type":"function","name":"mint","inputs":[{"name":"account","type":"address","internalType":"address"},{"name":"amount","type":"uint256","internalType":"uint256"}],"outputs":[],"stateMutability":"payable"},{"type":"function","name":"name","inputs":[],"outputs":[{"name":"","type":"string","internalType":"string"}],"stateMutability":"view"},{"type":"function","name":"owner","inputs":[],"outputs":[{"name":"","type":"address","internalType":"address"}],"stateMutability":"view"},{"type":"function","name":"ownerOf","inputs":[{"name":"tokenId","type":"uint256","internalType":"uint256"}],"outputs":[{"name":"","type":"address","internalType":"address"}],"stateMutability":"view"},{"type":"function","name":"safeTransferFrom","inputs":[{"name":"from","type":"address","internalType":"address"},{"name":"to","type":"address","internalType":"address"},{"name":"tokenId","type":"uint256","internalType":"uint256"}],"outputs":[],"stateMutability":"nonpayable"},{"type":"function","name":"safeTransferFrom","inputs":[{"name":"from","type":"address","internalType":"address"},{"name":"to","type":"address","internalType":"address"},{"name":"tokenId","type":"uint256","internalType":"uint256"},{"name":"data","type":"bytes","internalType":"bytes"}],"outputs":[],"stateMutability":"nonpayable"},{"type":"function","name":"setApprovalForAll","inputs":[{"name":"operator","type":"address","internalType":"address"},{"name":"approved","type":"bool","internalType":"bool"}],"outputs":[],"stateMutability":"nonpayable"},{"type":"function","name":"supportsInterface","inputs":[{"name":"interfaceId","type":"bytes4","internalType":"bytes4"}],"outputs":[{"name":"","type":"bool","internalType":"bool"}],"stateMutability":"view"},{"type":"function","name":"symbol","inputs":[],"outputs":[{"name":"","type":"string","internalType":"string"}],"stateMutability":"view"},{"type":"function","name":"tokenPrice","inputs":[],"outputs":[{"name":"","type":"uint256","internalType":"uint256"}],"stateMutability":"view"},{"type":"function","name":"tokenURI","inputs":[{"name":"tokenId","type":"uint256","internalType":"uint256"}],"outputs":[{"name":"","type":"string","internalType":"string"}],"stateMutability":"view"},{"type":"function","name":"totalSupply","inputs":[],"outputs":[{"name":"","type":"uint256","internalType":"uint256"}],"stateMutability":"view"},{"type":"function","name":"transferFrom","inputs":[{"name":"from","type":"address","internalType":"address"},{"name":"to","type":"address","internalType":"address"},{"name":"tokenId","type":"uint256","internalType":"uint256"}],"outputs":[],"stateMutability":"nonpayable"},{"type":"function","name":"withdraw","inputs":[],"outputs":[],"stateMutability":"nonpayable"},{"type":"event","name":"Approval","inputs":[{"name":"owner","type":"address","indexed":true,"internalType":"address"},{"name":"approved","type":"address","indexed":true,"internalType":"address"},{"name":"tokenId","type":"uint256","indexed":true,"internalType":"uint256"}],"anonymous":false},{"type":"event","name":"ApprovalForAll","inputs":[{"name":"owner","type":"address","indexed":true,"internalType":"address"},{"name":"operator","type":"address","indexed":true,"internalType":"address"},{"name":"approved","type":"bool","indexed":false,"internalType":"bool"}],"anonymous":false},{"type":"event","name":"Transfer","inputs":[{"name":"from","type":"address","indexed":true,"internalType":"address"},{"name":"to","type":"address","indexed":true,"internalType":"address"},{"name":"tokenId","type":"uint256","indexed":true,"internalType":"uint256"}],"anonymous":false},{"type":"error","name":"ERC721IncorrectOwner","inputs":[{"name":"sender","type":"address","internalType":"address"},{"name":"tokenId","type":"uint256","internalType":"uint256"},{"name":"owner","type":"address","internalType":"address"}]},{"type":"error","name":"ERC721InsufficientApproval","inputs":[{"name":"operator","type":"address","internalType":"address"},{"name":"tokenId","type":"uint256","internalType":"uint256"}]},{"type":"error","name":"ERC721InvalidApprover","inputs":[{"name":"approver","type":"address","internalType":"address"}]},{"type":"error","name":"ERC721InvalidOperator","inputs":[{"name":"operator","type":"address","internalType":"address"}]},{"type":"error","name":"ERC721InvalidOwner","inputs":[{"name":"owner","type":"address","internalType":"address"}]},{"type":"error","name":"ERC721InvalidReceiver","inputs":[{"name":"receiver","type":"address","internalType":"address"}]},{"type":"error","name":"ERC721InvalidSender","inputs":[{"name":"sender","type":"address","internalType":"address"}]},{"type":"error","name":"ERC721NonexistentToken","inputs":[{"name":"tokenId","type":"uint256","internalType":"uint256"}]},{"type":"error","name":"ReentrancyGuardReentrantCall","inputs":[]}],"bytecode":{"object":"0x60e060405234620005225762001b2f803803806200001d8162000527565b928339810160c082820312620005225781516001600160a01b0381169290838103620005225760208281015190946001600160401b039490918581116200052257816200006c9186016200054d565b936040810151868111620005225782620000889183016200054d565b9360608201519160808101519360a08201518981116200052257620000ae92016200054d565b938651958887116200050c576000968754986001998a81811c9116801562000501575b8d821014620004ed57908c82601f85941162000496575b50508c908d601f84116001146200042e57508a9262000422575b5050600019600383901b1c191690891b1787555b8051908982116200040e5788548981811c9116801562000403575b8c821014620003ef579081601f8493116200039a575b508b90601f83116001146200033357899262000327575b5050600019600383901b1c191690881b1787555b8660065515620003235760805260a05260c05280519384116200030f576007548381811c9116801562000304575b86821014620002f057601f8111620002a4575b508491601f85116001146200023b5793945084929190836200022f575b50501b916000199060031b1c1916176007555b60405161156f9081620005c082396080518181816108150152610b3f015260a0518181816066015281816103840152610999015260c05181818160200152818161085c01526109bf0152f35b015192503880620001d0565b6007815285812093958591601f198316915b888383106200028957505050106200026f575b505050811b01600755620001e3565b015160001960f88460031b161c1916905538808062000260565b8587015188559096019594850194879350908101906200024d565b60078352858320601f860160051c810191878710620002e5575b601f0160051c019084905b828110620002d9575050620001b3565b848155018490620002c9565b9091508190620002be565b634e487b7160e01b83526022600452602483fd5b90607f1690620001a0565b634e487b7160e01b82526041600452602482fd5b8480fd5b0151905038806200015e565b8a8a528c8a208b94509190601f1984168b8f5b82821062000380575050841162000366575b505050811b01875562000172565b015160001960f88460031b161c1916905538808062000358565b8484015186558e9790950194938401939081019062000346565b9091508989528b8920601f840160051c8101918d8510620003e4575b84939291601f8d920160051c01915b828110620003d557505062000147565b8b81558594508c9101620003c5565b9091508190620003b6565b634e487b7160e01b89526022600452602489fd5b90607f169062000131565b634e487b7160e01b88526041600452602488fd5b01519050388062000102565b91908c9450601f1984168c8052838d20938d905b8282106200047c575050841162000462575b505050811b01875562000116565b015160001960f88460031b161c1916905538808062000454565b8484015186558f9790950194938401939081019062000442565b8b8052818c20929350601f850160051c830192918510620004e2575b84939291601f8e920160051c01915b828110620004d357508e9150620000e8565b8c81558594508d9101620004c1565b9091508190620004b2565b634e487b7160e01b8a52602260045260248afd5b90607f1690620000d1565b634e487b7160e01b600052604160045260246000fd5b600080fd5b6040519190601f01601f191682016001600160401b038111838210176200050c57604052565b919080601f84011215620005225782516001600160401b0381116200050c5760209062000583601f8201601f1916830162000527565b92818452828287010111620005225760005b818110620005ab57508260009394955001015290565b85810183015184820184015282016200059556fe6080604081815260049182361015610236575b50361561001e57600080fd5b7f00000000000000000000000000000000000000000000000000000000000000008015928315936101e55781340493610055611516565b60089283548681018091116101d0577f0000000000000000000000000000000000000000000000000000000000000000106101985781610168575b5061012b5733159392600090815b8581106100ac576001600655005b6100b68554611049565b8086558251906100c582610eee565b88858352610114576001600160a01b036100df823361123d565b166100fd576100f892916100f39133611334565b611049565b61009e565b83516339e3563760e11b8152808701869052602490fd5b8351633250574960e11b8152808701869052602490fd5b606490602084519162461bcd60e51b83528201526017602482015276125b9cdd59999a58da595b9d08115d1a195c881cd95b9d604a1b6044820152fd5b80915085029085820414851517156101835734141538610090565b601182634e487b7160e01b6000525260246000fd5b845162461bcd60e51b8152602081850152601260248201527145786365656473206d617820737570706c7960701b6044820152606490fd5b601184634e487b7160e01b6000525260246000fd5b608490602084519162461bcd60e51b8352820152602560248201527f43616e6e6f742073656e64204554482077697468207a65726f20746f6b656e20604482015264707269636560d81b6064820152fd5b600090813560e01c90816301ffc9a714610dd45750806306fdde0314610d0a578063081812fc14610cce578063095ea7b314610bf157806318160ddd14610bd257806323b872dd14610bba5780633ccfd60b14610b1d57806340c10f191461096357806342842e0e146109345780636352211e146109045780636c0360eb146108d357806370a082311461087f5780637ff9b596146108445780638da5cb5b1461080057806395d89b41146106f7578063a22cb46514610655578063b88d4fde146105c0578063c87b56dd146103a7578063d5abeb011461036c5763e985e9c50361001257903461036857806003193601126103685760ff8160209361033a610e88565b610342610ea3565b6001600160a01b0391821683526005875283832091168252855220549151911615158152f35b5080fd5b509034610368578160031936011261036857602090517f00000000000000000000000000000000000000000000000000000000000000008152f35b5091346105bc57602090816003193601126105b85781929381356103ca816112f9565b506103d3610f42565b80519093901561059c5781829184937a184f03e93ff9f4daa797ed6e38ed64bf6a1f010000000000000000908181101561058f575b5050866d04ee2d6d415b85acef810000000080851015610581575b5050662386f26fc1000080841015610572575b506305f5e10080841015610563575b5061271080841015610555575b50506064821015610545575b600a8092101561053b575b6021908893600192816104968580940161048e6104858261102d565b9951998a610f20565b80895261102d565b878b019890601f1901368a3750860101905b610505575b50505050926104e4926104f09261050195885195836104d58895518092888089019101610e40565b84019151809386840190610e40565b01038084520182610f20565b925b51928284938452830190610e63565b0390f35b600019019083906f181899199a1a9b1b9c1cb0b131b232b360811b8282061a835304918215610536579190826104a8565b6104ad565b9160010191610469565b919060646002910491019161045e565b930192909104903880610452565b60089194930492019238610445565b60109194930492019238610436565b940193909204918638610423565b8a95500492503880610408565b50508451610501935091506105b082610eee565b8152926104f2565b8380fd5b8280fd5b509190346105bc5760803660031901126105bc576105dc610e88565b6105e4610ea3565b60443591856064359567ffffffffffffffff8711610368573660238801121561036857860135956106206106178861102d565b96519687610f20565b8686523660248883010111610368578661065297602460209301838901378601015261064d83838361109e565b61143f565b80f35b509190346105bc57806003193601126105bc57610670610e88565b90602435918215158093036106f3576001600160a01b03169283156106de5750338452600560205280842083855260205280842060ff1981541660ff8416179055519081527f17307eab39ab6107e8899845ad3d59bd9653f200f220920489ca2b5937696c3160203392a380f35b836024925191630b61174360e31b8352820152fd5b8480fd5b50346107fd57806003193601126107fd578151918160019283549384811c918186169586156107f3575b60209687851081146107e0578899509688969785829a5291826000146107b957505060011461075e575b50505061050192916104f2910385610f20565b91908693508083527fb10e2d527612073b26eecdfd717e6a320cf44b4afac2b0732d9fcbe2b7fa0cf65b8284106107a157505050820101816104f261050161074b565b8054848a018601528895508794909301928101610788565b60ff19168782015293151560051b860190930193508492506104f29150610501905061074b565b634e487b7160e01b835260228a52602483fd5b92607f1692610721565b80fd5b509034610368578160031936011261036857517f00000000000000000000000000000000000000000000000000000000000000006001600160a01b03168152602090f35b509034610368578160031936011261036857602090517f00000000000000000000000000000000000000000000000000000000000000008152f35b50346107fd5760203660031901126107fd576001600160a01b036108a1610e88565b169283156108be5750806020938392526003845220549051908152f35b91516322718ad960e21b815291820152602490fd5b509034610368578160031936011261036857610501906108f1610f42565b9051918291602083526020830190610e63565b50346107fd5760203660031901126107fd5750610923602092356112f9565b90516001600160a01b039091168152f35b509034610368576106529061094836610eb9565b9192519261095584610eee565b85845261064d83838361109e565b509190806003193601126105bc57610979610e88565b91602492833593610988611516565b6008928354868101809111610ad5577f000000000000000000000000000000000000000000000000000000000000000010610ae7577f00000000000000000000000000000000000000000000000000000000000000008015159081610aba575b50610a7f576001600160a01b0383811615969590885b878110610a0e5789600160065580f35b610a188754611049565b808855835190610a2782610eee565b8a8c8352610a695783610a3a828a61123d565b16610a5357610a4e92916100f39189611334565b6109fe565b84516339e3563760e11b81528087018d90528790fd5b8451633250574960e11b81528087018d90528790fd5b6017606492602087519362461bcd60e51b855284015282015276125b9cdd59999a58da595b9d08115d1a195c881cd95b9d604a1b6044820152fd5b8091508702908782041487151715610ad557341415386109e8565b50634e487b7160e01b87526011905285fd5b6012606492602087519362461bcd60e51b85528401528201527145786365656473206d617820737570706c7960701b6044820152fd5b509190346105bc57826003193601126105bc57610b38611516565b82808080477f00000000000000000000000000000000000000000000000000000000000000006001600160a01b03165af1610b7161106e565b5015610b805782600160065580f35b906020606492519162461bcd60e51b835282015260146024820152732330b4b632b2103a379039b2b7321022ba3432b960611b6044820152fd5b50346107fd57610652610bcc36610eb9565b9161109e565b5090346103685781600319360112610368576020906008549051908152f35b509190346105bc57806003193601126105bc57610c0c610e88565b91602435610c19816112f9565b33151580610cbb575b80610c92575b610c7c576001600160a01b039485169482918691167f8c5be1e5ebec7d5bd14f71427d1e84f3dd0314c0f7b2291e5b200ac8c7c3b9258880a48452602052822080546001600160a01b031916909117905580f35b835163a9fbf51f60e01b81523381850152602490fd5b506001600160a01b03811686526005602090815284872033885290528386205460ff1615610c28565b506001600160a01b038116331415610c22565b5091346105bc5760203660031901126105bc57918260209335610cf0816112f9565b50825283528190205490516001600160a01b039091168152f35b50346107fd57806003193601126107fd5781519181825492600184811c91818616958615610dca575b60209687851081146107e0578899509688969785829a5291826000146107b9575050600114610d6f5750505061050192916104f2910385610f20565b91908693508280527f290decd9548b62a8d60345a988386fc84ba6bc95484008f6362f93160ef3e5635b828410610db257505050820101816104f261050161074b565b8054848a018601528895508794909301928101610d99565b92607f1692610d33565b905083346105bc5760203660031901126105bc573563ffffffff60e01b81168091036105bc57602092506380ac58cd60e01b8114908115610e2f575b8115610e1e575b5015158152f35b6301ffc9a760e01b14905083610e17565b635b5e139f60e01b81149150610e10565b60005b838110610e535750506000910152565b8181015183820152602001610e43565b90602091610e7c81518092818552858086019101610e40565b601f01601f1916010190565b600435906001600160a01b0382168203610e9e57565b600080fd5b602435906001600160a01b0382168203610e9e57565b6060906003190112610e9e576001600160a01b03906004358281168103610e9e57916024359081168103610e9e579060443590565b6020810190811067ffffffffffffffff821117610f0a57604052565b634e487b7160e01b600052604160045260246000fd5b90601f8019910116810190811067ffffffffffffffff821117610f0a57604052565b60405190600060075490600182811c90808416938415611023575b602094858410811461100f5783885287949392918115610fef5750600114610f90575b5050610f8e92500383610f20565b565b9093915060076000527fa66cc928b5edb82af9bd49922954155ab7b0942694bea4ce44661d9a8736c688936000915b818310610fd7575050610f8e93508201013880610f80565b85548884018501529485019487945091830191610fbf565b915050610f8e94925060ff191682840152151560051b8201013880610f80565b634e487b7160e01b85526022600452602485fd5b91607f1691610f5d565b67ffffffffffffffff8111610f0a57601f01601f191660200190565b60001981146110585760010190565b634e487b7160e01b600052601160045260246000fd5b3d15611099573d9061107f8261102d565b9161108d6040519384610f20565b82523d6000602084013e565b606090565b6001600160a01b0391821692909183156112245760009282845282602095600287526040968488882054169687913315158061118e575b509060027fddf252ad1be2c89b69c2b068fc378daa952ba7f163c4a11628f55a4df523b3ef928461115b575b858352600381528b8320805460010190558683525289812080546001600160a01b0319168517905580a4169283830361113a5750505050565b6064945051926364283d7b60e01b8452600484015260248301526044820152fd5b600087815260046020526040902080546001600160a01b0319169055848352600381528b83208054600019019055611101565b919394509150806111e3575b156111aa578592918791386110d5565b8786886111c7576024915190637e27328960e01b82526004820152fd5b604491519063177e802f60e01b82523360048301526024820152fd5b503387148015611208575b8061119a575085825260048152338589842054161461119a565b5086825260058152878220338352815260ff88832054166111ee565b604051633250574960e11b815260006004820152602490fd5b6000828152600260205260408120546001600160a01b03908116939284917fddf252ad1be2c89b69c2b068fc378daa952ba7f163c4a11628f55a4df523b3ef91836112c4575b1692836112ac575b84815260026020526040812080546001600160a01b0319168517905580a490565b8381526003602052604081206001815401905561128b565b600086815260046020526040902080546001600160a01b03191690558385526003602052604085208054600019019055611283565b6000818152600260205260409020546001600160a01b031690811561131c575090565b60249060405190637e27328960e01b82526004820152fd5b919091803b61134257505050565b60018060a01b03169160405160208180611386630a85bd0160e11b968783523360048401526000968760248501526044840152608060648401526084830190610e63565b038185885af1908290826113f7575b50506113cd57826113a461106e565b80519190826113c657604051633250574960e11b815260048101839052602490fd5b9050602001fd5b6001600160e01b031916036113df5750565b60249060405190633250574960e11b82526004820152fd5b909192506020813d8211611437575b8161141360209383610f20565b810103126103685751906001600160e01b0319821682036107fd5750903880611395565b3d9150611406565b9190803b61144e575b50505050565b61149060018060a01b0380921694604051938493630a85bd0160e11b968786523360048701521660248501526044840152608060648401526084830190610e63565b03906020816000938185885af1908290826114ce575b50506114b557826113a461106e565b6001600160e01b031916036113df575038808080611448565b909192506020813d821161150e575b816114ea60209383610f20565b810103126103685751906001600160e01b0319821682036107fd57509038806114a6565b3d91506114dd565b600260065414611527576002600655565b604051633ee5aeb560e01b8152600490fdfea2646970667358221220a405f66f143669a3105b7852681ccab0ad63be85457fb5d07ca64db657a42cdb64736f6c63430008140033","linkReferences":{}},"methodIdentifiers":{"approve(address,uint256)":"095ea7b3","balanceOf(address)":"70a08231","baseURI()":"6c0360eb","getApproved(uint256)":"081812fc","isApprovedForAll(address,address)":"e985e9c5","maxSupply()":"d5abeb01","mint(address,uint256)":"40c10f19","name()":"06fdde03","owner()":"8da5cb5b","ownerOf(uint256)":"6352211e","safeTransferFrom(address,address,uint256)":"42842e0e","safeTransferFrom(address,address,uint256,bytes)":"b88d4fde","setApprovalForAll(address,bool)":"a22cb465","supportsInterface(bytes4)":"01ffc9a7","symbol()":"95d89b41","tokenPrice()":"7ff9b596","tokenURI(uint256)":"c87b56dd","totalSupply()":"18160ddd","transferFrom(address,address,uint256)":"23b872dd","withdraw()":"3ccfd60b"},"id":13}