{"abi":[{"type":"constructor","inputs":[],"stateMutability":"nonpayable"},{"type":"function","name":"createERC20","inputs":[{"name":"name","type":"string","internalType":"string"},{"name":"symbol","type":"string","internalType":"string"},{"name":"maxSupply","type":"uint256","internalType":"uint256"},{"name":"tokenPrice","type":"uint256","internalType":"uint256"}],"outputs":[{"name":"token","type":"address","internalType":"contract ERC20Toqen"}],"stateMutability":"nonpayable"},{"type":"function","name":"createERC721","inputs":[{"name":"name","type":"string","internalType":"string"},{"name":"symbol","type":"string","internalType":"string"},{"name":"maxSupply","type":"uint256","internalType":"uint256"},{"name":"tokenPrice","type":"uint256","internalType":"uint256"},{"name":"baseURI","type":"string","internalType":"string"}],"outputs":[{"name":"token","type":"address","internalType":"contract ERC721Toqen"}],"stateMutability":"nonpayable"},{"type":"event","name":"TokenCreated","inputs":[{"name":"tokenAddress","type":"address","indexed":true,"internalType":"address"},{"name":"creator","type":"address","indexed":true,"internalType":"address"}],"anonymous":false}],"bytecode":{"object":"0x6080806040523461001657613af7908161001c8239f35b600080fdfe604060808152600490813610156200001657600080fd5b600091823560e01c806327aa3e46146200018c57633649a9bd146200003a57600080fd5b34620001885760a0366003190112620001885767ffffffffffffffff813581811162000184576200006f90369084016200029e565b60243582811162000180576200008990369085016200029e565b6084358381116200017c57620000a390369086016200029e565b91855194611b2f908187019587871090871117620001695750859492620000e9620001169593620000f79362001f93893933865260c0602087015260c086019062000320565b908482038986015262000320565b916044356060820152606435608082015260a081840391015262000320565b039083f080156200015e57905160209290916001600160a01b031690339082907fd5f9bdf12adf29dab0248c349842c3822d53ae2bb4f36352f301630d018c81399080a38152f35b5051903d90823e3d90fd5b634e487b7160e01b895260419052602488fd5b8680fd5b8580fd5b8480fd5b8280fd5b509190346200029a5760803660031901126200029a5767ffffffffffffffff83358181116200029657620001c490369086016200029e565b906024358181116200018457620001df90369087016200029e565b835192611c30808501938411858510176200028357916200021c6200022a9286959462000363873933855260a0602086015260a085019062000320565b908382038785015262000320565b9060443560608201526080606435910152039083f080156200015e57905160209290916001600160a01b031690339082907fd5f9bdf12adf29dab0248c349842c3822d53ae2bb4f36352f301630d018c81399080a38152f35b634e487b7160e01b875260418852602487fd5b8380fd5b5080fd5b81601f82011215620003055780359067ffffffffffffffff928383116200030a5760405193601f8401601f19908116603f01168501908111858210176200030a57604052828452602083830101116200030557816000926020809301838601378301015290565b600080fd5b634e487b7160e01b600052604160045260246000fd5b919082519283825260005b8481106200034d575050826000602080949584010152601f8019910116010190565b6020818301810151848301820152016200032b56fe6101c08060405234620002df5762001c308038038091620000218285620004f7565b8339810160a082820312620002df5781516001600160a01b0381168103620002df5760208301516001600160401b038111620002df57826200006591850162000540565b604084015190926001600160401b038211620002df576200008891850162000540565b926080606082015191015191604051946040860186811060018060401b03821117620002e45760405260018652603160f81b60208701528451906001600160401b038211620002e4576003918254600181811c91168015620004ec575b60208210146200040857601f81116200049f575b50806020601f8211600114620004355760009162000429575b508160011b9160001990851b1c19161782555b8051916001600160401b038311620002e45760045491600183811c931680156200041e575b6020841014620004085782601f85941162000394575b50602090601f84116001146200030657600093620002fa575b50508260011b92600019911b1c1916176004555b62000198846200059b565b93610120948552620001aa8662000740565b9061014091825260208151910120958660e0526020815191012094610100968688524660a0526040519660208801917f8b73c3c69bb8fe3d512ecc4cf759cc79239f7b179b0ffacaa9a75d522b39400f8352604089015260608801524660808801523060a088015260a0875260c087019680881060018060401b03891117620002e45760408890525190206080523060c05260016008556001600160a01b03831615620002df576101609283526101809384526101a09485526113989687620008988839608051876110ba015260a05187611186015260c05187611084015260e051876111090152518661112f015251856106040152518461062e0152518381816105be0152610925015251828181607d0152818161030001526107e301525181818160210152818161072201526108090152f35b600080fd5b634e487b7160e01b600052604160045260246000fd5b01519150388062000179565b600460009081527f8a35acfbc15ff81a39ae7d344fd709f28e8600b4aa8c65c6b64bfe7fe36bd19b9450601f198616905b8181106200037b57509085600196959493921062000360575b50505050811b016004556200018d565b01519060f884600019921b161c191690553880808062000350565b9294602060018192888601518155019601930162000337565b6004600052919250907f8a35acfbc15ff81a39ae7d344fd709f28e8600b4aa8c65c6b64bfe7fe36bd19b601f850160051c81016020861062000400575b9085949392915b601f830160051c82018110620003f057505062000160565b60008155869550600101620003d8565b5080620003d1565b634e487b7160e01b600052602260045260246000fd5b92607f16926200014a565b90508701513862000112565b6000858152602081209250601f198416905b8a8282106200048657505090836001949392106200046d575b5050811b01825562000125565b89015160001983871b60f8161c19169055388062000460565b6001849560209395849301518155019401920162000447565b836000526020600020601f830160051c81019160208410620004e1575b601f0160051c01905b818110620004d45750620000f9565b60008155600101620004c5565b9091508190620004bc565b90607f1690620000e5565b601f909101601f19168101906001600160401b03821190821017620002e457604052565b60005b8381106200052f5750506000910152565b81810151838201526020016200051e565b81601f82011215620002df5780516001600160401b038111620002e4576040519262000577601f8301601f191660200185620004f7565b81845260208284010111620002df576200059891602080850191016200051b565b90565b805160209190828110156200061b575090601f825111620005d95780825192015190808310620005ca57501790565b82600019910360031b1b161790565b6044906200060d9260405193849263305a27a960e01b8452806004850152825192839182602487015286860191016200051b565b601f01601f19168101030190fd5b6001600160401b038111620002e4576005928354926001938481811c9116801562000735575b838210146200040857601f8111620006fe575b5081601f841160011462000694575092829391839260009462000688575b50501b916000199060031b1c191617905560ff90565b01519250388062000672565b919083601f1981168760005284600020946000905b88838310620006e35750505010620006c9575b505050811b01905560ff90565b015160001960f88460031b161c19169055388080620006bc565b858701518855909601959485019487935090810190620006a9565b8560005284601f846000209201871c820191601f8601881c015b8281106200072857505062000654565b6000815501859062000718565b90607f169062000641565b8051602090818110156200076d5750601f825111620005d95780825192015190808310620005ca57501790565b906001600160401b038211620002e457600654926001938481811c911680156200088c575b838210146200040857601f811162000852575b5081601f8411600114620007e65750928293918392600094620007da575b50501b916000199060031b1c19161760065560ff90565b015192503880620007c3565b919083601f198116600660005284600020946000905b888383106200083757505050106200081d575b505050811b0160065560ff90565b015160001960f88460031b161c191690553880806200080f565b858701518855909601959485019487935090810190620007fc565b600660005284601f84600020920160051c820191601f860160051c015b8281106200087f575050620007a5565b600081550185906200086f565b90607f16906200079256fe6080604090808252600490813610156101cd575b50361561001f57600080fd5b7f000000000000000000000000000000000000000000000000000000000000000091821580159061017c57670de0b6b3a7640000803402348104821434151715610167578590049461006f610f49565b61007b86600254610ca6565b7f00000000000000000000000000000000000000000000000000000000000000001061012f5782610118575b50506100db5733156100c4576100bd8333610e48565b6001600855005b906000602492519163ec442f0560e01b8352820152fd5b906020606492519162461bcd60e51b83528201526017602482015276125b9cdd59999a58da595b9d08115d1a195c881cd95b9d604a1b6044820152fd5b61012491925085610cc9565b0434141538806100a7565b835162461bcd60e51b8152602081870152601260248201527145786365656473206d617820737570706c7960701b6044820152606490fd5b601185634e487b7160e01b6000525260246000fd5b815162461bcd60e51b8152602081850152602560248201527f43616e6e6f742073656e64204554482077697468207a65726f20746f6b656e20604482015264707269636560d81b6064820152608490fd5b600090813560e01c90816306fdde0314610b6457508063095ea7b314610b3a57806318160ddd14610b1b57806323b872dd14610a26578063313ce56714610a0a5780633644e515146109e65780633ccfd60b1461090457806340c10f19146107b457806370a082311461077d5780637ecebe00146107455780637ff9b5961461070a57806384b0196e146105ed5780638da5cb5b146105a957806395d89b41146104bb578063a9059cbb1461048a578063d505accf14610323578063d5abeb01146102e85763dd62ed3e036100135782346102e457806003193601126102e457806020926102b9610c75565b6102c1610c90565b6001600160a01b0391821683526001865283832091168252845220549051908152f35b5080fd5b5082346102e457816003193601126102e457602090517f00000000000000000000000000000000000000000000000000000000000000008152f35b5090346102e45760e03660031901126102e45761033e610c75565b610346610c90565b906044359260643560843560ff811681036104865781421161046f5760018060a01b0390818516928389526007602052898920908154916001830190558a519060208201927f6e71edae12b1b97f4d1f60370fef10105fa2faae0126114a169c64845d6126c98452868d840152858a1660608401528a608084015260a083015260c082015260c0815260e0810181811067ffffffffffffffff82111761045c578b5251902061042a91610421916103fb611081565b908c519161190160f01b83526002830152602282015260c43591604260a4359220610f6c565b90929192610ffc565b16818103610441578661043e878787610eb6565b80f35b87516325c0072360e11b815292830152602482015260449150fd5b634e487b7160e01b8b526041875260248bfd5b875163313c898160e11b8152808401839052602490fd5b8680fd5b5082346102e457806003193601126102e4576020906104b46104aa610c75565b6024359033610d6a565b5160018152f35b5091346105a557826003193601126105a557805191838154906104dd82610d30565b8086529260019280841690811561057a575060011461051e575b61051a8686610508828b0383610d0e565b51918291602083526020830190610c35565b0390f35b815294507f8a35acfbc15ff81a39ae7d344fd709f28e8600b4aa8c65c6b64bfe7fe36bd19b5b8286106105625750505061050882602061051a9582010194386104f7565b80546020878701810191909152909501948101610544565b905061051a97508693506020925061050894915060ff191682840152151560051b82010194386104f7565b8280fd5b5082346102e457816003193601126102e457517f00000000000000000000000000000000000000000000000000000000000000006001600160a01b03168152602090f35b5091346105a557826003193601126105a5576106287f00000000000000000000000000000000000000000000000000000000000000006111ac565b926106527f00000000000000000000000000000000000000000000000000000000000000006112a8565b908251926020928385019585871067ffffffffffffffff8811176106f7575092806106ad8388966106a0998b9996528686528151998a99600f60f81b8b5260e0868c015260e08b0190610c35565b91898303908a0152610c35565b924660608801523060808801528460a088015286840360c088015251928381520193925b8281106106e057505050500390f35b8351855286955093810193928101926001016106d1565b634e487b7160e01b845260419052602483fd5b5082346102e457816003193601126102e457602090517f00000000000000000000000000000000000000000000000000000000000000008152f35b5082346102e45760203660031901126102e45760209181906001600160a01b0361076d610c75565b1681526007845220549051908152f35b5082346102e45760203660031901126102e45760209181906001600160a01b036107a5610c75565b16815280845220549051908152f35b5090826003193601126102e4576107c9610c75565b602435916107d5610f49565b6107e183600254610ca6565b7f0000000000000000000000000000000000000000000000000000000000000000106108cc577f000000000000000000000000000000000000000000000000000000000000000080151590816108ad575b50610870576001600160a01b0382161561085957509061085191610e48565b600160085580f35b845163ec442f0560e01b8152908101849052602490fd5b606490602086519162461bcd60e51b83528201526017602482015276125b9cdd59999a58da595b9d08115d1a195c881cd95b9d604a1b6044820152fd5b670de0b6b3a764000091506108c29085610cc9565b0434141538610832565b606490602086519162461bcd60e51b8352820152601260248201527145786365656473206d617820737570706c7960701b6044820152fd5b5091346105a557826003193601126105a55761091e610f49565b82808080477f00000000000000000000000000000000000000000000000000000000000000006001600160a01b03165af13d156109e1573d67ffffffffffffffff81116109ce5782519061097c601f8201601f191660200183610d0e565b81528460203d92013e5b156109945782600160085580f35b906020606492519162461bcd60e51b835282015260146024820152732330b4b632b2103a379039b2b7321022ba3432b960611b6044820152fd5b634e487b7160e01b855260418452602485fd5b610986565b5082346102e457816003193601126102e457602090610a03611081565b9051908152f35b5082346102e457816003193601126102e4576020905160128152f35b5034610b18576060366003190112610b1857610a40610c75565b610a48610c90565b916044359360018060a01b038316808352600160205286832033845260205286832054916000198303610a84575b6020886104b4898989610d6a565b868310610aec578115610ad5573315610abe575082526001602090815286832033845281529186902090859003905582906104b438610a76565b8751634a1406b160e11b8152908101849052602490fd5b875163e602df0560e01b8152908101849052602490fd5b8751637dc7a0d960e11b8152339181019182526020820193909352604081018790528291506060010390fd5b80fd5b5082346102e457816003193601126102e4576020906002549051908152f35b5082346102e457806003193601126102e4576020906104b4610b5a610c75565b6024359033610eb6565b905083346105a557826003193601126105a55782600354610b8481610d30565b80855291600191808316908115610c0d5750600114610bb0575b5050506105088261051a940383610d0e565b9450600385527fc2575a0e9e593c00f959f8c92f12db2869c3395a3b0502d05e2516446f71f85b5b828610610bf55750505061050882602061051a9582010194610b9e565b80546020878701810191909152909501948101610bd8565b61051a97508693506020925061050894915060ff191682840152151560051b82010194610b9e565b919082519283825260005b848110610c61575050826000602080949584010152601f8019910116010190565b602081830181015184830182015201610c40565b600435906001600160a01b0382168203610c8b57565b600080fd5b602435906001600160a01b0382168203610c8b57565b91908201809211610cb357565b634e487b7160e01b600052601160045260246000fd5b81810292918115918404141715610cb357565b6040810190811067ffffffffffffffff821117610cf857604052565b634e487b7160e01b600052604160045260246000fd5b90601f8019910116810190811067ffffffffffffffff821117610cf857604052565b90600182811c92168015610d60575b6020831014610d4a57565b634e487b7160e01b600052602260045260246000fd5b91607f1691610d3f565b916001600160a01b03808416928315610e2f5716928315610e165760009083825281602052604082205490838210610de4575091604082827fddf252ad1be2c89b69c2b068fc378daa952ba7f163c4a11628f55a4df523b3ef958760209652828652038282205586815220818154019055604051908152a3565b60405163391434e360e21b81526001600160a01b03919091166004820152602481019190915260448101839052606490fd5b60405163ec442f0560e01b815260006004820152602490fd5b604051634b637e8f60e11b815260006004820152602490fd5b7fddf252ad1be2c89b69c2b068fc378daa952ba7f163c4a11628f55a4df523b3ef6020600092610e7a85600254610ca6565b6002556001600160a01b03169384158414610ea15780600254036002555b604051908152a3565b84845283825260408420818154019055610e98565b6001600160a01b03908116918215610f305716918215610f175760207f8c5be1e5ebec7d5bd14f71427d1e84f3dd0314c0f7b2291e5b200ac8c7c3b925918360005260018252604060002085600052825280604060002055604051908152a3565b604051634a1406b160e11b815260006004820152602490fd5b60405163e602df0560e01b815260006004820152602490fd5b600260085414610f5a576002600855565b604051633ee5aeb560e01b8152600490fd5b91907f7fffffffffffffffffffffffffffffff5d576e7357a4501ddfe92f46681b20a08411610ff057926020929160ff608095604051948552168484015260408301526060820152600092839182805260015afa15610fe45780516001600160a01b03811615610fdb57918190565b50809160019190565b604051903d90823e3d90fd5b50505060009160039190565b600481101561106b578061100e575050565b600181036110285760405163f645eedf60e01b8152600490fd5b600281036110495760405163fce698f760e01b815260048101839052602490fd5b6003146110535750565b602490604051906335e2f38360e21b82526004820152fd5b634e487b7160e01b600052602160045260246000fd5b307f00000000000000000000000000000000000000000000000000000000000000006001600160a01b03161480611183575b156110dc577f000000000000000000000000000000000000000000000000000000000000000090565b60405160208101907f8b73c3c69bb8fe3d512ecc4cf759cc79239f7b179b0ffacaa9a75d522b39400f82527f000000000000000000000000000000000000000000000000000000000000000060408201527f000000000000000000000000000000000000000000000000000000000000000060608201524660808201523060a082015260a0815260c0810181811067ffffffffffffffff821117610cf85760405251902090565b507f000000000000000000000000000000000000000000000000000000000000000046146110b3565b60ff81146111ea5760ff811690601f82116111d857604051916111ce83610cdc565b8252602082015290565b604051632cd44ac360e21b8152600490fd5b506040516005548160006111fd83610d30565b808352926001908181169081156112865750600114611227575b5061122492500382610d0e565b90565b6005600090815291507f036b6384b5eca791c62761152d0c79bb0604c104a5fb6f4eb0703f3154bb3db05b84831061126b5750611224935050810160200138611217565b81935090816020925483858901015201910190918492611252565b90506020925061122494915060ff191682840152151560051b82010138611217565b60ff81146112ca5760ff811690601f82116111d857604051916111ce83610cdc565b506040516006548160006112dd83610d30565b808352926001908181169081156112865750600114611303575061122492500382610d0e565b6006600090815291507ff652222313e28459528d920b65115c16c04f3efc82aaedc97be59f3f377c0d3f5b8483106113475750611224935050810160200138611217565b8193509081602092548385890101520191019091849261132e56fea264697066735822122039347e8b2c268909e1233c9cebdf749d67cea419bee91c0ee53de1193a0f67e164736f6c6343000814003360e060405234620005225762001b2f803803806200001d8162000527565b928339810160c082820312620005225781516001600160a01b0381169290838103620005225760208281015190946001600160401b039490918581116200052257816200006c9186016200054d565b936040810151868111620005225782620000889183016200054d565b9360608201519160808101519360a08201518981116200052257620000ae92016200054d565b938651958887116200050c576000968754986001998a81811c9116801562000501575b8d821014620004ed57908c82601f85941162000496575b50508c908d601f84116001146200042e57508a9262000422575b5050600019600383901b1c191690891b1787555b8051908982116200040e5788548981811c9116801562000403575b8c821014620003ef579081601f8493116200039a575b508b90601f83116001146200033357899262000327575b5050600019600383901b1c191690881b1787555b8660065515620003235760805260a05260c05280519384116200030f576007548381811c9116801562000304575b86821014620002f057601f8111620002a4575b508491601f85116001146200023b5793945084929190836200022f575b50501b916000199060031b1c1916176007555b60405161156f9081620005c082396080518181816108150152610b3f015260a0518181816066015281816103840152610999015260c05181818160200152818161085c01526109bf0152f35b015192503880620001d0565b6007815285812093958591601f198316915b888383106200028957505050106200026f575b505050811b01600755620001e3565b015160001960f88460031b161c1916905538808062000260565b8587015188559096019594850194879350908101906200024d565b60078352858320601f860160051c810191878710620002e5575b601f0160051c019084905b828110620002d9575050620001b3565b848155018490620002c9565b9091508190620002be565b634e487b7160e01b83526022600452602483fd5b90607f1690620001a0565b634e487b7160e01b82526041600452602482fd5b8480fd5b0151905038806200015e565b8a8a528c8a208b94509190601f1984168b8f5b82821062000380575050841162000366575b505050811b01875562000172565b015160001960f88460031b161c1916905538808062000358565b8484015186558e9790950194938401939081019062000346565b9091508989528b8920601f840160051c8101918d8510620003e4575b84939291601f8d920160051c01915b828110620003d557505062000147565b8b81558594508c9101620003c5565b9091508190620003b6565b634e487b7160e01b89526022600452602489fd5b90607f169062000131565b634e487b7160e01b88526041600452602488fd5b01519050388062000102565b91908c9450601f1984168c8052838d20938d905b8282106200047c575050841162000462575b505050811b01875562000116565b015160001960f88460031b161c1916905538808062000454565b8484015186558f9790950194938401939081019062000442565b8b8052818c20929350601f850160051c830192918510620004e2575b84939291601f8e920160051c01915b828110620004d357508e9150620000e8565b8c81558594508d9101620004c1565b9091508190620004b2565b634e487b7160e01b8a52602260045260248afd5b90607f1690620000d1565b634e487b7160e01b600052604160045260246000fd5b600080fd5b6040519190601f01601f191682016001600160401b038111838210176200050c57604052565b919080601f84011215620005225782516001600160401b0381116200050c5760209062000583601f8201601f1916830162000527565b92818452828287010111620005225760005b818110620005ab57508260009394955001015290565b85810183015184820184015282016200059556fe6080604081815260049182361015610236575b50361561001e57600080fd5b7f00000000000000000000000000000000000000000000000000000000000000008015928315936101e55781340493610055611516565b60089283548681018091116101d0577f0000000000000000000000000000000000000000000000000000000000000000106101985781610168575b5061012b5733159392600090815b8581106100ac576001600655005b6100b68554611049565b8086558251906100c582610eee565b88858352610114576001600160a01b036100df823361123d565b166100fd576100f892916100f39133611334565b611049565b61009e565b83516339e3563760e11b8152808701869052602490fd5b8351633250574960e11b8152808701869052602490fd5b606490602084519162461bcd60e51b83528201526017602482015276125b9cdd59999a58da595b9d08115d1a195c881cd95b9d604a1b6044820152fd5b80915085029085820414851517156101835734141538610090565b601182634e487b7160e01b6000525260246000fd5b845162461bcd60e51b8152602081850152601260248201527145786365656473206d617820737570706c7960701b6044820152606490fd5b601184634e487b7160e01b6000525260246000fd5b608490602084519162461bcd60e51b8352820152602560248201527f43616e6e6f742073656e64204554482077697468207a65726f20746f6b656e20604482015264707269636560d81b6064820152fd5b600090813560e01c90816301ffc9a714610dd45750806306fdde0314610d0a578063081812fc14610cce578063095ea7b314610bf157806318160ddd14610bd257806323b872dd14610bba5780633ccfd60b14610b1d57806340c10f191461096357806342842e0e146109345780636352211e146109045780636c0360eb146108d357806370a082311461087f5780637ff9b596146108445780638da5cb5b1461080057806395d89b41146106f7578063a22cb46514610655578063b88d4fde146105c0578063c87b56dd146103a7578063d5abeb011461036c5763e985e9c50361001257903461036857806003193601126103685760ff8160209361033a610e88565b610342610ea3565b6001600160a01b0391821683526005875283832091168252855220549151911615158152f35b5080fd5b509034610368578160031936011261036857602090517f00000000000000000000000000000000000000000000000000000000000000008152f35b5091346105bc57602090816003193601126105b85781929381356103ca816112f9565b506103d3610f42565b80519093901561059c5781829184937a184f03e93ff9f4daa797ed6e38ed64bf6a1f010000000000000000908181101561058f575b5050866d04ee2d6d415b85acef810000000080851015610581575b5050662386f26fc1000080841015610572575b506305f5e10080841015610563575b5061271080841015610555575b50506064821015610545575b600a8092101561053b575b6021908893600192816104968580940161048e6104858261102d565b9951998a610f20565b80895261102d565b878b019890601f1901368a3750860101905b610505575b50505050926104e4926104f09261050195885195836104d58895518092888089019101610e40565b84019151809386840190610e40565b01038084520182610f20565b925b51928284938452830190610e63565b0390f35b600019019083906f181899199a1a9b1b9c1cb0b131b232b360811b8282061a835304918215610536579190826104a8565b6104ad565b9160010191610469565b919060646002910491019161045e565b930192909104903880610452565b60089194930492019238610445565b60109194930492019238610436565b940193909204918638610423565b8a95500492503880610408565b50508451610501935091506105b082610eee565b8152926104f2565b8380fd5b8280fd5b509190346105bc5760803660031901126105bc576105dc610e88565b6105e4610ea3565b60443591856064359567ffffffffffffffff8711610368573660238801121561036857860135956106206106178861102d565b96519687610f20565b8686523660248883010111610368578661065297602460209301838901378601015261064d83838361109e565b61143f565b80f35b509190346105bc57806003193601126105bc57610670610e88565b90602435918215158093036106f3576001600160a01b03169283156106de5750338452600560205280842083855260205280842060ff1981541660ff8416179055519081527f17307eab39ab6107e8899845ad3d59bd9653f200f220920489ca2b5937696c3160203392a380f35b836024925191630b61174360e31b8352820152fd5b8480fd5b50346107fd57806003193601126107fd578151918160019283549384811c918186169586156107f3575b60209687851081146107e0578899509688969785829a5291826000146107b957505060011461075e575b50505061050192916104f2910385610f20565b91908693508083527fb10e2d527612073b26eecdfd717e6a320cf44b4afac2b0732d9fcbe2b7fa0cf65b8284106107a157505050820101816104f261050161074b565b8054848a018601528895508794909301928101610788565b60ff19168782015293151560051b860190930193508492506104f29150610501905061074b565b634e487b7160e01b835260228a52602483fd5b92607f1692610721565b80fd5b509034610368578160031936011261036857517f00000000000000000000000000000000000000000000000000000000000000006001600160a01b03168152602090f35b509034610368578160031936011261036857602090517f00000000000000000000000000000000000000000000000000000000000000008152f35b50346107fd5760203660031901126107fd576001600160a01b036108a1610e88565b169283156108be5750806020938392526003845220549051908152f35b91516322718ad960e21b815291820152602490fd5b509034610368578160031936011261036857610501906108f1610f42565b9051918291602083526020830190610e63565b50346107fd5760203660031901126107fd5750610923602092356112f9565b90516001600160a01b039091168152f35b509034610368576106529061094836610eb9565b9192519261095584610eee565b85845261064d83838361109e565b509190806003193601126105bc57610979610e88565b91602492833593610988611516565b6008928354868101809111610ad5577f000000000000000000000000000000000000000000000000000000000000000010610ae7577f00000000000000000000000000000000000000000000000000000000000000008015159081610aba575b50610a7f576001600160a01b0383811615969590885b878110610a0e5789600160065580f35b610a188754611049565b808855835190610a2782610eee565b8a8c8352610a695783610a3a828a61123d565b16610a5357610a4e92916100f39189611334565b6109fe565b84516339e3563760e11b81528087018d90528790fd5b8451633250574960e11b81528087018d90528790fd5b6017606492602087519362461bcd60e51b855284015282015276125b9cdd59999a58da595b9d08115d1a195c881cd95b9d604a1b6044820152fd5b8091508702908782041487151715610ad557341415386109e8565b50634e487b7160e01b87526011905285fd5b6012606492602087519362461bcd60e51b85528401528201527145786365656473206d617820737570706c7960701b6044820152fd5b509190346105bc57826003193601126105bc57610b38611516565b82808080477f00000000000000000000000000000000000000000000000000000000000000006001600160a01b03165af1610b7161106e565b5015610b805782600160065580f35b906020606492519162461bcd60e51b835282015260146024820152732330b4b632b2103a379039b2b7321022ba3432b960611b6044820152fd5b50346107fd57610652610bcc36610eb9565b9161109e565b5090346103685781600319360112610368576020906008549051908152f35b509190346105bc57806003193601126105bc57610c0c610e88565b91602435610c19816112f9565b33151580610cbb575b80610c92575b610c7c576001600160a01b039485169482918691167f8c5be1e5ebec7d5bd14f71427d1e84f3dd0314c0f7b2291e5b200ac8c7c3b9258880a48452602052822080546001600160a01b031916909117905580f35b835163a9fbf51f60e01b81523381850152602490fd5b506001600160a01b03811686526005602090815284872033885290528386205460ff1615610c28565b506001600160a01b038116331415610c22565b5091346105bc5760203660031901126105bc57918260209335610cf0816112f9565b50825283528190205490516001600160a01b039091168152f35b50346107fd57806003193601126107fd5781519181825492600184811c91818616958615610dca575b60209687851081146107e0578899509688969785829a5291826000146107b9575050600114610d6f5750505061050192916104f2910385610f20565b91908693508280527f290decd9548b62a8d60345a988386fc84ba6bc95484008f6362f93160ef3e5635b828410610db257505050820101816104f261050161074b565b8054848a018601528895508794909301928101610d99565b92607f1692610d33565b905083346105bc5760203660031901126105bc573563ffffffff60e01b81168091036105bc57602092506380ac58cd60e01b8114908115610e2f575b8115610e1e575b5015158152f35b6301ffc9a760e01b14905083610e17565b635b5e139f60e01b81149150610e10565b60005b838110610e535750506000910152565b8181015183820152602001610e43565b90602091610e7c81518092818552858086019101610e40565b601f01601f1916010190565b600435906001600160a01b0382168203610e9e57565b600080fd5b602435906001600160a01b0382168203610e9e57565b6060906003190112610e9e576001600160a01b03906004358281168103610e9e57916024359081168103610e9e579060443590565b6020810190811067ffffffffffffffff821117610f0a57604052565b634e487b7160e01b600052604160045260246000fd5b90601f8019910116810190811067ffffffffffffffff821117610f0a57604052565b60405190600060075490600182811c90808416938415611023575b602094858410811461100f5783885287949392918115610fef5750600114610f90575b5050610f8e92500383610f20565b565b9093915060076000527fa66cc928b5edb82af9bd49922954155ab7b0942694bea4ce44661d9a8736c688936000915b818310610fd7575050610f8e93508201013880610f80565b85548884018501529485019487945091830191610fbf565b915050610f8e94925060ff191682840152151560051b8201013880610f80565b634e487b7160e01b85526022600452602485fd5b91607f1691610f5d565b67ffffffffffffffff8111610f0a57601f01601f191660200190565b60001981146110585760010190565b634e487b7160e01b600052601160045260246000fd5b3d15611099573d9061107f8261102d565b9161108d6040519384610f20565b82523d6000602084013e565b606090565b6001600160a01b0391821692909183156112245760009282845282602095600287526040968488882054169687913315158061118e575b509060027fddf252ad1be2c89b69c2b068fc378daa952ba7f163c4a11628f55a4df523b3ef928461115b575b858352600381528b8320805460010190558683525289812080546001600160a01b0319168517905580a4169283830361113a5750505050565b6064945051926364283d7b60e01b8452600484015260248301526044820152fd5b600087815260046020526040902080546001600160a01b0319169055848352600381528b83208054600019019055611101565b919394509150806111e3575b156111aa578592918791386110d5565b8786886111c7576024915190637e27328960e01b82526004820152fd5b604491519063177e802f60e01b82523360048301526024820152fd5b503387148015611208575b8061119a575085825260048152338589842054161461119a565b5086825260058152878220338352815260ff88832054166111ee565b604051633250574960e11b815260006004820152602490fd5b6000828152600260205260408120546001600160a01b03908116939284917fddf252ad1be2c89b69c2b068fc378daa952ba7f163c4a11628f55a4df523b3ef91836112c4575b1692836112ac575b84815260026020526040812080546001600160a01b0319168517905580a490565b8381526003602052604081206001815401905561128b565b600086815260046020526040902080546001600160a01b03191690558385526003602052604085208054600019019055611283565b6000818152600260205260409020546001600160a01b031690811561131c575090565b60249060405190637e27328960e01b82526004820152fd5b919091803b61134257505050565b60018060a01b03169160405160208180611386630a85bd0160e11b968783523360048401526000968760248501526044840152608060648401526084830190610e63565b038185885af1908290826113f7575b50506113cd57826113a461106e565b80519190826113c657604051633250574960e11b815260048101839052602490fd5b9050602001fd5b6001600160e01b031916036113df5750565b60249060405190633250574960e11b82526004820152fd5b909192506020813d8211611437575b8161141360209383610f20565b810103126103685751906001600160e01b0319821682036107fd5750903880611395565b3d9150611406565b9190803b61144e575b50505050565b61149060018060a01b0380921694604051938493630a85bd0160e11b968786523360048701521660248501526044840152608060648401526084830190610e63565b03906020816000938185885af1908290826114ce575b50506114b557826113a461106e565b6001600160e01b031916036113df575038808080611448565b909192506020813d821161150e575b816114ea60209383610f20565b810103126103685751906001600160e01b0319821682036107fd57509038806114a6565b3d91506114dd565b600260065414611527576002600655565b604051633ee5aeb560e01b8152600490fdfea264697066735822122024da65d1ccee3dd5b892b7c75f6ad92bfb1d18ecfcb1c1ddebde7d4ee0509ad764736f6c63430008140033a26469706673582212203847a3140a18bc5ba762148ec87d0e00c928874557cea798ff81b89027c5a2e164736f6c63430008140033","linkReferences":{}},"methodIdentifiers":{"createERC20(string,string,uint256,uint256)":"27aa3e46","createERC721(string,string,uint256,uint256,string)":"3649a9bd"},"id":12}